:020000040000FA
:10000000D0200020D5000000F9000000F90D00000C
:1000100000000000000000000000000000000000E0
:100020000000000000000000000000000D010000C2
:1000300000000000000000000F0100002913000074
:10004000130100007D1600001301000013010000E1
:100050003D0D0000490D00001301000013010000D8
:1000600081140000130100001301000013010000BF
:10007000ED14000013010000130100001301000043
:1000800039120000130100000D0E000013010000E2
:100090001301000013010000130100001301000010
:1000A00013010000130100001301000051100000B3
:1000B00019120000D9010000130100001301000013
:1000C0000348854600F06CF800480047813900007D
:1000D000D0200020144815490160154901601549D8
:1000E0000160154A154911600021016014488047DC
:1000F0001448804714480047FEE706980188134AD1
:10010000914202D1043006907047FEE7FEE7FEE719
:10011000FEE77047ABBE01E000207047002A00D028
:1001200010600120704700000001005059000000DD
:10013000160000008800000024000050A55A0000AE
:100140007D140000BD410000C1000000ABBE0000F6
:1001500030B50B46014600202022012409E00D465F
:10016000D5409D4205D31D469540491B25469540E7
:1001700040191546521E002DF1DC30BDD2B201E00F
:100180000270401C491EFBD270470022F6E710B5F2
:1001900013460A4604461946FFF7F0FF204610BDF5
:1001A000064C0125064E05E02046E36807C82B43B0
:1001B00098471034B442F7D3FFF786FF3049000068
:1001C0005049000003498000401800688005800DF8
:1001D0007047000000000E4010B509490120086377
:1001E0000020FFF7EFFF04460420FFF7EBFF05496F
:1001F00088630020C881204601F0A4FB10BD0000E8
:1002000000000E401C00002002498A6802438A60F8
:10021000704700000002005003480068002801D029
:1002200000207047012070476842005002490120B9
:1002300008600249086070477C0300207842005043
:1002400010B500F009F80349C96A491CFFF780FF9F
:1002500010BD000000020050F8B51E4D28691E4A6E
:100260004407640F0ED01D4B022C0DD0012C0BD077
:10027000032C2CD01846A9690907090F491CFFF760
:1002800067FFF8BD1046F6E715A000680090296AE0
:10029000002005263604314215D1080300D51A4640
:1002A00010468A030FD40A04920F6B469B5CCA0562
:1002B0008904D20DC90E921C891C800859435043F1
:1002C000FFF746FF8000012CD5D14008D3E7054851
:1002D000D1E7000000020050001BB7000080510170
:1002E000010202041027000010B500F0D5FF2648D7
:1002F0004168032211434160244C206801210843D6
:100300002060E068C007C00FFBD021482062E16890
:1003100004200142FBD021690220C908C900014321
:100320002161E16A012081430143E16201F060F84B
:10033000184800F0D9FF606903210907884360610C
:10034000E069FF2101318843E06160698000800835
:100350006061E06949008843E0610321A068090504
:100360000843A0600121090505200007C2680A436F
:10037000C260C2688A43C26001F00EFA02490020DE
:10038000C031086010BD0000400000500002005065
:10039000544A000070170000F8B5624801786248BE
:1003A000604D007800246D1FA02908D0691D0A78CF
:1003B000A22A6ED0A02008702C706C7096E0594B69
:1003C0005849584AAE783B33491FD21C1F78896977
:1003D0009278330001F0A8F90B0D070E2F4B6F8CAC
:1003E000221A2F5E0D004F48C01C87702C7002F03F
:1003F00099F8F8BD4B4FFF1C3E463836715C8A4277
:1004000069D804F0A5F83178B9702EE0454FFF1C8B
:100410003E463836715C8A424AD3F2E74149286940
:100420003B31095CA8618A4202D90220A87052E0DF
:100430000820A8703CE0BA423AD1032E04D03B48D1
:100440000178012905D00CE001F01AFD03F0E8FC69
:100450000BE00470364881684908490081603548DE
:1004600004600220A87004F031F92C70F8BDBA4283
:100470000CD16C7001F004FD2C702F4B0022022176
:10048000287904F041F8012068612FE001206870AC
:100490000EE041E0BA4208D16C616C7001F0F0FCF2
:1004A000A86901F023FF2C7020E0012068706861CA
:1004B00004F0BEF8F8BD1B4E3B36BA4208D16C7052
:1004C00004F0DAF901206870022004F053F802E029
:1004D000705C824202D904F0F9F8F8BD04F042F8E9
:1004E0006C701048317881702C706C61AC70F8BD04
:1004F0000C48C01CBA4202D069690129C6D16C708F
:10050000877004F0B9F92C700220A8700648002208
:100510000A4B0321007802E0084B0022012103F07E
:10052000F3FFF8BDC90300209D0300202D0100202A
:100530000000134010010020111D0000990300006D
:1005400003480068002801D0002070470120704750
:10055000A842005003480068002801D000207047DE
:1005600001207047A8420050F8B507468C461B484A
:1005700002210170002545708570C570102303713C
:10058000CF2343711323164E8371B4880346641C32
:10059000B4805C72240A9C72DA71120A1A72C772F1
:1005A000624602733246303293794373C21D32621F
:1005B000857314785578D67864199578AD196419CF
:1005C000157952796419A218D21882730F22401C2F
:1005D00004F05EF902F0BEFCF8BD000084070020C4
:1005E000A400002008B50120694608700246C32116
:1005F000684604F04DF902F0ADFC08BDF0B50E48B8
:100600008478A02C16D00E49002009780B4D0426C2
:10061000CBB241004919098B002908D02A1811468C
:1006200040310F7AA74202D1203216740B75401C5C
:100630000C28EED3F0BD0000A40000202407002009
:10064000DC0300200020044A052113182033401C3D
:1006500019770C28F9D37047240700200248042298
:100660004169114341617047A400002070B500F05A
:100670008DFA354C6078002801D00A2043E0334DD4
:10068000FF262E602069324988423ED1A069401C75
:10069000A06100F0B5FA2C482C30007801282CD14C
:1006A000A06A401CA062C00704D0E288A1780120A3
:1006B000FFF75AFF032003F05DFF207DC00704D041
:1006C000E28800210220FFF74FFF032003F052FFD2
:1006D000207D400704D5E28800210520FFF744FF74
:1006E000032003F047FF207D800706D51948E288E4
:1006F0000078C1B2A07800F05DF8A069401CA0614C
:100700000A2819D90820A06116E002F015F912484C
:100710000078022810D011480078002802D0012863
:1007200006D008E00E480078082804D0012000E038
:100730000520286000E02E600A4B00220A49E0787C
:1007400003F0E2FE70BD0000A4000020F8020020CB
:1007500055AA0000DC030020740000207500002072
:10076000D00200206D060000DC05000070B50024FA
:1007700002F000FC0C490022C8700C4B05258A6170
:1007800061005A52C918641C0D830A2CF8D3064A1A
:10079000FF2108329170517011707D21044B0022AD
:1007A000C90003F0B1FE70BDA400002024070020A2
:1007B0006D060000F8B506460F4618480221017084
:1007C000002545708570C57010230371CF234371D8
:1007D00013238371124B9C88641C9C8003465C72BB
:1007E000240A9C72DA71120A1A720422C272067307
:1007F0004773C379047A857A1B19447AFAB264196B
:100800001B191B1DF4B21B199A1882730F22401C6E
:1008100004F03EF802F09EFBF8BD000084070020C3
:10082000A4000020054807210163016A0222114348
:1008300001620349100708607047000000000E4085
:1008400000E100E0F7B50D460446FFF7F9FC0A2188
:100850004843A900FFF77CFC401D0A21FFF778FC04
:10086000164E451E164FB44205D1601500F0EFFC40
:10087000B868611506E0FF20013000F0E8FCB868B8
:10088000FF2101310843B8602069284320610298A4
:1008900000280DD020688021084320600948844248
:1008A00001D1122002E0B44202D1132000F0A0FCDA
:1008B0002068402108432060FEBD00000000124077
:1008C000000200500000024004498A6802438A6026
:1008D00001200349C00608607047000000001A406C
:1008E00000E100E0FFB52449224F1D46BA140B0178
:1008F0004E0181B00446B84202D1886810430AE034
:100900001E48844202D18868184304E01C4884428F
:1009100002D1886830438860BC4201D1104608E0AB
:100920001648844201D1184603E01548844205D197
:10093000304600F095FC202D03D003E0002005B0E8
:10094000F0BD00252068F8218843202D00D1002526
:10095000E900084320600298216801229204914333
:1009600001432160039821680622914301432160DD
:100970000120E4E700000340000200500040034073
:100980000000134010B5826882608A0004D50268B6
:1009900001235B071A430260890603D541692022BF
:1009A000114341610949884201D1082004E0074907
:1009B0002031884203D1092000F024FC10BD0449F5
:1009C000884201D10A20F7E70B20F5E7000001403B
:1009D00000001140F8B5044611481D4616460F4662
:1009E000844201D104200BE00D482030844201D123
:1009F000082005E00B48844201D1102000E02020AF
:100A0000FFF702FCA06803210843A060A069012150
:100A10000843A06166600449E81940182060F8BDE9
:100A200000000140000011400000010242680A433A
:100A30004260054A0549904202D10120000301E0CD
:100A400001204003086070470000054000E100E01D
:100A5000F8B50546264E0C46086871690322120651
:100A60009143014371616068B1690F221202000273
:100A7000FF38914301380143B1611E48854201D1DD
:100A8000F70101E001277F04384600F0F2FBB0686F
:100A90003843B060A96806200143A960E069A968ED
:100AA000F02291430143A960A1692069084361696B
:100AB0000843E968402211400143E9602420005DB9
:100AC000296A090A0902014329620326206A3607B6
:100AD000B042E168A06804D1FFF73AFB801E3043C2
:100AE00003E0FFF735FB0009801E68620120F8BDB6
:100AF000000200500000054010B500F0C3FB00F0FC
:100B0000ADFD012000F06AFB01490020086010BD26
:100B10000001005010B500F0B5FB0848016808223C
:100B2000114301600168402211430160012000F07F
:100B300069FB03490020086010BD00000040004030
:100B40000001005070B515460C46064600F09AFBB1
:100B50000120FFF759FB0A484169890889002143B0
:100B6000416108483106026807231B029A43090CB9
:100B70000A430260E9B2416003490020086070BD89
:100B800000020050004000400001005010B501215B
:100B9000212003F0A3FA02F0DDF909494878012881
:100BA00006D008480078CC2804D0552804D005E0A9
:100BB000002010BD044800E004480861012010BD79
:100BC000A400002000070020AA55000055AA00003C
:100BD00008B50AA0006800903720694608703520E3
:100BE0004870302088700322C621684603F050FE0A
:100BF000142003F0BFFC02F0ADF908BD50723100C3
:100C000010B503213F2003F069FA0B4A11785078A0
:100C100092780B1893420CD1CB070849DB0F0B706D
:100C2000042303408B70082318404870D007C00F7E
:100C3000C87002F08FF910BD00070020D00000201E
:100C400008B50120694608700246CA21684603F0CB
:100C50001FFE02F07FF9FFF7F5FC08BD08B5002084
:100C6000694608700122CA21684603F011FE02F0AD
:100C700071F908BDF8B52F4C0546A0684008400042
:100C8000A06020680127FF04B8432060A068012607
:100C90003043A0600821062003F01EFCA068B0438A
:100CA000A060A0683043A0600821D82003F014FCA5
:100CB0001821284603F010FCA068B043A060A0688B
:100CC0003043A0600821042003F006FCA068B04374
:100CD000A060A068B043A0602068B8432060A0680E
:100CE0003043A0600821052003F0F6FB0821FF2017
:100CF00003F0F2FB2069104D12E0A06840084000AC
:100D0000A0602068B8432060A0683043A06008213C
:100D1000052003F0E1FB0821FF2003F0DDFB206943
:100D20002870A06840084000A0602878C007E4D17F
:100D3000F8BD0000000013402E01002001490120F1
:100D4000886070478C0300200123064899020162E5
:100D500082698A438261C169034A9143C161034840
:100D60008360704780400050000400048C03002022
:100D700010B50368490003248C40A3438A40134301
:100D8000036010BD10B50368490003248C40A343E1
:100D90008A401343036010BD10B503684900032463
:100DA0008C40A3438A401343036010BD10B5036811
:100DB000490003248C40A3438A401343036010BDC1
:100DC00010B50368490003248C40A3438A401343B1
:100DD000036010BD10B5EFF31084012080F310887C
:100DE000FFF782FA84F3108803F0ECFB01F0D8FDE2
:100DF00002F02CFB10BD000003490248C860BFF39D
:100E0000408FFEE70400FA0500ED00E0F8B54D481C
:100E1000C1688C4641690422C907C90F1825A32659
:100E2000494B002907D04169914341614269012141
:100E30000A43426151E0D9680C78E707674609D058
:100E4000482F4AD045DC082F4CD0102F4AD0402FD5
:100E500043D14AE0082F0CD0182F0CD0282F10D0E7
:100E60000168382F2DD029430160416991434161C8
:100E700036E0846040E0CA788C68531CCB70A15C7B
:100E80001DE04E78012E10D08E78CC78A64212D27A
:100E900004682C430460446994434461A0201870A2
:100EA000896808700020D860F8BD012214430C70D6
:100EB00000F053F8F8BD621C8B68CA70195D816040
:100EC0001AE029430160416991434161A1201870F2
:100ED000F8BD502F2DD0582F11D001682943016043
:100EE0001E70F8BD01210C43C3E78B78C9788B4293
:100EF000016825D91143016000F028F8F8BD846825
:100F0000CA788B68571CCF709C5402682A430260D1
:100F10008878CA78904207D20B4AA020107089685E
:100F200008700020D060F8BD074800210670C1603D
:100F3000F8BD8468CB788D685E1CCE70EC54D4E725
:100F40009143D8E7000002401401002001683022DC
:100F500091430822114301607047016810229143B8
:100F6000282211430160704710B505210446090786
:100F7000886B0F221043886323480269FF23E13303
:100F80001A4302618A6B83019A438A63026983036D
:100F90001A4302611D480122C3699B089B00134349
:100FA000C3618368020513438360C8681043C86047
:100FB000C8689043C86000F037F800F03FF8144864
:100FC000844201D1032008E01248844201D1062066
:100FD00003E01148844202D10C2000F0F5F8E10151
:100FE0000E48FFF7B5F8401D0A21FFF7B1F80C498C
:100FF000401E4A68FF231B029A43000202434A60D4
:101000000848086010BD0000400000500002005079
:1010100080BB0000C05D0000E02E0000B0BFF02BE0
:1010200000001A4031920000034801680122D204F6
:10103000114301607047000000001A400348016836
:1010400001229204114301607047000000001A4021
:10105000FEB550488069504CE0625048C268214655
:10106000A2618A624169009140694D4B0E0C0025D6
:1010700001909E4201D00E0C02D1060C9E421CD063
:10108000030C1AD02570E561464E3378012B1ED033
:10109000D301D700DB0FFF0FBB4202D1A161019149
:1010A00000900098019B0102C91821633E4909780C
:1010B000002913D00095019512E0E3693B4E5B1CBB
:1010C000E361B342E0D90123E5612370DCE70095D9
:1010D00001A96846019501F013FB22E0002801DC1C
:1010E00000984042011432480368C9180160019811
:1010F000002801DD014600E041422E4F09143B6803
:10110000C9183960110706D5110FC90703D0009916
:10111000A1610191009028480078002801D0009535
:1011200001952648264A0078264F022830781ED09E
:1011300001281ED00098616A031488001352019B95
:1011400080181B14491C43806162B94200D3656258
:10115000206A8100535A89181B0400934988401C57
:10116000090401912062B8420DD325620BE00128E9
:1011700009D1616A880015528018491C4580616256
:10118000B94200D365620549019808610098086179
:10119000FEBD000000E000E0DC00002000001A407E
:1011A000FFFF00002D01002060000020C05D000056
:1011B000C8020020CC02002063000020750000203F
:1011C000540800208603000003494A68D208D20070
:1011D00002434A607047000000001A40C106C90E71
:1011E00001208840014908607047000080E100E06C
:1011F000C106C90E012088400149086070470000FF
:1012000000E100E0C106C90E0120884001490860E4
:101210007047000000E100E010B500F047F8022040
:1012200002F0E4F87D20000103F0A4F90149002058
:10123000086010BD0001005070470268F8239A430F
:10124000202900D10021C9000A430260704705210E
:101250000907CA680243CA60CA688243CA60704705
:1012600005210907CA680243CA60CA688243CA6086
:10127000704705210907CA680243CA60CA688243E9
:10128000CA60704703485921016016210160882116
:101290000160704700010050034859210160162188
:1012A0000160882101607047000100500348592106
:1012B0000160162101608821016070470001005023
:1012C000034859210160162101608821016070479F
:1012D0000001005003485921016016210160882156
:1012E000016070470001005030B50002000A0B4950
:1012F000401E48610A48C26903241202120A4B04C4
:101300001A43C26100208861064B10201A693825F3
:10131000AA4302431A610C6130BD000000E000E006
:1013200004ED00E000020050F8B5274D2868401C8D
:1013300028602649884204D925482860012002F007
:101340001EFB24480026007800280DD022480068A3
:101350000028686901D0401C6861642805D91F49CC
:1013600001206E61087000E06E611D4F002422466E
:101370000C204243D019417800290CD04168002943
:1013800002D0491E416006D1B95C002903D08068B3
:10139000002800D08047641C0A2CE8D31148016A59
:1013A0000122D202114301620F49E8680A688018DD
:1013B000E8600E482A690368D2182A6106600E6048
:1013C00001F086FEF8BD00009C060020FFFFFF3FF5
:1013D000102700008C030020604200508D03002085
:1013E0004819002000000E40C8020020CC02002056
:1013F00038B51CA000681C4C0090216A0020221304
:10140000114216D1080301D5184800E018488A0394
:101410000FD40A04920F6B469B5CCA058904D20D57
:10142000C90E921C891C800859435043FEF790FE58
:101430008000104DA86021694907490F022903D097
:10144000880029460C310858A1690907090F491C71
:10145000FEF77EFE084928604A108018FEF778FEE5
:10146000686038BD01020204000200500080510192
:10147000001BB7000000002040420F007047000032
:1014800070B51748826801210A438260154B00221B
:10149000D86A401CD862C82800D9DA629869114C11
:1014A000800054342558D86A0F4E854201D93160E6
:1014B00000E03260DD69AD0066590B4D08358642AB
:1014C00001D9296000E02A601B6A9B00E458064BA2
:1014D0001B1D844201D9196070BD1A6070BD0000E7
:1014E00000000140D002002030420050F0B52A4FE9
:1014F000F869B915294E2A4D084203D1F869090146
:10150000084226D0A968AA69FF310131B8690123D0
:101510009B03184217D13868C4B26868884201D862
:10152000FF2A11D9204601F00DFF286A401C2862CD
:101530000D2C08D1002028622879401EC0B23454F6
:10154000A868401EA860F0BDC3B2F454401C686097
:10155000DCE7F8690121490208421149C968F2D063
:10156000104B01242869E405884202D2BA6922425C
:101570000BD08842E7D17A68022082437A6001204A
:101580006861C8B2E8602861F0BDC205D20D9A5CFE
:101590003A60401C2861E7E700000540C0190020C0
:1015A000B4060020C01A002010B50949AA220A700A
:1015B00000224A7003238B700223CB700A7148719A
:1015C000401D40428871072003F01AF910BD000049
:1015D000C01C002010B50220FFF7E6FF10BD10B5BB
:1015E0005D20FFF7E1FF10BD10B50420FFF7DCFF21
:1015F00010BD10B53220FFF7D7FF10BD10B5052084
:10160000FFF7D2FF10BD000010B500F053F8012223
:1016100003210520FFF796FAFFF748FE00F04AF88D
:1016200000F024F800F012F80648016810229143F7
:101630000160054A00211160016802221143016026
:1016400010BD000000400040000100500248016849
:1016500004221143016070470040004002480168C5
:1016600040229143016070470040004002480168F9
:1016700080221143016070470040004010B500F027
:1016800031F8FFF713FE094C206808210843206059
:1016900000F010F82068072109028843052109029B
:1016A0000843206002490020086010BD004000404F
:1016B0000001005002480168012211430160704797
:1016C0000040004002480168012211430160704758
:1016D0000040004002480168012211430160704748
:1016E0000040004010B5002203210520FFF72AFA30
:1016F000FFF710FAFFF7DAFDFFF7DCFFFFF7B6FFA1
:10170000FFF7A4FF06480168102211430160016839
:1017100002229143016003490020086010BD0000CF
:10172000004000400001005030B47446641E25782B
:10173000641CAB4200D21D46635D5B00E31830BC05
:10174000184702E008C8121F08C1002AFAD17047E2
:101750007047002001E001C1121F002AFBD1704731
:10176000F8B50C4D00242C60032002F019FF2E1F49
:101770003460032002F014FF01272F60062002F0DE
:101780000FFF2C60062002F00BFF3760032002F0F1
:1017900007FFF8BD2C4200500C4841690C229143D0
:1017A00041618169FF221204914302021143816168
:1017B0008268C1040A43826005200007C2680A43A8
:1017C000C260C2688A43C2607047000000020050D5
:1017D00070B500F0C7FD01250024304E002815D15A
:1017E0002F480078002811D0F0697D22401CF0615C
:1017F000716912014A43904210D90A290CD0812004
:1018000002F0BDF801F06CFBF4610AE0306A401EA2
:10181000306206D13562F7E78020F1E7632800D90E
:1018200035622048204900780978214A08431F4939
:10183000106809D0401C7D231B011060984207D915
:101840000D70401E106004E0401C1A4B1060F5E75C
:101850000C7019480460194804601948046019485C
:101860000460B16BF06B4118F163B069401CB0616A
:1018700080280FD3C809092292011349B461F0638B
:10188000904201D2022004E010480068002802D0F3
:101890000320087070BD0D7070BD00001C0000209A
:1018A00074000020EC060020750000206500002078
:1018B0006C00002010270000A8060020AC060020C5
:1018C000CC020020C802002098030020A44200504F
:1018D000F8B505210907C86B01252843C8631648D8
:1018E0004269860232434261CA6B10231A43CA63BB
:1018F0004169870339434161104C0022114620465B
:10190000FFF736FA002204212046FFF731FA60681B
:101910003043606060683843606009480821026AAB
:101920000C239A430A430262426A11210A4342622B
:10193000016A29430162F8BD40000050C0400050D8
:1019400000000E4070B541490A89904201D9821ABF
:1019500000E0121A0023732A03DD4B818B8108817A
:1019600070BD8A89121894B28C810881088ACA894C
:10197000801882B20A824889401C80B248810828B7
:10198000EED1E008D2084B81888116464A82B93EE2
:10199000A3242F4D0B821F2E02D22C70A1220CE00B
:1019A0001646FF3E8A3E272E01D22C700EE0294EAD
:1019B00096193F2E03D22C70A2228A6207E0254E90
:1019C000CC3E92192B2A02D2A0222A708C627D244E
:1019D000E4000B22A04232D81F4CA0422FD81E4C4C
:1019E000283CA04201D9092025E05F24E400A04260
:1019F00025D82D242401A04201D90A201BE0A524CA
:101A0000A400A0421BD89B24A400A04201D90C2012
:101A100011E0124CA04212D8104C283CA04201D92F
:101A2000082008E0FF247D34A04208D8FF24553464
:101A3000A04202D90720C87002E0002804D0CA7072
:101A40008B81C878087170BDCB70F9E71C0000204D
:101A5000A6000020B7FDFFFF610300002B0200007D
:101A60000E4BFF21D878FF2804D09A79824205D105
:101A700019700EE01970D97199710DE0DA79FF2AA9
:101A800004D0824202D11870987102E0D8711970A6
:101A90009971002800D11870187870471C00002038
:101AA0000E4AFF20507011781046C078FF2903D0ED
:101AB0000521C943D1620CE0D16A491CD1620129D8
:101AC00001DA507105E00021D1625179814200D1E3
:101AD0005070072800D15070507870471C000020CB
:101AE00070B5FFF7BDFF1D4C2070FFF7D9FF1C4DEF
:101AF0006070287800280CD0012802D0022808D174
:101B000002E001F079F901E001F06EF9287802288D
:101B100001D0FFF75DFE606A002802D080470020F8
:101B20006062616BA06A81420BD00E4909680E4A5F
:101B3000914206D96063A2280AD0A1280BD000F0F8
:101B400073FB0A4B00221E21A07802F0DDFC70BD61
:101B500000F008FBF5E700F0A3FAF2E71C00002014
:101B6000740000209C06002088130000E11A000089
:101B700010B5FFF7ADFE0A480168FF22120291433B
:101B80000122D20311430160FEF74CFE01F0F2F98D
:101B90000449054B887000221E2102F0B5FC10BDDF
:101BA0001CE400E01C000020E11A000010B5134BFB
:101BB000DA68904203D192681278A02A0AD1027999
:101BC000C2709A680024002A12D0002909D05968EE
:101BD000884201D1002010BDC160586001F078FA40
:101BE00009E0904202D15968002901D0D06000E09C
:101BF00058609860C460012010BD000014010020EE
:101C000010B51B4C20786178084329D12046083054
:101C1000017808380079A22923D0A1691F2912D29E
:101C2000491CA16102F094FCA06900F05FFBFEF783
:101C3000E5FC002001F0DAFB642002F09BFC0D487B
:101C4000007801F0D3FB0C480078022808D10B483B
:101C50000078A02804D00A480222016811430160DC
:101C600010BD084B0022022102F04EFC10BD000006
:101C7000C4030020D002002075000020A600002030
:101C8000B8000020891C000010B51B4C207861783A
:101C9000084329D120460830017808380079A22964
:101CA00023D0A169002912D0491EA16102F050FC85
:101CB000A06900F01BFBFEF7A1FC002001F096FBE1
:101CC000642002F057FC0D48007801F08FFB0C48AF
:101CD0000078022808D10B480078A02804D00A48D0
:101CE000022201681143016010BD084B002202214D
:101CF00002F00AFC10BD0000C4030020D002002046
:101D000075000020A6000020B8000020891C0000FB
:101D100010B506490820086006487D21044B0022C2
:101D2000C900007902F0F0FB10BD0000D4020020D1
:101D3000111D0000C4030020FEB50024364E2546C8
:101D400027467470B770A2203070012002460090C0
:101D5000022338210196314801F0E8FA00212F488A
:101D6000FFF724FF3078A228FCD02C49B07810313E
:101D70000855062C34D0082C3ED0092C3CD00A2C17
:101D80003AD025496200783151184978884200D00C
:101D90000125FFF795FAFFF795FC21480760641CC1
:101DA000162CCED32D207070B770A2203070012079
:101DB00002460090022338210196184801F0B6FA35
:101DC00000211648FFF7F2FE3078A228FCD0134914
:101DD000B078103188757F2800D001252846FEBDD7
:101DE0000D480838C0780028887902D01E28CFD145
:101DF000CFE71028CCD1CCE70749620078315118E1
:101E000049788842C4D3DF28C3D903480838806999
:101E10000028BDD1BDE70000CC0300202019002020
:101E20000001005010B501F0A5F80149087110BD7E
:101E3000C4030020F8B50024462001F0A0FD0E4D9B
:101E40000E4F002628194178285D00F093F8A41C55
:101E5000FFF736FAFFF736FC3E60582CF2D3DD214F
:101E6000052000F087F8044878380078A02802D1CF
:101E7000472001F084FDF8BD44040020000100501B
:101E800010B504490120C8701E21062000F072F828
:101E900010BD0000C403002010B508488169002966
:101EA00000D141614178002905D14069002803D063
:101EB000052000F0D9FB10BD0420FAE7C403002080
:101EC00010B57D21052000F055F810BD05480179B9
:101ED000C1700549A02008700020083948700870BA
:101EE0007047000020190020CC030020F8B50D46F3
:101EF0003F2839D83F2D37D8A84235D804461B4E45
:101F000009E0A0008219211D204600F099F8641D07
:101F1000022002F02FFB322CF3D3142002F02AFB14
:101F20000021312000F026F832241BE0E1B2162017
:101F300000F020F8A00081190D4809680746C1612A
:101F40001C37B978172000F015F87978182000F0C0
:101F500011F83978192000F00DF80121262000F041
:101F600009F8641CAC42E1D9F8BD00009C050020D2
:101F7000C40300207CB5054601200E460D4C0090A0
:101F800002230022382101940B4801F0CFF965703B
:101F9000A670A220207000210748FFF707FE2078D6
:101FA000A228FCD02078A32802D1482001F0E7FC29
:101FB0007CBD0000CC03002020190020F8B50D46A0
:101FC0003F283AD83F2D38D8A84236D804461B4E71
:101FD00009E0A0008219211D204600F031F8641D9F
:101FE000022002F0C7FA322CF3D3142002F0C2FA16
:101FF00000213120FFF7BEFF32241CE0E1B21620A1
:10200000FFF7B8FFA00081190C480968D8380746C7
:10201000C1611C37B9781720FFF7ACFF7978182019
:10202000FFF7A8FF39781920FFF7A4FF0121262028
:10203000FFF7A0FF641CAC42E0D9F8BD9C0400206F
:10204000F8B505460024174621463120FFF792FFD8
:10205000E9B21620FFF78EFF104EA000C1190F48FD
:1020600009681C38C1616000251828461730B1780E
:10207000C0B2FFF77FFF284618307178C0B2FFF773
:1020800079FF19353178E8B2FFF774FF641C052C2D
:10209000E3D302212620FFF76DFFF8BDE003002007
:1020A00010B500213120FFF765FF38211620FFF71A
:1020B00061FF7F211720FFF75DFFFF211820FFF749
:1020C00059FFFF211920FFF755FF01212620FFF7B7
:1020D00051FF39211620FFF74DFF00211720FFF790
:1020E00049FF00211820FFF745FF00211920FFF7C5
:1020F00041FF01212620FFF73DFF3A211620FFF77F
:1021000039FF7F211720FFF735FFFF211820FFF748
:1021100031FFFF211920FFF72DFF01212620FFF7B6
:1021200029FF3B211620FFF725FF00211720FFF78D
:1021300021FF00211820FFF71DFF00211920FFF7C4
:1021400019FF01212620FFF715FF054804490078F3
:102150003839887000210120FFF70CFF10BD000006
:102160000404002010B500213120FFF703FF3921BE
:102170001620FFF7FFFE7F211720FFF7FBFEFF2150
:102180001820FFF7F7FEFF211920FFF7F3FE0121CA
:102190002620FFF7EFFE38211620FFF7EBFE002187
:1021A0001720FFF7E7FE00211820FFF7E3FE0021CC
:1021B0001920FFF7DFFE01212620FFF7DBFE3B2180
:1021C0001620FFF7D7FE7F211720FFF7D3FEFF2150
:1021D0001820FFF7CFFEFF211920FFF7CBFE0121CA
:1021E0002620FFF7C7FE3A211620FFF7C3FE002185
:1021F0001720FFF7BFFE00211820FFF7BBFE0021CC
:102200001920FFF7B7FE01212620FFF7B3FEC021FA
:102210000120FFF7AFFE0348024900783839887083
:1022200010BD00000404002010B500213120FFF78C
:10223000A1FE38211620FFF79DFE7F211720FFF712
:1022400099FEFF211820FFF795FEFF211920FFF7C7
:1022500091FE01212620FFF78DFE39211620FFF780
:1022600089FE00211720FFF785FE00211820FFF7C7
:1022700081FE00211920FFF77DFE01212620FFF7B6
:1022800079FE3B211620FFF775FE7F211720FFF70F
:1022900071FEFF211820FFF76DFEFF211920FFF7C7
:1022A00069FE01212620FFF765FE3A211620FFF77F
:1022B00061FE00211720FFF75DFE00211820FFF7C7
:1022C00059FE00211920FFF755FE01212620FFF7B6
:1022D00051FE80210120FFF74DFE0348024900789E
:1022E0003839887010BD00000404002070B5044621
:1022F00000210720FFF73EFE0748015D0A20FFF797
:1023000039FE054D0920203D295DFFF733FE295D8B
:102310000820FFF72FFE70BD2404002010B5052013
:1023200002F028F9FEF75EF9052002F023F91021EA
:102330000620FFF71FFEC0210C20FFF71BFE0348FD
:10234000024900783839887010BD0000040400206C
:1023500003480078A32801D000207047012070476F
:10236000CC0300200F4800681A2801D2402004E066
:102370001D2801D2602000E080200B490B4A09781B
:102380001268114300D1802009490968890A8142F5
:1023900004D808490968890A814201D90120704797
:1023A00000207047DC030020750000207803002027
:1023B000A8060020AC0600200A4859210160162119
:1023C0000160882101600320052109074860064853
:1023D000016889088900891C016005490348C860B3
:1023E000FEE700000001005000C000500400FA05A4
:1023F00000ED00E0F0B52D4D296BA86A491C29635A
:10240000C90718D06A6A2827511C2C6D00260300C2
:10241000FFF78AF9081105121C2633414411AE61F9
:102420002E626962132902D9781AE86100E0E96135
:10243000272900D96E62F0BDEE612E626962132910
:1024400002D9781AA861F3E7A961F0BDEE61AE6127
:102450006962132902D9781A2862E9E72962F0BD76
:10246000EE616962132906D9781A2862272900D9F2
:102470006E62286A0BE02962FBE76962132908D9BA
:10248000781AE861272900D96E62E8692862A86194
:10249000F0BDE961F9E7142A02D103E0002A01D076
:1024A0002046B4E7FF20A862F0BD0000D002002063
:1024B00010B50E480E4902680878012A0ED00D4A60
:1024C00012688B68D21A0C4B9A420AD901224A60D0
:1024D0000A4B00220A4902F017F810BD02F02EF84C
:1024E00010BD0022074B0A21F5E700007803002009
:1024F0009C0300209C060020881300000925000092
:10250000DC050000B124000010B503480021416043
:10251000007802F013F810BD9C03002010B500F005
:10252000B7FF10BDF8B5FFF7ABFC3F4E3F4A307820
:1025300012680024411C521E914201D9002000E083
:10254000401CC0B23A4930703A4D085C287000F027
:102550004DFF307802281AD0374F387801F0EEFF5F
:102560003648012101603078344E083E002838D0CA
:10257000334F96203C6001F0FDFFFDF757FEC82069
:1025800001F0F8FF3C6034602E48046026E02C4FD8
:1025900096203C6001F0EEFFFDF748FEC82001F0F8
:1025A000E9FF26483C60046021483178405C28708F
:1025B00000F01CFF254F244E3E60FEF7E7FA386816
:1025C000B0420BD1FEF74AFBC82001F0D3FF1A48F6
:1025D0001F4B00221F49007801F096FF1E4804702F
:1025E00016E0FDF723FEFF202D3001F0C3FF6A2027
:1025F00001F0C5F93A2001F0C2F901203060174915
:10260000174B0C60786000221649387801F07CFF87
:10261000052001F0AFFF02F02FF9287800F0E6FE68
:1026200000F03AF8F8BD0000750000208800002096
:1026300076000020D00200209C030020B44200500D
:102640007C03002078030020AA550000B40000207D
:10265000992E0000C4090000EC0600208003002031
:1026600009250000DC05000010B508490A784B7800
:102670001A4309D1887000F093FC0648044B0022ED
:102680000221007801F040FF10BD0000C4030020CB
:10269000990300009D03002010B509480178427895
:1026A000114301D0002010BD02218170044804496B
:1026B0004030007808318870FDF76EFE012010BDB3
:1026C000C403002010B501213D2001F007FD00F0FA
:1026D00041FC0348017803480170012010BD00004F
:1026E00000070020AC00002010B500240A2000F0F4
:1026F00029FE641C502CF9D30D2000F023FE10BDE0
:10270000F8B5874F05463846803000680C46844649
:10271000394688693B6A86468A6FC86F00264969D0
:10272000002B0FD0FF69BB426FD27D4B61468033D7
:1027300000293AD01E607A492A602060086A401C4D
:102740000862F8BD6346002B08D0754980310E60E1
:102750002A602060386A401C3862F8BD704B012046
:10276000803318609A8810043867188903047B67DF
:102770006C4B5A54491C12125A54491C5854491C47
:1027800000125854491CFF2001307961814205D163
:102790007E61064601461A4670469BE0386F286007
:1027A000796F2160F967B867F8BD5D490120803114
:1027B00008600821FF2001F07DFE5B480069584950
:1027C000C3B2486A1A07401C486206200856120F16
:1027D000844641005248A830415AC808570700D5DE
:1027E0004018970701D54F083818D70701D0890836
:1027F0000818110700D54042494F803779680918F9
:102800004A48814202DD014605E06EE04748C04388
:10281000814200DA01464248803041601830825CD3
:102820009838624452B28271002A01DA867103E05C
:10283000582A01DD582282711A09394B072018568F
:10284000844643003648A830C35AD808570700D5F5
:10285000C018970701D55F083818D70701D09B0823
:102860001818130700D540422D4F8037BB68181841
:102870002E4B984202DCDB43984200DA1846284B84
:10288000B86098339A5C264F624452B2FA71002ABB
:1028900001DAFE7103E0582A01DD5822FA710A04B8
:1028A0003A6702047A671F4B7A699954521C0912DD
:1028B0009954521C9854521C00129854521CFF20D8
:1028C00001307A61824200D068E77E6106460146A7
:1028D0001A46B86901F036FDB8693146FF3001305B
:1028E000B8611048FDF751FC58E70D4F0D4AFE61E5
:1028F00070463E6201F026FD7E610B48BE61816834
:102900004908490081602E602660FEF78DFBFEF7C6
:1029100095FB7E7002203870064905480860F8BDB6
:102920002C0100206C16002000001340FF7F0000E7
:10293000B53D000040000020F8B5174C0027174DAA
:102940006762636A580041190A8B002A1CD02E5A0C
:10295000002E19D0521E0A83E9182031097F05295B
:1029600004D12A5A00210520FDF7FEFD616A3022BC
:102970006818125C042A09D149006A5A4030017D66
:10298000007AFDF717FF01E02F520F83606A401CA9
:1029900060620C28D5D3F8BDA400002024070020D5
:1029A000F8B50F480024046005200007406826465B
:1029B0002021084200D050240A4D0A4F403D28688B
:1029C000002803D0052001F0D5FD04E03E6000247E
:1029D00028680028FCD0641C642CF0D3F8BD0000EB
:1029E0005C000020A042005010B5002801D101F089
:1029F000D3F810BDF8B50026354634463746FF28D3
:102A000003D0E7490F60E7490F601E22E64BE74914
:102A1000082875D011DC002820D0042871D00628A1
:102A200070D0072819D1E24D0F60287800F0DEFC45
:102A3000E048E14EC760477188E009286FD00A2856
:102A400023D00C2809D11A600F60FFF71DF9D9486F
:102A5000C76047710D2000F092FFF8BD0B2000F019
:102A60008EFF7D24E400D54D0BE0012001F082FDB6
:102A7000761CA64205D9002000F0B8FC00F030FA20
:102A8000F8BD28780028F0D0F8BD1A600F60FFF775
:102A9000B7F8C848C76047710C20DCE7142001F084
:102AA00069FDE120641C800084422CD9C1488078F3
:102AB000002812D0012000F099FC022001F078F9E2
:102AC000BF49012008607D20C00001F053FD287837
:102AD00000F08CFCB74887703CE0022000F086FCD8
:102AE000032001F065F9B64807607D20C00001F0C1
:102AF00041FD287800F07AFCAE490120887029E079
:102B00009FE09AE041E1C82C20D1AE48007800282F
:102B1000307805D0002819D1FEF770FD1AE013E1D6
:102B2000002813D1A848007800280FD0FEF757FDE1
:102B3000042001F03DF9022000F058FC7D20C00087
:102B400001F018FD287800F051FC03E09B48007864
:102B50000728A3D02046FF38FF21C438C23188425D
:102B60001FD8944CE07800280BD0012000F03EFCE8
:102B70007D20C00001F0FEFC287800F037FCE770F3
:102B8000F8BD022000F032FC7D20C00001F0F2FC14
:102B9000287800F02BFC0120E070642001F0EAFCB2
:102BA0001AE02046FF38C43807D100F01FFC64202B
:102BB00001F0E0FC287800F019FC642CE0D27D4C98
:102BC000E07800280CD0002000F010FC642001F018
:102BD000D1FC287800F00AFC072001F0E9F8F8BDE4
:102BE00078480078022802D004280ED010E030780F
:102BF00000280DD1FEF7F8FCE0790028EFD13F2145
:102C0000FFF774F90120E071F8BD3078002809D091
:102C1000FEF7EFFC002000F0E9FB642001F0AAFCC5
:102C200028781DE0FEF7D6FCE0790128ECD13F21A1
:102C30000020FFF7C3F9E771F8BD1A60FFF72CF920
:102C4000F8BD5C4C0F60E7606771E07800280AD03F
:102C5000002000F0CBFB642001F08CFC544800788D
:102C600000F0C4FBF8BDFDF791FF0028FAD0504EEC
:102C7000307800F0BBFB2BE0142001F07BFC6D1CD6
:102C8000EDB2632D24D94C4800780228EAD0002008
:102C900000F0ACFB642001F06DFC307800F0A6FB86
:102CA0004A4800684A498842DCD1FDF7A9FF4948F3
:102CB0000078002809D000F08FFB002805D0464A94
:102CC0000120116801431160F8BDFDF7B9FFF8BD9F
:102CD0003A4800780828CFD0642DF8D2002000F0C0
:102CE00085FB642001F046FC307800F07FFB324D1C
:102CF000287802281ED001202071FFF7C1F8022099
:102D0000287036488078307000F070FB2C481438FA
:102D10000760FF20F53001F02DFC01F0ADFD14201F
:102D200001F028FC294800682D498842CFD1FDF7E1
:102D300095FFF8BDFFF7A4F8277101202070677098
:102D4000642001F017FCF8BD1A4CA079022809D0C4
:102D5000401C0006000EA07105D0012805D00228F5
:102D600005D00BE0A7710A2002E0082000E009204E
:102D700001F01EF8FF20F53001F0FCFB0C48007854
:102D800000F034FBE7606771F8BD16490868401C25
:102D9000086001F00DF8064807210170F8BD000039
:102DA000E0020020D8020020E402002038000020C9
:102DB000D002002060000020750000201F000020CD
:102DC000C8420050EE060020EC060020B4000020AF
:102DD00055AA0000D0000020B80000207600002096
:102DE000AA5500005401002010B502480078FFF7F2
:102DF000FBFD10BD1C00002010B5094C2078FFF72A
:102E0000F9FD60780A2801D00C2808D1216B491CF3
:102E10002163082903D3FFF7EDFD0020206310BDD7
:102E20001C000020002635463446FDF765FE114F94
:102E3000142001F09FFB002C02D13868002804D137
:102E4000761C032E03D0012C02D00025F0E70124CC
:102E50006D1C0A2DECD1002000F0C8FA05490020B5
:102E600040310860FEF722FA04490348C860BFF306
:102E7000408FFEE7604200500400FA0500ED00E0DC
:102E800000B5034800F080FA02490020886100BDC7
:102E900028490000B406002070B50D4C0B4D25618B
:102EA000FDF774FE2069A8420FD1FDF7D7FE32204E
:102EB00001F060FB0020207001F0E4F90748054BA9
:102EC00000220549007801F01FFB70BDAA550000E3
:102ED000A4000020992E0000C40900009C030020DB
:102EE000F8B5174D01242C7001F0CCF9154E642073
:102EF000347001F03FFB144903200870052000F0F6
:102F000057FF124800270760114801F033FB0F24D8
:102F10002046FFF7EBF9032001F02CFB641EF7D1EC
:102F20000020FFF7E3F9FEF7ABFF37706878002861
:102F300002D000F031FEF8BD00F072FFF8BD0000D5
:102F40008C03002060000020740000207C0300201F
:102F5000DC05000010B5502001F022FB03490120E0
:102F6000086003490020C86010BD000028420050DE
:102F7000A4000020094900200C22424352189278F4
:102F8000002A05D0401CC0B20A28F5D3FF207047A4
:102F90000C220123424351188B70704748190020BE
:102FA00000B50B4881780B00FEF7BEFB0B10071035
:102FB0000707100710100707100005498269403104
:102FC000895C034A083291700121017000BD000044
:102FD000C403002070B50E4D01202C780D492870D7
:102FE00008600C49002008390860052001F0C2FA89
:102FF00009480A4900680002000CC880082804D269
:103000000322000212028018C8802C7070BD0000DC
:1030100075000020B44200500C010020A4000020E4
:10302000F8B50D4C00262660062001F0B9FA0125FE
:10303000271F3D60062001F0B3FA2560032001F050
:10304000AFFA3D68032001F0ABFA2660062001F0DC
:10305000A7FA2846F8BD00002C420050F8B500261B
:103060000C4F8024354600203860062001F098FA85
:1030700001203860062001F093FA0648001F00681E
:10308000002800D0264364086D1C082DEBD3304681
:10309000F8BD00002C420050F8B50C4D00242C6007
:1030A000062001F07DFA01262F1F3E603C2001F032
:1030B00077FA2E60062001F073FA3C60062001F0DA
:1030C0006FFA2C60062001F06BFAF8BD2C4200501C
:1030D000F8B53448002505603348344C0560217844
:1030E000A226334BA02906D0A12930D0A2294FD047
:1030F000A32954D10FE001F033F8E06800284ED046
:1031000026701E461846FDF728FF70690421084303
:103110007061256143E02069401C20610128E0685E
:1031200010D9002802D08068A321017001F018F89E
:10313000A0202070E068002831D026701846FDF7E6
:103140000CFF2CE000282AD00179C170F5E718683F
:103150004027B84318601749B8008A6882438A60DC
:1031600005221207D6680643D660D6688643D66025
:103170008A6802438A601048196901431961186816
:10318000384318601868802108431860A32005E0C0
:103190006069401C6061142802D9A120207065611B
:1031A000F8BD0000CC020020C8020020140100205D
:1031B0000000024000020050F049020070B50546D0
:1031C000104C01202060211D08600F4E02220A21B0
:1031D0003046FDF7D7FD02220B213046FDF7D2FD28
:1031E0000A2001F0DDF900202060142001F0D8F958
:1031F000284600F059F8FFF713FF002800D00120FF
:1032000070BD0000284200500040005070B5084DCD
:1032100000202860062001F0C3F90124281D046065
:10322000062001F0BDF92C60062001F0B9F970BD4F
:103230002842005070B5174C022203212046FDF7AA
:10324000ABFD022211462046FDF7A6FD124841685B
:103250000C221143416041690F2212069143E2049E
:10326000891841610D490868FF2212040225904324
:10327000AA05104308600B4C012209492046FDF7BE
:10328000E1FA606928436061606904210843606174
:1032900070BD0000404100504000005010E400E0CC
:1032A000F049020000000240F1B5802400250F4FD4
:1032B0002E463E60032001F073F90098204204D0AE
:1032C0000A490120091F086002E00848001F066043
:1032D000032001F065F901203860062001F060F953
:1032E00064086D1C082DE4D3F8BD00002C4200508A
:1032F00010B5FDF7A3FE0B4C2068022108432060A7
:10330000FDF792FE20680421084320600846FDF77F
:10331000DBFA054801680902090A620311430160EA
:1033200010BD000000001A4018E400E030B5049D14
:10333000039C017042708370C47004710021856029
:10334000C16030BD30B50D4A022153688B435360D4
:103350000B4B0C4DD968CC05E40D2855491CD960A0
:1033600051680220014351605869012805D10020AD
:103370005861516802200143516030BD0000054092
:10338000B4060020C01A0020F0B5104F00217B6861
:10339000022293437B600E4E0E4C06E0F268D50588
:1033A000ED0D521C6355491CF260435C002BF5D1B6
:1033B00079680220014379607069012805D10020F5
:1033C00070617968022001437960F0BD000005401A
:1033D000B4060020C01A002003488069042801D9DF
:1033E0000020704701207047A4000020F0B50022A3
:1033F0001549102614240A2512270300FEF794F914
:103400000A06080D0B181C1F10140B178A6100E028
:103410008E610A620EE08A610FE00D628A6109E046
:1034200005208D61086201E00D628A61CD61F0BD09
:103430000F628E61CA61F0BD8C610A6202E00D20EC
:103440000F628861CC61F0BDD002002010B50E493A
:1034500000200860091D0860091D08600B4C01224E
:103460000C212046FDF7A2FC01220D212046FDF78C
:103470009DFC01220E212046FDF798FC0020FFF75D
:10348000B5FF01F0B1F810BD3042005000400050CF
:10349000F8B5FE48FE4D017800297BD0A86BFD4FA2
:1034A000401C01260024A86364280BD1FA48007848
:1034B000002806D1012904D1FEF73EFC002800D0E7
:1034C0003E70AC63FEF744FF002822D0686B401CBE
:1034D0006863232801D96C633E70F04F3878012867
:1034E00019D0EF490978814205D0022000F060FC34
:1034F000EB4839780170EB49EB4A08781378984229
:1035000017D0EA4A1078401CC0B210703C280ED088
:103510000FE06C63E1E7E24800780128EBD003207C
:1035200000F046FCDE48397801702C61E3E7147046
:103530000B70087800282ED0387800282BD0DC4873
:103540000078012805D0022823D1DA480078002825
:103550001FD1FEF795FCD8480670D8480470D448AF
:103560000470D74800782870FFF740FFD548066000
:10357000D44808380660FF20F53000F0FBFF01F06A
:103580007BF9142000F0F6FFCF480460CF480470A8
:103590002C617AE077E1C6480078002805D002283F
:1035A00046D1C448007800286FD1FCF735FE0028CA
:1035B00003D0C7480078002804D0BD48007802280E
:1035C00013D035E0FEF75CFCBB480670BB480470C6
:1035D000B7480670BA4840782870FFF707FFB94827
:1035E0000660B8480838046015E0B2480078002842
:1035F0004BD1FEF745FCB0480670B0480470AC48AB
:103600000470AF4800782870FFF7F0FEAD48066000
:10361000AC4808380660FF20F53000F0ABFF01F041
:103620002BF9142000F0A6FFA7480460A7480470F7
:103630009F480078012828D1FCF7EEFD002805D02E
:10364000A3480078042801D002281ED1FEF718FCF8
:103650009948067099480470954804709848007815
:103660002870FFF7C3FE9748066096480838066042
:10367000FF20F53000F07EFF01F0FEF8142000F08E
:1036800079FF91480460914804708B4908780128BB
:1036900003D18A4A1078401C1070884800780A28A4
:1036A00000D90C70AC70FDF771FA002806D0E86CF8
:1036B000002804D1FCF7A2FFEE6400E0EC64287857
:1036C000082814D00020044202D0E868012810D055
:1036D00077480078022819D000282AD06B48007853
:1036E00002284CD07B480078012842D047E00120D6
:1036F000E9E70A20EC60E863032000F059FB38207A
:1037000000F03DF90022744BC82115E168690028DA
:1037100002D0401E6861E5E7FFF75EFE0028E1D1B8
:10372000A86C401CA8640528DCD90320AC64686040
:10373000D8E73978002903D06548007802280BD1F2
:10374000E86B002802D0401EE86305E000290CD099
:103750000620E863032068605D48007800280ED0EA
:103760005948046059480470BCE70820E863052004
:10377000F1E73F210020FEF721FC56480470286C39
:10378000002813D0392000F0FAF8FCF72BFFFEF7E1
:10379000C5FD286C022818D0032819D009202870EC
:1037A000FFF724FE0720FEF75FFF2C642869401C0A
:1037B0002861B42816D91C202C61A860686C401CB4
:1037C0006864012811D96C640FE03948047001E085
:1037D000374806700120FEF747FF4048016840481F
:1037E0000160E2E7A86800284DD0FCF7A9FE002898
:1037F00049D13C483C4E0078012814D0022802D020
:10380000032830D114E03078602802D0602000F026
:10381000B6F8FCF795FE002820D10120FFF7E6FD61
:10382000324804701AE0FCF78BFE002816D11AE02B
:10383000FCF786FE002816D038780028287805D0B6
:10384000092805D1686C002802D007E0092805D0B6
:1038500030785F2802D05F2000F091F8FCF770FE0E
:10386000002849D065E0FCF76BFE002808D0A86866
:103870000C2805D13078612802D0612000F07FF853
:10388000A868401EA8601148007831E0740000204C
:10389000D0020020DC00002062000020EC060020A6
:1038A000ED06002071000020700000207200002052
:1038B00075000020640000206000002061000020EE
:1038C00076000020B44200506C000020650000200B
:1038D000EE060020670000201D250000D403002014
:1038E000DC03002098030020A000002073000020CB
:1038F000002805D000201AE0A868401EA86018E043
:10390000A86AFF2802D0FEF775FD12E0686800285B
:103910000C48007808D0022808D00020FFF766FD88
:103920006868401E686004E0002809D02878FFF726
:103930005DFD054B00221E21687800F0E5FDF8BD15
:103940000720F4E7740000209134000010B5FFF761
:1039500011FB074C6070FFF70DFB0649087060789B
:10396000FF2804D0044B00221E2100F0CDFD10BD25
:10397000D00200208C000020913400007047704776
:1039800010B5FDF727FAFFF7E1FF00F09BFBFEF70C
:1039900049FAFEF7EDF8FCF7E9FE00F0FDF819A092
:1039A000FFF7F2FC1AA0FFF7EFFC1D201C4CC00330
:1039B0002060FDF75FF91B4833210170362141700B
:1039C0003921817002460321206800F0BBFC16A05B
:1039D000FFF7DAFC184A0321206800F03BFD164C83
:1039E00016A1207800F02CFF607816A100F028FFC7
:1039F000A07816A100F024FF164800F0BBFD0020BF
:103A000010BD00006D61696E2D2D30312E0D0A0044
:103A1000626567696E2077726974652E0D0A000011
:103A2000840300206C160020626567696E20726551
:103A300061642E0D0A0000001E18002020627566C9
:103A4000303A200020627566313A200020627566A7
:103A5000323A2000E02E0000F8B50C4C002626601B
:103A6000032000F09DFD0125271F3D60032000F08D
:103A700097FD2560062000F093FD2660062000F0EB
:103A80008FFD3D60032000F08BFDF8BD2C420050FF
:103A9000F8B5012208213E48FDF792F93D4800247F
:103AA00004603B4E0122403605213046FDF788F97F
:103AB000384808380460012203213046FDF780F9B8
:103AC00034485C380460324801220E214038FDF74A
:103AD00077F92F4D0222C03503212846FDF770F9F2
:103AE000022211462846FDF76BF92A487038046017
:103AF0002748012209214038FDF762F924480022B5
:103B000008214038FDF75CF900220A212048FDF722
:103B100057F9204D983D2C601D4F0122803F0F2109
:103B20003846FDF74DF91B482038046001220D216D
:103B30001748FDF745F917480C38046001220221A7
:103B40003046FDF73DF91348303804600022092162
:103B50000F48FDF735F90F486C3804600C48002217
:103B60000A214038FDF72CF92C6000220F2138463D
:103B7000FDF726F901220B210548FDF721F9052063
:103B80000007416B0122920391434163F8BD00009D
:103B900080400050D4420050F8B500F01BFB724842
:103BA00000240470714F447038780125002800D03B
:103BB0003D706F4804606F4804606F4804606F4850
:103BC00004606F4800686F4A002806D014706E4980
:103BD0000868182803D9182004E01570F7E70928A9
:103BE00001D2092008603878684E00287ED06848E5
:103BF0001178405C3070FFF7F9FB6648057000F003
:103C000043FB00F099F95E4840300068002806D078
:103C1000002000F0B5FAA32801D0FEF7CDFB5848EC
:103C2000603005605C4D2868002858D01820FEF7E9
:103C30005DFB16210620FEF79DF90820FFF7D6FB55
:103C4000062000F0B5F8FF202D3000F093FC062090
:103C500000F0AEF8FF202D3000F08CFC4F480470CF
:103C60000620FFF7C3FB1A210620FEF783F9C820C0
:103C700000F080FC0F202860012000F099F8C82097
:103C800000F078FC2868401E2860F5D143481C21CC
:103C900004700620FEF76EF90520FFF7A7FBC82089
:103CA00000F068FC0F202860012000F081F8C82097
:103CB00000F060FC2868401E2860F5D13748047089
:103CC0003078FFF793FB0020FEF710FB1021062051
:103CD000FEF750F97D20C00000F04CFC2C6030480D
:103CE0000460214844603878002800E032E004D0C5
:103CF0002C480178002932D0047000F029FD00F032
:103D0000A7FAFFF7C5FB3078FFF770FBFDF77CFCE7
:103D1000C82000F02FFCFDF7A3FEFDF7A1FE4B200D
:103D2000000100F027FCFEF7CDFC002804D0FCF7D2
:103D30004FFF642000F01EFCFCF728FF1A481B49C7
:103D40000068884203D1FCF789FCFCF787FF114823
:103D50000470F8BD1D200860157007204BE7062091
:103D600000F026F8C9E700008C0300207400002052
:103D7000E002002078030020D80200208003002009
:103D80006842005075000020DC030020D0020020B3
:103D90007600002060000020880300202D01002014
:103DA00038000020DC000020B4000020AA550000EC
:103DB0007047000070B5FCF715FC0A2000F0DAFB34
:103DC0001148002505601148816849084900816053
:103DD0000F48104C0078002803D00F4800780028C6
:103DE00001D0657070BDE06D802188430B49E065AE
:103DF0000860FEF77BFA6570A06A0428F2D075307F
:103E0000C0B2FFF7BCFD70BD1001002000001340E0
:103E1000740000202C01002063000020DC0300203F
:103E200070B53848002404603749FF2008603748DF
:103E3000802104603648047036480068884336495B
:103E40000860364881684908490081603449022089
:103E5000087000F087FBC82000F08CFBFEF730F8FC
:103E6000C82000F087FB2F480121826849078A4358
:103E700082602D4801680123DB039943016005201E
:103E80000007816B09090901816328490A69FF2537
:103E9000E135AA430A61026B9A43026308699A11E9
:103EA00090430861224D00220C212846FCF788FF30
:103EB000002211462846FCF783FF002201212846F4
:103EC000FCF77EFF002202212846FCF779FF002242
:103ED00003212846FCF774FF642000F04BFB072009
:103EE000FFF74DFDFFF74AFD12484078002802D049
:103EF000FFF752FE70BDFFF741FD02480830046035
:103F0000FEF790FFCC420050F80200207C03002016
:103F10002D01002088010020DC0300200000134058
:103F2000740000200002005000001A4040000050C1
:103F3000804000508C030020F8B5264E00253560E7
:103F4000FFF7A6FD234801242C3804603460214E7D
:103F5000683E3560C82000F00DFB1E480830046044
:103F60001C4F903F3D60C82000F004FB3C601A48A5
:103F700004601848543804601848FCF7F5FFC8205E
:103F800000F0F8FAFFF756F9642000F0F3FA346015
:103F9000322000F0EFFA0A2000F0ECFAFDF74AFFB9
:103FA0003F210020FEF70AF80020FEF79FF900F0FD
:103FB00063FCC82000F0DEFAFFF79AF90548001FFD
:103FC0000560C82000F0D6FAFFF704F800F008F802
:103FD000F8BD0000CC4200507C03002080BB0000F4
:103FE000F8B52D4F0024F8682C4E2546012808D13D
:103FF0002B4835700068FD607D600124B860FEF7D5
:1040000057FA284930780A5C274902280A701CD0E0
:10401000387800F093FA2549012008602349327866
:104020000839002A24D0224805600D603C20FFF7A3
:10403000A6FC6C20FFF7A3FC1E480078002829D0BE
:1040400019480078FFF7D2F9F8BD19480560FF203C
:104050002D3000F08FFA1548056012483178405C29
:1040600011490870FFF7C2F90022134B0A210DE035
:10407000054608606A20FFF782FC3A20FFF77FFCC4
:10408000002CD9D10D4B0E4900227D60387800F00C
:104090003BFAD1E70720D5E79C03002075000020FC
:1040A0009C06002076000020D0020020B442005080
:1040B0007C03002074000020992E000009250000D8
:1040C000DC05000010B5FEF755FF034C2070FEF72D
:1040D00051FF607010BD00009C030020F8B507463A
:1040E0001D4C002060700D468020FFF767F8012608
:1040F000002815D10A2000F053FAF8B2FFF7D4F8DF
:10410000FEF78EFF01280BD00A2000F049FAFEF7D7
:10411000C3FF8120FFF7C8F8FEF782FF002801D017
:10412000667016E000240D4E6D1E08E0FA2000F0C7
:1041300037FAFEF793FF3055FDF712FB641CA542DA
:10414000F4D8FA2000F02CFAFEF788FF3055FFF77C
:1041500083FCFFF75BF8F8BDA400002000070020F7
:10416000064900224868002806D0C860C068486038
:10417000002800D18A607047CA60FBE71401002064
:104180007CB5054601200B4C024600900223AE216F
:1041900001940948FFF7CAF865700020A070A220BA
:1041A000207000210448FDF701FD2078A228FCD0F2
:1041B00020787CBD68000020F006002010B504487F
:1041C00000680421084201D0FDF740FA10BD00004C
:1041D0000040004010B50548A02101700021416059
:1041E0008160C160FDF772FE10BD00001401002067
:1041F00000B508A0FFF7C8F80AA0FFF7C5F80EA0A1
:10420000FFF7C2F80FA0FFF7BFF810A0FFF7BCF848
:1042100000BD00006D63753A204753423735300AC0
:104220000D00000050524A3A204D756C7469526F6F
:104230006F6D0A0D0000000056455253494F4E3A2B
:10424000200000007631302E353300000A0D0000CA
:1042500000B5FEF749FAFFF7CBFF03A0FFF794F88C
:10426000FEF70EFE00BD00002D2D2D2D2D2D2D2D28
:104270002D2D2D2D2D2D2D2D2D2D2D2D2D2D2D0D8E
:104280000A0A00007047000070B505200007416B66
:1042900010229143416325490A694B021A430A617E
:1042A000426B20231A4342630A690B031A430A61D3
:1042B000426B40231A4342630A69CB021A430A61E4
:1042C000426B80231A43426308698A0210430861E3
:1042D000174CA068A060A06801252843A060202397
:1042E000144A00212046FCF7FDFA2068A902884301
:1042F00020602068490288432060E06B400040084D
:10430000E0636068000A0002284360600A4A5C219A
:10431000002000F09FF80849084B0A6800209A42E4
:1043200000D0886006494870C86570BD40000050E4
:1043300000001340040800006C170020474C534E47
:104340002C010020F7B500250E460746002909D0AC
:1043500039030720090B4004814203D3FF200130B9
:10436000864201D90020FEBD384CA06840084000BC
:10437000A06021680120C00481432160A068012160
:104380000843A0600821062000F094F8A0684008C7
:104390004000A06000BFA06801210843A060082180
:1043A000022000F087F8380A0002182100F082F895
:1043B00005E002980821405D00F07CF86D1CB542D4
:1043C000F7D3A06840084000A06020680125ED04F4
:1043D000A8432060A06801263043A0600821042083
:1043E00000F068F8A068B043A060A068B043A06087
:1043F0002068A8432060A0683043A0600821052001
:1044000000F058F80821FF2000F054F82069104F00
:1044100012E0A06840084000A0602068A843206027
:10442000A0683043A0600821052000F043F808216F
:10443000FF2000F03FF82069B870A06840084000F5
:10444000A060B878C007E4D10120FEBD0000134091
:104450002C010020F7B5164D1646A8680F4600241B
:1044600040084000A86029680120C00481432960F9
:10447000A86801210843A8600821032000F01AF869
:104480001821009800F016F828680121C904084393
:10449000286006E00821FF2000F00CF8286930555C
:1044A000641CBC42F6D3A86840084000A860FEBD6A
:1044B0000000134070B5074C05462046FCF7BDFED2
:1044C000256220680121084320602068C007C00FD2
:1044D000FBD170BD0000134010B50A4A1368F824E0
:1044E000A343202900D10021C9000B4313601062AF
:1044F00010680121084310601068C007C00FFBD18D
:1045000010BD00000000134070B50A4C266902255A
:10451000AE43266100BF00BF0C267043064E3254E6
:104520008019836041600121417020692843206126
:1045300070BD000000E000E0481900200C2250434C
:10454000024A00218018417070470000481900207D
:104550000C225043024A002180184170704700002D
:104560004819002010B502480079FFF7F1FF10BD8F
:10457000C403002070B5084C2168084E08180025B7
:10458000A06004E0FCF7A6FEFDF7A4F83560216802
:10459000A0688842F6D270BD9C0600200001005041
:1045A0000749002308E0401E4B6002E04A68521CA5
:1045B0004A604A68052AF9D30028F4D17047000000
:1045C0009C0600200020074B02460C2141435A5410
:1045D000C9184A708A704A60401C8A600A28F4D35D
:1045E000704700004819002010B50E4841690722A5
:1045F0001202914341610C4CC3040A22152120464A
:10460000FCF7E8F909490868020A1202802002430F
:104610000A6081052046FCF7B5F92168A203114321
:10462000216010BD000200500000014008E400E0DD
:10463000F8B5234B1878234FA02839D11A46083AE9
:10464000D06800281BD01546987840352026D468BD
:1046500029192039C97F88420AD2295D884207D3A7
:1046600028192038C07F661E9870012C07D909E0F0
:10467000012C00D1D660D168491ED160E7D11F203E
:10468000D06015E00E481830815D0720FDF772FC00
:10469000FBF760FF0A490A205831895DFDF76AFC83
:1046A000A95D0920FDF766FCA95D0820FDF762FC05
:1046B000054B002203213878FFF726FFF8BD0000E4
:1046C000CC0300209D0300209903000070B51D4815
:1046D00000240178A0292DD10346083BD9681F2961
:1046E00001D30021D960174D81783835D8682A5C0C
:1046F000914205D82A185278914201D9441C03E00E
:10470000401CD8601F28F1D30E481830015D0720E7
:10471000FDF730FCFBF71EFF0A490A205831095DFE
:10472000FDF728FC295D0920FDF724FC295D082000
:10473000FDF720FC0548044B002203210078FFF719
:10474000E3FE70BDCC030020990300009D03002010
:1047500070B505200007816B8AB030221143816358
:104760001F4801695206114301611E480290E12071
:10477000400203900320049010200024079001259C
:10478000501001950094089005940694642008A99F
:104790000871154E69463046FCF75AF9134801680E
:1047A0008022090A09021143016011493046FCF7D1
:1047B0003DF9104900200C54401CFF28FBD9002073
:1047C0000D49012252020C54401C9042FBD30B486D
:1047D0008460446004614561C4600AB070BD00003B
:1047E00040000050001BB700000005400CE400E052
:1047F00011080000C0190020C01A0020B4060020D3
:10480000F0B500220B4F0C4C07E0FB688D5CDE0519
:10481000F60D5B1CA555521CFB608242F5D37869EE
:10482000012806D10020054978614A680220024328
:104830004A60F0BDB4060020C01A00200000054008
:104840001FB504460846FEF79FFD20060849000FE5
:10485000085C6A4610702007000F085C507000204A
:1048600090706846FEF790FD02A0FEF78DFD1FBD1B
:10487000084900000D0A000010B504490020C87066
:1048800010210620FDF776FB10BD0000C4030020B8
:10489000F7B5174D064600270C466F708020FEF7CF
:1048A0008DFC00280DD12046FEF7FEFCFEF7B8FB7C
:1048B000012806D03220FFF773FE002E14D000240A
:1048C0000FE00120687010E00A480760305DFEF7D5
:1048D000EBFCFEF7A5FB0128F3D0FA20FFF760FE02
:1048E000641C02988442EFD36F70FEF78FFCFEBD0C
:1048F000A40000202C42005030313233343536379A
:104900003839414243444546303132333435363705
:1049100038394142434445463031323334353637F5
:104920003839414243444546474C534E2420000009
:104930005049000000000020F0060000421700006F
:1049400040500000F0060020E0190000521700005F
:10495000F8DF640449000000F8DF6404001BB700BE
:10496000F8DF64041027000000805101FFFFFFFF03
:10497000FFFF00FF0000000000000000000000003A
:104980000F00000000000000000000000100000017
:104990000000000000000000000000000000000017
:1049A0000000000000000000000000000100000006
:1049B00000000000000000000000000000000000F7
:1049C00000000000010109060900000000000000CD
:1049D000000000000000000003000000FF000000D5
:1049E00000000000000000000000000000000000C7
:1049F000000000000000A0FF00000000FFFFFF001B
:104A000000000000000000000000000000000000A6
:104A10000000000000000000000000000000000096
:104A20000000000000000000000000000000000086
:104A30000000000000000000000000000000000076
:104A40000000000000000000000000000000000066
:104A500085030000000000000000000000000000CE
:104A600000000000A00000000000000000000000A6
:104A70000000000002000000000000000000000034
:104A80000000000000000000000000000000000026
:104A90000000000000000D00000000000000000009
:104AA0000000000000000000000000000000000006
:104AB00000000000000000000000000000000000F6
:104AC00000000000000000000000000000000000E6
:104AD00000000000000000000000000000000000D6
:104AE00000000000000000000000000000000000C6
:104AF00000000000000000000000000000000000B6
:104B000000000000000000000000000000000000A5
:104B100000000000FFFFFFFF02040608FFFFFFFF89
:104B2000020406080700080009000A000B000C0038
:104B30000D000E00100011001300150017001900E1
:104B40001C001F002200250029002D003200370024
:104B50003C00420049005000580061006B007600A4
:104B600082008F009D00AD00BE00D100E600FD0078
:104B700017013301510173019801C101EE012002B7
:104B800056029202D4021C036C03C30324048E0455
:104B9000020583051006AB0656071208E008C30994
:104BA000BD0AD00BFF0C4C0EBA0F4C110713EE14BC
:104BB00006175419DC1BA51EB6211525CA28DF2CA3
:104BC0005B314B36B93BB24144487E4F71572F6041
:104BD000CE696274FF7F0000E6000000E60000007E
:104BE000E6000000E600000033010000990100002B
:104BF00000020000660200000003000066020000E0
:104C0000000200009901000033010000E6000000EE
:104C1000E6000000E60000000000000000000000C8
:104C200009FF00000000000000000000000000007C
:104C30000000000000000000000000000000000074
:104C40000000000000000000FF0000000000000065
:104C50000000000000000000000000000000000054
:104C60000000000001000000000000000000000043
:104C7000000000000000000002000000030000002F
:104C80000400000006000000090000000C00000005
:104C90000F00000012000000180000001E000000BD
:104CA00027000000300000003E0000004E00000021
:104CB0005F00000074000000830000009600000008
:104CC000AA000000C8000000000000000000000072
:104CD00000000000000010000000000000000000C4
:104CE000000000000000000000000000FFFF0000C6
:104CF000000000000000000000000000A000C0E074
:104D00005C77670001020000000000000000000066
:104D1000000000000000020000A00770000000007A
:104D2000000000000000000000000000180000006B
:104D300000000000FF000000000000000000000074
:104D40000000000000000000000000000000000063
:104D500000000000FFDFC0C6C2BEBAB6B2AEAAA64F
:104D6000A29E9A96928E8A86827E7A76726E6A6603
:104D7000625E5A56FFCEBAAEAAA6A29E9A96928EAE
:104D80008A86827E7A76726E6A66625E5A56524E63
:104D90004A46423E00630180029F035804C205DD7B
:104DA00006100700085609560A3E0B800CA00D009D
:104DB0000E200F6010901177120E13B914141549BC
:104DC000271A28C029F32A332B002C0C2D7F310001
:104DD00032BC339834A4359836073700380039018F
:104DE0003AEE3BFF3C7E3DC03E263F00BB46800086
:104DF0003F7B7F0034B97F00528C800027FC3F004E
:104E0000CB23800035DC7F001EDC7F006A478000FA
:104E10001AEE3F00E26880001E977F0007977F0030
:104E200097D180008FCB3F00AA5B8E00943F6C002F
:104E300056A47100F50398003BDE3D006A0A80002D
:104E40009AE37F0096F57F005F1480000304400022
:104E50007A9F8000429B7E0086607F005E338100E7
:104E6000B0184000B1A69A00D60564004F596500FD
:104E7000764AA000D9D73D000000000000000000E5
:104E800000000000000000000000400000000000E2
:104E900000000000000000000000000000004000D2
:104EA0000000000000000000000000000000000002
:104EB00000004000FFFF7F00FFFF7F00FFFF7F003B
:104EC000FFFF7F00FFFF7F00F79D5A00FFFF7F007D
:104ED0000000000000000000FFFF7F000000400015
:104EE000000040000000000000000000BB46800001
:104EF0003F7B7F0034B97F00528C800027FC3F004D
:104F0000AC6B800054947F008B937F00C4D58000ED
:104F10002ACA3F002A398100D6C67E000EC67E000E
:104F2000C37082006B633F00AA5B8E00943F6C00ED
:104F300056A47100F50398003BDE3D006A0A80002C
:104F40009AE37F0096F57F005F1480000304400021
:104F50007A9F8000429B7E0086607F005E338100E6
:104F6000B0184000B1A69A00D60564004F596500FC
:104F7000764AA000D9D73D000000000000000000E4
:104F800000000000000000000000400000000000E1
:104F900000000000000000000000000000004000D1
:104FA0000000000000000000000000000000000001
:104FB00000004000FFFF7F00FFFF7F00FFFF7F003A
:104FC000FFFF7F00FFFF7F00F79D5A00FFFF7F007C
:104FD0000000000000000000FFFF7F000000400014
:104FE0000000400000000000000000000000000081
:104FF00000000000000000000000000000000000B1
:1050000000000000000000000000000000000000A0
:10501000000000000000000001000000000000008F
:105020000000000000000000FFFFFFFFFFFFFFFF88
:10503000FFFFFFFFFFFFFFFFFFFFFFFF000000007C
:04000005000000D522
:00000001FF
