:020000040000FA
:1000000058100020B1010000D5010000D701000008
:1000100000000000000000000000000000000000E0
:10002000000000000000000000000000E9010000E6
:100030000000000000000000EB010000D91B0000E0
:10004000EF01000061320000EF010000EF0100004D
:100050002F330000EF010000EF010000EF0100006E
:10006000B9330000EF010000EF010000EF010000D4
:100070008B150000EF010000EF010000EF01000010
:10008000133C0000EF010000D32A0000EF01000044
:10009000EF010000EF010000EF010000EF010000A0
:1000A000EF010000EF010000EF010000E35100004C
:1000B0001533000071270000EF010000EF01000080
:1000C0000348854607F0F6FF004800470D11000081
:1000D0005810002070B500F024F82C4908602C4816
:1000E000006945076D0F022D03D0A80029490C585F
:1000F00001E026480468264880690007000F461C76
:100100003146204607F0AEFF2349086023492248C4
:1001100000684A10801807F0A5FF2149086070BDEB
:100120007047FEB51FA0006800900020029018489C
:10013000046A0013044227D10120C004044201D004
:10014000194800E01948054601204004044201D046
:10015000029519E0032080032040800B69460F5C64
:10016000E005C00D801C01901F2040022040400A85
:10017000861C32467A431146AB08019A534318460F
:1001800007F070FF800002900298FEBD080000207A
:10019000000200500C0000200000002040420F0030
:1001A000040000200102020400805101001BB7007E
:1001B0001448154901601549016015490160154A47
:1001C0001549116000210160144880471448804798
:1001D00014480047FEE706980188134A914202D16D
:1001E000043006907047FEE7FEE7FEE7FEE7FEE715
:1001F000ABBE01E000207047002A00D01060012053
:100200007047000000010050590000001600000077
:100210008800000024000050A55A000021010000C1
:10022000FB310000C1000000ABBE0000F0B5059C32
:10023000A94D8600AD59A94E35400E04354316022E
:1002400035431D432543A44E8700F551F0BD10B53D
:10025000A14A8300D258A24B1A400B041A439E4B6A
:1002600084001A5110BD70B50124240705252D07FF
:10027000ED68254305263607F5603546ED68A5434C
:10028000F56000BF00BF974C64690C25AC43144374
:10029000944D6C6100BF00BF2C46A469FF252D045E
:1002A000AC435D1E2D042C438E4DAC6100BFEC04AD
:1002B000AD6825438B4EB56000BF00BF864C283C1F
:1002C000246A01252C43844D283D2C6200BF00BFC9
:1002D0002C46246A0C25AC4304437F4D283D2C62F8
:1002E00000BF00BF2C46646A0C436C6200BF70BD47
:1002F00010B50020784928394862086288620021D8
:1003000075482838C1620120000776498968814311
:10031000744A916000BF00210846FFF798FF002152
:100320000120FFF794FF1D2000F0AEF810BD10B5BE
:10033000072000F0CCF800BF67482838006A022187
:10034000084365492839086200BF1D2000F095F870
:1003500010BD10B500BF60482838006A02218843EC
:100360005D492839086200BF0846806A02210842B8
:1003700007D159482838C06A084202D11D2000F030
:1003800083F810BD10B5022000F0A1F8002000F0A5
:1003900083F81D2000F071F810BD10B5002000F0AA
:1003A00084F84D482838006A0221084207D14A489B
:1003B0002838C06A084202D11D2000F065F810BD3F
:1003C00010B5042000F083F8012000F065F81D202E
:1003D00000F053F810BD10B5012000F066F83E485B
:1003E0002838006A0221084207D13B482838806A31
:1003F000084202D11D2000F047F810BD00BF364A68
:10040000283A126A30239A430243334B283B1A623C
:1004100000BF00BF1A46126AC0239A430A432E4BFC
:10042000283B1A6200BF00BF1A46126A9B151A4386
:10043000294B283B1A6200BF7047F8B504460D46A9
:1004400016461F4623463A46314600200095FFF7E0
:10045000EDFE002000F032F8F8BDF8B504460D4678
:1004600016461F4623463A46314601200095FFF7BF
:10047000DDFE012000F022F8F8BDC206D20E0121F7
:100480009140194A11607047C206D20E0121914075
:10049000154A8032116070470F4982008958022244
:1004A00011430D4A8300D15070470B49820089588F
:1004B00002229143084A8300D150704706498200C6
:1004C000895801221143044A8300D15070470249E0
:1004D000283908637047000028000E40030000F030
:1004E000FFFF00F00002005000E100E070B50025C1
:1004F000BB4800694407640F002C01D1B94D0FE0DF
:10050000022C01D0012C06D100F01FF90546012C68
:1005100006D16D0804E0032C01D1B34D00E0B34DCA
:10052000AF4880690007000F461C3146284607F097
:1005300099FD70BDF0B5059C0025002901D020264D
:100540003543002A01D010263543002B01D0082660
:100550003543002C01D00426354306683C27BE43B2
:100560002E430660F0BD10B5FFF7C0FF04469C485F
:10057000C06A411C204607F075FD10BDFEB504465B
:100580000E461746FFF7EFFF0A214843B1000090DF
:1005900007F068FD401D0A21019007F063FD451E2C
:1005A0009348844206D1401500F00EF9601500F022
:1005B000C6F807E0FF20013000F006F9FF20013007
:1005C00000F0BDF800BF20692843206100BF002F64
:1005D0000FD0204600F0EEF88648844203D1122066
:1005E00000F09EF805E08248844202D1132000F01A
:1005F00097F800BF206840210843206000BFFEBD7F
:1006000010B50446204600F0DAF800BF206840210B
:100610008843206000BF7748844203D1122000F055
:1006200086F805E07248844202D1132000F07FF87A
:1006300010BD70B504462569FFF758FF0646681CD3
:100640008100304607F00EFD70BD10B5044620460F
:1006500000F0B0F86748844203D1122000F060F83F
:1006600005E06348844202D1132000F059F810BD20
:1006700010B50446204600F0A2F85E48844203D13B
:10068000122000F054F805E05948844202D11320AA
:1006900000F04DF810BD30B50446002906D0012900
:1006A00009D002290CD0032914D10EE050001843C0
:1006B000606000BF11E050001843A06100BF0CE073
:1006C00050001843E06100BF07E05000184320626B
:1006D00000BF02E00020C04330BD00BF0120FBE7A7
:1006E0000346002906D0012908D002290AD003298F
:1006F00010D10BE05000586200BF0EE0500098622D
:1007000000BF0AE05000D86200BF06E05000186346
:1007100000BF02E00020C043704700BF0020FBE79D
:10072000C206D20E01219140334A11607047C206C1
:10073000D20E01219140304A803211607047284921
:1007400089680143264A91607047FEB52BA0006876
:100750000090002002902248046A0013044227D12E
:100760000120C004044201D0204800E01D48054695
:1007700001204004044201D0029519E003208003C7
:100780002040800B69460F5CE005C00D801C019085
:100790001F2040022040400A861C32467A43114600
:1007A000AB08019A5343184607F05CFC80000290A6
:1007B0000298FEBD01688022114301607047016804
:1007C000802291430160704705210907C9680143F0
:1007D00005221207D1601146C9688143D160704774
:1007E00000020050001BB7001027000000805101DC
:1007F000000012400000024000E100E0010202049B
:10080000FEB582A000680090002002908048046A33
:100810000013044227D10120C004044201D07D48C6
:1008200000E07D48054601204004044201D00295C5
:1008300019E0032080032040800B69460F5CE0052F
:10084000C00D801C01901F2040022040400A861CE1
:1008500032467A431146AB08019A5343184607F0D3
:1008600001FC800002900298FEBDF8B56848C0699E
:100870008007800F00900098002806D0012806D03D
:10088000022808D003282ED12BE0634C2DE0FFF77F
:10089000B7FF044629E000BF00265D480069450710
:1008A0006D0F002D01D15C4E0FE0022D01D0012D06
:1008B00006D1FFF7A5FF0646012D06D1760804E014
:1008C000032D01D1554E00E0524E5148806900077A
:1008D000000F471C3946304607F0C4FB044600BFF2
:1008E00003E04C4C01E04B4C00BF00BF2046F8BD7C
:1008F000F8B5044620684649C9698908890001435A
:10090000434AD16100BF10051146896801439160D7
:1009100000BF00BF05210907C9680143052212076E
:10092000D1601146C9688143D16000BF00BF3C4817
:1009300000680121C90408433949086000BF00BFAD
:10094000084600680121890408433549086000BF52
:100950002169A068084361690843E1680843A16907
:100960000843E16908432E490860FFF77EFF074608
:10097000A168491C6068484306013146384607F0C3
:1009800071FB4008401EC5B225484068FF2109029E
:1009900088432902084322494860084600682149E3
:1009A00008431F4908600020F8BD10B5012040072A
:1009B000174989688143164A916000BF1B2000F0E7
:1009C0001CF810BD00BF164989680143144A9160A4
:1009D00000BF1B2101228A40134B1A6000BF7047E1
:1009E00010B5044600BF0E488068A0430C498860DB
:1009F00000BF1B2000F001F810BDC206D20E01217D
:100A00009140094A803211607047000001020204DF
:100A10000002005000805101001BB70010270000A9
:100A200000001A400180000000E100E0F8B5044633
:100A30000D4616461F46B648844203D1042000F0F6
:100A400048F911E0B2482030844203D1082000F078
:100A500040F909E0AF48844203D1102000F039F991
:100A600002E0202000F035F9A06803210843A060CF
:100A7000A06901210843A06166600804381849068E
:100A8000401840192060F8BD10B5044600202060D1
:100A90009F48844206D1042000F021F9082000F08C
:100AA00010F91AE09A482030844206D1082000F05C
:100AB00016F9092000F005F90FE09648844206D1A6
:100AC000102000F00CF90A2000F0FBF805E02020CF
:100AD00000F005F90B2000F0F4F810BD70B50446E5
:100AE0000D46A068A06001204007054207D000BF66
:100AF0002068012149070843206000BF00BF202073
:100B0000054206D000BF606920210843606100BF34
:100B100000BF7F48844203D1082000F0CBF811E0E9
:100B20007B482030844203D1092000F0C3F809E05B
:100B30007848844203D10A2000F0BCF802E00B2080
:100B400000F0B8F870BD10B5044600BF2068012160
:100B500049078843206000BF00BF606920218843A7
:100B6000606100BF6A48844203D1082000F0A9F800
:100B700011E067482030844203D1092000F0A1F839
:100B800009E06448844203D10A2000F09AF802E0A8
:100B90000B2000F096F810BD70B505460C461646C1
:100BA00000F0A3F8012000F094F800BF5A48406913
:100BB0008008800020435849486100BFE8B2574987
:100BC000096807221202914302021143534A11603D
:100BD00000BFF0B21146486000BF00F08EF870BD53
:100BE00010B500F082F800BF4C48006880218843AF
:100BF0004A49086000BF00F084F8012000F061F865
:100C0000012000F06CF800F078F810BD10B500F08D
:100C10006CF800BF41480068082108433F4908605C
:100C200000BF00BF08460068402108433B490860F8
:100C300000BF012000F03EF800F05FF810BD10B5D5
:100C400000F053F800F05DF8012000F03AF800F0F1
:100C500054F810BD70B505460E46144600F045F830
:100C600000BF2D48C06903210904884320432A4955
:100C7000C86100BF290432021143C81C28494860DA
:100C800000BF012000F016F800F037F870BD704783
:100C900000BF23488068022210400146002907D087
:100CA00000BF1F48806810431D4A906000BF00BF0E
:100CB000C8B27047C206D20E01219140194A116094
:100CC0007047C206D20E01219140164A803211604F
:100CD00070471149896801430F4A916070470E4976
:100CE000896881430C4A9160704759200E49086019
:100CF0001620086088200860704700200A490860B4
:100D000070470648006840218843044908607047DE
:100D1000000001400000114000020050004000406F
:100D20000041004000E100E00001005002690123A1
:100D30005B029A43026102694B001A4302617047E9
:100D4000F8B505460C462068B649496903221206E3
:100D500091430143B34A516100BF606811468969FC
:100D60000F2212029143421E12021143AD4A9161B9
:100D700000BFAD48854207D1D00100F047F90120FE
:100D8000000400F037F907E00120400400F03EF9CC
:100D90000120400400F02EF90620A9680143A96053
:100DA00000BFE069A968F02291430143A96000BF38
:100DB000A26921691143084662691043E96840222B
:100DC00011400143E96000BF2421085D296A090A36
:100DD00009020143296200BF03210907206A8842F2
:100DE0000CD1E768A6683946304607F03BF9801E0B
:100DF000032109070843686200BF0AE0E768A668A4
:100E00003946304607F02EF90009801E686200BF9F
:100E100000BF0120F8BD10B503221203436813433D
:100E2000436000BF120183680F242404A3431343CB
:100E3000836000BF4A68D31FFF3BFA3B07D100BF66
:100E4000026901235B021A43026100BF07E000BF91
:100E5000026901235B029A43026100BF00BF8A68F6
:100E6000D31FF93B07D100BF4269FF2301331A4367
:100E7000426100BF07E000BF4269FF2301339A438C
:100E8000426100BF00BF10BD0321090342688A43CD
:100E9000426000BF704710B5044600BF00BFA069A4
:100EA0000121090708400028F8D06048844206D193
:100EB000C81200F0A5F80D2000F094F806E001201B
:100EC000000400F09DF80C2000F08CF810BD70B507
:100ED00004460D4600BF60682843606000BF52486A
:100EE000844203D10C2000F076F802E00D2000F0DF
:100EF00072F870BD70B504460D4600BF6068A84327
:100F0000606000BF4848844203D10C2000F06AF8BA
:100F100002E00D2000F066F870BD10B500BF436917
:100F200010242340002B01D0012300E000230B708C
:100F300000BF4369DB07DB0F002B01D0012300E07A
:100F40000023137010BD02220263826A62239A4357
:100F50008262826A0B78002B01D0022300E000231A
:100F60001A438262826A4B78002B01D0202300E072
:100F700000231A438262826A8B78002B01D04023BF
:100F800000E000231A438262704710B50322026317
:100F90004A7912060B79DB031A430B681A43C36ABA
:100FA0001A43C2628A79036AFF242402A34314020B
:100FB0002343036200BF8268FF2301339A438260A8
:100FC0008268CB79002B02D0FF23013300E000239D
:100FD0001A43826010BDC206D20E01219140144A0C
:100FE00011607047C206D20E01219140104A803232
:100FF000116070470B49896801430A4A9160704744
:10100000084989688143074A9160704705210907AB
:10101000C968014305221207D1601146C96881439E
:10102000D1607047000200500000054000001540EC
:1010300000E100E030B503684D000324AC40A34359
:101040004D001446AC402343036030BD10B500BFD3
:101050005920B3490860162008608820086000BF46
:1010600000BFAF48C038406803210843AC49C039CD
:10107000486000BF00BFAB48006801210843A94990
:10108000086000BF00BF012000F044F90028FAD03A
:101090000020A54902460A43A24B1A6200BF00BFC6
:1010A000042000F037F90028FAD002209D49096990
:1010B000C908C90001439B4A116100BF01201146C4
:1010C000C96A81430143D16200BFFFF703F8974823
:1010D00000F018FD00F0F2FE00BF0020904908600B
:1010E00000BF10BD10B500BFEFF310800446012013
:1010F00080F3108800BFFFF7A9FF204680F3108817
:1011000000BF00F0DAFD02F03DFA10BD08B500BFE7
:10111000FFF7E8FF01208649087002F057FC854878
:1011200000680321890288438249086008460068F4
:101130000121890208437F49086000BF00BF0120E8
:101140007D49086000BF00BF00F004FB02F01AFAFE
:10115000FF207A490860032002F088FB01F001FEBD
:1011600001F090F976A000F051F97BA000F04EF963
:101170007BA000F04BF902F0F6FD01220A216D4838
:10118000C038FFF757FF00BF00206B49AC3908603B
:1011900000BF68488069082188436649886108461D
:1011A000C0690121C90408436249C86172480068E6
:1011B00020210843704908605E48C0300068202143
:1011C00008435C49C0310860084600681021884324
:1011D0005849C031086008460068F0210840554968
:1011E000C0310860084600680A2108435149C031EF
:1011F000086050484069082108434E494861002270
:1012000003214C48FFF716FF03F0F8FA03F013FB35
:10121000022000F0A4FC012005F0F5FC401C04D1E4
:1012200056A000F0F3F800BFFEE703F005FB022034
:1012300000F095FC554805F0F8FD3B481E3005F0E0
:101240002FFF39481E3005F033FF962006F007FBCC
:101250004F4806F088FD082006F0B6FD02F014F8AD
:101260007D20C00000F07BFC01220A21314880383B
:10127000FFF7E0FE00BF00202F496C39086000BF77
:1012800003F0D9FA09E043A0006800906B460422FD
:101290000021032005F071FB00BFF4E77CB50021BD
:1012A0000C460D46684605F06BFF042608E0220E4A
:1012B00028021043240205466846805D0443761EDA
:1012C000002EF4DA204629467CBD7CB500210C4670
:1012D0000D46684605F069FF042608E0220E280244
:1012E0001043240205466846805D0443761E002EA6
:1012F000F4DA204629467CBD70B50146002006E0A0
:101300000A541E06140A34431B0A2246401C0428B1
:10131000F6DB70BD01460348C06808407047000016
:10132000000100500002005016400000701700003D
:1013300011010020C0400050D4420050F0020020B3
:101340000D0A2D2D2D2D2D2D2D2D2D2D2D2D2D2D10
:101350002D2D2D2D200000007631302E3932000049
:10136000202D2D2D2D2D2D2D2D2D2D2D2D2D2D2DBA
:101370002D2D0D0A0000000000E100E0494E495407
:10138000204641494C4544200D0A00002800002019
:10139000E40C00001818181870B505460E46002415
:1013A0000CE0305DFE490988C905C90DFD4A50545D
:1013B000FB480068401CFA490860641CAC42F0D34A
:1013C000F9480068012806D10020F7490860022189
:1013D000F64800F070FB70BD704710B50446F04849
:1013E0000088C005C00DEF490C54ED480068401C52
:1013F000EB490860EC480068012806D10020EA4962
:1014000008600221E94800F056FB10BD70B50446A3
:10141000002500BF0CE0605DE1490988C905C90DE0
:10142000E04A5054DE480068401CDD4908606D1CED
:10143000605D0028EFD1DC480068012806D100205B
:10144000D94908600221D94800F035FB70BD10B5BC
:101450000446D3480088C005C00DD2490C54D0487A
:101460000068401CCE490860CF480068012806D1BA
:101470000020CD4908600221CC4800F01CFB10BDC3
:10148000CB4801780068401CC94A1060C8B2C949FD
:10149000085C7047704710B5002403E00A20FFF78E
:1014A0009CFF641C502CF9D30D20FFF796FF10BD54
:1014B000F8B506460C4600250CE00A21304606F039
:1014C000D1FD303128466D1C21540A21304606F0EA
:1014D000C9FD0646002EF0D1002D02D10125302095
:1014E000207000206055009507E0A75D681E054646
:1014F000225C3046761C22546755AE42F5D30098E4
:10150000F8BD10B5024613461011AB4C205C0870B4
:101510001807030E1B112046C05C4870002088701D
:10152000084610BD10B5A5A0FFF770FF0020A54923
:10153000086010BD10B5034605E0985C8C5CA042C5
:1015400001D0002010BD1046521E0028F5D1012008
:10155000F8E710B502460B46002106E0505C5C5CE3
:10156000A04201D0002010BD491C505C0028F5D1DC
:10157000585C0028F2D10120F5E710B5044620465A
:10158000FFF744FFFFF7CEFF10BD10B500BF87483F
:10159000C069FF2101310840002806D100BF8348FF
:1015A000C0690901084000287ED08DE07F480068AE
:1015B000C4B2082C29D183480068002803D1072031
:1015C000FFF70BFF10BD80A0FFF720FF7F480068EA
:1015D000002805D07D480068401E7C49086013E063
:1015E00078480068401E7749086079480068401EC6
:1015F000774908606E4800680968884204D36C48DF
:101600000068401E6A490860DCE7204671490968A5
:101610000902704A116011460968014311602028CF
:1016200001DB7E2803DD0A2801D00D2801D101212C
:1016300000E00021002917D05B2C09D16548006823
:10164000FF21090208401B210902884200D1B9E7A5
:1016500060480068604908406049884205D1412CD3
:1016600003DB442C01DCADE7ACE751480068FF30F8
:10167000013057490968884203D352480068FF285F
:1016800019D92046FFF7A9FE50480068401C4F4971
:1016900008600D2C0ED1002008604D480078401ED7
:1016A000C0B244490C5400E018E041480068401EB4
:1016B0003F49086086E7464801780068401C444A74
:1016C0001060C8B23B490C5400BF38488069012102
:1016D00089030840002800D168E739E000BF33489B
:1016E000C069012149020840002831D00CE03C4883
:1016F0000088C005C00D2B49085C2C49086038489B
:101700000068401C3649086035480068244909686B
:10171000884207D200BF254880690121C9050840D9
:101720000028E4D02E4800681D49096888420FD17E
:1017300002201E49496881431C4A516000BF0120B4
:10174000194908601648007815490860244908605E
:1017500000BF37E710B58AB000BF05200007806BD7
:10176000302108430521090788631E4800690321C9
:10177000490708431B49086100BF00200090012071
:10178000019019480290E120400203900320049048
:10179000002005900690102007900320000725E008
:1017A0009C0000207C070020A400002000000540D1
:1017B000980000207C06002012810000474C534E08
:1017C00024200000AC00002008200800B000002009
:1017D00094000020A800002000FFFF00005B1B0019
:1017E000A000002040000050001BB70008906420BB
:1017F00008A908716946B248FFF7A2FA02210C2035
:1018000000F022F9AF49AE48FFF761FB002403E086
:101810000020AD490855641CFF2CF9D9002403E0D1
:101820000020AA490855641C012040028442F7D3D5
:101830000020A7490860A7490860A7490860A74990
:1018400008600120A64908600AB010BD10B5024624
:10185000130FA44CE35C0B700F231B0613401B0EED
:10186000E35C4B700F231B0513401B0DE35C8B7077
:101870000F231B0413401B0CE35CCB700F231B03D3
:1018800013401B0BE35C0B710F231B0213401B0A5D
:10189000E35C4B71F02313401B09E35C8B7113076E
:1018A0001B0FE35CCB7120230B7200234B7210BD26
:1018B00070B5044600251CE08020044205D000BF1E
:1018C00001208949086000BF05E000BF002086496B
:1018D000086000BF00BF00BF0020834908390860CE
:1018E00000BF6006040E00BF0120086000BF681C36
:1018F000C5B2082DE0DB00BF01207B49091F08604D
:1019000000BF642000F019F900BF00207649091FCC
:10191000086000BF70BD7FB506460D46694630467B
:10192000FFF7C6FD044603E0202069460855641C05
:10193000062CF9D300222046641C69460A54284626
:10194000FFF764FD6846FFF761FD68A0FFF75EFDE5
:101950007FBD7FB504460D462846FFF757FDF020B2
:10196000204006096248815D684601702607360FEF
:101970005F48815D6846417000218170FFF746FD38
:101980005AA0FFF743FD7FBD7FB504460D462846AC
:10199000FFF73CFDF020204006095648815D68466F
:1019A00001702607360F5348815D6846417000215B
:1019B0008170FFF72BFD7FBD7FB504460E46304694
:1019C000FFF724FD250F4C48415D684601700F204C
:1019D00000062040050E4848415D684641700F20D2
:1019E00000052040050D4448415D684681700F2088
:1019F00000042040050C4048415D6846C1700F203E
:101A000000032040050B3C48415D684601710F20F2
:101A100000022040050A3848415D68464171F020C7
:101A2000204005093448415D6846817125072D0F26
:101A30003148415D6846C17100210172FFF7E6FC43
:101A40002AA0FFF7E3FC7FBD10B5002819DA2B4A66
:101A500003071B0F083B9B089B00D2588307DC0E33
:101A6000FF23A3409A438B071B0E8407E40EA34079
:101A70001A43224B0407240F083CA408A4001A515F
:101A800018E01F4A03231B02D21883089B00D25878
:101A90008307DC0EFF23A3409A438B071B0E8407AA
:101AA000E40EA3401A43164B032424021B19840896
:101AB000A4001A5110BD42680A43426070470000FA
:101AC00000000540110800007C0600207C07002073
:101AD0009800002094000020A00000209C0000201E
:101AE000A400002022810000CC4200500D0A00001A
:101AF0003281000042810000528100001CED00E0B4
:101B000000E100E010B504462002000A401EC4496E
:101B100048610321081F00F03DF90020C049886199
:101B20001020C0490969382291430143BD4A11611F
:101B300000BF0320BA49086110BD0DE0401E00211E
:101B4000B94A116004E0B8490968491CB64A1160F5
:101B5000B54909680529F6D30028EFD1704710B5BB
:101B60000446B24800680019B149086009E000F075
:101B700048F900F04EF900BF0020AE49086000BFF0
:101B800000BFAB480068A94909688842EFD210BD80
:101B900010B504460020A249886100BF00BF00BF05
:101BA00000BF00BF00BF00BF00BFA0480068001911
:101BB0009F49086009E000F024F900F02AF900BF0D
:101BC00000209C49086000BF00BF99480068974901
:101BD00009688842EFD810BD10B594480068401CD1
:101BE0009249086000242FE00C206043924940187D
:101BF0004078002827D00C20604340184068002817
:101C000009D00C20604340184068401E0C216143FD
:101C1000894A891848600C20604387494018406809
:101C2000002810D10C206043085C00280BD00C2049
:101C3000604340188068002805D00C2161437E4A2B
:101C4000891888688047641C0A2CCDD300BF7B4864
:101C5000006A0121C90208437849086200BF00F008
:101C600059FE10BD10B5002424E00C2060437249D9
:101C70004018407800281CD00C2060434018406871
:101C8000002816D10C206043085C002811D10021E7
:101C90000C206043684A801841700C206043114654
:101CA00040188068002804D00C2161438918886896
:101CB0008047641C0A2CD8D310BD002015E00022F8
:101CC0000C2141435C4B5A540C214143C9184A70C2
:101CD0000C214143C9188A700C214143C9184A603C
:101CE0000C214143C9188A60401C0A28E7D3704779
:101CF000002110E00C2048434F4A801880780028CB
:101D000007D101220C2048434B4BC0188270084673
:101D10007047481CC1B20A29ECDBFF20F8E700201D
:101D200013E000BF00220C214143434BC9184A7005
:101D300000BF00BF0C214143C9188A600C214143F8
:101D4000C9188A7000BF411CC8B20A28E9DB704775
:101D500070B5334C24690225AC43314D2C6100BF72
:101D600000BF0C244443344D2A550C2444436419C9
:101D700061600C2444436419A36001250C2444438E
:101D80002D4EA4196570264C246902252C43244D40
:101D90002C6170BD10B5002819DA294A03071B0F02
:101DA000083B9B089B00D2588307DC0EFF23A3400F
:101DB0009A438B071B0E8407E40EA3401A43204B63
:101DC0000407240F083CA408A4001A5118E01D4A77
:101DD00003231B02D21883089B00D2588307DC0E12
:101DE000FF23A3409A438B071B0E8407E40EA340F6
:101DF0001A43144B032424021B198408A4001A510B
:101E000010BD59200B490860162008608820086022
:101E100070470D480068012108430B49086070476E
:101E200000E000E000020050B8000020B4000020F4
:101E3000BC000020000100507C09002000000E4082
:101E40001CED00E000E100E00040004070477047FA
:101E50007047704710B50446552C06D0582C05D055
:101E60005C2C07D05D2C0DD108E00CE007A0FFF73B
:101E7000CDFA08E009A0FFF7C9FA04E00BA0FFF7CC
:101E8000C5FA00E000BF00BF10BD7047504F574576
:101E900052204B455920696E0D0A0000494E4320DF
:101EA0004B455920696E0D0A00000000444543204F
:101EB0004B455920696E0D0A000000000120000703
:101EC00005210907C968014305221207D16011469F
:101ED000C9688143D16000BF0020FC4949690C22D8
:101EE00091430143F94A516100BF2C201146896991
:101EF000FF2212049143421E12041143F34A9161DE
:101F000000BFD004114689680143916000BF70474B
:101F10001CB50446EE48012102230A4600910190B7
:101F20005021EC4800F0CFFCE9494C70002088704B
:101F3000A22008700021E74800F08CFD00BFE448B3
:101F40000078A228FBD0E24880781CBDE0480078E9
:101F500070477CB504460D46DD4801210091019093
:101F6000681CC3B20A465021DA4800F0ACFCD849DC
:101F70004C7000208870A22008700021D54800F025
:101F800069FD00BFD2480078A228FBD0D048007875
:101F9000A02801D101207CBD0020FCE77CB50446CF
:101FA0000D46CB48012102230022009101905021CF
:101FB000C84800F088FCC6494D708C70A22008709B
:101FC0000021C44800F046FD00BFC1480078A228A7
:101FD000FBD0BF480078A02801D101207CBD0020A3
:101FE000FCE77CB504460D46012001940090681C76
:101FF000C3B200225021B74800F065FCA220207037
:102000000021B44800F026FD00BF2078A228FCD0B3
:102010002078A02801D101207CBD0020FCE710B56C
:10202000002408E06200AC4B995C6200D218507842
:10203000FFF7B4FF641C2E2CF4D310BD704710B50D
:10204000C9210020FFF7AAFF3220FFF788FD10BD4D
:1020500010B5C9210220FFF7A1FF3220FFF77FFD55
:1020600010BD10B5044621212046FFF797FF10BD93
:1020700010B5CE21AA20FFF791FF10BD70B5002545
:102080000026002095490870002412E0944800576B
:10209000052802DA00209249085591480057A842C5
:1020A00003DD8E490C708E4805578D480057861900
:1020B000641C062CEADBA80028184010B04201DBA3
:1020C0000A2D01DAFF2070BD8448007800281DD158
:1020D00005208449087001208349087080480978E8
:1020E00040567F497F4A12788956884205DD002094
:1020F0007C4908707D49086053E000207A490870E7
:10210000052078490870794908604AE073480078EA
:1021100005281DD1042073490870002072490870F9
:102120006F48097840566E496E4A1278895688423F
:1021300005DD05206B4908706C49086031E0052019
:10214000694908700420674908706849086028E0F8
:1021500062480078401E6349087060480078401C5F
:10216000614908705E48097840565D495D4A1278B9
:102170008956884208DD594800785A4908705748FE
:1021800000785A4908600CE05448007856490870B5
:1021900052480078401E5349087008460078534959
:1021A00008604F4850490978405614214843504927
:1021B00008604B484C4A12788056494A494B1B7874
:1021C000D25681184A48006805F04CFF484908601B
:1021D000464800681421484345490968401872E799
:1021E00055204449087044480078552804D00520FB
:1021F000C0434249086018E040480068401C3F491D
:102200000860012804DA3E4800783E4908700CE076
:1022100000203A4908603B480078394909788842EB
:1022200003D1374800783349087032480078704746
:10223000552033490870304908707047704710B511
:102240002D480078FFF702FE10BD7FB506460D460B
:1022500069463046FFF72CF9044603E02020694622
:102260000855641C062CF9D300222046641C6946DC
:102270000A542846FFF7CAF86846FFF7C7F87FBD3B
:102280006420704720480078002804D000201E49B0
:102290000870012070470020FCE710B55520184950
:1022A00008700020184908700320FFF731FE174915
:1022B00008700520FFF753FCC020FFF729FE14A18A
:1022C00012480078FFF727FB10BD00000002005005
:1022D000040A0020F4090020120100208C010020D3
:1022E000A80100208D0100208E010020880100201F
:1022F00084010020DE000020DD000020900100208D
:10230000B001002094010020B2010020B1010020A2
:10231000206B657920000000F9480078552806D127
:10232000F8490870F8490870F84908702DE0F74836
:102330000078F3490978884203D15520F1490870A3
:1023400023E0F1480078552809D1ED480078EE499E
:1023500008705520EB490870EC49087015E0EA4810
:102360000078E7490978884206D1E5480078E549D0
:102370000870E649087008E0E1480078E249087012
:102380005520E0490870E1490870DE480078704740
:1023900010B5DC480078FFF75DFD10BD704710B543
:1023A000FFF7BAFFD7490870FFF71AFFD84908703E
:1023B000D8480078002807D0012802D002280FD181
:1023C00008E0FFF7E5FF0FE0D3A0FFF71FF8FFF7E6
:1023D00035FF09E0D1A0FFF719F8FFF730FF03E060
:1023E000CFA0FFF713F800BF00BFCE4B00221E2185
:1023F000CD480078FFF7ACFC10BD10B500BF05203C
:102400000007C06B1021084305210907C863C748AE
:102410004069012109050843C449486100BF0420FF
:102420000021C34A126844000323A3409A43440096
:102430000B46A3401A43BE4B1A6000BF00BF1946AB
:10244000496802461032012393401943B84A51604B
:1024500000BF0820B749096A0C2291430143B54ADD
:10246000116200BF102000F0FDF9FF20813000F064
:10247000F9F900BFAF48006A01210843AD4908627D
:1024800000BF10BD10B5FFF7B8FF02211D2000F0FE
:10249000AAF9FDF74CFF0020A7490860FFF728FCC8
:1024A000A14908709F4B00221E219F480078FFF72A
:1024B0004FFC10BD10B50446A0480088844203DDDF
:1024C0009E480088201A02E09C480088001B732860
:1024D00007DD00209A4908809A49088097480480BF
:1024E00010BD9848008800199649088093480480D8
:1024F00093480088401C80B29149088008285AD12E
:10250000002008808F480088C0108E490880084647
:1025100000887D21C900884203DD55207849087074
:1025200028E0884800888849884203DD552074499E
:1025300008701FE08348008883496439884203DDBE
:1025400059206F49087015E07E4800887E49C839D7
:10255000884203DD55206A4908700BE079480088FD
:102560007A49884203DD5A206549087002E0552007
:10257000634908706248007875490870754800F032
:1025800077F9002802D158205D4908707148001D74
:1025900000F06EF9002802D15D20594908706D489D
:1025A000083000F065F9002802D15C205449087019
:1025B00000206449088000BF92E71CB504466648C5
:1025C000012102230A4600910190A021634800F0F6
:1025D0007AF961494C7000208870A22008700021AF
:1025E0005E4800F037FA00BF5B480078A228FBD0B5
:1025F000594880781CBD7CB504460D4656480121DB
:102600000223002200910190A021544800F05BF9C0
:1026100051494D708C70A220087000214F4800F085
:1026200019FA00BF4C480078A228FBD04A4800782D
:10263000A02801D101207CBD0020FCE710B5044694
:1026400047480078002812D04248203000F010F9A6
:1026500000280CD1424908700A20FFF780FA3D4853
:10266000203000F005F9002809D1012010BD3948BB
:10267000203000F0FDF8012801D139490870002010
:10268000F4E71CB504463748012102230A460091AD
:102690000190D621344800F016F932494C700020E0
:1026A0008870A220087000212F4800F0D3F900BFE5
:1026B0002C480078A228FBD02A4880781CBD7CB525
:1026C00004460D4627480121022300220091019073
:1026D000D621254800F0F7F822494D708C70A220D1
:1026E00008700021204800F0B5F900BF1D480078AF
:1026F000A228FBD01B480078A02837D101207CBD40
:10270000E6000020DD000020960100209501002059
:10271000DE000020DD0500207473000073730000EC
:10272000736600009F230000DF000020400000507F
:10273000C040005000000E40FC000020E0000020DF
:10274000E2000020E4000020520300002602000006
:10275000E7000020A0420050BD010020140A002024
:1027600097010020C0010020240A002000207CBD29
:1027700010B5002401204049086300BF072000F085
:1027800069F83E49096840183C490860042000F097
:1027900061F83B49096840183949086039480168BF
:1027A0000068401C374A106001208002814216D325
:1027B00000201146086031480068800A2F490860EF
:1027C0002F480068800A2E49086009682E4A514344
:1027D00008462A49096805F045FC2C49086020464E
:1027E000FFF768FE10BD10B5002819DA284A030764
:1027F0001B0F083B9B089B00D2588307DC0EFF236E
:10280000A3409A438B071B0E8407E40EA3401A4390
:102810001F4B0407240F083CA408A4001A5118E019
:102820001C4A03231B02D21883089B00D25883073B
:10283000DC0EFF23A3409A438B071B0E8407E40E94
:10284000A3401A43134B032424021B198408A40039
:102850001A5110BD01468800074A8018006880059B
:10286000800D70470449496A0143034A5162704729
:10287000014608687047000000000E409C010020DF
:10288000A001002098010020E2040000A401002023
:102890001CED00E000E100E030B503684D000324CA
:1028A000AC40A3434D001446AC402343036030BD0D
:1028B000A020FE4908700020FD490860FD4908601D
:1028C000FD490860704770B5059D049C0170427019
:1028D0008370C470047185600026C66070BDF448C2
:1028E0000068002804D1F4490860F2490860704784
:1028F000EF480068F0490860ED480068C068EC499E
:10290000086008460068002802D10860E9490860AC
:1029100000BFECE710B5E5480078A02806D0A12854
:1029200047D0A2287ED0A3287DD112E0FFF7D7FFA1
:10293000E148006800280BD0A220DC490870DF487D
:1029400000F01AFCDD4800F03BFC0020DC49086088
:102950007AE0DB480068401CD9490860012817D993
:10296000D5480068002804D0A320D34909688968A5
:102970000870FFF7B4FFA020CC490870CE4800686B
:10298000002815D0A2200870CC4800F0F5FB0FE01D
:10299000C948006800280BD0C74800680079C649BC
:1029A0000968C870A220C1490870C44800F0E4FB5F
:1029B0004AE0C24800F0ECFBFF200130C1498968C1
:1029C0008143C04A916000BF00BF05210907C96863
:1029D000014305221207D1601146C9688143D160C5
:1029E00000BF00BFB74989680143B64A916000BF84
:1029F000B548B24909690143B04A116100BF00BF3F
:102A000010460068402108431146086000BF00BF1F
:102A100008460068802108431146086000BFA320D3
:102A2000A24901E002E00EE008700DE0A74800684E
:102A3000401CA6490860142803D9A1209B490870AE
:102A400000E010BD00E000BF00BF00209F4908600B
:102A500000BFF6E770B504460D469748006884420B
:102A600007D19548006880680078A02801D0002030
:102A700070BD2079E0708F480068002820D0002DBC
:102A80000DD08B480068844201D10020F0E78848CF
:102A90000068E06086480460FFF73CFF17E0854867
:102AA0000068844204D182480068002800D108E010
:102AB00080480068C4607F4804600020E06006E051
:102AC00000BF7B4804607B4804600020E060012078
:102AD000CEE710B500BF79484069C007C00F002895
:102AE00011D0764800F071FB00BF744840690121A5
:102AF00008437249486100BF084600F044FBA32028
:102B00006A49087010BD00BF6C48C46800BF6A48BD
:102B100000680078C007C00F00D07AE0082C06D00B
:102B2000182C0ED0282C21D0382C68D15DE06248BA
:102B300000680178614800F041FB604800F02DFB1F
:102B4000E0E75D480068C2785B480068C078401CD8
:102B5000594B1B68D870584800688068815C57489A
:102B600000F02CFB554800F018FBCBE752480068FA
:102B7000407801280BD150480068007801210843B3
:102B80004D49096808704D4800F0F6FABAE74A481E
:102B90000068807848490968C978884210DA47484F
:102BA00000F0F1FA454800F010FBA0203F49087002
:102BB000414909688968087000203F490860A1E719
:102BC0003D480068C2783C480068C078401C3A4BD9
:102BD0001B68D870384800688068815C374800F00E
:102BE000EDFA364800F0D9FA8CE7344800F0CBFA19
:102BF000324800F0EAFAA1202C49087082E72F48F9
:102C000000F0C1FA2D4800F0E0FAA320274908702F
:102C100078E7482C1AD006DC082C0AD0102C07D0F4
:102C2000402C6FD119E0502C6ED0582CF9D127E0F0
:102C300000BF2148006800780122104301461F4868
:102C400000F0BCFA1D4800F0A8FA5BE71B4800F052
:102C50009AFAA3201549087054E71748006880784D
:102C600015490968C978884203DD144800F09CFAC8
:102C700002E0124800F09DFA104800F08EFA41E799
:102C800000BF0E488068C1B20B480068C2780A488D
:102C90000068C078401C084B1B68D8700648006864
:102CA00080688154054800F06EFA11E0CA010020E6
:102CB000CC010020D0010020D401002000000240FF
:102CC000D80100200002005050C30000DC010020A9
:102CD000FB4800688078FA490968C97888420ADAAE
:102CE000A020F8490870F649096889680870002032
:102CF000F349086005E0A320F24908700020F0497C
:102D00000860FFE625E0FFE700BFEF488068C1B23A
:102D1000EB480068C278EA480068C078401CE84B7D
:102D20001B68D870E648006880688154E4480068F1
:102D30008078E3490968C978884203DDE24800F0F9
:102D400033FA02E0E04800F034FADF4800F025FAF8
:102D5000D8E6DD4800F017FAA320DA49087000BF72
:102D6000D0E610B502220321D848FFF795FD0222D4
:102D70001146D648FFF790FD00BFD54840680C21AA
:102D80000843D3494860084640690F210906884333
:102D9000052149064018CE49486100BF0221122092
:102DA00000F0ADF90122CB49C748FDF7E7FB00BFB2
:102DB000C548406902210843C349486100BF08462D
:102DC00000F0FEF910BD10B504462046FEF7B5FE32
:102DD00010BD08B5C04800F0CCF90620FFF7F3FF9E
:102DE000BD48001F00F0C2F90620FFF7ECFFBA480B
:102DF00000F0BCF90320FFF7E6FF00BFB648001F54
:102E0000006800900320FFF7DEFFB34800F0B1F93F
:102E10000620FFF7D8FF009808BD10B5AE4800F0B7
:102E2000A8F90320FFF7CFFFAB48001F00F0A1F97E
:102E30000320FFF7C8FFA84800F098F90620FFF725
:102E4000C2FFA54800F095F90620FFF7BCFFA24895
:102E5000001F00F08BF90320FFF7B5FF10BD10B580
:102E60009D4800F086F90320FFF7ADFF9A48001F48
:102E700000F07CF90320FFF7A6FF974800F076F9F1
:102E80000620FFF7A0FF944800F073F90620FFF733
:102E90009AFF9148001F00F069F90320FFF793FFA4
:102EA00010BD10B58C4800F064F90620FFF78BFFC9
:102EB0008948001F00F05AF93C20FFF784FF86483C
:102EC00000F054F90620FFF77EFF8348001F00F052
:102ED00050F90620FFF777FF7F4800F04AF90620F7
:102EE000FFF771FF10BD10B57B48001F00F041F9DE
:102EF0000620FFF768FF784800F038F90620FFF752
:102F000062FF7548001F00F031F90620FFF75BFFF4
:102F100010BD70B50646802400251CE06E4800F008
:102F200028F90320FFF74FFF3046204204D06A48BB
:102F3000001F00F01BF903E06748001F00F019F9BB
:102F40000320FFF740FF644800F010F90620FFF768
:102F50003AFF64106D1C082DE0D370BD70B50026DB
:102F60008024002516E05C4800F003F90620FFF7F6
:102F70002AFF594800F0FAF80620FFF724FF00BFA7
:102F80005548001F0068002802D0304620430646FE
:102F900064106D1C082DE6D3304670BD10B5044694
:102FA000494800F0F5F8484800F00FF948484068F3
:102FB0000C21884346494860084640690F210906AC
:102FC0008843434948614448001F00F0CFF8424815
:102FD00000F0CCF8022211463C48FFF75DFC0222CB
:102FE00003213A48FFF758FC0A20FFF7ECFE3A4865
:102FF000001F00F0BEF81420FFF7E5FE2046FFF7A3
:1030000088FFFFF7E6FE002801D0012010BD002058
:10301000FCE7F8B505460E46174600202F49086024
:103020002F480078FFF7BAFF002861D10A20FFF788
:10303000CAFEFF2109023140080AFFF76AFFFFF7C5
:10304000C8FE012804D125490860FFF74CFFF8BDF0
:103050000A20FFF7B8FEF0B2FFF75BFFFFF7B9FEFB
:10306000012804D11D490860FFF73DFFEFE70A2062
:10307000FFF7A9FEFFF715FF19490978012211434F
:103080000846FFF746FFFFF7A4FE00282AD10024D8
:1030900008E0FA20FFF797FEFFF760FF2855FFF7DB
:1030A000BCFE641C781EA042F3D8FA20FFF78BFE0A
:1030B000FFF754FF2855FFF7D2FEFFF714FFC6E7CE
:1030C000D4010020CA01002000000240404100500D
:1030D0004000005050C300004C430050C401002089
:1030E000C801002001203B490860FFF7FCFE04E016
:1030F000012038490860FFF7F6FE00BFA7E710B5CA
:10310000002819DA344A03071B0F083B9B089B0071
:10311000D2588307DC0EFF23A3409A438B071B0E74
:103120008407E40EA3401A432B4B0407240F083CEA
:10313000A408A4001A5118E0284A03231B02D2183D
:1031400083089B00D2588307DC0EFF23A3409A43D9
:103150008B071B0E8407E40EA3401A431F4B032466
:1031600024021B198408A4001A5110BD012101601A
:1031700070470021016070470168102291432822A6
:1031800011430160704701681822114301607047C4
:1031900001684022914301607047016830229143E9
:1031A0000822114301607047016804221143016045
:1031B0007047016804229143016070478160704745
:1031C00041690422114341617047416904229143DE
:1031D00041617047C40100201CED00E000E100E007
:1031E000826901238B409A438261C369C54A8A4040
:1031F0009343C3617047704770477047704770478B
:10320000704710B50020C049496907221202914356
:103210000143BD4A516100BFD3040A221521BB48B6
:10322000FDF704FC01214907B848FDF757FC00BF32
:10323000B6480068012189070843B449086000BF07
:1032400010BD5520B2490860704770477047B148BB
:103250000078002802D00120AE49087070477047FE
:1032600010B5ADA0FEF7D2F8AE48006808210842BC
:1032700009D000F025F9AB48006808210843A949A6
:10328000086000F025F910BD10B5012203210520CA
:10329000FDF782FC00F014F900F02CF900F01CF9A5
:1032A00000F021F900BF9F480068102188439D4924
:1032B000086000BF00BF0846006802210843994922
:1032C000086000BF00F004F9FDF7A0FC10BD10B5C8
:1032D000002203210620FDF75FFCFDF797FC00F0BC
:1032E000EFF800F007F900F0F7F800F0FCF800BF85
:1032F0008C480068102108438A49086000BF00BF5D
:1033000008460068022188438649086000BF00F033
:10331000DFF810BD10B500F0D3F8022000F0A6FAD7
:103320007D200001FEF71BFC00F0D2F810BD10B5A7
:103330000A217D4800F0BAF800280AD001207B4914
:1033400008700A21784800F0B7F80A217648FFF79C
:1033500047FF0F217448403800F0A8F800280CD02F
:103360000120724908700F216F48403800F0A4F81E
:103370000F216D484038FFF733FF0B216A48403872
:1033800000F094F8002816D00120684908706848B9
:10339000006810218843664908600120654908706B
:1033A0000B216148403800F087F86148006810211F
:1033B00008435F49086010BD00BF54488068012180
:1033C00008435249886000BF5B480068401C5A4966
:1033D0000860C82801D900200860584800780128F2
:1033E0001FD1002055490870554800688000554994
:1033F000085851490968884209D94B4840388068C3
:103400000721090388434849403988604CE0464811
:1034100040388068072109030843434940398860E0
:1034200042E0474800688000464908584249096818
:10343000884205D900BF00204349086000BF05E06D
:1034400000BF01204049086000BF00BF3F4800683E
:1034500080003C49085838490968884206D900BFAD
:10346000002039490831086000BF06E000BF012094
:1034700035490831086000BF00BF3548006880004A
:10348000304908582C490968884206D900BF0020F5
:103490002D49091D086000BF06E000BF01202A4930
:1034A000091D086000BF00BF704770470246106AE0
:1034B00001238B401840704701228A400262704706
:1034C0005920244908601620086088200860704749
:1034D0000020204908607047124800688021084396
:1034E0001049086070470F480068042108430D49DF
:1034F000086070470B4800680121084309490860CB
:10350000704700000100010000020050000001406F
:103510002C020020DD0500205744542D2D30312E83
:103520000D0A00000040004040400050F001002023
:1035300000E100E0CC0000209C020020BA02002044
:103540003C0200204802002030420050400200208F
:10355000440200200001005030B503684D000324F0
:10356000AC40A3434D001446AC402343036030BD40
:1035700000BFFE480068012189078843FB490860B5
:1035800000BF704710B500BF0120F949086000BFB7
:1035900000BF091D086000BF00BF091D086000BF13
:1035A00001220C21F348FFF7D7FF01220D21F1483A
:1035B000FFF7D2FF01220E21EE48FFF7CDFF0020DA
:1035C000ED4949690722120291430143EA4A5161D8
:1035D00000BFD3040A221521E448FDF727FA02218F
:1035E000082000F004FA01214907E048FDF776FAC7
:1035F00000BFDE480068012189070843DB490860F5
:1036000000BF10BD0021DD4A1160DD4908600621C0
:10361000DC4A11600121DC4A116070471421D74A4D
:103620001160D74908600721D64A11600121D64AA6
:103630001160704700B5D3490868D4490968491C2E
:10364000D24A1160C907C90F7BD000BF030004F044
:1036500043FD09F3062748698DBACBDCF30000214E
:10366000CB4A1160CB4A1160C4490968491CC34A5E
:10367000116011460968272902D9012111600EE065
:10368000BE490968142906D9BC4909682822511A7B
:10369000C14A116003E0B9490968BF4A1160E3E01B
:1036A0000021BD4A1160BB4A1160B4490968491C38
:1036B000B24A116011460968272902D90121116017
:1036C0000EE0AE490968142906D9AC4909682822D8
:1036D000511AAF4A116003E0A8490968AC4A116069
:1036E000C2E00021AC4A1160A94A1160A3490968EF
:1036F000491CA24A116011460968142906D91146CD
:1037000009682822511AA34A116003E09B490968FD
:10371000A04A116099490968272902D90121974ACD
:103720001160A1E000219C4A116094490968491C7C
:10373000924A116011460968272903D901211160B5
:103740000FE092E08D490968142906D98B49096870
:103750002822511A8F4A116003E0884909688D4A6E
:1037600011608C4909688A4A11607DE083490968C3
:10377000491C824A116011460968412902D9012178
:10378000116016E07D4909682E2906D97B49096830
:103790004222511A7F4A11600BE0784909681429C6
:1037A00003D914217B4A116003E074490968794AFE
:1037B000116078490968764A1160774A11600121E1
:1037C000764A117050E06D490968142902D06C499D
:1037D00008683BE7FF216B4A116000216A4A1160CB
:1037E00006216F4A11603FE064490968012902D04F
:1037F000634908682AE7FF21624A11600021624A92
:1038000011600721664A11602EE05C490968491C75
:103810005A4A1160114609683C2902D901211160F8
:1038200017E0564909682E2907D9544909683D22ED
:10383000511A584A11600CE015E0504909680F29E7
:1038400003D90F21534A116003E04C490968514ADA
:103850001160504909684E4A11604F4A11600121B8
:103860004E4A117000E000BF00BF00BD00B503006C
:1038700004F032FC0A060E2017454F592A343C61E9
:103880000021434A1160434A1160434A116053E0EA
:1038900014213F4A116000213E4A11603E4A1160E6
:1038A0004AE000213A4A11603A4A116014213A4A2A
:1038B000116041E00021364A11600A21354A116049
:1038C0000021354A116037E00A21314A1160052193
:1038D000304A11600A21304A11602DE014212C4A2F
:1038E00011602C4A11602C4A116025E00021284A01
:1038F0001160284A11601421274A11601CE014212C
:10390000234A11600A21234A11600021224A1160D2
:1039100012E014211E4A116000211E4A1160142178
:103920001D4A116008E01421194A1160194A1160FA
:10393000194A116000E000BD00BF00BFFBE710B5F1
:1039400000BF0B4838300068002801D102F0ACFC01
:1039500014480078002831D11348007801282DD16F
:1039600000BF03480C30006800281FE00000014041
:10397000304200500040005000020050F40200208D
:1039800018030020F0020020F8020020100300209D
:103990003C0200204402002040020020BA02002025
:1039A000FC020020E0050020E801002003D00020F8
:1039B000FFF75CFF02E00320FFF758FF274B0022D0
:1039C0001E2127480078FEF7C3F910BD10B5FEF799
:1039D0008FF92349087008460078FF2806D01F4B4E
:1039E00000221E211E480078FEF7B2F910BD10B566
:1039F000002819DA1B4A03071B0F083B9B089B0092
:103A0000D2588307DC0EFF23A3409A438B071B0E7B
:103A10008407E40EA3401A43124B0407240F083C0A
:103A2000A408A4001A5118E00F4A03231B02D2185D
:103A300083089B00D2588307DC0EFF23A3409A43E0
:103A40008B071B0E8407E40EA3401A43064B032486
:103A500024021B198408A4001A5110BD3F3900002C
:103A6000AE0200201CED00E000E100E030B503688C
:103A70004D000324AC40A3434D001446AC40234307
:103A8000036030BD0268F8239A43202901D00B4619
:103A900000E00023DB001A430260704770B5044663
:103AA0000D462946FA48FFF7EDFF2146F84800F099
:103AB00055FFF74800F03EFF00BFF54800F03FFF1C
:103AC0000028FAD170BD70B5054600BF052000077B
:103AD000806B0F210843052109078863ED480069C1
:103AE000FF21E1310843EB49086100BF00BF052019
:103AF0000007806B89018843052109078863E54831
:103B00000069012109050843E249086100BF01205D
:103B1000E149C969890889000143DF4AD16100BFD1
:103B20004007114689680143916000BF00BF05212D
:103B30000907C968014305221207D1601146C96807
:103B40008143D16000BF00F0D1FE00F0D7FED34822
:103B5000854203D1032000F0D9FE0CE0D048854215
:103B600003D1062000F0D2FE05E0CE48854202D106
:103B70000C2000F0CBFEE901CB4804F073FA461D9F
:103B80000A21304604F06EFA441E2046C7494968AF
:103B9000FF221202914302021143C44A516000BF46
:103BA000C34C202008280ED0102809D0182804D093
:103BB00020280AD13020044308E02020044305E0F7
:103BC0001020044302E000BF00E000BF00BF00BFC0
:103BD000B648046000BF70BD10B500F08FFE00BF96
:103BE000B248006802210843B049086000BF00F0F5
:103BF0007DFE00BFAD48006804210843AB49086062
:103C000000BF0420FCF7DEFE01211B2000F031FE86
:103C100010BD7047F8B507460D46164600249C486F
:103C200000F097FE9A4800F07FFE994800F08CFE65
:103C300008210320FFF732FF18213846FFF72EFF37
:103C4000934800F06BFE07E00821FF20FFF726FFF6
:103C50008F4800693055641CAC42F5D38C4800F0A5
:103C600078FEF8BDF8B505460C4617460026002C30
:103C700009D02803000B07214904884203D3FF2001
:103C80000130844201D90020F8BD814800F061FE76
:103C90007F4800F049FE7E4800F056FE08210620CD
:103CA000FFF7FCFE7A4800F054FE00BF784800F0B1
:103CB0004BFE08210220FFF7F1FE280A000218211E
:103CC000FFF7ECFE002604E0B85D0821FFF7E6FEF2
:103CD000761CA642F8D36E4800F03BFE6C4800F01C
:103CE00023FE6B4800F030FE08210420FFF7D6FECB
:103CF000674800F02EFE664800F02BFE644800F096
:103D000013FE634800F020FE08210520FFF7C6FEE1
:103D10000821FF20FFF7C2FE5D4800696549087071
:103D20005B4800F016FE17E0594800F012FE5848B4
:103D300000F0FAFD564800F007FE08210520FFF7C5
:103D4000ADFE0821FF20FFF7A9FE5148006959493F
:103D500008704F4800F0FDFD56480078C007C00FBE
:103D6000E2D1012090E710B5012204215248FFF76B
:103D70007DFE012205215048FFF778FE0122062131
:103D80004D48FFF773FE002207214B48FFF76EFEF8
:103D90004A4800F0A5FD4948001D00F0A4FD10BDF3
:103DA000002047490860474908604749086047497B
:103DB0000860474908604749086047490860474923
:103DC0000860474908604749086047490870474903
:103DD0000860704770B505462D4800F0BAFD2C48C4
:103DE00000F0A2FD2A4800F0AFFD08210320FFF7F4
:103DF00055FE18212846FFF751FE254800F08EFD9C
:103E0000002408E00821FF20FFF748FE2048006951
:103E100037490855641C2E2CF4D3354800880C38DB
:103E2000344908603248008833490860002407E0BC
:103E300061002F48801D405A6100304A5052641C76
:103E4000142CF5D370BD704710B52D4A58210020B1
:103E5000FFF708FF10BD10B52A4829490860012066
:103E60004860010226488160274801682448C160F3
:103E7000FFF7EAFF10BD704710B5FFF7ECFF0448ED
:103E800000F067FD0020214908702149086010BD3D
:103E900000001340400000500002005080BB0000B2
:103EA000C05D0000E02E0000B0BFF02B00001A4003
:103EB0000192000038030020404000505042005062
:103EC00060030020640300205003002054030020FE
:103ED000580300205C030020480300204C0300200E
:103EE000440300203C03002068030020D803002086
:103EF0008C0A0020DC030020E0030020BA0A002026
:103F0000340A0020474C534E300300201C0300208D
:103F1000FC050020704702460020704710B5F748A6
:103F2000006800287DD11021F548FFF7ABFDFF2187
:103F3000F34800F013FDF24800F0FCFCEF48006885
:103F4000401CEE49086000BFED4800F0F8FC002876
:103F5000FAD1EB480069EB4908602021E848FFF7F7
:103F600091FDFF21E64800F0F9FCE54800F0E2FC95
:103F7000E4480068000A4000E3490860E14800782E
:103F80004000E0490860084600684000DF49085AE0
:103F9000DF490880DB480068401C4000DB49085AC4
:103FA000DC490880D84800684000D849085ADA49F6
:103FB0000880D5480068401C4000D449085AD749B9
:103FC000088000BFCE4800F0BAFC0028FAD1CC48E7
:103FD0000069D34908602021C948FFF753FDFF213C
:103FE000C74800F0BBFCC64800F0A4FCCC48006801
:103FF000000CCC490860CA48008880B2C8490860F3
:1040000000BFBF4800F09BFC0028FAD1BC48006903
:10401000C54908602021BA48FFF734FDFF21B848A0
:1040200000E02BE000F09AFCB54800F083FCBE48AD
:1040300000680014BD490860BB48008800B2BA4956
:10404000086000BFAE4800F07AFC0028FAD1AC4806
:104050000069B7490860084600680014B54908605F
:10406000B348008800B2B249086008460068B24907
:104070000860B0480068B1490860C7E09F48006820
:1040800001280DD19D480068401C9C490860A64845
:104090000068A9490860A5480068A8490860B5E01B
:1040A00096480068401C9549086008460068A44985
:1040B000096888420CD1002090490860A148006836
:1040C000401EA0490860A0484088401E9E49488084
:1040D0000821FF20FFF7E2FC8948006944B29248BA
:1040E00000688B4900228A5E504391490968894AD9
:1040F0000023D35E5943401800128F4908602011F5
:104100008749096848438C49096840188A4908600A
:10411000084600688D49884202DD084686490860E5
:10412000854800688949C943884202DA08468249BD
:1041300008607D4800687E4908607F48008800B2BA
:10414000794908602006000F8000814908587449A9
:1041500009684843000A7249086008460068102848
:1041600001D2102008606E4800687A49884202D95E
:1041700008466B4908606D480068674900228A5EFE
:1041800050436C490968654A0023D35E594340187F
:1041900000126A490860200140B2041161480068B9
:1041A0006043096840186549086008460068674927
:1041B000884202DD0846614908606048006863493A
:1041C000C943884202DA08465C49086057480068DB
:1041D0005849086059480068544908602007800E13
:1041E0005B4908584F4909684843000A4D4908602F
:1041F00008460068102801D210200860494800686D
:104200005449884202D908464649086010BD70B535
:1042100005460C4650480078012841D14A4840885C
:1042200000282BDD4D480068002811D000204B49A4
:104230000860414800684A4909684018C00328607E
:104240003E480068474909684018C003206027E0DD
:1042500001204249086039480068424908603648F0
:1042600000683F490860FFF759FE334800880004A2
:104270002860324800880004206011E0204800F0E7
:1042800068FB00202860206000F030FB00F036FB67
:1042900000203149087034490870344834490860B6
:1042A00070BD70B5002525E06006040E314800F0B1
:1042B00017FB00BF2F48001D0068002801D0012017
:1042C000044300BF00BF00BF00BF00BF00BF00BF6E
:1042D00000BF00BF00BF274800F005FB00BF00BFC4
:1042E00000BF00BF00BF00BF00BF00BF00BF00BFD6
:1042F000681CC5B2082DD7DB204670BDD80300204E
:10430000000013406003002064030020BA0A00206C
:10431000C4030020C6030020C8030020CA030020F5
:10432000B4030020B8030020580300205C030020E1
:10433000BC030020C00300205403002050030020D1
:10434000DC030020E00300208C0A0020FF7F000037
:104350006C030020FF3F00001C030020CC03002062
:10436000D4030020D003002011010020153F0000DD
:10437000B80100205442005070B50446002529E0E1
:104380008020044203D0FE4800F0AAFA02E0FC4874
:1043900000F0A9FA00BF00BF00BF00BF00BF00BF10
:1043A00000BF00BF00BF00BFF548001F00F098FA33
:1043B0006006040E00BF00BF00BF00BF00BF00BF0B
:1043C00000BF00BF00BF00BFED48001F00F08BFA28
:1043D000681CC5B2082DD3DB70BDFFB581B00546A2
:1043E0000E4617460024E648001F00F07CFAE44819
:1043F000083800F078FA00BF00BF00BF00BF00BF60
:1044000000BF00BF00BF00BF00BF00BF00BF00BFB4
:1044100000BF00BF00BF00BF00BF00BF00BF00BFA4
:1044200000BF00BF00BF00BF00BF00BF00BF00BF94
:1044300000BF00BF00BF00BF00BF00BF00BF00BF84
:1044400000BF00BF00BF00BF00BF00BF00BF00BF74
:1044500000BF00BF00BF00BF00BF00BF00BF00BF64
:1044600000BF00BF00BF00BF00BF00BF00BF00BF54
:1044700000BF00BF00BF00BF00BF00BF00BF00BF44
:1044800000BF00BF00BF00BF00BF00BF00BF00BF34
:1044900000BF00BF00BF00BF00BF00BF00BF00BF24
:1044A00000BF00BF00BF00BF00BF00BF00BF00BF14
:1044B00000BF00BF00BF00BF00BF00BF00BF00BF04
:1044C00000BF00BF00BF00BF00BF00BF00BF00BFF4
:1044D00000BF00BF002403E0305DFFF74DFF641C08
:1044E000AC42F9DB002404E0FFF7DBFE0499085539
:1044F000641CBC42F8D300BF00BF00BF00BF00BFB8
:1045000000BF00BF00BF00BF00BF00BF00BF00BFB3
:1045100000BF00BF00BF00BF00BF00BF00BF00BFA3
:1045200000BF00BF00BF00BF00BF00BF00BF00BF93
:1045300000BF00BF00BF00BF00BF00BF00BF00BF83
:1045400000BF00BF00BF00BF00BF00BF00BF00BF73
:1045500000BF00BF00BF00BF00BF00BF00BF00BF63
:1045600000BF00BF00BF00BF00BF00BF00BF00BF53
:1045700000BF00BF00BF00BF00BF00BF00BF00BF43
:1045800000BF00BF00BF00BF00BF00BF00BF00BF33
:1045900000BF00BF00BF00BF00BF00BF00BF00BF23
:1045A00000BF00BF00BF00BF00BF00BF00BF00BF13
:1045B00000BF00BF00BF00BF00BF00BF00BF00BF03
:1045C00000BF00BF00BF00BF00BF00BF00BF00BFF3
:1045D00000BF6B48001F00F086F96948083800F0FA
:1045E0007FF9002005B0F0BDFFB581B005460E464D
:1045F00017466348001F00F076F96148083800F05C
:1046000072F900BF00BF00BF00BF00BF00BF00BF06
:1046100000BF00BF00BF00BF00BF00BF00BF00BFA2
:1046200000BF00BF00BF00BF00BF00BF00BF00BF92
:1046300000BF00BF00BF00BF00BF00BF00BF00BF82
:1046400000BF00BF00BF00BF00BF00BF00BF00BF72
:1046500000BF00BF00BF00BF00BF00BF00BF00BF62
:1046600000BF00BF00BF00BF00BF00BF00BF00BF52
:1046700000BF00BF00BF00BF00BF00BF00BF00BF42
:1046800000BF00BF00BF00BF00BF00BF00BF00BF32
:1046900000BF00BF00BF00BF00BF00BF00BF00BF22
:1046A00000BF00BF00BF00BF00BF00BF00BF00BF12
:1046B00000BF00BF00BF00BF00BF00BF00BF00BF02
:1046C00000BF00BF00BF00BF00BF00BF00BF00BFF2
:1046D00000BF00BF00BF00BF00BF00BF00BF00BFE2
:1046E000002404E0305DFFF747FE601CC4B2AC421A
:1046F000F8DB002405E00499085DFFF73DFE601C2F
:10470000C4B2BC42F7D300BF00BF00BF00BF00BFB0
:1047100000BF00BF00BF00BF00BF00BF00BF00BFA1
:1047200000BF00BF00BF00BF00BF00BF00BF00BF91
:1047300000BF00BF00BF00BF00BF00BF00BF00BF81
:1047400000BF00BF00BF00BF00BF00BF00BF00BF71
:1047500000BF00BF00BF00BF00BF00BF00BF00BF61
:1047600000BF00BF00BF00BF00BF00BF00BF00BF51
:1047700000BF00BF00BF00BF00BF00BF00BF01E01F
:104780005842005000BF00BF00BF00BF00BF00BFC5
:1047900000BF00BF00BF00BF00BF00BF00BF00BF21
:1047A00000BF00BF00BF00BF00BF00BF00BF00BF11
:1047B00000BF00BF00BF00BF00BF00BF00BF00BF01
:1047C00000BF00BF00BF00BF00BF00BF00BF00BFF1
:1047D00000BF00BF00BF00BF00BF00BF00BF00BFE1
:1047E00000BF00BF00BF00BF5D4800F07CF85C4820
:1047F000001F00F075F8002005B0F0BD10B50322D1
:1048000009215848FFF732F95548103000F06BF88D
:10481000C820FDF7A4F95248103000F061F83220AA
:10482000FDF79DF9002209214E48FFF71FF90220EC
:10483000FDF795F910BD7047704710B50446204646
:10484000FDF78DF910BD484909682022114008463E
:10485000002804D0444909689143434A11607047D5
:10486000002805D040490968202211433E4A1160C2
:10487000704710B5002819DA3C4A03071B0F083BA4
:104880009B089B00D2588307DC0EFF23A3409A436A
:104890008B071B0E8407E40EA3401A43334B040717
:1048A000240F083CA408A4001A5118E02E4A032340
:1048B0001B02D21883089B00D2588307DC0EFF230B
:1048C000A3409A438B071B0E8407E40EA3401A43B0
:1048D000254B032424021B198408A4001A5110BD7F
:1048E0000121016070470021016070472048006885
:1048F0000121C90408431E49086070471C4800682C
:104900000121890408431A49086070471849496819
:10491000C908C9000143164A516070470168012265
:10492000D20411430160704701680122D20491430F
:104930000160704701680122114301607047014620
:104940000868C007C00F7047816801221143816069
:10495000704781684908490081607047016270476B
:10496000544200504040005000E100E01CED00E0E7
:1049700000001A407CB504460D46FA480121022386
:104980000022009101903821F748FDF79CFFF5487F
:1049900044708570A220F34908700021F248FEF7A8
:1049A00059F800BFEF480078A228FBD0ED48007806
:1049B0007CBD1CB50446EB48012102230A46009148
:1049C00001903821E848FDF77EFFE6484470002159
:1049D0008170A220E34908700021E348FEF73AF80D
:1049E00000BFE0480078A228FBD0DE480078DD4810
:1049F00080781CBD10B5002414E0582C00D312E0C0
:104A0000DA4B621C995C1A46105DFFF7B3FFA41CD9
:104A100000F095FB00F09BFB00BF0020D44908602C
:104A200000BF00BFE9E700BFDF210520FFF7A2FFBD
:104A3000CC48007810BD10B5FDF75AF9CD49087083
:104A400010BD1CB5002400BF28E0C6494C700021F1
:104A5000C4488170A220C34908700846012102237E
:104A60000A46009101903821BF48FDF72CFF002134
:104A7000BD48FDF7EFFF00BFBA480078A228FBD081
:104A8000B8488078BC49085500F059FB00F05FFB3E
:104A900000BF0020B649086000BF641C162CD4D3A8
:104AA0002D20B04948700021AE488170A220AD4948
:104AB00008703820AC4908700021AB48FDF7CAFFE8
:104AC00000BFA8480078A228FBD0A6488078AA4951
:104AD00088751CBD70B505460E463F2D03D83F2E88
:104AE00001D8B54200D970BD2C4620E0002131200C
:104AF000FFF740FFE1B21620FFF73CFFA0009F49FF
:104B000041189F480968016081781720FFF732FF3C
:104B10009B4841781820FFF72DFF9948017819200C
:104B2000FFF728FF01212620FFF724FF641CB44271
:104B3000DCD900BFD7E7F8B505460F461646002476
:104B400000213120FFF716FFE9B21620FFF712FF10
:104B50001DE0A00081198A48096801600246917829
:104B60006200A2181732D0B2FFF704FF844A5178CE
:104B70006200A2181832D0B2FFF7FCFE804A11780A
:104B80006200A2181932D0B2FFF7F4FE641C052CA3
:104B9000DFD302212620FFF7EDFEF8BD10B500247B
:104BA00070480078A02855D16E48807875490978FA
:104BB000884200D13FE028E06A4881787248006866
:104BC000401E704A105C814212DA664880781146B5
:104BD0006D4A1268895C88420ADB6B480068401E97
:104BE0006849095C5F48817067480068441E10E0AE
:104BF00065480068012803D1202063490446086005
:104C000061480068401E604908605F4800680028ED
:104C1000D2D100BF5C48006801280BD81F205A4938
:104C200004460860594B0022032159480078FDF7DB
:104C30008FF810BD00BF5748015D0A20FFF79AFEAC
:104C40005448015D0920FFF795FE4E48015D08209C
:104C5000FFF790FE4D4B002203214D480078FDF7F1
:104C600077F800BFE5E710B500243E480078A0289B
:104C700036D1454800681F2803D300204249044626
:104C8000086019E0374880783E493F4A1268895CDD
:104C900088420CDC334881783A4A3B480068401C23
:104CA000105C814203DD38480068441C08E0364847
:104CB0000068401C34490860334800681F28E1D36D
:104CC00000BF3448015D0A20FFF754FE3148015D02
:104CD0000920FFF74FFE2B48015D0820FFF74AFE31
:104CE0002A4B002203212A480078FDF731F810BD35
:104CF00010B51E210620FFF73DFE10BD10B5264859
:104D00000078A02878D125480078030003F0E4F962
:104D10000BA7070875A3A5A6581F76A4A7009FE0B8
:104D20001048807817491E4A1268895C884202DD63
:104D3000FFF799FF0AE01648007800F00FFA1148D3
:104D400001780848817000201649087088E00548FD
:104D500081780C48124A1268805C814224DAFFF79D
:104D60001DFF2CE0D4050020E40A00207C04002074
:104D700000010050D7050020F40A0020D4040020D0
:104D8000D80500201C040020E4030020FD4C000096
:104D9000DF0500203C040020F8030020FB03002076
:104DA000F4030020EC030020F048007800F0D6F96E
:104DB000EF480178EF4881700020EF4908704FE01C
:104DC000EC488078EA49ED4A1268895C884209DD3E
:104DD000EA480068EA4908600220EA490870FFF7DB
:104DE00042FF08E0E5480068E54908600820E54919
:104DF0000870FFF7D3FE33E033E000BFDD48807872
:104E0000DB490978884223D1DE480078032804D1A1
:104E1000FFF76EFFFEF7F4F916E0DB480078012893
:104E20000DD10020D849087000BFD84880684008DC
:104E30004000D649886000BF0020D54908600220A4
:104E4000D0490870FFF70FFF0020CB49087001E040
:104E5000FFF7A4FE04E003E002E001E000E000BF91
:104E600013E0CC480078A22807D1CB4B00220121C7
:104E7000BE480078FCF76CFF07E0A020C549087029
:104E80000020BD490870C549087010BD00B5BD4877
:104E90000078030003F020F90B160716080A16091C
:104EA00016160B0C160000BF00BF00BF00BF00BFEE
:104EB000AF48B3490968415CAE4881700120AE49F2
:104EC000087000E000BF00BF00BD10B50446AA484E
:104ED0000078002803D1B1480078002800D010BD28
:104EE000A8480470FFF7D2FFAB4B002202219F4875
:104EF0000078FCF72DFF00BFF1E710B5A04800686F
:104F0000002801D1A6490860A448007800280AD1E9
:104F1000A3480068002803D10420FFF7D6FF02E071
:104F20000520FFF7D2FF10BD10B59E48007800F0B5
:104F300015F910BD10B504469BA12046FCF7EBFC0B
:104F4000002C01D0212C04D1FF210A20FFF712FDF3
:104F500006E09948005D001FC1B20A20FFF70AFD74
:104F600010BD10B584480078002803D18B48007824
:104F7000002800D010BD7F480078A22807D18F4BB1
:104F80000022022187480078FCF7E2FEF2E77C4825
:104F9000006800280CD07A480068401E78490860F4
:104FA0008048007800F0DAF875480068FFF7C2FF23
:104FB00000BFDFE710B570480078002803D17748BC
:104FC0000078002800D010BD6A480078A22807D1D8
:104FD0007B4B0022022173480078FCF7B9FEF2E710
:104FE000674800681F280CD265480068401C644967
:104FF00008606C48007800F0B1F861480068FFF77D
:1050000099FF00BFDFE710B510210620FFF7B2FCC3
:1050100010BD10B55C210520FFF7ACFC10BD10B52C
:10502000DC210520FFF7A6FC10BD10B518210620D5
:10503000FFF7A0FC20210C20FFF79CFC4C480178D6
:105040004C48817010BD10B510210620FFF792FC6E
:10505000C0210C20FFF78EFC45480178454881703F
:1050600010BD584800795749C870A02041490870C0
:10507000704710B5044621461320FFF77BFC10BD96
:1050800010B50E20FFF795FC044602202043014690
:105090000E20FFF76FFC0F20FFF78BFC0446022069
:1050A000204301460F20FFF765FC1020FFF781FC2D
:1050B00004460220204301461020FFF75BFC10BD90
:1050C00010B50E20FFF775FC0446022220469043DF
:1050D00001460E20FFF74EFC0F20FFF76AFC044646
:1050E00002222046904301460F20FFF743FC102088
:1050F000FFF75FFC04460222204690430146102041
:10510000FFF738FC10BD10B52648007800F026F8EF
:1051100010BD10B518480078002803D11F4800784A
:10512000002801D0002010BD022016490870104848
:10513000017810488170FFF7E1FD0120F3E7592065
:1051400021490860162008608820086070471F48C1
:105150000068012108431D490860704700220C21A6
:1051600041431B4BC9184A7070470000DF050020FF
:105170001C040020D4050020EC030020E8030020DC
:10518000F4030020FB0300201C0300200000134058
:10519000FC050020F8030020FD4C0000ED0300207A
:1051A000F0030020D70500202020566F6C756D6538
:1051B0007369697A653A20005C040020634F00003F
:1051C000B54F0000E40A00200001005000400040FC
:1051D0007C0900200146002901DA48427047084650
:1051E000FCE71CB5394880693949086000BF394877
:1051F000C0683949086039480968016000BF35480E
:105200004069019000BF33484069009034480078FD
:1052100001284AD100200190009030480068C00168
:10522000C00F2E490968C900C90F884207D12A4911
:105230000198086000980190084600680090019865
:10524000000200994018274908600198002801DDF4
:10525000019801E001984042001423490968401870
:10526000214908600098002801DD009801E00098BD
:10527000404200141D49096840181C49086017483D
:1052800000780007C00F0CD014480068C000C00FA1
:1052900007D01149019808600098019008460068FD
:1052A0000090694601A8FEF7B2FF009800F00AF8E6
:1052B000019800F007F81CBD01200D4908607047F7
:1052C00070477047034908617047000000E000E044
:1052D0001806002000001A400C06002010060020CE
:1052E0001101002028060020280300202C030020A4
:1052F000F405002030B503684D000324AC40A343FF
:105300004D001446AC402343036030BD10B5044645
:105310002046FCF712FC10BD08B5FD4801F02EF93F
:105320000620FFF7F3FFFA48001F01F024F90620DA
:10533000FFF7ECFFF64801F01EF90320FFF7E6FF48
:1053400000BFF348001F006800900320FFF7DEFF56
:10535000EF4801F013F90620FFF7D8FF009808BDC9
:1053600010B5EB4801F00AF90320FFF7CFFFE8483A
:10537000001F01F003F90320FFF7C8FFE44801F024
:10538000FAF80620FFF7C2FFE14801F0F7F806201F
:10539000FFF7BCFFDE48001F01F0EDF80320FFF728
:1053A000B5FF10BD10B5DA4801F0E8F80320FFF7AB
:1053B000ADFFD748001F01F0DEF80320FFF7A6FF7E
:1053C000D34801F0D8F80620FFF7A0FFD04801F03D
:1053D000D5F80620FFF79AFFCD48001F01F0CBF863
:1053E0000320FFF793FF10BD10B5C94801F0C6F8C0
:1053F0000620FFF78BFFC648001F01F0BCF83C20D9
:10540000FFF784FFC24801F0B6F80620FFF77EFFE1
:10541000BF48001F01F0B2F80620FFF777FFBC4835
:1054200001F0ACF80620FFF771FF10BD10B5B848C9
:10543000001F01F0A3F80620FFF768FFB44801F051
:105440009AF80620FFF762FFB148001F01F093F8B9
:105450000620FFF75BFF10BD70B5064680240025CF
:105460001CE0AB4801F08AF80320FFF74FFF3046FD
:10547000204204D0A648001F01F07DF803E0A448B4
:10548000001F01F07BF80320FFF740FFA04801F068
:1054900072F80620FFF73AFF64106D1C082DE0D368
:1054A00070BD70B500268024002516E0984801F0F4
:1054B00065F80620FFF72AFF954801F05CF8062002
:1054C000FFF724FF00BF9248001F0068002802D0A9
:1054D00030462043064664106D1C082DE6D3304646
:1054E00070BD10B504468A48001F01F044F8884892
:1054F00001F041F802220A218648FFF7FBFE022252
:105500000B218448FFF7F6FE0120834908600A203A
:10551000FCF713FB7E48001F01F030F81420FFF762
:10552000F5FE2046FFF798FFFFF7F6FE002801D0B2
:10553000012010BD0020FCE7704770B505460E46FF
:105540000020764908708020FFF7CBFF00283BD170
:105550000A20FFF7DBFEE8B2FFF77EFFFFF7DCFE75
:10556000012804D16D490870FFF760FF70BD0A2063
:10557000FFF7CCFEFFF738FF8120FFF76DFFFFF745
:10558000CBFE00281AD1002409E0FA20FFF7BEFE66
:10559000FFF787FF62490855FFF7E2FE641C701EA3
:1055A000A042F2D8FA20FFF7B1FEFFF77AFF5C497C
:1055B0000855FFF7F7FEFFF739FFD7E701205749F6
:1055C0000870FFF733FF04E0012054490870FFF72B
:1055D0002DFF00BFCAE7F7B50546164600204F4924
:1055E00008708020FFF77DFF00282CD168460079E5
:1055F000FFF732FFFFF790FE012804D147490870FA
:10560000FFF714FFFEBD3220FFF780FE002D16D0FD
:10561000002412E03E4800F0B1FF285DFFF71CFFB8
:10562000FFF77AFE012804D13C490870FFF7FEFE1F
:10563000E8E7FA20FFF76AFE641CB442EAD30020D0
:105640003649087002E0012034490870FFF7EEFE89
:1056500000BFD7E770B505460C4600202F490870FB
:105660003820FFF73EFF00281BD12846FFF7F4FE45
:10567000FFF752FE012804D128490870FFF7D6FE33
:1056800070BD234800F07AFF0620FFF73FFE20465A
:10569000FFF7E2FEFFF740FE012802D11F49087024
:1056A000EEE7FFF7C3FE00BFEAE708B50120009070
:1056B0000122C2216846FFF78EFFFFF73DFF08BDBC
:1056C00010B503213F20FFF738FF15480078144933
:1056D0004978401812498978884216D110480078D4
:1056E000C007C00F0F4908700D48407804210840DA
:1056F0000C4988700A4840780821084009494870D8
:1057000007488078C007C00FC870FFF715FF10BDAD
:105710002C42005000400050340600203806002083
:105720005E0B00206C06002008B5002000900122CE
:10573000CA216846FFF74FFFFFF7FEFE08BD0020B5
:1057400003E00522F9490A54401C0C28F9D370479C
:1057500008B5012000900122CA216846FFF73BFFEF
:10576000FFF7EAFEFFF7EBFF08BD1CB5F04903C9E0
:1057700001910090EF48017868464171ED48417809
:1057800068468171EB4881786846C1710822022120
:10579000FFF721FFFFF7D0FE1CBD08B500200090E9
:1057A0000122C3216846FFF716FFFFF7C5FE08BDBB
:1057B00010B50322C621DF48FFF70DFF1420FCF7C8
:1057C000CEF9FFF7B9FE10BD10B503213D20FFF75C
:1057D000B4FEFFF7B1FED8480078D6490870D64825
:1057E00040784870D4488078887010BD10B5032187
:1057F0003D20FFF7A2FEFFF79FFECF480078CD497E
:105800000870CD4840784870CB488078887008464A
:105810000078042801DD012010BD0020FCE710B550
:1058200003213D20FFF789FEFFF786FEC24800787E
:10583000C0490870C04840784870BF488078887078
:1058400008460078042803DC08460078012801DABD
:10585000002010BD0120FCE708B5012000900122C6
:10586000C3216846FFF7B7FEFFF766FE08BD10B517
:1058700001212120FFF761FEFFF75EFEAF480078AF
:10588000012801D1002010BDAB480078CC2803D1FD
:10589000AB48AC49086006E0A7480078552802D11B
:1058A000A948A84908600120EDE710B5A448A5491A
:1058B0000860FFF7DCFFA3480068A14988420BD1CC
:1058C000FFF732FF3220FCF74AF9A04B0022A04933
:1058D000A0480078FCF73CFA10BD10B500209E49A6
:1058E000086001209D49087000F077FF974B002267
:1058F0009B4998480078FCF72BFA10BD10B50220A0
:105900008D490870002048708870C8701020087198
:10591000CF20487113208871AA20C871BB2008725B
:10592000084601780822401CFFF755FE10BD10B54F
:1059300000208149087048708870C8701020087174
:10594000002048715A208871C87108720846017891
:105950000822401CFFF73FFE10BD10B5002076491D
:10596000087048708870C870102008710020487155
:10597000A5208871C8710872084601780822401C69
:10598000FFF729FE10BD10B500206B490870487064
:105990008870C8701020087100204871EF2088714D
:1059A000C8710872084601780822401CFFF713FEF0
:1059B00010BD10B500206049087048708870C8702C
:1059C0001020087100204871FE208871C87108728B
:1059D000084601780822401CFFF7FDFD10BD10B5F8
:1059E00000205549087048708870C87010200871F0
:1059F00000204871DC208871C8710872084601785F
:105A00000822401CFFF7E7FD10BD10B500204A49F1
:105A1000087048708870C8701020087100204871A4
:105A2000CD208871C8710872084601780822401C90
:105A3000FFF7D1FD10BD10B500203F490870487038
:105A40008870C87010200871002048712220887169
:105A5000C8710872084601780822401CFFF7BBFD98
:105A600010BD10B500203449087048708870C870A7
:105A7000102008710020487155208871C871087283
:105A8000084601780822401CFFF7A5FD10BD10B59F
:105A900034A0FBF7BBFC00202749087048708870D1
:105AA000C870102008710020487177208871C87173
:105AB0000872084601780822401CFFF78CFD10BDD3
:105AC00008B52FA0006800902E4801786846017044
:105AD0002C480178684641702A48017868468170F0
