:020000040000FA
:1000000080230020150400001D0400001F040000D0
:10001000210400002304000025040000000000006B
:1000200000000000000000000000000027040000A5
:1000300029040000000000002B0400002D04000033
:100040002F0400002F0400008D0E00003507000073
:100050006D0700002F040000450600002F0400007B
:100060000D0A00002F0400002F0400002F040000E0
:100070002F0400002F0400002F0400002F040000B4
:100080002F040000110700002F0400002F040000BF
:100090007D0700002F0400002F0400002F04000043
:1000A0002F0400002F0400002F0400002F04000084
:1000B0002F0400002F0400000000000000000000DA
:1000C0002F0400002F0400002F0400002F04000064
:1000D0002F0400002F0400002F0400000000000087
:1000E0000000000000000000000000000000000010
:1000F0000000000000000000000000000000000000
:1001000000000000000000000000000000000000EF
:1001100000000000000000000000000000000000DF
:10040000DFF80CD000F04AF800480047F91300006C
:10041000802300200648804706480047FEE7FEE7A5
:10042000FEE7FEE7FEE7FEE7FEE7FEE7FEE7FEE7A4
:10043000AD0700000104000040EA01039B0703D060
:1004400009E008C9121F08C0042AFAD203E011F813
:10045000013B00F8013B521EF9D27047D2B201E0D5
:1004600000F8012B491EFBD270470022F6E710B5B9
:1004700013460A4604461946FFF7F0FF204610BD12
:1004800030B504460020034600E05B1C934203D2D3
:10049000E05CCD5C401BF8D030BD0000064C074D41
:1004A00006E0E06840F0010394E807009847103444
:1004B000AC42F6D3FFF7A8FFC02B0000E02B0000F2
:1004C000401E00BF00BF00BF00BF00BF00BF00BF95
:1004D00000BF00BF00BF00BF00BF00BF00BF00BF24
:1004E00000BF00BF00BF00BF00BF00BF00BF00BF14
:1004F00000BF00BF00BF00BF00BF00BF00BF00BF04
:1005000000BF00BF00BF00BF00BF00BF00BF00BFF3
:1005100000BF00BF00BF00BF00BF00BF00BF00BFE3
:1005200000BF00BF00BF00BF00BF00BF00BF00BFD3
:1005300000BFC5D17047000010B5064C034600222D
:10054000985C00F051F8A054521CD2B2102AF7D394
:1005500010BD00006C03002023283BD012DC1628BD
:1005600030D008DC0B2823D00D281FD00E281BD03C
:10057000132817D124E019281ED01A281ED01C28B1
:1005800010D117E02C282BD006DC252826D02628D1
:1005900022D0292806D125E0312815D0322815D0BF
:1005A000342815D0FF207047002070470120704785
:1005B00002207047032070470420704705207047D1
:1005C00006207047072070470820704709207047B1
:1005D0000A2070470B2070470C2070470D20704791
:1005E0000E2070470F207047102829D2DFE800F056
:1005F000080A0C0E10121416181A1C1E202224268B
:100600000E2070470D2070470B2070471C2070474C
:10061000192070471A207047132070471620704722
:1006200031207047322070473420704723207047B4
:1006300026207047252070472C20704729207047BE
:10064000FF20704770B51348D0F8001101291FD161
:10065000D0F80413C9071BD00021C0F800110E4DBB
:100660000124687900B96C712879012810D12971A9
:100670004FF48C7000F0B6FD082000F011F808204F
:1006800000F024F80548C46004606C7003206871B1
:1006900070BD0000006000400000002000800040AD
:1006A00000F01F02012191404009800000F1E0208C
:1006B000C0F88012704700F01F02012191404009EC
:1006C000800000F1E020C0F88012704700F01F02A7
:1006D000012191404009800000F1E020C0F80011A4
:1006E000704700F01F02012191404009800000F195
:1006F000E020C0F80011704700F01F020121914076
:100700004009800000F1E020C0F8001270470000AE
:1007100007480021C0F84011C0F84411C0F8481142
:10072000C0F84C11C0F80011C0F8041101F066BE09
:100730000010014070B50C480A4C0025C0F8085163
:10074000214601F09DFE00280BD1A07EFF2801D09C
:1007500001F0F4FB65762571201D2168BDE870402D
:10076000084770BD4C0300200030004002494FF0A4
:10077000402001F031BD00003403002001F0DABD5B
:1007800009490848086000218004C0F800110122CE
:10079000C0F80020D0F80021002AFBD0C0F80011DA
:1007A000704700000090D0030801002070B48C480E
:1007B0000023021D0178101D0124062907D1157898
:1007C0002D0704D10578C5F30315032D02D00629A2
:1007D00004D00FE0844E834D75670EE015782D0729
:1007E00008D10578C5F30315032D06D0042D04D0D8
:1007F000052D02D0062909D010E04FF08055D5F81C
:1008000044527A4EC5F34235356002E015782D0723
:1008100004D10578C5F30315032D02D0062906D0AF
:1008200011E0734D2E6826F080762E600EE015786C
:100830002D0708D10578C5F30315032D06D0042D27
:1008400004D0052D02D006290AD011E04FF08045D2
:10085000C5F80C31C5F81031644D2D1F2B6002E036
:1008600015782D0704D10578C5F30315032D02D0A3
:10087000062905D00CE05D4A0321643211600AE0CC
:1008800015782D0704D10578C5F30315032D02D083
:1008900006290DD06AE0574A052111605549783183
:1008A0000C60544908310B603F21121D116002E0B9
:1008B000117809075AD10078C0F30310052855D1E3
:1008C0004D4800684D4908604B48001D0068091DEF
:1008D0000860494808300068091D086046480C3027
:1008E0000068091D0860444810300068091D086050
:1008F000414814300068091D08603F4818300068FE
:100900003E49203108603C481C300068091D0860E1
:10091000394820300068091D0860374824300068D5
:10092000091D0860344828300068091D08603248F5
:100930002C300068091D08602F48303000682F49AE
:10094000403108602C4834300068091D08602A488E
:1009500038300068091D086027483C300068091DD0
:100960000860254840300068091D08602048743838
:10097000016841F470010160BFF34F8FBFF36F8FC7
:100980004FF01021D1F80002002803DBD1F8040257
:10099000002822DA1A4A14601A480468002CFCD095
:1009A0001524C1F800420568002DFCD0C1F80442AE
:1009B00001680029FCD0136001680029FCD0BFF356
:1009C0004F8F0B48F03801680F4A01F4E061114382
:1009D0000160BFF34F8F00BFFDE770BCFFF7D0BED3
:1009E000E00F00F00DF0ADBA00C007403C0500403C
:1009F000FCED00E0105600400404001020C500404B
:100A000004E5014000E401400400FA052DE9F04747
:100A100000250E4C04274FF4A078BE034FEA0509C9
:100A200008EB850006FA05F122584AB1D4F80423F0
:100A30000A4205D044F80090054A51681268904770
:100A40006D1CEDB2BD42EBD3BDE8F08700800040E5
:100A5000280300202DE9F84F92480178FF2978D02B
:100A6000924CDFF844820127A06B98F8003000F127
:100A7000010E0090607B0025401C0626E27AC0B281
:100A80004FF002094FF0030A4FF0040B062B0DD272
:100A9000DFE803F0101B4991C803E672009840F6A6
:100AA000CC61884203D388F80050A563F0E0C4F815
:100AB00038E0EDE0E67200984E2803D388F8007025
:100AC000A563DDE0C4F838E0DAE03820A061072A49
:100AD00014D2DFE802F0040406080B0E1100E572E0
:100AE0000CE0E7720AE084F80B9007E084F80BA0B2
:100AF00004E084F80BB001E00522E272E27AD04013
:100B000000F00107002A51D188F80090E672657361
:100B1000012902D0022902D044E0654800E065487E
:100B2000007820733EE082B922466073012902D02A
:100B3000022902D004E05E4900E05E49085C1073BF
:100B4000207BFFF751FDA061E672E07A072816D2FC
:100B500000E0A5E0DFE800F0130406080B0E11002A
:100B6000E5720CE0E7720AE084F80B9007E084F885
:100B70000BA004E084F80BB001E00520E072E07AFD
:100B8000A169C14001F00107617B0F296CD168B9EF
:100B900088F800A04348E67265730078012806D003
:100BA000022806D0207BFFF71FFDA0615CE04248D1
:100BB000B6E74248B4E782B922466073012902D001
:100BC000022902D004E03C4900E03C49085C107373
:100BD000207BFFF709FDA061E672E17A2046072934
:100BE00014D2DFE801F0130406080B0E1100C572E1
:100BF0000CE0C7720AE080F80B9007E080F80BA0C9
:100C000004E080F80BB001E00521C172C17A82696D
:100C1000CA4002F00107427B032A25D121BB88F894
:100C200000B020E00720A061072A14D2DFE802F01C
:100C3000130406080B0E1100E5720CE0E7720AE0DF
:100C400084F80B9007E084F80BA004E084F80BB064
:100C500001E00521E172E17AC84000F0010719B90D
:100C6000052088F80000E67297B13FB1192001F025
:100C70005DF9BDE8F84F082001F058B9022F0FD1F7
:100C8000192001F063F9BDE8F84F082001F05EB9C2
:100C9000192001F043F9BDE8F84F082001F03EB9F2
:100CA000BDE8F88F06010020F800002000000020B9
:100CB000D8000020E8000020FE00002002010020F3
:100CC0002DE9F047DFF8B08100252F46D8F81C1039
:100CD0002E46491C2C460820C8F81C1001F036F995
:100CE00066480068C00C10F0010F00D0012598F88C
:100CF00009004006000E88F80900002D03D040F0DE
:100D0000010088F8090000F03F01D8F820004FEA00
:100D10004000C8F8200002D040F0010001E020F0BF
:100D20000100C8F82000C0F313004FF0010A382971
:100D300003D0072903D020B105E0012703E00126F5
:100D400001E088F806A04C4898F80A204C49243065
:100D50004FF0060C4FF00009042A42D2DFE802F0FF
:100D600002071D347FB388F80AA0BDE8F087D8F8E1
:100D70002820B2FBFCF3DBB2CE5C7606360ECE54F6
:100D800015B146F00105CD54521CC8F82820602A40
:100D900027D10222C8F8289021E0D8F82C20B2FBF5
:100DA000FCF3DBB2C65C7606360EC65415B146F0CF
:100DB0000105C554521CC8F82C20182A11D1032251
:100DC000C8F82C900BE00CE0D8F83020521CC8F882
:100DD000302036B1062A04D10422C8F8309088F8B1
:100DE0000A2098F80620012ABFD1C8F81C90C8F83C
:100DF0002890C8F82C90C8F83090D8F83420521CAD
:100E0000C8F8342098F80A20042A16D1C8F834907B
:100E100098F808208AB91B4A0B5D1355641CE4B28C
:100E2000102CF9D3144A00214C32435C5354491C12
:100E3000C9B20429F9D388F808A088F809904FF0BE
:100E4000FF30C8F8200088F8059088F80A90102133
:100E50000B48FFF70AFB0820C8F8249001F05EF861
:100E60004FF0E0224FF48071C2F880110649C1F8BA
:100E700004A088F8019078E70000002010050050D9
:100E80003E010020C8020020008000400348007F8F
:100E900008B101F0B7BC01F009BC0000E802002075
:100EA00002E008C8121F08C1002AFAD17047704733
:100EB000002001E001C1121F002AFBD17047000091
:100EC000BFF34F8F05480168054A01F4E061114303
:100ED0000160BFF34F8F00BFFDE700000CED00E0A5
:100EE0000400FA050EB500210091CDE901106A4613
:100EF00044F20100FFF7E4FF0EBD10B58268C3683D
:100F0000934203D000F096F9002010BD052010BDDB
:100F100029B112B1531E134203D0092070470E208D
:100F200070470160838000218160C160084670477E
:100F300010B58268C3689A1A83889A4203D800F071
:100F400083F9002010BD042010BD000070B50446D8
:100F5000234888B01E460D00426035D0A888296815
:100F600082B22048FFF7D4FF00282ED1A889A968B3
:100F700082B21C481030FFF7CBFF002825D1202279
:100F800019496846FFF758FAA0680690207900B121
:100F900001208DF814008DF81C60607900B10E20DE
:100FA0008DF81500E0780290A078039020780190E9
:100FB000607800900D49684600F090FD002804D14B
:100FC0009DF81D0018B104E0072008B070BD00F0C6
:100FD00015FE03480121401C00F0CAFDF5E70000A2
:100FE000B0000020080300208029000089250000AF
:100FF00010B501460948FFF79BFF04000CD100F033
:101000002BFF48B906490548FFF777FF20B90121B2
:10101000034800F099FE0446204610BD1803002046
:10102000B00000202DE9F04104460078184F012659
:1010300006FA00F03860206800F065FF0021606863
:1010400000F04EFF1348144D007FA069C5F8240539
:10105000607D217D0843C5F86C05D4E90001C5F821
:101060000C05C5F81415207D01280FD10021A068BA
:1010700000F036FF207B86403E60E06800F043FFD2
:10108000D4E90201C5F80815C5F81005BDE8F081DE
:1010900008050050E80200200020004030B50C4652
:1010A0000A468DB0054601466846FFF7C5F900219E
:1010B00068460AE000EB4102527802F00F0310F894
:1010C000112003EB02126A54491CB1EB540FF1D307
:1010D0000DB030BD2DE9F05F2648C168F1B3DFF8EF
:1010E00098B00E688146DBF800400769C078E11BC4
:1010F00021F07F45ED1CB0B9DFF880804FF48030DF
:10110000C8F84403C8F804031120FFF7D4FA1120EB
:10111000FFF7E7FA4FF0010AC8F800A02F20FFF709
:10112000CFF989F803A0B54200D23546124BE81931
:101130003C3320F07F401860DBF800105A46091B52
:1011400021F07F41001B20F07F40C91C81420FD954
:10115000106818602F20FFF7B3F900E004E0BDE845
:10116000F05F1120FFF7C8BABDE8F05F00F0A6BF3E
:10117000BDE8F09FB80000200415014000100140B8
:1011800010B5074C08E000BF11F8013B4340DBB24B
:1011900034F8133083EA1020521EF5D210BD00003F
:1011A000C0290000064900F00F020A70C0F30312C4
:1011B0004A70C0F303228A70000BC87070470000A9
:1011C000FE000020064900F00F020A70C0F303126F
:1011D0004A70C0F303228A70000BC8707047000089
:1011E0000201002001B5009801E0401E0090002897
:1011F000FBD108BD0E4910B54A788C780023A24275
:1012000012D0521CD2B24A70022A00D14B70084A46
:101210004B78183252F8232002600869104420F0FD
:101220007F400861012010BD0360002010BD000058
:10123000B8000020826883881A4003689A5C0A70AC
:101240008168491C81607047C26883881A400368BE
:101250009954C168491CC160704710B5044602E04A
:10126000641CFFF7C5FE20780028F9D110BD0000EE
:101270002DE9F047DFF8ACA0DAF80C009AF800404E
:1012800080469AF80460DAF80890DAF810703AE0CC
:1012900009EBC4052A7833E002EB42016B68521C6B
:1012A00003EBC101AB78D2B2934200D100220B789C
:1012B000022B02D0032B23D11FE0D1F804C0034638
:1012C000014603E0614503D00B46C969C1B1F9E7A6
:1012D000B1B18B4205D1C06918B9134F0126BE6068
:1012E0000027D1F800C0C969D96149B10B686344CE
:1012F0000B6005E00174C06900E000210028F9D10D
:1013000069789142C8D1641EE4B2C1D2CAE9030728
:101310008AF80460404502D00120BDE8F087002033
:10132000FBE70000B8000020001001402DE9F04765
:1013300005462F48002680460778D0F80C904BE0F1
:10134000D8F8080000EBC70440E002D02846ED6959
:101350001EE02078616800EB4002401CC0B201EB47
:10136000C2012070A278904200D126700A784868A5
:10137000012A2DD1027C5ABB8A684260CA68826009
:101380000A69C2604969816198F8041001B1466038
:101390004268D8F81030DFF85CC0D11A21F07F41E4
:1013A000614502D28268114406E0991A826821F0F0
:1013B0007F418A4202D9511A016000E0066046600E
:1013C000012186600174C66100F0FAFF002DBCD1D6
:1013D000207861788842BCD17F1EFFB2B0D2D8F8A5
:1013E0000C10494502D00120BDE8F0870020FBE742
:1013F000B8000020FFFF7F0090B000F071FF01F007
:1014000017F900F0C9FD00F0B3FECC4FCC4D00261B
:101410004FF0010B002420BFE87BA8B1EE73C74951
:101420003D223D39C548FFF707F8C4483C213D3807
:10143000FFF71BF83C20C14BC149024600903D3BE1
:101440005431C04800F0DAF93878A02802D0D12809
:101450007FD139E07878BA780146A03010442870FE
:10146000A4290ED004DCA12907D0A22971D104E05F
:10147000A6290AD0B0296CD114E0112000F04EFD4D
:1014800067E0112000F052FD63E0BFF34F8FAE48DC
:101490000168AE4A01F4E06111430160BFF34F8F70
:1014A00000BFFDE701F03CF86878E8BB0820FFF7D3
:1014B000F7F80820FFF70AF9A549C1F80CB0C1F800
:1014C00000B085F801B044E02E70385D2978641CC6
:1014D0000844E4B228700A2CF7D34FF0FF0110F053
:1014E000FF0FA97035D19B4C85F802B004F5C0718F
:1014F00008682060486860600821204600F0D5FE3A
:10150000102221460020FFF73BFE288200F00F0149
:101510002174C0F303116174C0F30321A174000BA3
:10152000E0741420686100E013E08B490020225C25
:101530000A54401CC0B21028F9D38748FEF7FCFFBC
:10154000102286490020FFF71BFE85490880FFF71F
:1015500029FEE87840B1A87801287CD0022800D084
:10156000FF208049087055E7286C0024411C29643D
:10157000012801D8E86B03E02E64E86B401CE863A7
:1015800042F21071884223D9EE63A86C411CA96411
:101590000A2805D31420A864EE7173A0FFF75DFE3E
:1015A000E879012803D0022805D040B110E01C20C2
:1015B00000F0B4FC0CE01C2000F0C8FC08E0686CF3
:1015C000401C686404D00A2068641C2000F0AEFC53
:1015D000A879012877D100200F90AE71287A0128D0
:1015E00071D1DFF858A1E9460AF13D0A0AF1100865
:1015F000C5F848601AF80400FEF7AEFF08F80400CA
:1016000009F80400641CE4B2102CF3D310216846DE
:10161000FFF744FD0098C5F855000198C5F859003A
:101620004748D121543001702E7000212A78435C44
:10163000491C1A44C9B22A700929F7D3D1B2DFF87C
:101640000091494209F14C094172002409F1040852
:1016500019F8040000E06CE0FEF77EFF08F80400D3
:10166000641CE4B2042CF3D342A0FFF7F6FD98F813
:10167000001098F8032098F8010001EB023198F867
:101680000220120202EB0010084484B23AA1204664
:1016900001F090F8294910223D310020FFF770FD3C
:1016A000844203D001200F9035A000E037A0FFF75F
:1016B000D4FDA4F54240EE71043805D0A4F566408F
:1016C00079380CD015E028E01C491D4810223D3126
:1016D0009030FEF7D5FE60B985F807B009E01749EC
:1016E000174810223D31A030FEF7CAFE08B902208B
:1016F000E8710F9808B1EE7102E0E87900B16E640C
:101700000E4810213D30FEF7B0FE0C4810214D3040
:10171000EE64FEF7AAFE2E652E72687901287FF42A
:1017200022AFA8790028FAD10220687185F804B0A8
:1017300070E60C4981F800B06CE600008B020020D6
:1017400000000020DC2800000CED00E00400FA0599
:10175000008000400C010020D80000206C03002015
:10176000FA000020060100206E6F646174610D0AAA
:10177000000000000D0A00006372633A20000000C0
:10178000657272646174610D0A00000064617461C5
:101790006F6B0D0A0000000031B540F2E73404E041
:1017A000401E00902046FEF78BFE00980028F7D1DF
:1017B00038BD4907090E002806DA00F00F0202F1D1
:1017C000E02282F8141D03E000F1E02282F8001408
:1017D00000F01F02012191404009800000F1E0204B
:1017E000C0F88012C0F8001170470121B1EB507FA2
:1017F00001D1012070470020704700002DE9F0471B
:1018000006460F460079194900EB4000DDF82090AC
:101810001D00904601EBC00414D09FB13846FFF77D
:10182000E4FF88B12846FFF7E0FF68B1607D68B14A
:10183000012818D0022809D0032807D003252846FC
:10184000BDE8F0870E20FBE71020F9E7C4E9037537
:10185000C4F80080C4F804900025012221463068B5
:1018600000F0F1FCEBE70825E9E700003403002075
:101870002DE9FC5F07460D460079524900EB400018
:1018800001EBC00A3C689AF81410934611B1082085
:10189000BDE8FC9F15B94C4901EBC005287C032825
:1018A00001D90720F4E7BBF1000F10D0286800260B
:1018B0004FF0FF38FF280CD0E97CCDE9001600235B
:1018C0001A46194600F0F2FAD5F8009002E00E2010
:1018D000DEE7C1466868FF280DD00122009600238C
:1018E0001146019600F0E2FA28790121814037483B
:1018F0000160D5F80480009601960022AB7C114669
:10190000E86800F0D3FA0023009601961A461946BB
:10191000A86800F0CBFAD5E90223C4F80825C4F87A
:101920001085C4F80C95C4F81435C4F83465C4F8AF
:101930003865C4F84465C4F84865297C687C00B102
:101940000120012904D0022905D0032908D105E08E
:1019500040F0020004E040F0040001E040F0060026
:10196000C4F85405287DC4F85C05687DC4F8C0053A
:10197000C4F80461C4F82861D4F8000240F00400FF
:10198000C4F80002387900EB40010E4800EBC101B9
:101990004E753A7902EB420200EBC200C0F808B083
:1019A00040F20240C4F80403A97D97F90500FFF74F
:1019B00000FF01208AF814000220C4F8000500206E
:1019C00066E7000034030020A82900000C05005041
:1019D00030B54FF4803405688C4013B1C5F804432A
:1019E00001E0C5F80843006800EB8100C0F840251D
:1019F00030BD0000016801220A600079034A00EB53
:101A0000400002EB80000221017270472803002091
:101A1000F0B40468049E40F20115D4F800728D40C1
:101A2000AF43C4F800720468D4F800521D43C4F8F0
:101A300000523346F0BCFFF7CBBF00002DE9F04168
:101A4000044600790D46234B00EB400103EB810671
:101A5000317A11B10820BDE8F0810AB115B104E076
:101A60000720F8E71C4901EBC00532606868706028
:101A7000002003464FF4A07706E000BF226807EB82
:101A800080015350401CC0B261798142F6D8206871
:101A9000E978000B40B2FFF78CFE20686978D0F837
:101AA000042561F30102C0F804252068A978D0F864
:101AB000082561F30102C0F8082520682978D0F8CC
:101AC000102561F30302C0F81025012030720020B8
:101AD000C1E7000028030020A02900002DE9F04103
:101AE0001E4C07460D46E07E10B10820BDE8F0818F
:101AF00007B91B4F787F20773846FFF793FA656068
:101B0000386920602800174E4FF0000516D0397F45
:101B1000207F48B1C6F81051C6F82051C6F82451AC
:101B2000C6F84451104804E0C6F81C51C6F84451A8
:101B30000E48C6F804030220FFF73BFE207F08B1E1
:101B4000082000E00420C6F80005E5752576A57597
:101B50000120E076A5760020C8E70000E80200201A
:101B600060290000002000401003020080000200F5
:101B70002DE9F0411F4B1C7F3CB14FF40052B2EBFA
:101B8000104F02D01020BDE8F081D3F804C000222D
:101B9000194D4FF404764FF40177BCF1000F05D0D6
:101BA00014B1C5F8086301E0C5F8087393F817E0AD
:101BB000BEF1000F10D01A7E52B1BCF1000F05D05B
:101BC00014B1C5F8046301E0C5F804731120DAE725
:101BD00018610122197604E0D9750025D8605D7678
:101BE0001D761CB1BDE8F04100F066B8BDE8F041DB
:101BF00000F014B8E80200200020004010B5064CA8
:101C0000207F002806D1A07E002803D100F09CFA96
:101C10000120A07610BD0000E80200202DE9F05F51
:101C2000234DA87E104301D100F08EFA214C686844
:101C300030B14FF40170C4F804030020BDE8F09FF8
:101C40004FF000094FF4A27AC4F844914FF4927B0C
:101C5000A8465946204600F08EF905464FF4847197
:101C6000204600F088F907465146204600F083F9E7
:101C7000064647EA06012943EBD055EA060007D19C
:101C800000F03AFA98F8171098F819008142E0D855
:101C900088F817900DB10320D0E70EB10F20CDE7E3
:101CA00098F81A10012009B12060C6E76060C4E707
:101CB000E8020020002000402DE9F05F204C0026C3
:101CC0004FF48873C4F810614FF4A275C4F84461EE
:101CD000C4F83405C4F838158AB1D4F8000240F0CD
:101CE0002000C4F80002DFF85C80D8F8040048B196
:101CF0004FF40470C4F804030020BDE8F09F0120F5
:101D00002060F0E79A46A9464FF4927B5146204660
:101D100000F03CF905464946204600F037F90746F1
:101D20005946204600F032F93D430543EED088F88D
:101D3000176008B10320E0E7002FDDD00F20DCE7BB
:101D400000200040E80200202DE9F047204D024627
:101D5000287F38B14FF40050B0EB124F02D0102062
:101D6000BDE8F08700F078F808B11120F8E7A97510
:101D70000023AA60AB82287F28B3164C00264FF4BC
:101D800090709846C4F820314FF4AC73C4F8588171
:101D9000C4F84425C4F848150121A160696881B9D7
:101DA000824699465146204600F0F0F807464946DB
:101DB000204600F0EBF80743F4D000B10F2685F879
:101DC00016803046CCE7BDE8F04700F005B80000CB
:101DD000E8020020002000402DE9F05F1C4F0025A4
:101DE0004FF48E7A2E46C7F81C514FF00108C7F801
:101DF000088000F071FB174CB815616879B123E0D9
:101E00005F465146484600F0B6F810B9A08AB8427D
:101E1000F7D1A08AB84204D000F05EFB01E083460F
:101E2000B946A08AA17D8842EAD3A08A584501D14B
:101E30000F2508E04F465146384600F09CF8002830
:101E4000F9D0C7F80C80A6752846BDE8F09F0000C1
:101E500000200040E80200200248807D002800D0D9
:101E600001207047E802002030B541EA4201DDE977
:101E7000034541EA8301800041EA042100F1A040CA
:101E800041EA0541C0F8001730BD30B541EA4201D2
:101E9000DDE9034541EA8301800041EA042100F1C4
:101EA000A04041EA0541C0F8001730BD30B541EA15
:101EB0004201DDE9034541EA8301800041EA042152
:101EC00000F1A04041EA0541C0F8001730BD1CB543
:101ED00000220B46009211460192FFF7C5FF1CBD80
:101EE0001CB500220B46009211460192FFF7CDFF70
:101EF0001CBD1CB5002100910B4601220191114629
:101F0000FFF7B2FF1CBD1CB5002100910B4601225A
:101F100001911146FFF7B9FF1CBD0000012181406E
:101F200001480160704700000C050050012181400C
:101F30000148016070470000080500500121814000
:101F400001480160704700000805005001218140F0
:101F500005480068044B21EA00021B1D1A60084076
:101F6000191D086070470000040500504058002803
:101F700000D0012070474058002800D00120704751
:101F8000D0F80403084000D00120704740580028D2
:101F900000D001207047000070B51C20FFF7A9FF9A
:101FA0001C20FFF7BBFF4FF47A70FFF7F5FB1C20F6
:101FB000FFF7BCFF0820FFF79CFF0820FFF7AEFFEC
:101FC00001211320FFF783FF3248016821F003014C
:101FD0000160016841F001010160016821F4F851DC
:101FE0000160016841F498510160016821F44031B9
:101FF0000160016841F48031016027480124C0F884
:1020000004432649602081F800040620FEF75EFBA9
:1020100003210420FFF75BFF2148FEF78DFA102211
:1020200020490020FFF7ACF81F490880FFF7CAF8E5
:102030001E48FEF781FA10221A490020FFF7A0F887
:102040001B490880FFF7AEF81920FFF752FF112057
:10205000FFF74FFF1020FFF74CFF164DE87888B1CF
:102060001548FFF7C7FC6C701120FFF757FF1020D1
:10207000FFF754FF1D20FFF73CFFBDE870401D2017
:10208000FFF754BF1120FFF751FF1020FFF74EFF5D
:10209000F0E70000106500400060004006E000E04E
:1020A000E80000206C030020FC000020D800002085
:1020B000FA00002000000020E428000070B501268E
:1020C00070044FF0E0210025C1F88001084C401059
:1020D000C4F84803C4F8080366602F20FEF7F0F93F
:1020E000A660044C2F202561FEF7EAF9E57070BD6B
:1020F00000100140B800002009480A490022C37DB1
:10210000C1F8082143B1D1F81815437EC268D154F3
:10211000417E491C41767047D1F818057047000090
:10212000E8020020002000401FB501228DF80800C1
:1021300004488DF800200191D0E9001268469047CC
:102140001FBD0000E802002004480021C0F824114F
:10215000C0F8081101210160704700000020004014
:10216000C0B2012801D10149C873704700000020A6
:1021700000B587B01822144901A8FEF75DF90C20BC
:1021800004900F2001900E2002900D2003900E4825
:102190000E4A01A96038FFF76BFB08B1FEF7A2FEFB
:1021A0000B490020C8733C210A48FEF75EF93C2029
:1021B0000246009006490448064B54316038FFF748
:1021C0001DFB07B000BD00003C290000612100009C
:1021D000000000204E02002070B50D4604464FF46A
:1021E0009471FFF7C3FE0026C8B1C4F82861687D6A
:1021F000012814D1E9682868C4F84415C0B2C4F8AD
:10220000480529696868C4F83415C0B2C4F83805AF
:102210000120A06202222946204600F014F84FF463
:1022200082712046FFF7A2FE00280BD0C4F804619B
:10223000687D022806D129462046BDE87040032269
:1022400000F001B870BD4A75AFF300802DE9F04190
:102250004A7D0D460121012A0ED0022A0FD0032A01
:102260000BD161F30704D0F84C15D0F83C05CEB281
:10227000C7B2A86890B90EE04162BDE8F0810026BF
:10228000A86866F3070410B90020FEF72BFE32465B
:102290001146AB6805E00020FEF724FEAB683A4625
:1022A00031462046BDE8F041184730B50D460A4694
:1022B0008DB0044601466846FEF7BEF800216A4626
:1022C00009E0505C030904F8113004EB410300F00D
:1022D0000F005870491CA942F3D30DB030BD000067
:1022E00008B50B4A00210B48FFF7A8FB08B1FEF721
:1022F000F9FD08480068D0F810054FF4C872C240D4
:1023000001200346009000210248FFF781FB08BD31
:1023100019230000E4280000B0F5A07F06D104488E
:10232000C07808B1FEF796BBFEF7CABC7047000044
:10233000000000202DE9F84F204C00256846D4E924
:1023400003B6FEF757FF8046FEF792FF0746A94601
:10235000B8F1000F25D00023009ACC46E06819E0C0
:1023600007680146974202D9BA1A026014E0C1F820
:1023700000C0D1F80C80D21BC8693B448A46B8F132
:10238000000F07D0F71827F07F47C1E90178CAF896
:102390001C500D460028E3D1E0602846FEF7C6FF3A
:1023A00004E02846FEF7C2FF00B917B15846FEF711
:1023B00091FE84F80490BDE8F88F0000B80000207A
:1023C0000D4B10B5D96831B102680C68A24204D82F
:1023D000A21A0A60C161D86010BD0B4603E00B462B
:1023E000C969121B21B10C689442F8D3A41A0C607D
:1023F0000260C161D86110BDB80000202DE9F04134
:102400001D4DEC68002C35D01C4800270068296958
:10241000B846401A20F07F462068B04215D82246C0
:10242000361A0744E469107C68B182F810806B6941
:1024300033B1D2E90501984728B1FEF753FD02E018
:10244000D2E905108847002CE6D16978A878814246
:1024500006D1401CC0B2A870022801D185F80280C4
:102460000548A978183040F82170BDE8F0411420E3
:10247000FEF742B9BDE8F081B80000200415014024
:1024800038B50546D0F818050C468DF80000087FD1
:10249000097D884206D29DF800102269115405205A
:1024A000FEF70EF8207F401CC2B22277207B511C21
:1024B000884202D9A068405C03E0237D8B4203D9A7
:1024C000E07EC5F81C0503E0824201D39A4201D2A6
:1024D000012038BD002038BD064A0020C2F81C018A
:1024E0000548838A8168C95C838A5B1C8382C2F841
:1024F0001C15704700200040E80200201FB5002195
:102500008DF8080005488DF80010826801928175E9
:10251000D0E90012684690471FBD0000E802002085
:1025200010B51120FFF7FAFC1020FFF7F7FC024965
:102530000120C87010BD00000000002000B50D4A49
:1025400087B004AB07CA83E807000B48009001205E
:1025500001900A4802904FF4807003900623084AC5
:10256000694604A8FEF7F2FC002801D0FEF7BAFC89
:1025700007B000BD542900000E0000204E010020CD
:1025800085250000704700007CB50178264D0129A3
:1025900009D002292CD0002929D129462348FEF749
:1025A000ACFC80B334E04068017820481038FEF776
:1025B000BFFC1E4C103C20B101218DF80010019091
:1025C00007E0A068E168081A012805D100208DF80D
:1025D0000000696868468847A068E168081AA18811
:1025E000884204D810480121401CFFF7C1FA7CBD85
:1025F00002218DF80010C06801900B480121401C99
:10260000FFF7B6FA0CE0FFE701210748FFF79CFB54
:1026100006488168C0688842E9D103208DF800002F
:102620006968684688477CBDB00000201803002018
:1026300010B5FFF783FF0220FFF7AEF807A0FEF703
:102640000CFE0CA0FEF709FE0B48C07820B10BA0D1
:10265000BDE81040FEF701BE0EA0F9E70D0A2D2DD2
:102660002D2D2D2D2D2D2D2D2D2D2D2D2D2D2D2D9A
:102670002000000076343200000000202074782D05
:102680002D2D2D2D2D2D2D2D2D2D2D2D2D2D0D0ABD
:10269000000000002072782D2D2D2D2D2D2D2D2D9B
:1026A0002D2D2D2D2D2D0D0A000000002DE9FF41AF
:1026B0003E4D4FF400712846FFF762FC01273C4C69
:1026C0004FF40178002600B34FF492712846FFF7CB
:1026D00052FCD0B1C5F82461C5F80883A07E00B9CA
:1026E0006F6002208DF80000D5F88004C5F88004E2
:1026F0000390E07D8DF80800E0680190E67526768D
:10270000D4E900126846904724E004212846FFF7E8
:1027100037FCF8B14FF484712846FFF72CFCC8B1A0
:10272000FFF7EAFCE07D617E884213D1227E3AB158
:10273000607EE168E2752269E2602676667607E0EF
:10274000A07E00B96F60C5F80883E675607EE16819
:10275000FFF7EAFC4FF48E712846FFF70CFC58B1E6
:10276000A18AA07D814202D2FFF7B6FE04E0C5F83F
:102770001C6108B1FFF7C2FE4FF4A2712846FFF7B3
:10278000FAFB00280FD0C5F84461A07E00B12F608D
:10279000E07D002807D0E675607EE16804B0BDE802
:1027A000F041FFF7C1BCBDE8FF8100000020004000
:1027B000E80200201FB504460846FEF74EFD0F480C
:1027C000C4F30331415C8DF80010C4F30321415C74
:1027D0008DF80110C4F30311415C8DF8021004F070
:1027E0000F01405C8DF8030000208DF8040068465E
:1027F000FEF733FD02A0FEF730FD1FBD1C290000CF
:102800000D0A00007FB5334C4FF492712046FFF75C
:10281000BDFB314D0026B0B1C4F8246102208DF813
:102820000000D4F88004C4F880040390D4F83C0578
:102830008DF80800E8680190EE752E76D5E9001253
:10284000684690471FE04FF488712046FFF79EFBD3
:10285000C8B1C4F81061D4F83C05E97DC0B281422A
:1028600011D12A7E5AB1E968D4F8003223F020034E
:10287000C4F80032EA752A69EA602E7601E0EE7546
:10288000E968FFF751FC4FF4A2712046FFF77EFB89
:1028900050B1C4F84461E87D30B1EE75D4F83C0520
:1028A000E968C0B2FFF740FC4FF490712046FFF793
:1028B0006DFB00280CD0C4F82061A87D002807D04B
:1028C000D4F84C0504B0C0B2BDE87040FFF716BEA6
:1028D0007FBD000000200040E802002000400040D2
:1028E000000400000080004000040000303132335A
:1028F0003435363738394142434445463031323336
:102900003435363738394142434445463031323325
:102910003435363738394142434445463031323315
:102920003435363738394142434445463031323305
:1029300034353637383941424344454604000000B7
:102940000300000002000000FF0000000200000081
:10295000FFFF06000B0506070000000000E0D7019E
:10296000060000000800000007000000050000004D
:1029700000000000000000000000D601060000007A
:10298000060000000800000007000000050000002D
:1029900000000000000000000000D601060000005A
:1029A000000003020000000004000000030000001B
:1029B00002000000FF00000002000000FFFF060010
:1029C0000000C1C081C1400101C3C003800241C2F7
:1029D00001C6C006800741C70005C1C581C44004C7
:1029E00001CCC00C800D41CD000FC1CF81CE400E77
:1029F000000AC1CA81CB400B01C9C009800841C887
:102A000001D8C018801941D9001BC1DB81DA401AF6
:102A1000001EC1DE81DF401F01DDC01D801C41DCC6
:102A20000014C1D481D5401501D7C017801641D6F6
:102A300001D2C012801341D30011C1D181D0401006
:102A400001F0C030803141F10033C1F381F24032F6
:102A50000036C1F681F7403701F5C035803441F4C6
:102A6000003CC1FC81FD403D01FFC03F803E41FE76
:102A700001FAC03A803B41FB0039C1F981F8403886
:102A80000028C1E881E9402901EBC02B802A41EAF6
:102A900001EEC02E802F41EF002DC1ED81EC402CC6
:102AA00001E4C024802541E50027C1E781E64026F6
:102AB0000022C1E281E3402301E1C021802041E006
:102AC00001A0C060806141A10063C1A381A24062F6
:102AD0000066C1A681A7406701A5C065806441A4C6
:102AE000006CC1AC81AD406D01AFC06F806E41AE76
:102AF00001AAC06A806B41AB0069C1A981A8406886
:102B00000078C1B881B9407901BBC07B807A41BAF5
:102B100001BEC07E807F41BF007DC1BD81BC407CC5
:102B200001B4C074807541B50077C1B781B64076F5
:102B30000072C1B281B3407301B1C071807041B005
:102B40000050C190819140510193C05380524192F5
:102B50000196C056805741970055C19581944054C5
:102B6000019CC05C805D419D005FC19F819E405E75
:102B7000005AC19A819B405B0199C0598058419885
:102B80000188C04880494189004BC18B818A404AF5
:102B9000004EC18E818F404F018DC04D804C418CC5
:102BA0000044C184818540450187C04780464186F5
:102BB0000182C042804341830041C1818180404005
:102BC000E02B0000000000200C010000A00E00001F
:102BD000EC2C00000C01002074220000B00E00005C
:102BE00000000101000000000000000600000000DD
:102BF00000000000000000000E00000000000000C7
:102C0000FFFFFFFF000000000000000000000000C8
:102C100000000000000000000000000000000000B4
:102C200000000000000000000000000000000000A4
:102C30000000000061626364656162636465313253
:102C400033343536373839306162636465616263C5
:102C50006465313233343536373839306162636414
:102C60006561626364653132333435363738393003
:102C70000E0D0B1C191A13163132342326252C295C
:102C8000292C25262334323116131A191C0B0D0E4C
:102C90000000000000000000000000000000000034
:102CA0000000000000000000000000000000000024
:102CB00000000000000000000001020304050607F8
:102CC00008090A0B0C0D0E0F0F0E0D0C0B0A09084C
:102CD00007060504030201000500000000000000D3
:0C2CE00000000000000002000090D00383
:0400000500000401F2
:00000001FF
