:020000040000FA
:10000000381F0020D5000000F9000000FB000000B0
:1000100000000000000000000000000000000000E0
:100020000000000000000000000000000D010000C2
:1000300000000000000000000F010000E11B0000B4
:1000400013010000B11F00001301000013010000A4
:10005000F51000001301000013010000130100005F
:10006000F11C000013010000130100001301000047
:100070009D1D0000251E000013010000791A0000DC
:1000800013010000130100003112000013010000F1
:100090001301000013010000130100001301000010
:1000A0001301000013010000E11800008914000092
:1000B000A9190000D901000013010000130100007C
:1000C0000348854600F06CF800480047E5550000FD
:1000D000381F002014481549016015490160154971
:1000E0000160154A154911600021016014488047DC
:1000F0001448804714480047FEE706980188134AD1
:10010000914202D1043006907047FEE7FEE7FEE719
:10011000FEE7FEE7ABBE01E000207047002A00D0FA
:1001200010600120704700000001005059000000DD
:10013000160000008800000024000050A55A0000AE
:10014000ED1C0000B9600000C1000000ABBE000063
:1001500030B50B46014600202022012409E00D465F
:10016000D5409D4205D31D469540491B25469540E7
:1001700040191546521E002DF1DC30BDD2B201E00F
:100180000270401C491EFBD270470022F6E710B5F2
:1001900013460A4604461946FFF7F0FF204610BDF5
:1001A000064C0125064E05E02046E36807C82B43B0
:1001B00098471034B442F7D3FFF786FFEC6F000086
:1001C0000C70000003498000401800688005800D15
:1001D0007047000000000E4070B510490120086310
:1001E0000020FFF7EFFF05460420FFF7EBFF0C4C64
:1001F00020630520FFF7E6FFA061284602F034F8EF
:10020000A079012809D1E06A7D21401C0901E06242
:10021000884202D30020A071E06270BD00000E4051
:100220001C00002002498A6802438A60704700006F
:100230000002005070B505200007816B8AB03022A3
:10024000114381632148016952061143016120482D
:100250000290E1204002039003200490102000242B
:10026000079001255010019500940890059406947C
:10027000642008A90871174E6946304600F0B4FDA5
:10028000154801688022090A0902114301601349D7
:10029000304600F097FD124900200C54401C802885
:1002A000FBD30F49002080310C54401C4028FBD365
:1002B0000C480021C46084604461C94304614170FA
:1002C0000170856104620AB070BD000040000050FA
:1002D000001BB700000005400CE400E0110800001E
:1002E00098160020A80B002070B500210F4D104C6F
:1002F00006E022699606B60E521CAB55491C2261D7
:10030000435C002BF5D120690D218206920EA95481
:10031000401C2061A069012806D100200549A06188
:100320004A68022002434A6070BD0000181700208E
:10033000A80B002000000540044900200860034984
:10034000243908600120091F086070477842005076
:100350000449002008600349012024390860091F6E
:100360000860704778420050044900200860034943
:10037000012024390860091F086070477842005046
:1003800010B500F009F80349C96A491CFFF7E0FEFF
:1003900010BD000000020050F8B51E4D28691E4A2D
:1003A0004407640F0ED01D4B022C0DD0012C0BD036
:1003B000032C2CD01846A9690907090F491CFFF71F
:1003C000C7FEF8BD1046F6E715A000680090296A40
:1003D000002005263604314215D1080300D51A46FF
:1003E00010468A030FD40A04920F6B469B5CCA0521
:1003F0008904D20DC90E921C891C800859435043B0
:10040000FFF7A6FE8000012CD5D14008D3E70548B0
:10041000D1E7000000020050001BB700008051012E
:10042000010202041027000010B501F087FB1648F6
:1004300041680322114341601449086801221043B6
:100440000860C868C007C00FFBD011480862CA68BE
:1004500004200242FBD00A690220D208D2000243E3
:100460000A61CA6A012082430243CA6201F0F8FBB2
:10047000084801F095FB01F003FE04F071FA02490F
:100480000020C031086010BD400000500002005044
:10049000544A00007017000003480068002801D08B
:1004A00000207047012070473C420050034800681C
:1004B000002801D000207047012070473C420050C6
:1004C00003480068002801D00020704701207047D1
:1004D0003C42005003480068002801D000207047CB
:1004E000012070473C42005010B500F01BFD002871
:1004F00000D0012010BD000070B500F013FD0028F1
:1005000003D021213E2005F057FD03F0EFFE00252A
:1005100001247BE04C48005D4019C5B2042C74D125
:1005200049480078002870D1474840784649897882
:1005300088420BD1444880784349C978884205D124
:1005400041484078552801D100F01EF93E484078D6
:100550003D498978884214D13B4880783A49C97826
:1005600088420ED138488078EF280AD100F0DAFCB2
:10057000002806D0354800683549884201D101F08D
:1005800087FA3148407830498978884214D12E481A
:1005900080782D49C97888420ED12B4880785A2816
:1005A0000AD100F0BFFC002806D02848006828497E
:1005B000884201D101F0DAFB23484078224989784A
:1005C000884222D1204880781F49C97888421CD1AE
:1005D0001D488078772818D100F0A4FC002814D09A
:1005E0001A4800681A4988420FD102F0FDFB00BF8B
:1005F000184800F0A3FD00BF02F0CAFA7D200001F8
:1006000006F0C8FA002014490870641C082C81D335
:100610000D48007AA84200D070BD08220F490A4850
:10062000401C06F08DFA0E480078002809D10748D2
:1006300000680C49884202D103F0E4FC01E003F0B9
:1006400009FC00BFE8E700007C1A0020940C0020A1
:10065000AA55000034420050AD0B0020C40C00200D
:10066000B501002055AA000008B500200090012225
:10067000C321684606F0F8FB03F038FE08BD000011
:1006800070B504460D461646022029490870002020
:1006900048708870C87010200871CF2124484171BB
:1006A0001321817123480088401C81B221480180B8
:1006B0001F484172090A8172C671310A0172C472FF
:1006C00005731D4881791A4841731C490860084622
:1006D0000068C01D08600021154881731748006834
:1006E00000781649096849784018144909688978DA
:1006F000401812490968C9784018104909680979F1
:1007000040180E490968497940180C4909688979E7
:1007100040180A490968C9794018C1B20448817370
:1007200001780F22401C06F09FFB03F0DFFD70BD37
:10073000001B0020A40C0020C40C0020B40C0020DE
:1007400008B5012000900122C321684606F08CFB09
:1007500003F0CCFD08BD000010B500200949087069
:1007600048708870C87010200871002048715520AA
:100770008871C8710872084601780822401C06F08A
:1007800073FB10BD7C1A002010B5002009490870C9
:1007900048708870C8701020087100204871662069
:1007A0008871C8710872084601780822401C06F05A
:1007B0005BFB10BD7C1A002070B517480078A0289C
:1007C00000D170BD012015490860002420E06100BF
:1007D0001348405A00281AD011483030005D0E49A5
:1007E0000978884213D104210D48183001550D486D
:1007F0000078C1B20A483C30015563000546543DBB
:10080000EA5A0346195D0C3B185D00F01FF9641CA1
:100810000C2CDCD300BFD4E79C0C0020A80C0020DB
:10082000B81A00204407002070B514480078A028AA
:1008300000D170BD00241DE061001148405A00281D
:1008400017D00F483030005D0C490978884210D12C
:1008500004210B4818300155012124300155630053
:100860000546543DEA5A0346195D0C3B185D00F0FD
:10087000EDF8641C0C2CDFD300BFDAE79C0C0020E1
:10088000B81A0020002003E0052203490A54401C46
:100890000C28F9D370470000DC1A002010B500F0D6
:1008A00041FB41480078002873D140480068404926
:1008B00088424FD13F480068401C3E49086000F024
:1008C00059FB3D48007801283AD13C480068401C5B
:1008D0003A490860C007C00F06D039480288394835
:1008E00001780120FFF7CCFE032006F053F93648CB
:1008F0000078C007C00F05D03148028800210220CF
:10090000FFF7BEFE032006F045F92F4800680421DA
:10091000084205D02A48028800210520FFF7B0FED2
:10092000032006F037F9284800680221084207D062
:1009300026480178224802882248007800F086F88C
:100940001C480068401C1B4908600A2824D908205C
:10095000086021E002F0C4FC1D480068012804D1B1
:100960000020164908601A49086014480068401CB5
:100970001249086003280FD90020086004F0A0F88D
:10098000002803D0FFF750FF06E002E0FFF714FF56
:1009900002E00A20074908600E4B00220E490F486A
:1009A000007806F097F810BD8C0C0020940C002005
:1009B00055AA0000A00C0020C00C0020BC0C002098
:1009C000CC0C00209C0C0020980C00204407002038
:1009D000A80C00209D080000DC050000AC0C0020E5
:1009E00010B5002403F084FC1249087003F080FC69
:1009F0001149087000201149086000BF09E000207B
:100A000061000F4A5052052162000D481830815292
:100A1000641C0A2CF3D3FF200A49887048700870C0
:100A2000094B00227D21C9000248007806F052F8E7
:100A300010BD0000AC0C0020CE0C0020A00C00204B
:100A4000A01A0020900C00209D080000F8B5054673
:100A50000E46174602201F49087000204870887013
:100A6000C87010200871CF211A484171132181717B
:100A700019480088401C81B217480180154841720E
:100A8000090A8172C771390A017204201149C872BA
:100A90000846057346730446E41D002181732078DF
:100AA00061784018A1784018E17840182179401801
:100AB00061794018A1794018E1794018C1B2E01F6E
:100AC000817301780F22401C06F0CEF903F00EFC72
:100AD000F8BD0000001B0020A40C002010B5074842
:100AE000016A022291430162816A890705D4C06AC2
:100AF000800702D41D2000F0B7FE10BD00000E409C
:100B0000054807210163016A02221143016203497A
:100B1000100708607047000000000E4000E100E090
:100B2000F7B50D460446FFF72BFC0A214843A90000
:100B3000FFF70EFB401D0A21FFF70AFB164E451E6C
:100B4000164FB44205D1601500F0D2FFB8686115A8
:100B500006E0FF20013000F0CBFFB868FF21013133
:100B60000843B860206928432061029800280DD00E
:100B700020688021084320600948844201D1122066
:100B800002E0B44202D1132000F08CFE2068402124
:100B900008432060FEBD000000001240000200502B
:100BA0000000024004498A6802438A600120034928
:100BB000C00608607047000000001A4000E100E035
:100BC000026A0A43026201200149800608607047F8
:100BD00000E100E030B50205120F0124083223467F
:100BE00093400C4A15681D431560026802231A439E
:100BF00002608B680A684D691A430B692B431A43DC
:100C0000224302604A684260CA6882608969C160A2
:100C100030BD0000008F0050FFB52449224F1D4613
:100C2000BA140B014E0181B00446B84202D1886863
:100C300010430AE01E48844202D18868184304E049
:100C40001C48844202D1886830438860BC4201D18C
:100C5000104608E01648844201D1184603E01548C2
:100C6000844205D1304600F04CFF202D03D003E034
:100C7000002005B0F0BD00252068F8218843202D14
:100C800000D10025E9000843206002982168012274
:100C90009204914301432160039821680622914305
:100CA000014321600120E4E70000034000020050FE
:100CB000004003400000134010B5016801225207B4
:100CC0009143016041692022914341610949884271
:100CD00001D1082004E007492031884203D10920CE
:100CE00000F0CCFD10BD0449884201D10A20F7E78D
:100CF0000B20F5E7000001400000114010B58268AC
:100D000082608A0004D5026801235B071A430260EF
:100D1000890603D54169202211434161094988426E
:100D200001D1082004E007492031884203D109207D
:100D300000F0C2FD10BD0449884201D10A20F7E746
:100D40000B20F5E70000014000001140F8B5044613
:100D500011481D4616460F46844201D104200BE07F
:100D60000D482030844201D1082005E00B48844220
:100D700001D1102000E02020FFF754FAA0680321E1
:100D80000843A060A06901210843A061666004498E
:100D9000E81940182060F8BD000001400000114033
:100DA0000000010210B542688A434260044988424B
:100DB00001D10C2000E00D2000F06AFD10BD000004
:100DC0000000054042680A434260054A05499042D6
:100DD00002D10120000301E00120400308607047B8
:100DE0000000054000E100E0F8B50546264E0C463F
:100DF00008687169032212069143014371616068BA
:100E0000B1690F2212020002FF38914301380143F9
:100E1000B1611E48854201D1F70101E001277F043D
:100E2000384600F077FEB0683843B060A968062005
:100E30000143A960E069A968F02291430143A960D8
:100E4000A1692069084361690843E96840221140AB
:100E50000143E9602420005D296A090A090201436F
:100E600029620326206A3607B042E168A06804D1EF
:100E7000FFF76EF9801E304303E0FFF769F90009C0
:100E8000801E68620120F8BD00020050000005408D
:100E900010B500F049FE01F083F8012000F0EEFCEF
:100EA00001490020086010BD0001005010B500F09D
:100EB0003BFE084801680822114301600168402296
:100EC00011430160012000F0F7FC03490020086095
:100ED00010BD0000004000400001005070B51546F4
:100EE0000C46064600F020FE0120FFF79BF90A4859
:100EF0004169890889002143416108483106026837
:100F000007231B029A43090C0A430260E9B24160BD
:100F100003490020086070BD0002005000400040FE
:100F20000001005010B50121212005F045F803F023
:100F3000DDF90B480078012801D1002010BD0948D7
:100F40000078CC2803D108480849086006E0054825
:100F50000078552802D10648044908600120EDE7D1
:100F60008C0C00207C1A0020AA550000940C002054
:100F700055AA000010B503213F2005F01DF81148C7
:100F800000781049497840180E498978884216D16E
:100F90000C480078C007C00F0B490870094840781A
:100FA0000421084008498870064840780821084014
:100FB0000549487003488078C007C00FC87003F027
:100FC00095F910BD7C1A0020C00C002008B5012046
:100FD00000900122CA21684605F046FF03F086F919
:100FE000FFF750FC08BD000010B50321222004F0DB
:100FF000E3FF03F07BF905480078054908700348D2
:101000004078887001488078C87010BD7C1A002034
:101010001C04002008B5002000900122CA21684667
:1010200005F022FF03F062F908BD0000F8B52F4C6F
:101030000546A06840084000A06020680127FF0422
:10104000B8432060A06801263043A0600821062034
:1010500005F016FDA068B043A060A0683043A06012
:101060000821D82005F00CFD1821284605F008FDC0
:10107000A068B043A060A0683043A06008210420AD
:1010800005F0FEFCA068B043A060A068B043A0607B
:101090002068B8432060A0683043A0600821052084
:1010A00005F0EEFC0821FF2005F0EAFC2069104D58
:1010B00012E0A06840084000A0602068B8432060AB
:1010C000A0683043A0600821052005F0D9FC082164
:1010D000FF2005F0D5FC20692870A068400840007A
:1010E000A0602878C007E4D1F8BD000000400340AC
:1010F0005202002070B50F4C206A402817D00126FC
:10110000300220620B4DC001403D28624011206238
:101110000821204600F016F80F21284600F012F8AA
:101120000A21204600F00EF80348C66070BD00F0AA
:1011300033FA70BD40400050B4010020002101602E
:1011400070470000826901238B409A438261C26923
:10115000024B8B409A43C2617047000001000100BE
:1011600010B5836901248C40A343D40F8C402343E2
:101170008361C369044C8C4052005208A3438A40E7
:101180001343C36110BD00000100010010B50368E6
:10119000490003248C40A3438A401343036010BDDD
:1011A00010B50368490003248C40A3438A401343CD
:1011B000036010BD10B50368490003248C40A343AD
:1011C0008A401343036010BD10B50368490003242F
:1011D0008C40A3438A401343036010BD10B50368DD
:1011E000490003248C40A3438A401343036010BD8D
:1011F00030B503684D000324AC40A3434D001446B2
:10120000AC402343036030BD01210160704710B53D
:10121000EFF31084012080F31088FFF705F984F3C1
:10122000108805F0DFFC02F0BFF803F0A9FC10BD48
:10123000F8B54D4841690422C907C90F1825A326EE
:101240004A4B002907D0416991434161416901221C
:101250001143416153E0C1688C46D9680C78E707B7
:10126000674609D0482F4AD045DC082F4CD0102FB4
:101270004AD0402F43D14AE0082F0CD0182F0CD071
:10128000282F10D00168382F2DD0294301604169E3
:101290009143416136E0846040E0CA788C68531C19
:1012A000CB70A15C1DE04E78012E10D08E78CC78EA
:1012B000A64212D204682C430460446994434461FA
:1012C000A0201870896808700020D860F8BD01223D
:1012D00014430C7000F053F8F8BD621C8B68CA70A0
:1012E000195D81601AE029430160416991434161C0
:1012F000A1201870F8BD502F2DD0582F11D00168A3
:10130000294301601E70F8BD01210C43C3E78B78AF
:10131000C9788B42016825D91143016000F028F893
:10132000F8BD8468CA788B68571CCF709C540268DB
:101330002A4302608878CA78904207D20B48A022DC
:10134000027089680A700021C160F8BD0749002059
:101350000E70C860F8BD8468CB788D685E1CCE7056
:10136000EC54D4E79143D8E70000024094000020F9
:1013700001683022914308221143016070470168DF
:1013800010229143282211430160704710B50521B6
:1013900004460907886B0F221043886323480269BB
:1013A000FF23E1331A4302618A6B83019A438A6304
:1013B000026983031A4302611D480122C3699B0825
:1013C0009B001343C3618368020513438360C868AD
:1013D0001043C860C8689043C86000F037F800F058
:1013E0003FF81448844201D1032008E012488442A7
:1013F00001D1062003E01148844202D10C2000F004
:10140000C1F8E1010E48FEF7A3FE401D0A21FEF7D8
:101410009FFE0C49401E4A68FF231B029A430002AC
:1014200002434A600848086010BD000040000050B8
:101430000002005080BB0000C05D0000E02E0000F4
:10144000B0BFF02B00001A40319200000348016841
:101450000122D204114301607047000000001A40CD
:1014600003480168012292041143016070470000A3
:1014700000001A40034801680122D2039143016031
:101480007047000000001A40F8B5334EF168334C45
:101490002046E1610162706960617069A061304855
:1014A00027460078203701284DD02E4802780020AA
:1014B000002A01D06061A0612B4A1278002A01D075
:1014C0006061A061294A1278002A01D06061A061A0
:1014D000274A1278002A01D06061A061A36962697D
:1014E0009D186562CD01C900ED0FC90F8D4202D173
:1014F000E2616361A2611F49214A0B781E490968B4
:101500000B431E4925D06069002800DC4042136867
:101510000014C0181060A069002800DC40420A686E
:101520000014801808603868010707D5000FC0074D
:1015300004D06169E161A069A1616061A069306165
:1015400060693061F8BD05491831081F01F066FD7A
:10155000E9E708601060E6E700001A401407002081
:1015600051020020AD0B002022000020610C002061
:10157000EC0000208B000020000100200C04002063
:101580000804002003494A68D208D20002434A6096
:101590007047000000001A40F8B55B49402008621F
:1015A00000F0C4F85948C168594FB868B960081AC2
:1015B0000002000A3D6A0446282D00D0281955492A
:1015C0004118312907D354494118312903D35349CC
:1015D0004118312900D232304F49953941183C2900
:1015E00009D34B210901411A3C2904D34B499539B0
:1015F00041183C2900D23C38494962187D21C90074
:101600008A4200D22046474941189F2900D2A03083
:101610006421FEF79DFD0646182878783BD9009096
:10162000022833D00A213046FEF792FD282820D028
:1016300004DC0B2821D00D2804D10BE0292818D078
:10164000602816D0281938620F20800186422AD9D6
:10165000282027E02820386202207870C01EF86019
:10166000012038611FE000980128EDD10320787037
:10167000EEE7B8785528F6D1E6E700980328E3D1DD
:101680002820386201207870B87839E02820386244
:101690000020787007E0022803D10B2E0ED0162E02
:1016A0001DD0281938627969002906D088001E4AA1
:1016B000491C1058796100D07CE7F8BD28203862B9
:1016C0003969F8688843F86049003961EBD1012134
:1016D0007970397F491C4907490FF9610DE02820CD
:1016E0003862386940003861DDD101207870387F78
:1016F000401C4007400FF861F86800F037F8B870F8
:1017000004F0E0FBCFE70000404000502000114013
:10171000AC000020E5FBFFFF99F7FFFF4DF3FFFF53
:1017200038CDFFFF5F64FFFF000D002010B50B48B0
:10173000C2680B4B0B4C986981006250002805D0A1
:101740000C19403CE46B121B074C6250401C986122
:10175000502801D10020986110BD000020001140E8
:10176000AC000020400E0020000D002008B50090C5
:1017700068460088FF210902884235D16946887889
:10178000C978C943C9B288422ED10121294A4C28BF
:10179000D1703BD014DC192834D008DC0B3803009E
:1017A00000F02EFC072422282A22262E22002A2896
:1017B0003ED02C282CD0422830D04A2814D135E0F5
:1017C0008A2831D008DC602818D061280DD06C2818
:1017D0000BD0822808D11FE08C2815D0A22821D058
:1017E000AC2817D0C2281BD0552008BD562008BDF4
:1017F0005A2008BD582008BD592008BD572008BDF3
:10180000642008BD652008BD682008BD692008BDAA
:101810006A2008BD6B2008BD6D2008BD6E2008BD84
:101820006F2008BD702008BD712008BD722008BD62
:10183000732008BDAC00002010B5002009490870D5
:1018400048708870C8701020087100204871772097
:101850008871C8710872084601780822401C05F09A
:1018600003FB10BD7C1A0020C106C90E0120884070
:10187000014908607047000080E100E0C106C90E20
:1018800001208840014908607047000080E100E0C5
:10189000C106C90E01208840014908607047000058
:1018A00080E100E0C106C90E0120884001490860BE
:1018B0007047000000E100E0C106C90E0120884029
:1018C000014908607047000000E100E00349C96871
:1018D000012282400846104070470000008F0050EF
:1018E000F8B50120FFF7F2FF00250126284F002858
:1018F00026D0284C0220616A014214D0606205F0B3
:10190000A7F9386824490028244806D0C030800848
:101910008000A0600E603D600DE080088000A06047
:101920000D603E6007E0606AC007C00F03D0012071
:10193000606202F08DFF20680121C9050843206024
:101940000220FFF7C3FF002821D0154C0220616A56
:1019500001420FD0606278680028124805D0C0307C
:101960008008800060607D600CE08008800060601E
:101970007E6007E0606AC007C00F03D0012060628C
:1019800002F066FF20680121C90508432060F8BD08
:1019900048020020008100503C0700203411002044
:1019A00000820050B412002010B500F0D1F80220DF
:1019B00003F0ACF87D20000105F0ECF801490020AF
:1019C000086010BD0001005010B5002009490870E2
:1019D00048708870C87010200871002048715A2023
:1019E0008871C8710872084601780822401C05F009
:1019F0003BFA10BD7C1A002010B504480178044859
:101A0000028804480078FFF721F810BD4407002041
:101A1000CC0C00209C0C002010B500200949087057
:101A200048708870C8701020087100204871EF203D
:101A30008871C8710872084601780822401C05F0B8
:101A400013FA10BD7C1A002010B500200949087057
:101A500048708870C8701020087100204871CD202F
:101A60008871C8710872084601780822401C05F088
:101A7000FBF910BD7C1A002070470268F8239A43D6
:101A8000202900D10021C9000A43026070470000EC
:101A900010B500200949087048708870C87010207F
:101AA000087100204871FE208871C87108720846CC
:101AB00001780822401C05F0D7F910BD7C1A0020DF
:101AC00010B500200949087048708870C87010204F
:101AD000087100204871DC208871C87108720846BE
:101AE00001780822401C05F0BFF910BD7C1A0020C7
:101AF00005210907CA680243CA60CA688243CA60EE
:101B0000704705210907CA680243CA60CA68824350
:101B1000CA60704705210907CA680243CA60CA68DB
:101B20008243CA60704700000348592101601621B2
:101B3000016088210160704700010050034859216D
:101B4000016016210160882101607047000100508A
:101B50000348592101601621016088210160704706
:101B600000010050034859210160162101608821BD
:101B7000016070470001005003485921016016219F
:101B8000016088210160704700010050034859211D
:101B9000016016210160882101607047000100503A
:101BA00030B50002000A0B49401E48610A48C2696C
:101BB00003241202120A4B041A43C26100208861F6
:101BC000064B10201A693825AA4302431A610C619A
:101BD00030BD000000E000E004ED00E00002005035
:101BE00070B51A4D2868401C2860194E0024204604
:101BF0000C21484302468019417800290CD04168E5
:101C0000002902D0491E416006D1B15C002903D0F1
:101C10008068002800D08047641C0A2CE7D30D4858
:101C2000016A0122D2021143016202F0F1FC0A4969
:101C3000E8680A688018E860084A28691368C018CC
:101C4000286100201060086070BD0000280200209C
:101C5000BC10002000000E40080400200C040020EE
:101C600038B51CA000681C4C0090216A002022138B
:101C7000114216D1080301D5184800E018488A031C
:101C80000FD40A04920F6B469B5CCA058904D20DDF
:101C9000C90E921C891C800859435043FEF758FA1C
:101CA0008000104DA86021694907490F022903D01F
:101CB000880029460C310858A1690907090F491CF9
:101CC000FEF746FA084928604A108018FEF740FAE5
:101CD000686038BD0102020400020050008051011A
:101CE000001BB7000000002040420F0070470000BA
:101CF000F0B51A498868012210438860184D002306
:101D0000286B401C2863C82800D92B63686A144ECE
:101D1000800070363458296B12488C4201D9036018
:101D200000E00260A86A0F4F800034580E483F1D43
:101D300000788C4203D9002802D13B6000E03A6071
:101D4000EC6AA4003559074C08348D4203D90028A9
:101D500000D12360F0BD2260F0BD00000000014012
:101D6000E8000020C4420050B901002010B5002056
:101D70000949087048708870C870102008710020E8
:101D80004871A5208871C871087208460178082238
:101D9000401C05F069F810BD7C1A002070B51E4C7F
:101DA000E069A1151D4D084203D1E069090108420F
:101DB0000DD01B4A01239B03A069184224D121683E
:101DC000A8684606760E9155401CA860F4E7E069C5
:101DD0000121490208421149096915D0104B012619
:101DE00080336869F605884202D2A26932420CD07B
:101DF000884209D162680220824362600120A861A2
:101E00008806800E2861686170BD8206920E9A5C19
:101E10002260401C6861E6E700000540A80B002036
:101E200098160020F0B54248C169424B82155C68A3
:101E30001140621E9446404FDD699A6900294CD1D9
:101E4000C16901263603314247D14DE03068C0B246
:101E500008280ED05969064609020143203E5961FF
:101E60005E2E03D90A2801D00D2808D15B2811D095
:101E700014E0002A03D0002D02D06D1EDD61F0BDFC
:101E8000521E9A611868401E18608442F7D360465B
:101E90005860F0BD0E04360E1B2EFAD00902274EF4
:101EA000090CB14203D1014641390329F1D9E61D9C
:101EB0001968F936B14201D8FF2A0AD96D1CDD61D3
:101EC0000D28E6D10021D9611978491EC9B278548C
:101ED000DDE7CEB2B855491C1960154EB069012135
:101EE00089030842B2D0F0BDC169012252021142F9
:101EF000104A9268F7D0124D0126D968F605914232
:101F000002D2846934420BD09142ECD14468022160
:101F10008C43446001201861D0B29860D860F0BD55
:101F2000CC05E40D2C5D0460491CD960E7E7000096
:101F300000001540640C00207C1700205B1B000093
:101F40007C18002010B5012203210520FEF7C6FFF2
:101F5000FFF7FEFD0C4C206880210843206000F054
:101F600017F8206810218843206020680221084368
:101F700020602068012108432060FEF797FF034995
:101F80000020086010BD000000400040000100502B
:101F9000024801680422114301607047004000407C
:101FA00002480168402291430160704700400040B0
:101FB00010B5FFF7CDFD0448016808221143016008
:101FC00002490020086010BD0040004000010050A0
:101FD000024801680122114301607047004000403F
:101FE000024801680122114301607047004000402F
:101FF000024801680122114301607047004000401F
:1020000030B47446641E2578641CAB4200D21D4671
:10201000635D5B00E31830BC184702E008C8121F7C
:1020200008C1002AFAD170477047002001E001C1C1
:10203000121F002AFBD1704710B51048FFF77EF839
:10204000032001F0E3FE0D48001FFFF777F803209F
:1020500001F0DCFE0948FFF7D7F8062001F0D6FEB4
:102060000648FFF76BF8062001F0D0FE0348001F7A
:10207000FFF7CAF8032001F0C9FE10BD2C42005042
:102080000121090705200007C2680A43C260C2682F
:102090008A43C260074842690C239A4342618269BD
:1020A000FF231B049A4303021A43826182680A4396
:1020B000826070470002005070B5FEF7EDF9002510
:1020C000354C0028206904D00A2800D1A5621E20C2
:1020D00003E01E2800D1A5620A20206100F062FC06
:1020E0002E4901260A781043002801D00D7026E001
:1020F000A06A7D22401CA0622169120151438842DE
:102100001ED9FEF7C9F9002804D025480068052823
:1021100003D015E002F03EF812E02248056004F01A
:10212000AFF9642004F014FD1F480660001D06602E
:102130001D48001F05601D48067004F043FAA562A3
:102140001B4805601B480560216B606B401860638D
:102150006169491C616140290ED380091649656196
:1021600060630A68154B16499A4209D31D22520131
:10217000904202D20220087070BD124A904201D2F1
:102180000E7070BD032008706079401CC0B2607191
:102190000528F6D9657170BD1C0000205F00002085
:1021A0006800002000010020C8420050B901002052
:1021B000340200203802002028020020881300008A
:1021C000CC010020B2030000F8B505210907C86B57
:1021D00001221043C8632148426985022A434261B3
:1021E000CA6B10231A43CA634269860332434261B1
:1021F000CA6B20231A43CA634169C703394341614B
:10220000174C002201212046FEF7C0FF0022114694
:102210002046FEF7BBFF002204212046FEF7B6FF52
:10222000002205212046FEF7B1FF60682843606068
:102230006068304360606068384360600948082126
:10224000026A0C239A430A430262426A31210A431A
:102250004262016A012211430162F8BD4000005050
:10226000C040005000000E4010B5394A51898842E4
:1022700001D9411A00E0091A0023732903DD938173
:10228000D381508110BDD189091889B2D181508183
:102290009089401C80B290810828F3D1C8087D2421
:1022A0009381E4005521D081A04227D8D724A400EF
:1022B000A04223D8CD24A400A04201D958201BE07D
:1022C000244CA0421AD8234C283CA04201D95920C2
:1022D00012E00524E401A04210D84B24E400A042FF
:1022E00001D95A2008E0FF247D34A04206D8FF24FB
:1022F0005534A04202D96120D07000E0D170D0786E
:10230000107115480068002801D05620D070D38184
:10231000906912490246B93A1F2A01D2104805E0D5
:102320000246FF3A8A3A272A03D20E4800780870FC
:1023300010BD0D4A82183F2A01D20C48F6E70A4A1E
:10234000CC3A80182B2801D20948EFE70B7010BD5A
:102350001C000020EE02000060420050930C0020A0
:10236000840C0020850C0020B7FDFFFF860C0020A8
:10237000870C00200C4B5521D878552804D01A7AA8
:10238000824204D119700DE01970597209E05A7A2D
:10239000552A04D0824202D11870187202E0587295
:1023A00019701972187870471C0000200D4A5520CA
:1023B00050701078552803D00520C04310620EE0FD
:1023C000116A0848491C1162C078082901DAD071E5
:1023D00005E000211162D179814200D1507050781E
:1023E000704700001C00002070B5FFF7C3FF124CBF
:1023F0002070FFF7DBFF114D6070287800280CD0AB
:10240000012802D0022808D102E001F00DFD01E010
:1024100001F002FD2878022801D0FFF74DFEE069A7
:10242000002802D080470020E061054B00221E21D9
:10243000A07804F04FFB70BD1C0000208A00002033
:10244000E923000010B5FFF7BFFE0D480168FF2229
:10245000120291430122D20311430160FEF750FBA7
:1024600001F046FF074CA07001F042FF0649074B00
:10247000087000221E21A07804F02CFB10BD000083
:102480001CE400E01C00002089000020E92300007B
:1024900010B5134BDA68904203D192681278A02AE3
:1024A0000AD10279C2709A680024002A12D0002949
:1024B00009D05968884201D1002010BDC160586020
:1024C00002F0A6F809E0904202D15968002901D033
:1024D000D06000E058609860C460012010BD00002A
:1024E0009400002010B5FF2100201DE04200184B91
:1024F0009A5A002A00D181B2164A12884300144C1D
:10250000E35A9A420FD1420023469A5A072A0ADD1B
:10251000052344000E4A183213530E4A53790C4ACD
:102520004832135410BD401C0C28DFD3FF290DD0B6
:10253000084A12884B00064CE252064A537922465A
:102540004832535405234C00303A135300BFE9E797
:10255000A01A0020C40C002010B512480178441EB7
:102560002078A22918D061681F2914D2491C616003
:102570000D4A0421116004F0D1FA606800F0A8F956
:10258000FEF71AF909480078A02804D0084802226A
:1025900001681143016010BD064B0022022104F0C6
:1025A00099FA10BD41070020F40000209C0C002087
:1025B000980C0020B925000010B512480178441E7F
:1025C0002078A22918D06168002914D0491E6160C2
:1025D0000D4A0421116004F0A1FA606800F078F956
:1025E000FEF7EAF809480078A02804D0084802223B
:1025F00001681143016010BD064B0022022104F066
:1026000069FA10BD41070020F40000209C0C002056
:10261000980C0020B9250000F8B50024204F214D6A
:10262000264628194178285D00F06EF8A41CFFF7B3
:10263000A3FAFFF7D5FC3E60582CF2D3DF2105202A
:1026400000F062F8174D0024583D28194178285DA4
:1026500000F03CF8A41CFFF78FFAFFF7C1FC3E60C6
:10266000582CF2D3DC21052000F030F80024281982
:102670004178285D04F0C8FBA41CFFF77DFAFFF742
:10268000AFFC3E60582CF2D3DC21052004F0BCFBEB
:1026900001F02CFE01F02CFE0249A4390870F8BDAF
:1026A00000010050E407002010B57C21052004F053
:1026B000ABFB10BD03480179C1700349A02008702D
:1026C0007047000060160020410700207CB50546D9
:1026D00001200E460A4C009002230022382101946A
:1026E000084802F025F96570A670A220207000212C
:1026F0000448FFF7CDFE2078A228FCD07CBD000066
:1027000041070020601600207CB5054601200E46DA
:102710000A4C0090022300223A210194084802F05A
:1027200007F96570A670A220207000210448FFF709
:10273000AFFE2078A228FCD07CBD0000410700201D
:102740006016002070B50E463F2829D83F2E27D8A6
:10275000B04225D8044621E000213120FFF7B6FF22
:10276000E1B21620FFF7B2FF0E49A00041180D4854
:102770000968FC38054681600835A9781720FFF7FD
:10278000A5FF69781820FFF7A1FF29781920FFF726
:102790009DFF01212620FFF799FF641CB442DBD97D
:1027A00070BD00003C08002070B50E463F2828D8B8
:1027B0003F2E26D8B04224D8044620E00021312004
:1027C00004F022FBE1B2162004F01EFB0D49A0002C
:1027D00041180D480968054681600835A978172019
:1027E00004F012FB6978182004F00EFB29781920F8
:1027F00004F00AFB0121262004F006FB641CB4420D
:10280000DCD970BD3C0900204007002070B50E46A1
:102810003F2828D83F2E26D8B04224D8044620E0AE
:1028200000213120FFF770FFE1B21620FFF76CFFA7
:102830000D49A00041180D4809680546816008351A
:10284000A9781720FFF760FF69781820FFF75CFF71
:1028500029781920FFF758FF01212620FFF754FFA0
:10286000641CB442DCD970BD3C0A00204007002043
:10287000F8B505460024174621463120FFF744FFEE
:10288000E9B21620FFF740FF104EA000C1190F4813
:102890000968083881606000251828461730B1782B
:1028A000C0B2FFF731FF284618307178C0B2FFF789
:1028B0002BFF19353178E8B2FFF726FF641C052C91
:1028C000E3D302212620FFF71FFFF8BD48070020B1
:1028D00070B51F2808D01E2808D01D2809D01C2834
:1028E0000AD01B280BD010E0194A0AE0184A14320B
:1028F00007E0174A283204E0154A3C3201E0144A46
:10290000503204210020FFF7B3FF124D2C460C3C3F
:102910006068295C082004F077FA6068295C092067
:1029200004F072FA6068295C0820FFF7CFFE606847
:10293000295C0920FFF7CAFE204661682C30415C03
:102940000A20FFF7E1FE606803F098F970BD00000F
:102950003C0B00204C07002010B50549A32008704F
:10296000022104F0C5FA1E2004F014F910BD000085
:102970009C0C002010B502F03DFF642004F00AF921
:102980000749A0200870022104F0B2FA1E2004F0CA
:1029900001F9642004F0FEF804F016FA10BD0000FE
:1029A0009C0C002006480068800A0F2804D80548BF
:1029B0000068800A0F2801D9012070470020704765
:1029C00034020020380200200A48592101601621F3
:1029D000016088210160032005210907486006483D
:1029E000016889088900891C016005490348C8609D
:1029F000FEE700000001005000C000500400FA058E
:102A000000ED00E0F8B53A4C616CA06B491C6164C4
:102A1000C9071BD0636B2826FF27591CE26E0025CF
:102A200006284FD013DC012828D0022831D00428F2
:102A300039D005280AD1E5626163132940D9701A9B
:102A4000A062272900D96563A06A6062F8BD0928E1
:102A500007D0AA2847D0BB28F8D1002B45D0104674
:102A6000DEE76562E5626163132902D9701AA0622C
:102A700000E0A1622729E9D96563F8BDA562491C78
:102A8000E5626163132902D9701A6062F2E761623C
:102A9000F8BDA56265626163132902D9701AE0620C
:102AA000E8E7E162F8BDA5626163132906D9701AEF
:102AB000E062272900D96563E06AC6E7E162FBE7C7
:102AC000A162C1E76163132902D9701AA06200E014
:102AD000A162252900D96563A06AE0624000032154
:102AE000FDF736FBB1E7142BB9D1A763F8BD0000A1
:102AF000E800002000B502A0FDF7F6FB00BD0000D5
:102B000041542B534F4349414C3D310D00000000CF
:102B100000B502A0FDF7E8FB00BD000041542B4DBD
:102B200049433D300000000000B502A0FDF7DCFB8A
:102B300000BD000041542B4D49433D3100000000D1
:102B400000B502A0FDF7D0FB00BD000041542B539F
:102B50004F4349414C3D300D0000000000B502A03C
:102B6000FDF7C2FB00BD000041542B44464C54000D
:102B700000B50248FDF7B8FB00BD0000886F0000FB
:102B800000B50248FDF7B0FB00BD00009C6F0000DF
:102B900000B502A0FDF7A8FB00BD000041542B4F7B
:102BA0004646000000B50248FDF79EFB00BD000050
:102BB000946F000000B502A0FDF796FB00BD000079
:102BC00041542B414744310000B5FDF78DFB00BD5A
:102BD00000B502A0FDF788FB00BD000041542B5654
:102BE00045520000044800214156032901DD01201F
:102BF0007047002070470000A80B002010B5FDF7BB
:102C00009FFD052003F0C6FF002003F0D5FB102137
:102C1000062004F0F9F810210620FFF775FD10BD1D
:102C200010B5FDF721FD052003F0B4FF012003F0EE
:102C3000C3FB1E21062004F0E7F81E210620FFF743
:102C400063FD10BDF8B502F0D5FD322003F0A2FF00
:102C50003248012700783249324D0024002807D03D
:102C6000314E022811D0032823D0012827D045E077
:102C70002E4804702E4804700F60FFF793FFFDF795
:102C800073FB00F09FF92C7038E02878002805D1FC
:102C90000C60FFF77DFF142003F07CFF3460FDF72C
:102CA0004BFB00F08FF923480178002926D00470EF
:102CB00024E0346000F0F8F800F07EF91EE0287897
:102CC000002806D10C60FFF763FF642003F062FF69
:102CD0002F703460FEF726F91748006817498842BC
:102CE00005D117480078002801D1FEF793F9FDF7C8
:102CF00023FB0B481C30046000F064F907481149BD
:102D00000078085C1049087001F000FF04F05CF8DE
:102D100000F03CF8FDF714FDF8BD00008B0000202A
:102D2000344200508800002000010020590000209B
:102D3000B4010020610C0020940C0020AA55000072
:102D4000580000208C000020E80000201CB50B4932
:102D5000C87001F0E3FA09490120491D0191009072
:102D6000022300229021064801F0E2FD0648054BAF
:102D700000220221007803F0ADFE1CBDD00100202E
:102D8000AC10002041610000A10B00201CB50849D7
:102D90000220C870491D01200191009002230022E9
:102DA0009021044801F0C4FD03F0CAF91CBD0000E5
:102DB000D0010020AC10002010B500200949087097
:102DC00048708870C8701020087100204871222057
:102DD0008871C8710872084601780822401C04F006
:102DE00043F810BD7C1A002010B500200749086088
:102DF000012007490870FFF725FF064B002206490E
:102E00000648007803F066FE10BD0000980C002014
:102E10008B00002051410000B80B0000CE0C0020B8
:102E200000B505480078042803D004A0FDF75CFA3B
:102E300000BD04A0FAE70000A80B002041542B437A
:102E40004800000041542B435200000010B5134CC1
:102E500000220E212046FEF7C1F90022052120465E
:102E6000FEF7BCF9002204212046FEF7B7F90C4C0E
:102E7000002203212046FEF7B1F90022022120465C
:102E8000FEF7ACF9074841680C2291434160416963
:102E90000F2212069143416110BD000040400050D6
:102EA000404100504000005010B5D421032000F0F4
:102EB0008FF810BD10B501F01BFA034C207001F023
:102EC00017FA607010BD0000A00B002070B5002143
:102ED000022000F07DF8C421032000F079F80421DD
:102EE000084600F075F84021082000F071F808212C
:102EF000092000F06DF800210A2000F069F808218F
:102F00000B2000F065F804210C2000F061F801F0BE
:102F1000C1FA224D2878002808D0214E002402282A
:102F20000AD0032811D001281AD02EE0142003F073
:102F300031FEFDF719FA26E0FFF72AFE142003F010
:102F400029FE3460FDF7F8F91DE0FFF721FE14209B
:102F500003F020FE3460FFF7A7FF00F02DF814E027
:102F6000FFF716FE142003F015FE3460FDF7DAFFBC
:102F70000C4800680C49884201D1FEF74BF8FDF778
:102F8000DBF90A48046000F01DF809482978405C24
:102F90000849087001F0BAFD70BD00008B000020E8
:102FA00000010020940C0020AA550000504200505F
:102FB0008C000020E800002010B502210A2000F05B
:102FC00007F810BD10B500210A2000F001F810BD6F
:102FD0007CB5054601200E460D4C009002230022D0
:102FE0002E2101940B4801F0A3FC6570A670A2206D
:102FF000207000210748FFF74BFA2078A228FCD068
:10300000FEF7C4FDFEF7F4FF0349002008607CBD15
:10301000A30B00208816002000010050F8B5AC4F2B
:103020000C4639460546FA6ACB69086A0026896962
:103030009C46002A05D0BB6A9A427DD2002842D025
:1030400001E000280AD0A2483E62803081682960F1
:10305000C0682060F86A401CF862F8BD9C4A0120F4
:103060001346803310621A8C10041860988C070481
:103070005F60984B5A54491C12125A54491C5854B8
:10308000491C001258549248491C8161FF200130AC
:1030900081420FD18E4F0146BE6106461A466046F8
:1030A00003F038FCF8693146FF300130F861894897
:1030B000FDF76BF8864A80321068286051682160FD
:1030C000D1609060F8BD82490120834F0862B968E1
:1030D0008143B9603A68C1048A433A60B9680143E0
:1030E000B9600821032003F0E3FC79481821006B44
:1030F00003F0DEFC38680121C90408433860082168
:10310000FF2003F0D5FC38697149C0B2887184464C
:103110000007000F08710A460921515600914A0024
:103120006B49C431895A6A4ACB0880321361D16134
:10313000470703D55B1800E0B3E01361830703D5AD
:1031400017694B08DB191361614FC30703D013697B
:103150008908C9181161010702D511694942116135
:103160001369116AC9185D4B5161994202DD194614
:10317000516104E0594BDB43994200DA5361544AF0
:103180008032516911623432125C0098101840B2DA
:103190007872002801DA7E7203E0582801DD582099
:1031A00078724B486246120942710A23C356C430F2
:1031B0009C465B00C05A464FC30880373B61F861AC
:1031C000570703D5424F80371B183B61930707D53C
:1031D0003F4B470880331B69FF183D4B80331F610D
:1031E000D30705D03A4B800880331F69C019186196
:1031F000100704D53648803003695B4203613448C8
:1032000080300769436ADB19344F8361BB4202DCBB
:10321000FF43BB4200DA87612D4B2D4F8033986905
:10322000586234339B5C62469A1852B2BA72002AD2
:1032300001DABE7203E0582A01DD5822BA72244A2C
:103240000B048032136003045360224BBA69995413
:10325000521C09129954521C9854521C0012985432
:10326000521CFF200130BA6182420ED1BE61064677
:1032700001461A46F86903F04DFBF8693146FF3004
:103280000130F8611348FCF780FF114A8032106862
:10329000286051682160D1609060386B401C3863B1
:1032A000F8BD0C4A604603F035FBBE61FE610A487A
:1032B000FE6281684908490081602E602660FEF741
:1032C000C5F8FEF7CDF87E7002203870F8BD00001A
:1032D000500200203414002000400340FF7F000013
:1032E00010B500202E49086055E02D4800684100C7
:1032F0002C48405A00283CD0294800684000294901
:103300001839085A002834D025480068410025485B
:10331000405A401E81B22248006842002148815232
:1033200024301F490968405C052809D11C48006801
:1033300040001C4918390A5A00210520FDF7A0F960
:103340001848183016490968405C04281ED1144BEF
:103350001B685B00134C183CE25A23465433104C54
:103360002468195D0C3B0E4C2468185DFDF76EFB5C
:103370000CE000200A49096849000A4A183A5052EC
:10338000002107480068420006488152044800684E
:10339000401C03490860024800680C28A5D310BDF2
:1033A000B80C0020B81A0020F8B5002422460A21E3
:1033B0002448FDF713FF244F384603F001FCFDF7C6
:1033C00089F82249214A0125214E3039002802D1AD
:1033D000106800280ED01068002801D01D48057024
:1033E0000D60384603F0ECFBFDF774F8002823D09D
:1033F000356021E016480027076005200007406877
:103400002022104200D050240E461048083801688F
:10341000002909D0052003F0BDFBFDF75BF800286B
:1034200007D00B480560E3E73760002401680029F6
:10343000FCD0641C642CE8D3FEF79CFFFEF79AFFD7
:10344000F8BD000040400050A086010068420050D6
:1034500054000020B401002010B500220C49592866
:1034600009D004DC56280FD058280CD103E05A2884
:1034700001D0612807D1074803690878034303D0C6
:10348000002800D00A7010BD0A7002F0FBFA10BDCF
:10349000AF00002058000020F8B500210C46009134
:1034A000552804D0F74A0121D171F7490C60F7493A
:1034B000FA4A55380978F64DF64EF74F1278030060
:1034C000FEF79EFD1F20F7F6F5F4F32020202020C4
:1034D00020F22020A5FB202011213A415376898E2D
:1034E00093979DA1200000290CD0EC4E002A06D015
:1034F00034700120FFF72AFCE94831782FE0287862
:10350000052871D1F8BD0029FCD0E44E002A0AD06C
:1035100034700120FFF71AFCE1483178405CE14942
:10352000087001F0F3FAFFF745FB142003F032FBBB
:10353000FFF71EFB142038E00029E3D0D74C032A04
:10354000DDD0032005E00029DCD0D44C022AD6D0FF
:10355000022020700120FFF7F9FBD1482178405C60
:10356000D049087001F0D2FAC9E70029CAD0CB4E81
:10357000012A0AD001203070FFF7E8FBC8483178F3
:10358000405CC849087001F0C1FAFDF7CBFC002887
:10359000B5D0C54800680028B1D1FFF725FCC34865
:1035A0000460FFF7F5FA7D20000103F0F3FAA6E7C7
:1035B0000029A7D0BE491F200860FFF789F9FDF751
:1035C000FBF8BC480078A0289CD0BB4802220168C8
:1035D00011430160F8BD0029FCD0032028700BE0E6
:1035E0000029F7D00120F9E70FE00029F2D00220EE
:1035F000F4E70029EED02C7003F016FBF8BD00298B
:10360000FCD00420EAE70029F8D00520E6E701F025
:1036100057FA00287CD19D4800780028EED09949BF
:10362000C86A002807D0401EC86274D0012805D09F
:1036300002280CD01EE00820C86298E0032001F0A8
:1036400065FAFFF7C5FA642003F0A4FA17E0052035
:1036500001F05CFAFDF766FC002804D0FDF7C4FC1D
:10366000642003F097FA95480078002807D1347059
:103670003C7053E003285ED050E001F047FA8148E7
:103680000A21808D4843401C3070F1E7052854D052
:1036900006285BD0072862D0082868D0052028704B
:1036A00003F0C2FAE9E208E0C8E0C8E194E067E0AC
:1036B0001DE24DE230703C70F8BD01F001FA0028C7
:1036C000A8D1724800780028F6D06E486D49C06ACB
:1036D00008281FD2401CC8621DD00128AED0022885
:1036E000C8D1052001F012FAFDF71CFC002804D017
:1036F000FDF77AFC642003F04DFA7048007800284A
:103700000BD060480A21808D4843401C307005E092
:103710000AE200E0CC620220AFE734705948C06A88
:103720000428B3D1062001F0F1F90320287003F03A
:103730007BFA8220BEE704209FE7062001F0E6F92D
:103740000120287003F070FA8420B3E7062001F00E
:10375000DDF90220287003F067FA8820AAE7062026
:1037600001F0D4F92C7003F05FFA9020A2E7062054
:1037700001F0CCF90420287003F056FAC02099E734
:1037800001F09EF900289BD140480078002893D191
:103790004B48007800281CD03A49886A072801D293
:1037A00007200AE01E2801D2401C06E01E2803D094
:1037B0002F280BD21E2000E02F208862C11F18295D
:1037C00001D32F28E3D102F08DFAF8BD2F28F3D1D1
:1037D000E6E7FEF7C1FEF8BD01F072F90028D2D18C
:1037E0002A4800780028F6D135480078002822D0F1
:1037F0002449886A2F2801D92F200EE02F2801D0D4
:103800001E2801D91E2008E00246083A172A01D2D4
:10381000401E02E007280BD207208862C11F18292A
:1038200001D32F28D7D102F05DFAFF20F53025E231
:103830000728E1D0F2E7FEF7BFFEF8BD01F040F93E
:103840000028A0D1114800780028F6D11C4D287816
:10385000002855D0022001F059F9002002F042FA68
:10386000FF20F53003F096F90E48007801F04EF98C
:103870002C70044CA06AC11F182923D32F283DD0D7
:1038800029E0000058000020FC000020B7010020C3
:103890003C02002010040020EB0000208B000020E0
:1038A0008C000020E8000020940C002034420050DE
:1038B000440700209C0C0020980C00201C040020D1
:1038C000610C00202F2819D01E214843FA494018C6
:1038D000D238FFF779F97D20C00003F05BF90620AC
:1038E000A062FFF767F9142003F054F9FFF740F9DD
:1038F000142003F04FF901206070F8BDEF48E8E7AD
:10390000FDF710FB0028F8D0ED4F387801F0FEF8F5
:10391000EC4800780128F0D0EB4E0125B5703078E6
:10392000002833D0052001F0F1F8002002F0DAF988
:10393000FF24F534204603F02DF9387801F0E6F83D
:10394000204603F027F9E1480068002801D03572CD
:10395000F8BD02F077FF002803D101F0A1F800289C
:10396000F6D1FFF729FA642003F014F9FCF77CFE86
:1039700002F0EAFD7D20C00003F00CF9FDF74AFBE0
:10398000FCF78CFFD248057000201CE7FDF7CAFA4F
:10399000D0480068D049884201D1B470F8BDCF4802
:1039A0000470002002F09EF9052001F0AFF8FF201E
:1039B000F53003F0EFF8387801F0A8F8C548006852
:1039C000C749884233D17572FDF7D4FAC5480078EB
:1039D000002825D001F064F8002821D0FCF75EFF14
:1039E0007D20C00003F0D6F8BF4E30682843306019
:1039F000FCF754FF7D20C00003F0CCF8FDF7E6FA99
:103A00000020346002F06EF97D20000103F0C2F85E
:103A1000FCF744FF002002F065F9FCF725FE0AE000
:103A2000FDF7D4FA7D20000103F0B4F8F2E77D2021
:103A3000C00003F0AFF8387801F068F8F8BD01F085
:103A40003FF800287ED1A94800780028F6D1A84880
:103A50000078002802D09C4907208862984908789D
:103A6000082804D02D25A34E092804D021E0A2491E
:103A70000120086034E001F049F8A04F13E0142061
:103A800003F088F80098401C0090FA280BD98E4863
:103A90000121356041709A480170FFF769F81420E0
:103AA00003F078F802E038785A28E8D000986428C3
:103AB00016D2864835600068002803D18148017815
:103AC0008148417100F002FD7E4D28700120FFF712
:103AD0003DF98C482978405C7949087001F016F866
:103AE000794801218171847078480460F8BDFFF73E
:103AF00079F8002819D0744DE87800280AD0EC70C5
:103B0000FFF712F8142003F023F82C71E87801284D
:103B100002D0F8BD0120E870FEF7FAFF142003F090
:103B200017F801202871F8BD0CE0774932200860B1
:103B300076480078002805D100F0C2FF002804D0A4
:103B4000FCF73AFE03F04CF9EDE7FCF76DFEF9E700
:103B50005D4D5B486C61AC61EC612C626C6200781D
:103B600000F0D4FF6A4E6B4FFAE0142003F012F815
:103B70006969491C69613078582803D0AC615928BB
:103B800007D002E0AA69521CAA61EC615A2807D04A
:103B900002E0EA69521CEA612C62612805D002E069
:103BA000286A401C28626C6211E0686A401C6862E6
:103BB000F0280CD94E4801780029B4D101210170B8
:103BC000022000F0A3FF002002F08CF8B9E0A86901
:103BD000F0281AD901202870FEF7BEFE022000F05E
:103BE00095FF002002F07EF802F04AFCFF20F5303D
:103BF00002F0AEFFFDF796F9002894D03148007826
:103C0000012890D002F0BCFC8DE7E869F02838D993
:103C1000FEF7B0FE012000F079FF002002F062F80C
:103C2000FF26F536304602F093FF287801280AD1A6
:103C30002C70642002F0AEFF02F086FC02F020FC43
:103C4000304602F085FFFDF76DF91E4C2078012803
:103C500009D12048006822498842D5D1FCF77CFD73
:103C6000642002F097FF20780228CDD1194800681F
:103C700019498842C8D1FCF787FD642002F08AFF09
:103C800051E7FF20F530814246D92869002809D044
:103C9000012000F03BFF002002F024F82C610521F8
:103CA00028694CE0022000F031FF002002F01AF8F1
:103CB00005202861F3E7000024040020F40600201A
:103CC000E80000208B000020580000202801002080
:103CD000A60C0020940C0020AA550000ED00002046
:103CE00055AA0000C00C0020980C0020B70100204D
:103CF000610C002024010020F80000201F0000209B
:103D0000B40100208C00002004010020D10100201B
:103D10002000002060420050286AFA2820D9334D44
:103D20002878012812D0022000F0F0FE002001F0D7
:103D3000D9FF01202870FEF703FF0721287803F040
:103D4000D7F8FF20F53002F003FFECE6012000F089
:103D5000DDFE002001F0C6FF2C70FEF7CBFEECE785
:103D60003868002800D000E700F0AAFE002801D043
:103D7000FEF7F2FB1E4804601E480078002815D0AC
:103D80001D49A02008701D49192008602C611748A2
:103D90002C7004701A480470FEF704FF642002F0CF
:103DA000D7FEFEF7DBFE142002F0D2FE02F068FB25
:103DB000642002F0CDFE13480068134E002804D1A1
:103DC0002869052805D00028BFD100F0E3F9347038
:103DD000A9E60C4901208C310860091D08600949D9
:103DE00088310C60307002F0EDFB9CE6600C002026
:103DF00000010020B70100209C0C00204407002097
:103E00008B0000203C420050B901002010B5044650
:103E1000204602F0D5FE10BD10B502480078FFF72D
:103E20001BFB10BD1C00002010B5094C2078FFF7CB
:103E300033FB6078582801D0592807D1616A491CA2
:103E4000616203D0FFF728FB0020606210BD000014
:103E50001C00002070B56448007905286DD006DC90
:103E6000012809D0022817D004287DD12EE084280B
:103E70007BD08528F9D1A0E0012000F05BF95B48F8
:103E80000078002805D101205849087000205849C1
:103E90000870FEF727FBA5E00120564908700220B4
:103EA00000F048F9322002F075FEFEF79DFF00BFDA
:103EB0005148FDF743F900BFFEF76AFE7D2000017F
:103EC00002F068FE00204B4908708BE0042000F0EF
:103ED00031F945484079A02800D183E042488079F3
:103EE000002802D101214048817101204349086026
:103EF00000241FE061004248405A002819D0404881
:103F00003030005D38494979884212D104213C485B
:103F1000183001553448817939483C3001556300E7
:103F20000546543DEA5A0346195D0C3B185DFCF703
:103F30008DFD641C0C2CDDD354E0052000F0FAF854
:103F400000241CE061002E48405A002816D0600072
:103F50002B491839085A2449098888420ED005216E
:103F600027482430015501E03BE00BE06000244984
:103F700018390A5A00210520FCF782FB641C0C2C1E
:103F8000E0D32FE0002414E060001D491839085ADE
:103F90001549098888420BD119483C30015D124807
:103FA0008079814204D1002115481830015502E082
:103FB000641C0C2CE8D300BF14E000240DE060006A
:103FC0000F491839085A08490988884204D1002144
:103FD0000B482430015502E0641C0C2CEFD300BFC9
:103FE00000E000BF00BF70BDC40C0020ED00002049
:103FF0005A000020AD0B002034420050A80C0020D5
:10400000B81A002010B5244800882449098888423D
:1040100041D121480079822823D006DC04280FD022
:10402000052817D0812834D104E084281DD08528A4
:104030002FD127E000201A49086002F06BF829E030
:104040000020174908601548028800218420FCF7E9
:1040500017FB1FE01148028800218520FCF710FBA8
:1040600018E000200F49086014E00B4880790E49E1
:104070000968884205D10B48006802218843094934
:10408000086007E007480068052188430549086083
:1040900000E000BF00BF10BDC40C0020CC0C00200D
:1040A000A00C0020980C002044070020F8B5002642
:1040B00035463446FCF7ECFE1B48002101601A4FE0
:1040C0002837142002F066FD002C02D13868002841
:1040D00003D1761C032E00D10124FCF7FBF9002844
:1040E00006D0114901200860322002F053FDF8BDCE
:1040F000012C17D13868002814D06D1C0A2DE0D18E
:10410000002000F003FD0849012008604B20C0009A
:1041100002F040FDFDF71CFD05490448C860BFF3EF
:10412000408FFEE70025CCE7384200500400FA0536
:1041300000ED00E010B5044604490A8880212143BF
:1041400008460021FCF79CFA10BD0000C40C0020BA
:1041500010B50B480B490860FCF7E4FE09480068FD
:10416000074988420BD1FCF755FF322002F012FDBF
:10417000054B002205490648007802F0ABFC10BD53
:10418000AA550000940C002051410000C409000011
:10419000CE0C0020F8B549A00068494E00900124DB
:1041A00074700020474D30702C70F078002804D0D7
:1041B00045490520087002F037FD444F3878002843
:1041C00014D0FCF7AFFE002809D0414800684149EF
:1041D000884204D1FCF7C0FA642002F0DBFC387896
:1041E000002803D03C48017801290BD00322C621C6
:1041F000684602F039FE642002F0CCFC38780028D2
:1042000005D00FE00321017002F0BAF9F3E7FCF7E3
:1042100089FE002806D02E4800683049884201D126
:10422000FCF7F8FE2E4908783071192801D91920B9
:1042300002E0092801D209203071C0B2086002F002
:104240001FF9642002F0A6FC2649022008702648C7
:104250000470012000F05AFC00262E70FCF704FACE
:10426000FCF738F900280AD1322002F093FCFCF761
:1042700067FA322002F08EFC002001F033FD2C7032
:10428000FEF786FCFF20F53002F084FC7D20C000A4
:1042900002F080FC1E24E0B202F0B8F802F0C4F88C
:1042A000052002F077FC641EF5D501F0A3FA642026
:1042B00002F070FC2E7001F017FDF8BD1010100018
:1042C000B4010020AD0B00203C020020580000206B
:1042D000940C002055AA00008B000020AA55000075
:1042E000440700208A000020E800002070470000FA
:1042F000094900200C22424352189278002A05D026
:10430000401CC0B20A28F5D3FF2070470C220123BD
:10431000424351188B707047BC10002000B50C4808
:10432000C1780B00FDF76CFE0A1206120606120693
:10433000061206120649491D8A78002A06D10A4645
:1043400083680F32D25C8A700121017000BD0000C9
:10435000D0010020F8B5012001F090FE04460520B0
:1043600002F018FC2046264C264F274D00265A28DE
:1043700008D026483E70182101602E6124482E7016
:10438000067035E0022001F079FE3870052002F059
:1043900001FC032001F072FE1C490860052002F0B8
:1043A000F9FB042001F06AFE0746052002F0F2FB4B
:1043B000052001F063FE2861052002F0EBFB0620DA
:1043C00001F05CFE2870052002F0E4FB072001F0FC
:1043D00055FE0F490870052002F0DCFB002F07D0C6
:1043E000012F07D0022F07D0032F02D1032004E0B2
:1043F0002670F8BD012000E002202070F8BD00000A
:104400008B0000209C0C0020580000204407002056
:10441000600C0020F0B51E4D55262B4608336C6805
:104420001A46E05C383A03271179552804D0E6543F
:1044300000236B60D7620CE0D06A401ED06204D0CB
:10444000582905D0592915D102E03046D7621CE021
:104450000846884213D1582801D059280AD1916AB8
:10446000491C9162032905D300219162516A491EBA
:10447000516201D05520F0BD01215162F0BD582894
:1044800001D0592801D1022151621071F0BD000004
:10449000DC00002010B5FBF74FFFFEF793FD084846
:1044A00002F078FB0748084900680002000C088009
:1044B000082804D20322000212028018088010BDCE
:1044C000DC05000038070020CC0C002070B5FCF79C
:1044D0000BF80024022315490325154E0028154A20
:1044E0000878B07013D0042008601078002806D037
:1044F000012806D0022806D0032812D105E00120A9
:1045000011E018460FE028460DE020460BE00D6054
:10451000117828460029F4D0022904D00329F4D0C8
:104520001370002070BD107070BD0000900000205E
:10453000A00B00208B00002010B51148FCF7FEFDF9
:104540000620FFF763FC0E48001FFCF75DFE062007
:10455000FFF75CFC0A48FCF757FE0320FFF756FC08
:1045600000BF0748001F006804460320FFF74EFC09
:104570000348FCF7E3FD0620FFF748FC204610BD8A
:104580002C42005070B500268024002516E00D480E
:10459000FCF7D4FD0620FFF739FC0A48FCF734FE8F
:1045A0000620FFF733FC00BF0648001F0068002804
:1045B00002D030462043064664106D1C082DE6D319
:1045C000304670BD2C42005010B51048FCF7B6FDC7
:1045D0000620FFF71BFC0D48001FFCF715FE3C20D2
:1045E000FFF714FC0948FCF70FFE0620FFF70EFC4E
:1045F0000648001FFCF7A2FD0620FFF707FC034852
:10460000FCF79CFD0620FFF701FC10BD2C4200507A
:10461000F8B5364DA2232978354CA02907D0A32719
:10462000A1292FD0A22957D0A3295CD10FE001F0F6
:1046300015FDE868002856D02B702046FCF79FFE39
:104640006169042001436161002028614BE0286911
:10465000401C28610128E8680FD9002801D0806833
:10466000077001F0FBFCA0202870E86800283AD011
:104670002B702046FCF783FE35E0002833D001790B
:10468000C170F5E720684026B04320601949B000AA
:104690008A6882438A6005221207D3680343D36085
:1046A000D3688343D3608A6802438A600122124937
:1046B0002046FCF735FA20683043206020688021CE
:1046C0000843206060690221084360616169042039
:1046D000014361612F7006E06869401C686114281D
:1046E00003D9A120287000206861F8BD9400002043
:1046F0000000024000020050F049020010B50446DC
:104700001348FCF781FD1248001DFCF77DFD0222D5
:104710000A211048FCF76CFD02220B210D48FCF722
:1047200067FD01200C4908600A2002F049FA084898
:10473000FCF704FD1420FFF769FB204600F060F849
:10474000FFF7FAFE002801D0012010BD0020FCE791
:104750002842005000400050880C002010B50A4844
:10476000FCF7ECFC0620FFF751FB0748001DFCF7A7
:104770004BFD0620FFF74AFB0348FCF745FD0620EA
:10478000FFF744FB10BD00002842005070B5174CE5
:10479000022203212046FCF703FD02221146204697
:1047A000FCF7FEFC124841680C221143416041694C
:1047B0000F2212069143E204891841610D490868ED
:1047C000FF22120402259043AA05104308600B4CF7
:1047D000012209492046FCF7A3F96069284360617A
:1047E000606904210843606170BD000040410050D1
:1047F0004000005010E400E0F049020000000240D8
:1048000070B50646802400251CE01048FCF796FC95
:104810000320FFF7FBFA3046204204D00B48001F6C
:10482000FCF7F2FC03E00948001FFCF787FC0320BB
:10483000FFF7ECFA0548FCF7E7FC0620FFF7E6FA7D
:1048400064106D1C082DE0D370BD00002C42005098
:10485000F0B587B02048019020482026039000241E
:1048600000960420C0270590029404946946069798
:104870001B48FCF7AFF91B48012505601A48019059
:104880008020029014480094001F04940390082094
:10489000164C0590694606972046FCF79BF911488F
:1048A0001349456008690009000128430861086947
:1048B000F02290433043086103210948FCF780F956
:1048C00003212046FCF77CF90A490868FF221204FC
:1048D0009043086007B0F0BD14001A403411002066
:1048E0000081005048020020B412002000820050D5
:1048F000008F005018E400E010B5FCF7A7FD0A4C4B
:104900002068042108432060FCF7AAFD20680221EA
:10491000084320600420FCF745F9044801680902B7
:10492000090A016010BD000000001A4018E400E010
:1049300030B5049D039C017042708370C470047193
:1049400000218560C16030BD01205521034A01E08E
:1049500013181972401EFBD270470000DC000020C3
:10496000202005210907CA680243CA60CA68824339
:10497000CA60054841690722120591434161826876
:1049800020210A43826070470002005010B516488B
:1049900001680322120391430160826940218A4326
:1049A0008261C269114B9A430B041A43C261426986
:1049B0000A4342610E492A2008600E48016880229D
:1049C000090A0902114301600B49102008600C4CD0
:1049D0000323DB06094A0B212046FCF7B7F92168BF
:1049E00062061143216010BD40400050400040006D
:1049F0008041005004E400E000E100E040420F008C
:104A00002000114010B5FFF705FD0B49097800297A
:104A100009D0012902D0022905D102E0FEF73CFDB0
:104A200001E0FEF719FD0648044B002250210078F2
:104A300002F050F810BD00008A000020054A000076
:104A4000AC00002010B5FFF7A1FFFFF751FC0549AE
:104A5000FF28087004D0044B0022502102F03AF8DD
:104A600010BD0000AC000020054A000006480021EF
:104A70004156032903DC01214156022901DD0120B1
:104A80007047002070470000A80B00200348007802
:104A9000042801D00020704701207047A80B002097
:104AA00003480068042801D9002070470120FCE772
:104AB000A00C00200148007C7047000080100020FE
:104AC0000148007C704700008010002070B50D4642
:104AD000002405E00A21FBF73BFB30312955641C1B
:104AE0000028F7D1002C02D10124302129700021A7
:104AF0002955224605E0641E295C2B5D2B54401C81
:104B00002955A042F7D3104670BD0000F0B500242F
:104B10000C26062719490F2212250300FDF770FA0B
:104B20000D080A0F0D15191D110F0D21252A18004A
:104B30004C6200E04A62CC6209E04C620AE04C62DE
:104B400004E00A204A62C86205E04A62CA628C62D6
:104B5000F0BD4A62CC628A62F0BDCD624E628D6267
:104B6000F0BDCD6209204A6202E04F620420CE62AD
:104B70008862F0BDCF628F624E62F0BDE800002017
:104B800070B5194841690722120291434161174DDE
:104B9000C3040A2215212846FCF7D8F814490868EE
:104BA0000024000A0002802210430860890628467B
:104BB000FCF7A4F82968A803014329600D480122E5
:104BC000C462846244620C4C11462046FCF7F2FA3F
:104BD000012202212046FCF7EDFA012203212046A2
:104BE000FCF7E8FA70BD0000000200500000014030
:104BF00008E400E0E8000020C0400050F8B5FE489E
:104C000001250078FD4E0024FD4F00287ED0FD4890
:104C10000068002801D1FBF76FFCFB4801780229EE
:104C200002D1BC71FC710470F8480078002802D0F1
:104C3000387A401C3872387A322801D1FBF714FDDB
:104C4000387A962804D9F1483C720470FBF778FD55
:104C5000EF4800780028386C01D0401C38640128E7
:104C600002D0322806D050E0EA480078002876D0FA
:104C70003D7174E0E7480078002845D0E6480078A8
:104C8000002802D0FBF7F0FC01E0FBF759FD30787B
:104C900001281ED001F0D6FD002809D1FBF75CFDEC
:104CA000642001F077FF01F06BFC642001F072FFDB
:104CB000FCF738F9D9480460D9480168D9488142DD
:104CC00022D1FBF749FD642001F064FFFCF77EF977
:104CD0001AE0FCF727F9D2480168D348814204D191
:104CE000FEF76AF8642001F055FF01F0ABFD0028E3
:104CF00001D001F029FCC9480460C9480168CA48CC
:104D0000814201D1FCF786F93C7100E030E3386C58
:104D1000DC2824D9BE483C640470BF4800780028D1
:104D20001DD0C248057001F08DFD002803D1FFF7AA
:104D3000B7FE002811D1FEF73FF8642001F02AFFEA
:104D4000FBF792FC01F000FC642001F023FFFCF76C
:104D500061F9FBF7A3FDB6480570AF480470B3488E
:104D60000178002907D0787A401CC0B278723D7172
:104D7000582803D00DE03C717C720AE0491CAB4816
:104D8000C9B27C7201702A2900D90470002000F099
:104D9000A9FFA84801780029796D01D0491C7965DF
:104DA000142901D37C650470A3480078411E27298B
:104DB0003FD2F978491CC9B2F970142939D9401C7D
:104DC0009D4AC0B21070022848D0032846D09B49A3
:104DD000042849D0052841D0062847D0072847D0C5
:104DE0000C283BD00D2839D095490E283CD00F28EF
:104DF00034D010283AD011283AD016282ED01728AF
:104E00002CD0904918282FD0192827D01A282DD017
:104E10001B282DD0202821D021281FD08A492228C4
:104E200022D023281AD0242820D0252820D014705E
:104E3000FC7081480078282820D9F978491CC9B22B
:104E4000F9701E291AD9822814D0842812D08828F3
:104E500010D090280ED0C0280CD00EE0002000E02A
:104E6000303800F03FFFE3E70878F9E78878F7E7A4
:104E7000C878F5E7002000F035FFFC706C4800783A
:104E80000128B86D01D1401CB865022803D1FCF798
:104E9000D3FCFBF703FDB86DA02801D1FCF7CCFCD7
:104EA000B86DDC2833D97C71BC65FCF7C5FC604863
:104EB000007801282BD1FCF735F8002825D0584878
:104EC00001685848814220D1FCF754F85F480078C7
:104ED000002823D0FFF7E4FD00281FD0FCF7ACFC2E
:104EE0004E484E49006828430860FBF7D7FCFCF7A2
:104EF0006DF87D20000101F04DFE002000F0F2FE73
:104F000046487C720460FBF7C9FC49480470386E5F
:104F1000C82812D94E483C66047014E0FBF7BEFC6A
:104F2000FCF78AFCFCF752F87D20000101F032FE0C
:104F3000002000F0D7FE7C72E7E745490978002998
:104F400001D0401C3866FDF74DFE3A78082A08D09B
:104F50000021084202D03869012804D0052A10D067
:104F600025E00121F5E73C61FFF790FD002805D021
:104F700000F06EFC142001F00DFEEDE2FDF750FF95
:104F8000EAE2B86E401CB8661E2802D9FBF7F2FFB1
:104F9000BC662E480078002809D1F86D002802D0A0
:104FA000401EF86503E00A20F8650520F860B86C3B
:104FB0000F281DD1FBF7B6FF194801681948814237
:104FC00016D1FCF701FDFFF775FD002810D121482F
:104FD000006800280CD0FFF76DFD002808D11D489F
:104FE0000068002804D0142001F0D4FDFCF704FD73
:104FF0000848007800282FE08A0000208B0000205D
:10500000E80000205C4200502100002061000020E8
:105010005E0000205800002060000020980C002056
:10502000940C002055AA0000AA5500005A00002048
:10503000A60C0020AD0B0020100400201804002056
:10504000140400201C04002020040020C00C0020B8
:10505000B60100204407002019D0B86C401CB86489
:105060001E2814D9FE480078022810D0BC64FBF733
:1050700059FFFC480268FC498A4202D1FCF7A4FCB3
:1050800005E00168F948814201D1FCF76FFE3878EC
:10509000092824D0F2480078022870D0FDF7A2FD3C
:1050A00000286DD0387808286AD008203C62387013
:1050B000FFF72CFD012001F07FF901F0B5F9052083
:1050C00001F068FD347002203865E948E94902685A
:1050D0000A60142101600120FDF738FE03E1FDF7AD
:1050E00081FD002824D0386D002821D10820387097
:1050F000FFF70CFD00F07EFBC82001F04BFDDE4801
:105100000560DD4824380460001F0560FDF788FD58
:10511000C82001F03FFD01F057FED5483D653C62D7
:10512000D44902680A60142101600920FDF70EFECF
:10513000F869002809D0401EF861FFF797FC0028A5
:1051400076D0B869002860D072E0FFF78FFC0028A5
:1051500004D0BC66B869002847D054E0F86C002839
:1051600002D0401EF86403E00820F8640520F860CF
:10517000B869002805D0002000F0B4FD12E0A5E0D9
:105180007AE0F86D401CF8657D280BD9F86B002893
:1051900008D0401EF863B9480078002801D1FFF715
:1051A00065FCFC65BC61B96E0846FF382D3806D138
:1051B000FDF7DEFC142001F0EDFCB1480470B149AC
:1051C000B86E88420AD9B0480078012805D1AF48A6
:1051D0000078002801D1FDF7D3FCBC66386E0028AA
:1051E00026D1B86E401CB86622E0002000F07AFD9F
:1051F000FF20F53001F0CEFC2D203C66F863A3487B
:105200000470A1480470BD6112E0002000F06AFD46
:10521000FF20F53001F0BEFC2D20F86398480470A3
:105220009A4804709A48BD61047097483C660470BF
:10523000914810380068002855D0B878002852D11D
:105240002D20F8638E48BD70057092480470FDF7FC
:10525000B1FC142001F09EFCFDF78AFC8E4800781A
:10526000002804D08D4805708D487C72047014208D
:105270003C6401F08FFC36E07F481038006800285D
:1052800031D08348057034702D20F8638148047054
:105290001E2001F07FFC784844380560FDF782FC51
:1052A000FBF756F8FDF78EFEC82001F073FC7D4831
:1052B0003178405C387078480078002804D077480E
:1052C000057077487C7204703C640CE06A481038C2
:1052D0000068002807D06E4805701E2001F05AFCB7
:1052E000347000F0CFFB644810380068002800D10B
:1052F000BC70386D002817D0FDF774FC002813D15E
:10530000386D02281ED009203870FBF721F8FDF710
:1053100075FC3878FFF7FAFB56480168544801607D
:105320000720FDF713FD3C657869401C78618228F1
:1053300062D95D485D4900785D4A01284ED0022857
:105340005AD107E0022030704A480168484801609D
:105350000120E6E7086890424ED3FBF7A7F8002843
:1053600007D050483178405C3870FFF7CFFBFC71B4
:1053700042E050480078002870D1F879002806D023
:1053800001280DD0022814D003281BD054E000209F
:1053900000F0A8FCFF202D3001F0FCFBFD714BE07C
:1053A000002000F09FFCFF202D3001F0F3FB0220D5
:1053B00012E0002000F096FCFF202D3001F0EAFB07
:1053C000032009E0002000F08DFC01F059F8FF20D7
:1053D0002D3001F0DFFB0420F8712DE008689042C9
:1053E0000AD3FBF763F800280BD02E483178405CD5
:1053F0003870FFF78BFBBC71FDF7F4FB00281DD064
:105400001EE02C480078002828D1B879002802D066
:10541000012808D010E0002000F064FCFF202D30AF
:1054200001F0B8FBBD71002000F05CFCFF202D30C6
:1054300001F0B0FB0220B871BD6340E01E4804706B
:10544000FDF7D0FB00283DD01B480078012839D15A
:1054500003480078022835D002202FE04FE00000FA
:105460008A000020940C002055AA0000AA550000D4
:10547000440700202402002078420050610C0020E4
:10548000620C002026020000AC0B00205900002016
:10549000B401002088000020580000205E00002099
:1054A0005A0000208C000020CC010020280200209F
:1054B00088130000B60100205C000020B863FDF7EF
:1054C000A1FA3FE0FFF7F6FA002803D1264800686A
:1054D000002815D125480078022811D03878B86303
:1054E000FDF790FA786E00282CD12148007800282A
:1054F00028D03078012825D1FCF78EFA7D6621E08E
:10550000786E002809D01A480078002804D0307836
:10551000012801D1FCF798FA7C66F86800280AD0C7
:1055200012480078022806D00020FFF7EFFAF8684A
:10553000401EF86006E00F480078002802D1387855
:10554000FFF7E4FA09480078022805D1FAF7AEFF20
:10555000002801D1FEF7AAFD074B00221E21787812
:1055600001F0B8FAF8BD0000440700208A000020CE
:1055700058000020B7010020FD4B000010B5FEF7D9
:10558000B7FE0549FF28487004D0044B00221E21B5
:1055900001F0A0FA10BD0000E8000020FD4B000063
:1055A00010B503213D2000F007FDFEF79FFE0B48DC
:1055B00000780B490870094840784870074880789F
:1055C000887008460078042803DC08460078012823
:1055D00001DA002010BD0120FCE700007C1A002049
:1055E000900C0020F8B50024FBF711FEFAF722FE1C
:1055F0005BA0FAF779FE5DA1F82001F0AFFBFFF7A1
:10560000BDFFFCF71FFFFFF71DFAFDF753FC00F08D
:105610009DFEFBF7E5F900F025F9574801250560E7
:1056200055487C300560642001F0B4FA524E2036B3
:1056300008E0641C142001F0ADFA322C02D94F4866
:10564000057006E03068002803D0FAF739FF00281B
:10565000EFD1FEF77FFE4A484A4C007820701928A7
:1056600001D9192002E0092801D209202070042262
:105670000021454800F030FC002805D0434E0027AB
:105680003078002802D003E0FDF79EF9404807700B
:10569000FAF716FF002801D03E48056000220721D6
:1056A0003D48FBF791FD3B480068002811D03B487E
:1056B000FBF76CFEFFF720F939480068002802D09C
:1056C000052803D01BE0FEF765FD18E000F07AFF27
:1056D00015E0294830300068002804D031480570B2
:1056E0002B480770377030483178405C2F4908707C
:1056F000FFF70CFA00F0C6F92148217801602CA0D0
:10570000FAF7F2FD0F252D042846FBF78FFC1E4CFF
:105710002B49241F412025600870422048704320F7
:1057200088700A460321284601F0F4F825A0FAF70C
:10573000DBFD284A0321206801F072F9254C26A1DF
:10574000207801F025FB607825A101F021FBA078ED
:1057500025A101F01DFB264801F01CFA0020F8BD30
:105760006D61696E2D2D30312E0D0A002020636F82
:105770006465313A2000000038420050B701002033
:1057800044070020B8010020B00100208B00002059
:1057900088000020540000204040005080BB0000E2
:1057A00068000020B40100208C000020E8000020E8
:1057B000626567696E2077726974652E0D0A000054
:1057C00034140020626567696E20726561642E0D75
:1057D0000A000000800F002020627566303A200029
:1057E00020627566313A200020627566323A2000E8
:1057F000204E000010B5012000F0F4FD00F014FE72
:10580000032001F0C7F910BD10B51048FBF796FC56
:105810000320FEF7FBFA0D48001FFBF7F5FC032001
:10582000FEF7F4FA0948FBF7EFFC0620FEF7EEFA64
:105830000648FBF783FC0620FEF7E8FA0348001F42
:10584000FBF7E2FC0320FEF7E1FA10BD2C4200500A
:1058500000B502A0FAF748FD00BD000041542B43FB
:105860004100000070B53F48002404603E4D012215
:1058700009212846FBF7A8FC01220E212846FBF748
:10588000A3FC394E0122403E0E213046FBF79CFC22
:10589000354801220D214030FBF796FC3148303865
:1058A000046001220D213046FBF78EFC2D48103894
:1058B0000460012205212846FBF786FC0122042111
:1058C0002846FBF781FC294C022203212046FBF7E6
:1058D0007BFC022211462046FBF776FC02220B21BC
:1058E0003046FBF771FC02220A213046FBF76CFCC4
:1058F0001F4948680C221043486048690F2212066D
:105900009043E2048018486100220F213046FBF7E3
:105910005BFC002208212846FBF756FC11480121B8
:1059200060300160001D0160001D01600E4C0A46E0
:1059300080342046FBF748FC012202212046FBF779
:1059400043FC012203212046FBF73EFC00220A21F2
:105950002846FBF739FC002207212846FBF734FCD8
:1059600070BD000064420050404000504041005073
:105970004000005070B53F48002404603E4D0122B5
:1059800009212846FBF72AFC01220E212846FBF7B5
:1059900025FC394E0122403E0E213046FBF71EFC0D
:1059A000354801220D214030FBF718FC31483038D2
:1059B000046001220D213046FBF710FC2D48103801
:1059C0000460012205212846FBF708FC012204217E
:1059D0002846FBF703FC294C022203212046FBF753
:1059E000FDFB022211462046FBF7F8FB02220B21A9
:1059F0003046FBF7F3FB02220A213046FBF7EEFBB1
:105A00001F4948680C221043486048690F2212065B
:105A10009043E2048018486100220F213046FBF7D2
:105A2000DDFB002208212846FBF7D8FB11480121A5
:105A300060300160001D0160001D01600E4C0A46CF
:105A400080342046FBF7CAFB012202212046FBF7E7
:105A5000C5FB012203212046FBF7C0FB00220A21DF
:105A60002846FBF7BBFB002207212846FBF7B6FBC5
:105A700070BD000064420050404000504041005062
:105A800040000050F8B5654D002465486C70012653
:105A9000067000F02FFB6348AE700178002901D03A
:105AA0000121017060492D2008606049782008605C
:105AB00068795F4F00280AD12878002800D03C7010
:105AC0005C483978405C5C490870FFF71FF8534820
:105AD000447100F095F9FEF73DFC584D28780028F8
