:020000040000FA
:10000000F0210020150400001D0400001F04000062
:10001000210400002304000025040000000000006B
:1000200000000000000000000000000027040000A5
:1000300029040000000000002B0400002D04000033
:100040002F0400002F04000075090000CD060000F9
:100050002F0400002F0400001D0500002F040000E5
:100060002F0400002F0400002F0400002F040000C4
:100070002F0400002F0400002F0400002F040000B4
:100080002F040000A90600002F0400002F04000028
:10009000050700002F0400002F0400002F040000BB
:1000A0002F0400002F0400002F0400002F04000084
:1000B0002F0400002F0400000000000000000000DA
:1000C0002F0400002F0400002F0400002F04000064
:1000D0002F0400002F0400002F0400000000000087
:1000E0000000000000000000000000000000000010
:1000F0000000000000000000000000000000000000
:1001000000000000000000000000000000000000EF
:1001100000000000000000000000000000000000DF
:10040000DFF80CD000F03CF800480047BD0E0000BB
:10041000F02100200648804706480047FEE7FEE737
:10042000FEE7FEE7FEE7FEE7FEE7FEE7FEE7FEE7A4
:10043000090700000104000040EA01039B0703D004
:1004400009E008C9121F08C0042AFAD203E011F813
:10045000013B00F8013B521EF9D27047D2B201E0D5
:1004600000F8012B491EFBD270470022F6E710B5B9
:1004700013460A4604461946FFF7F0FF204610BD12
:10048000064C074D06E0E06840F0010394E80700E1
:1004900098471034AC42F6D3FFF7B6FFDC1E0000DD
:1004A000FC1E0000401E00BF00BF00BF00BF00BF19
:1004B00000BF00BF00BF00BF00BF00BF00BF00BF44
:1004C00000BF00BF00BF00BF00BF00BF00BF00BF34
:1004D00000BF00BF00BF00BF00BF00BF00BF00BF24
:1004E00000BF00BF00BF00BF00BF00BF00BF00BF14
:1004F00000BF00BF00BF00BF00BF00BF00BF00BF04
:1005000000BF00BF00BF00BF00BF00BF00BF00BFF3
:1005100000BF00BF00BFC5D1704700002DE9FC5FE0
:100520000025DFF83491A8464FF4807601242F4649
:10053000304601F0D7F838B1D9F80403204203D08F
:10054000304601F0C5F82543361D64007F1CB6B265
:10055000082FEDD34FF4BE74204601F0C3F838B134
:10056000204601F0B5F83D4845F00045D0F8008040
:100570003B4E15F0FF0F14D0012700242F420CD062
:1005800009EB8401D1F81005D1F81015C0F304204F
:1005900056F82420C1F3014190477F00641C082CC9
:1005A000ECD3002D56DA00200190401E4CE070196B
:1005B00010F8501F90F9000021F0C004401C38D002
:1005C000012000FA04FA1AEA090F32D04FEA911B0F
:1005D000204600F0D7FA56F82000009010B9BBF181
:1005E000030F26D15146BBF1030F02D101980843F6
:1005F0000190A00000F1A040D0F800071AEA080F0F
:10060000C0F3014002D0022802D012E0032810D12A
:10061000BBF1030F07D102281AD00221204601F0B6
:1006200040F87F1CFFB2009818B1009A5946204646
:1006300090476D1C042DBAD3002F0BD007480068DB
:10064000404507D080460198002781463D46AEE7E9
:100650000321E3E7BDE8FC9F006000401005005067
:100660003801002000F01F02012191404009800064
:1006700000F1E020C0F88012704700F01F02012155
:1006800091404009800000F1E020C0F8001170475F
:1006900000F01F02012191404009800000F1E0209C
:1006A000C0F800127047000007480021C0F8401150
:1006B000C0F84411C0F84811C0F84C11C0F800113E
:1006C000C0F8041101F05EB90010014070B50C488B
:1006D0000A4C0025C0F80851214601F095F9002880
:1006E0000BD1A07EFF2801D000F0EAFF65762571CE
:1006F000201D2168BDE87040084770BD90010020B2
:100700000030004001F0DAB870B58D480023021DBA
:100710000178101D0124062907D115782D0704D171
:100720000578C5F30315032D02D0062904D00FE088
:10073000854E844D75670EE015782D0708D1057834
:10074000C5F30315032D06D0042D04D0052D02D0CA
:10075000062909D010E04FF08055D5F844527B4E61
:10076000C5F34235356002E015782D0704D10578D0
:10077000C5F30315032D02D0062906D011E0744DF0
:100780002E6826F080762E600EE015782D0708D1B1
:100790000578C5F30315032D06D0042D04D0052DCF
:1007A00002D006290AD011E04FF08045C5F80C317F
:1007B000C5F81031654D2D1F2B6002E015782D070F
:1007C00004D10578C5F30315032D02D0062905D001
:1007D0000CE05E4A0321643211600AE015782D07AF
:1007E00004D10578C5F30315032D02D006290DD0D9
:1007F0006AE0584A05211160564978310C60554924
:1008000008310B603F21121D116002E011780907C9
:100810005AD10078C0F30310052855D14E4800681E
:100820004E4908604C48001D0068091D08604A4890
:1008300008300068091D086047480C300068091D31
:100840000860454810300068091D086042481430AF
:100850000068091D08604048183000683F49203191
:1008600008603D481C300068091D08603A48203087
:100870000068091D0860384824300068091D0860B8
:10088000354828300068091D086033482C3000685E
:10089000091D086030483030006830494031086038
:1008A0002D4834300068091D08602B483830006836
:1008B000091D086028483C300068091D086026486A
:1008C00040300068091D086021487438016841F40F
:1008D00070010160BFF34F8FBFF36F8F4FF0102196
:1008E000D1F80002002803DBD1F80402002822DA44
:1008F0001B4A14601B480468002CFCD01524C1F866
:1009000000420568002DFCD0C1F8044201680029AE
:10091000FCD0136001680029FCD0BFF34F8F0C4856
:10092000F0380168104A01F4E06111430160BFF33F
:100930004F8F00BFFDE70E490C48086070BD0000F6
:10094000E00F00F00DF0ADBA00C007403C050040DC
:10095000FCED00E0105600400404001020C50040EB
:1009600004E5014000E401400400FA050090D003D2
:10097000340000200348007F08B101F0B9B901F04C
:1009800015B90000B001002002E008C8121F08C11C
:10099000002AFAD170477047002001E001C1121F00
:1009A000002AFBD170470000BFF34F8F0548016854
:1009B000054A01F4E06111430160BFF34F8F00BFAE
:1009C000FDE700000CED00E00400FA050EB5002183
:1009D0000091CDE901106A4644F20100FFF7E4FFFF
:1009E0000EBD10B58268C368934203D000F084F94D
:1009F000002010BD052010BD29B112B1531E1342B5
:100A000003D0092070470E207047016083800021C9
:100A10008160C1600846704710B58268C3689A1A41
:100A200083889A4203D800F071F9002010BD042099
:100A300010BD000070B50446234888B01E460D0066
:100A4000426035D0A888296882B22048FFF7D4FFD9
:100A500000282ED1A889A96882B21C481030FFF75F
:100A6000CBFF002825D1202219496846FFF7E4FC76
:100A7000A0680690207900B101208DF814008DF84F
:100A80001C60607900B10E208DF81500E0780290AE
:100A9000A078039020780190607800900D49684616
:100AA00000F0D6FB002804D19DF81D0018B104E029
:100AB000072008B070BD00F05BFC03480121401C1A
:100AC00000F010FCF5E700000C000020D001002031
:100AD000BC1E0000051B000010B501460948FFF7C9
:100AE0009BFF04000CD100F071FD48B90649054890
:100AF000FFF777FF20B90121034800F0DFFC04462F
:100B0000204610BDE00100200C0000202DE9F0413E
:100B100004460078184F012606FA00F03860206875
:100B200000F0ABFD0021606800F094FD1348144D07
:100B3000007FA069C5F82405607D217D0843C5F8C4
:100B40006C05D4E90001C5F80C05C5F81415207D25
:100B500001280FD10021A06800F07CFD207B864099
:100B60003E60E06800F089FDD4E90201C5F808158F
:100B7000C5F81005BDE8F08108050050B00100205F
:100B8000002000400249084490F9300070470000FE
:100B9000380100202DE9F05F2648C168F1B3DFF885
:100BA00098B00E688146DBF800400769C078E11B09
:100BB00021F07F45ED1CB0B9DFF880804FF4803024
:100BC000C8F84403C8F804031120FFF74BFD1120B7
:100BD000FFF753FD4FF0010AC8F800A02F20FFF7E0
:100BE00061FC89F803A0B54200D23546124BE819E2
:100BF0003C3320F07F401860DBF800105A46091B98
:100C000021F07F41001B20F07F40C91C81420FD999
:100C1000106818602F20FFF745FC00E004E0BDE8F5
:100C2000F05F1120FFF734BDBDE8F05F00F0B0BD0C
:100C3000BDE8F09F140000200415014000100140A1
:100C400008B551B140F040008DF80000C8B27F29CE
:100C500007D88DF8010002200BE08DF8000001207C
:100C600007E040F080008DF80100C8098DF802000F
:100C70000320694600F04EFD08BD08B551B140F0B3
:100C8000C0008DF80000C8B27F2909D88DF8010096
:100C900002200DE040F080008DF80000012007E008
:100CA00040F080008DF80100C8098DF80200032093
:100CB000694601F089F808BD0E4910B54A788C786C
:100CC0000023A24212D0521CD2B24A70022A00D192
:100CD0004B70084A4B78183252F82320026008699A
:100CE000104420F07F400861012010BD0360002007
:100CF00010BD000014000020826883881A40036839
:100D00009A5C0A708168491C81607047C268838858
:100D10001A4003689954C168491CC160704710B5F6
:100D2000044602E0641CFFF7D7FE20780028F9D1C2
:100D300010BD00002DE9F047DFF8ACA0DAF80C0098
:100D40009AF8004080469AF80460DAF80890DAF8D9
:100D500010703AE009EBC4052A7833E002EB420157
:100D60006B68521C03EBC101AB78D2B2934200D145
:100D700000220B78022B02D0032B23D11FE0D1F8E5
:100D800004C00346014603E0614503D00B46C96930
:100D9000C1B1F9E7B1B18B4205D1C06918B9134FA0
:100DA0000126BE600027D1F800C0C969D96149B1E8
:100DB0000B6863440B6005E00174C06900E000212A
:100DC0000028F9D169789142C8D1641EE4B2C1D239
:100DD000CAE903078AF80460404502D00120BDE853
:100DE000F0870020FBE70000140000200010014005
:100DF0002DE9F04705462F48002680460778D0F8B1
:100E00000C904BE0D8F8080000EBC70440E002D09B
:100E10002846ED691EE02078616800EB4002401C26
:100E2000C0B201EBC2012070A278904200D12670BE
:100E30000A784868012A2DD1027C5ABB8A68426030
:100E4000CA6882600A69C2604969816198F80410C1
:100E500001B146604268D8F81030DFF85CC0D11AA2
:100E600021F07F41614502D28268114406E0991A5F
:100E7000826821F07F418A4202D9511A016000E064
:100E800006604660012186600174C66100F05CFD69
:100E9000002DBCD1207861788842BCD17F1EFFB282
:100EA000B0D2D8F80C10494502D00120BDE8F08737
:100EB0000020FBE714000020FFFF7F001FB500F0BB
:100EC000F3FD45A0FFF72BFF49A0FFF728FF4AA03D
:100ED000FFF725FF4E4B0FCB8DE80F0011208DF84B
:100EE00003004B484B4A6946383800F0DDF808B13A
:100EF000FFF76CFD182000F0CAFB012000F0AAF8F3
:100F000045494FF0807008600021132000F099FBE4
:100F10004FF47A7000F09EF8404C1826251F4FF4CD
:100F2000FA674FF0280826706670A670E6703B4B93
:100F3000042200210320FFF7A0FE642000F08AF8BD
:100F4000364B04221B1F00210320FFF779FE384691
:100F500000F080F8287832A100F0ACFE687833A168
:100F600000F0A8FEA87834A100F0A4FEE87835A12E
:100F700000F0A0FE36A0FFF7D2FE84F8008084F8CF
:100F8000018084F8028084F80380244B042200212D
:100F90000320FFF772FE642000F05CF81F4B042270
:100FA0001B1F00210320FFF74BFE384600F052F8CC
:100FB00028781BA100F07EFE68781CA100F07AFE64
:100FC000A8781DA100F076FEE8781EA100F072FE60
:100FD0001FA0FFF7A4FEA6E70D0A2D2D2D2D2D2D08
:100FE0002D2D2D2D2D2D2D2D2D2D2D2D20000000C5
:100FF0007631312E32360000202D2D2D2D2D2D2D28
:101000002D2D2D2D2D2D2D2D2D2D0D0A0000000007
:10101000701E000035180000080500500600002072
:10102000202069627566303A200000002020696245
:101030007566313A20000000202069627566323AF8
:1010400020000000202069627566333A200000000D
:101050000D0A000031B540F2E73404E0401E009074
:101060002046FFF71FFA00980028F7D138BD49073E
:10107000090E002806DA00F00F0202F1E02282F8E1
:10108000141D03E000F1E02282F8001400F01F02BA
:10109000012191404009800000F1E020C0F8801259
:1010A000C0F80011704700002DE9FC5F0746407949
:1010B000DFF80CA10C460AEB4016317E11B1082076
:1010C000BDE8FC9F14B93F4901EB00143260207B5E
:1010D00001250128DFF8F0B0207804D805FA00F0E7
:1010E000CBF8000001E000F0EBFA2178A946890076
:1010F00001F1A041C1F8005765784FF0FF38FF2D8E
:1011000007D009FA05F0CBF80000284600F0ABFA4A
:1011100000E04546A0784FF0000BFF2809D00022E0
:1011200080465B46CDF800B01146CDF804B000F023
:1011300066FAE078FF2804D000F0C2FAE07800F008
:1011400092FA7979E0780AEB411188763868237849
:10115000C0F80835C0F80C55C0F81085A168C0F873
:101160002415237B617B01B10121012B04D0022BCB
:1011700005D0032B08D105E041F0020104E041F065
:10118000040101E041F00601C0F854157B79617952
:101190000AEB4312D176316811B10421C0F804136F
:1011A0004D46C0F80095306820B1217997F90400C8
:1011B000FFF75DFF86F819B03576002080E7000064
:1011C000900100208C1E00000C0500501FB5069CED
:1011D00000918DF8042002938DF80C40002269469E
:1011E00000F002F804B010BD2DE9F04113460C46A2
:1011F0004179154A02EB41114A7E12B11120BDE836
:10120000F0810A6801251AB113F0140F00D14D7650
:1012100094E8C41001F1080888E8C4104A7F22F05D
:1012200003024A778A7EFF2A02D09540074A15605A
:101230001BB1002048760620E1E70068224600F056
:10124000FFFA0020DBE70000900100200C050050B1
:101250002DE9F0411E4C07460D46E07E10B10820F6
:10126000BDE8F08107B91B4F787F20773846FFF73C
:101270004DFC6560386920602800174E4FF000056E
:1012800016D0397F207F48B1C6F81051C6F82051DA
:10129000C6F82451C6F84451104804E0C6F81C5161
:1012A000C6F844510E48C6F804030220FFF7DFFEDB
:1012B000207F08B1082000E00420C6F80005E5758D
:1012C0002576A5750120E076A5760020C8E7000008
:1012D000B00100209C1E000000200040100302000E
:1012E000800002002DE9F0411F4B1C7F3CB14FF400
:1012F0000052B2EB104F02D01020BDE8F081D3F8BD
:1013000004C00022194D4FF404764FF40177BCF16C
:10131000000F05D014B1C5F8086301E0C5F80873E3
:1013200093F817E0BEF1000F10D01A7E52B1BCF155
:10133000000F05D014B1C5F8046301E0C5F80473CB
:101340001120DAE718610122197604E0D975002529
:10135000D8605D761D761CB1BDE8F04100F066B83E
:10136000BDE8F04100F014B8B001002000200040BA
:1013700010B5064C207F002806D1A07E002803D19E
:1013800000F04CFA0120A07610BD0000B001002052
:101390002DE9F05F234DA87E104301D100F03EFA05
:1013A000214C686830B14FF40170C4F80403002088
:1013B000BDE8F09F4FF000094FF4A27AC4F84491C1
:1013C0004FF4927BA8465946204600F093F9054613
:1013D0004FF48471204600F08DF9074651462046AF
:1013E00000F088F9064647EA06012943EBD055EAA2
:1013F000060007D100F0EAF998F8171098F81900DC
:101400008142E0D888F817900DB10320D0E70EB1E3
:101410000F20CDE798F81A10012009B12060C6E727
:101420006060C4E7B0010020002000402DE9F05FBB
:10143000204C00264FF48873C4F810614FF4A27555
:10144000C4F84461C4F83405C4F838158AB1D4F836
:10145000000240F02000C4F80002DFF85C80D8F8F9
:10146000040048B14FF40470C4F804030020BDE840
:10147000F09F01202060F0E79A46A9464FF4927B46
:101480005146204600F041F905464946204600F005
:101490003CF907465946204600F037F93D430543DD
:1014A000EED088F8176008B10320E0E7002FDDD008
:1014B0000F20DCE700200040B00100202DE9F047BC
:1014C000204D0246287F38B14FF40050B0EB124F48
:1014D00002D01020BDE8F08700F078F808B11120A4
:1014E000F8E7A9750023AA60AB82287F28B3164CC1
:1014F00000264FF490709846C4F820314FF4AC7336
:10150000C4F85881C4F84425C4F848150121A160E5
:10151000696881B9824699465146204600F0F5F83F
:1015200007464946204600F0F0F80743F4D000B1E2
:101530000F2685F816803046CCE7BDE8F04700F06E
:1015400005B80000B0010020002000402DE9F05F48
:101550001C4F00254FF48E7A2E46C7F81C514FF0D1
:101560000108C7F8088000F07BFA174CB8156168CD
:1015700079B123E05F465146484600F0BBF810B908
:10158000A08AB842F7D1A08AB84204D000F068FA25
:1015900001E08346B946A08AA17D8842EAD3A08AA9
:1015A000584501D10F2508E04F465146384600F016
:1015B000A1F80028F9D0C7F80C80A6752846BDE828
:1015C000F09F000000200040B00100200248807D14
:1015D000002800D001207047B001002030B541EA5A
:1015E0004201DDE9034541EA8301800041EA04212B
:1015F00000F1A04041EA0541C0F8001730BD30B508
:1016000041EA4201DDE9034541EA8301800041EA04
:10161000042100F1A04041EA0541C0F8001730BDA7
:1016200030B541EA4201DDE9034541EA830180002A
:1016300041EA042100F1A04041EA0541C0F8001749
:1016400030BD1CB500220B46009211460192FFF7F7
:10165000C5FF1CBD1CB500220B460092114601922D
:10166000FFF7DEFF1CBD1CB5002100910B460122D7
:1016700001911146FFF7C3FF1CBD1CB5002100916D
:101680000B46012201911146FFF7CAFF1CBD1CB594
:10169000002100910122019103231146FFF79EFFD3
:1016A0001CBD800000F5E06000F1A040026822F45B
:1016B00040320260026842EA014101607047000066
:1016C0000121814001480160704700000805005079
:1016D000034908B50844002101600068009008BD76
:1016E0000060004002494058012800D000207047A7
:1016F000006000404058002800D001207047D0F81A
:101700000403084000D0012070474058002800D052
:10171000012070472DE9F0418CB00F4604469846F1
:101720001546142101A8FEF7A0FE142106A8FEF715
:101730009CFE142101A8FEF798FE142106A8FEF7CE
:1017400094FE01AE224639463046FEF775FE30194A
:101750002946FEF78AFE0C4E601900217170C2B254
:1017600006AB01A909480092FFF730FD7078002808
:10177000FCD006A801192A464046FEF75DFE0CB0D3
:101780000020BDE8F081000000000020381E0000AD
:1017900070B5012670044FF0E0210025C1F88001EA
:1017A000084C4010C4F84803C4F8080366602F20B2
:1017B000FEF778FEA660044C2F202561FEF772FE2E
:1017C000E57070BD001001401400002009480A496E
:1017D0000022C37DC1F8082143B1D1F81815437E1A
:1017E000C268D154417E491C41767047D1F8180532
:1017F00070470000B0010020002000401FB501220A
:101800008DF8080004488DF800200191D0E90012FD
:10181000684690471FBD0000B00100200448002129
:10182000C0F82411C0F808110121016070470000C0
:10183000002000400149012048707047000000204E
:101840002DE9F041002704460F77042015460E4687
:10185000C4F80803C4F80871107910B1286800783A
:1018600000E0F07EC4F81C050820FEF71BFE287976
:10187000012802D92868407803E0287B012802D992
:10188000F07EC4F81C05306820B10420C4F80403BD
:10189000BDE8F081D4F808010028FBD0C4F8087135
:1018A0003146204600F0B0F80028F3D1B07EFF2882
:1018B000EED0BDE8F041FFF703BF00002DE9F84F7F
:1018C000204C00256846D4E903B6FFF7F5F98046B9
:1018D000FFF730FA0746A946B8F1000F25D00023DC
:1018E000009ACC46E06819E007680146974202D9A1
:1018F000BA1A026014E0C1F800C0D1F80C80D21B03
:10190000C8693B448A46B8F1000F07D0F71827F0A2
:101910007F47C1E90178CAF81C500D460028E3D181
:10192000E0602846FFF764FA04E02846FFF760FA13
:1019300000B917B15846FFF72DF984F80490BDE8B7
:10194000F88F0000140000200D4B10B5D96831B19C
:1019500002680C68A24204D8A21A0A60C161D86069
:1019600010BD0B4603E00B46C969121B21B10C6880
:101970009442F8D3A41A0C600260C161D86110BD12
:10198000140000202DE9F0411D4DEC68002C35D0ED
:101990001C48002700682969B846401A20F07F4695
:1019A0002068B04215D82246361A0744E469107CF4
:1019B00068B182F810806B6933B1D2E905019847AC
:1019C00028B1FFF703F802E0D2E905108847002CA0
:1019D000E6D16978A878814206D1401CC0B2A870CF
:1019E000022801D185F802800548A978183040F80E
:1019F0002170BDE8F0411420FEF74ABEBDE8F08139
:101A0000140000200415014038B50546D0F818052B
:101A10000C468DF80000087F097D884206D29DF8AB
:101A20000010226911540520FEF73CFD207F401C68
:101A3000C2B22277207B511C884202D9A068405C48
:101A400003E0237D8B4203D9E07EC5F81C0503E04B
:101A5000824201D39A4201D2012038BD002038BD14
:101A6000064A0020C2F81C010548838A8168C95CC7
:101A7000838A5B1C8382C2F81C15704700200040DB
:101A8000B00100201FB500218DF8080005488DF831
:101A90000010826801928175D0E900126846904773
:101AA0001FBD0000B001002000B50D4A87B004AB97
:101AB00007CA83E807000B480090012001900A48FC
:101AC00002904FF4807003900623084A694604A8E8
:101AD000FEF7B0FF002801D0FEF778FF07B000BD89
:101AE000801E00000000002038000020F11A0000D5
:101AF0000178022901D0012902D14068FEF766BFB2
:101B0000704700007CB50178264D012909D00229D3
:101B10002CD0002929D129462348FEF762FF80B343
:101B200034E04068017820481038FEF775FF1E4CFD
:101B3000103C20B101218DF80010019007E0A06851
:101B4000E168081A012805D100208DF800006968B5
:101B500068468847A068E168081AA188884204D8C6
:101B600010480121401CFFF7BDFB7CBD02218DF810
:101B70000010C06801900B480121401CFFF7B2FB28
:101B80000CE0FFE701210748FFF798FC0648816851
:101B9000C0688842E9D103208DF800006968684672
:101BA00088477CBD0C000020E00100202DE9FF41AA
:101BB0003E4D4FF400712846FFF7A1FD01273C4C34
:101BC0004FF40178002600B34FF492712846FFF7D6
:101BD00091FDD0B1C5F82461C5F80883A07E00B995
:101BE0006F6002208DF80000D5F88004C5F88004ED
:101BF0000390E07D8DF80800E0680190E675267698
:101C0000D4E900126846904724E004212846FFF7F3
:101C100076FDF8B14FF484712846FFF76BFDC8B12B
:101C2000FFF7D4FDE07D617E884213D1227E3AB178
:101C3000607EE168E2752269E2602676667607E0FA
:101C4000A07E00B96F60C5F80883E675607EE16824
:101C5000FFF7D4FD4FF48E712846FFF74BFD58B1C6
:101C6000A18AA07D814202D2FFF7FAFE04E0C5F806
:101C70001C6108B1FFF706FF4FF4A2712846FFF779
:101C800039FD00280FD0C5F84461A07E00B12F6057
:101C9000E07D002807D0E675607EE16804B0BDE80D
:101CA000F041FFF7ABBDBDE8FF8100000020004020
:101CB000B00100201FB504460846FFF730F80A4877
:101CC000C4F30311415C8DF8001004F00F01405C77
:101CD0008DF8010000208DF802006846FFF71FF81C
:101CE00002A0FFF71CF81FBD501E00000D0A0000E7
:101CF0007FB5334C4FF492712046FFF706FD314D0E
:101D00000026B0B1C4F8246102208DF80000D4F898
:101D10008004C4F880040390D4F83C058DF80800D2
:101D2000E8680190EE752E76D5E900126846904776
:101D30001FE04FF488712046FFF7E7FCC8B1C4F8F4
:101D40001061D4F83C05E97DC0B2814211D12A7EF0
:101D50005AB1E968D4F8003223F02003C4F8003205
:101D6000EA752A69EA602E7601E0EE75E968FFF708
:101D700045FD4FF4A2712046FFF7C7FC50B1C4F8EF
:101D80004461E87D30B1EE75D4F83C05E968C0B235
:101D9000FFF734FD4FF490712046FFF7B6FC0028A2
:101DA0000CD0C4F82061A87D002807D0D4F84C05D9
:101DB00004B0C0B2BDE87040FFF764BE7FBD000054
:101DC00000200040B00100202DE9F0418CB00F460A
:101DD000044698461646142101A8FEF746FB142136
:101DE00006A8FEF742FB142101A8FEF73EFB1421D2
:101DF00006A8FEF73AFB01AD224639462846FEF713
:101E00001BFB281932464146FEF716FBA019084C69
:101E100000216170C2B206AB01A906480092FFF72B
:101E2000D5F960780028FCD00CB00020BDE8F08126
:101E300000000020381E00000030004003000000B9
:101E400030313233343536373839414243444546F0
:101E500030313233343536373839414243444546E0
:101E600030313233343536373839414243444546D0
:101E7000101412FF06FF0000000000200000000008
:101E80000B0506070000000000E0D701101412FF48
:101E900006FF000000000020000000000600000017
:101EA000080000000700000005000000000000001E
:101EB000000000000000D60106000000060000003F
:101EC00008000000070000000500000000000000FE
:101ED000000000000000D60106000000FC1E00000B
:101EE000000000203800000088090000341F0000B6
:101EF00038000020B8210000980900000000000010
:101F000000000000000000000000000000000000D1
:101F100000000000000000000000000000000000C1
:101F200000000000000000000000000000000000B1
:041F30000090D0034A
:0400000500000401F2
:00000001FF
