:020000040000FA
:10000000182A00208D0400009504000097040000C9
:10001000990400009B0400009D0400000000000003
:100020000000000000000000000000009F0400002D
:10003000A104000000000000A3040000A5040000CB
:10004000A7040000A7040000190C0000A70400008A
:1000500099090000A704000031050000A704000072
:10006000A7040000A7040000A7040000A7040000E4
:10007000A7040000A7040000A7040000A7040000D4
:10008000A7040000BD060000A7040000A7040000AC
:10009000A9090000A7040000A7040000A7040000AD
:1000A000A7040000A7040000A7040000A7040000A4
:1000B000A7040000A70400000000000000000000EA
:1000C000A7040000A7040000A7040000A704000084
:1000D000A7040000A7040000A7040000000000001F
:1000E0000000000000000000000000000000000010
:1000F0000000000000000000000000000000000000
:1001000000000000000000000000000000000000EF
:1001100000000000000000000000000000000000DF
:10040000DFF80CD000F082F80048004769120000C5
:10041000182A0020401E00BF00BF00BF00BF00BF61
:1004200000BF00BF00BF00BF00BF00BF00BF00BFD4
:1004300000BF00BF00BF00BF00BF00BF00BF00BFC4
:1004400000BF00BF00BF00BF00BF00BF00BF00BFB4
:1004500000BF00BF00BF00BF00BF00BF00BF00BFA4
:1004600000BF00BF00BF00BF00BF00BF00BF00BF94
:1004700000BF00BF00BF00BF00BF00BF00BF00BF84
:1004800000BF00BF00BFC5D17047000006488047CD
:1004900006480047FEE7FEE7FEE7FEE7FEE7FEE769
:1004A000FEE7FEE7FEE7FEE7AD09000001040000FD
:1004B00040EA01039B0703D009E008C9121F08C0E6
:1004C000042AFAD203E011F8013B00F8013B521E66
:1004D000F9D27047D2B201E000F8012B491EFBD2DD
:1004E00070470022F6E710B513460A46044619463F
:1004F000FFF7F0FF204610BD034611F8012B00F86E
:10050000012B002AF9D1184670470000064C074D10
:1005100006E0E06840F0010394E8070098471034D3
:10052000AC42F6D3FFF770FFF41A0000141B000072
:100530002DE9FC5F0025DFF83491A8464FF4807662
:1005400001242F46304601F021F838B1D9F80403D0
:10055000204203D0304601F00FF82543361D6400D9
:100560007F1CB6B2082FEDD34FF4BE74204601F0C5
:100570000DF838B1204600F0FFFF3D4845F000453A
:10058000D0F800803B4E15F0FF0F14D00127002457
:100590002F420CD009EB8401D1F81005D1F81015C9
:1005A000C0F3042056F82420C1F3014190477F0096
:1005B000641C082CECD3002D56DA00200190401E5C
:1005C0004CE0701910F8501F90F9000021F0C004A1
:1005D000401C38D0012000FA04FA1AEA090F32D080
:1005E0004FEA911B204600F0C7FC56F8200000900F
:1005F00010B9BBF1030F26D15146BBF1030F02D155
:10060000019808430190A00000F1A040D0F8000735
:100610001AEA080FC0F3014002D0022802D012E00B
:10062000032810D1BBF1030F07D102281AD00221F1
:10063000204600F092FF7F1CFFB2009818B1009A8C
:100640005946204690476D1C042DBAD3002F0BD07D
:1006500007480068404507D080460198002781463A
:100660003D46AEE70321E3E7BDE8FC9F00600040A4
:1006700010050050E400002000F01F02012191400D
:100680004009800000F1E020C0F88012704700F0BF
:100690001F02012191404009800000F1E020C0F8D4
:1006A0000011704700F01F020121914040098000B5
:1006B00000F1E020C0F80012704700000748002158
:1006C000C0F84011C0F84411C0F84811C0F84C11EE
:1006D000C0F80011C0F8041101F092B800100140F8
:1006E0002DE9F047114F0446DDF8209038781D467B
:1006F0001646884608B900F099FA7869A04211D9DF
:100700000A4904EB440001EBC00134B1C1F8488050
:10071000C1E913650020886548650020C1F85C9038
:10072000BDE8F0874FF0FF30FAE70000A009002095
:100730002DE9F047114F0446DDF8209038781D462A
:100740001646884608B900F071FA3869A04211D9F6
:100750000A4904EB440001EBC00134B1C1F8188030
:10076000C1E907650020886248620020C1F82C902A
:10077000BDE8F0874FF0FF30FAE70000A009002045
:1007800070B5074B0646144618780D4608B900F0B8
:100790004DFA224629463046BDE8704000F002B8C6
:1007A000A009002070B50E46144900EB400001EB93
:1007B000C0051446E86A183520B101280FD0022878
:1007C00005D113E0284600F065FAA04201D20024CA
:1007D00011E022463146284600F082FB0BE0284615
:1007E00000F058FAA042F4D20446F2E73146284617
:1007F00000F049FB0446204670BD0000A00900201F
:100800002DE9F04198B0064607A802904020002547
:10081000CDE90305CDE9055690460C4614F8011BB9
:10082000002973D0252908D002A800F00DFB0598F7
:100830000028F3DA18B0BDE8F08100200122217809
:1008400023291ED02B2919D02D2902D0302908D1D7
:1008500002E040F0010001E040F00200641C002AC8
:10086000EDD100222178A1F130030A2B0CD202EB4A
:10087000820201EB4202303A641CF3E740F00400CC
:10088000ECE740F00800E9E70023CFB22E2F0BD1B0
:1008900014F8011FA1F130070A2F05D203EB8303DF
:1008A00001EB4303303BF3E76C290DD068290BD0F3
:1008B000702954D00BDC252916D0582931D0632952
:1008C0000CD0642913D114E014F8011BECE7732950
:1008D00034D075291BD0782909D122E0D8F800003E
:1008E000011DC8F80010017802A800F0ADFA641CE0
:1008F0009DE7D8F800100F1DC8F800700968CDE911
:1009000000200A2202A800F0D1F9F0E733E0D8F87D
:1009100000100F1DC8F800700968CDE900200A22F8
:1009200008E0D8F800100F1DC8F800700968CDE97C
:100930000020102202A800F01DFAD8E7D8F8000025
:10094000011DC8F80010076817F8011B0029CED058
:1009500002A800F079FA05980028F5DAC7E7D8F878
:100960000000011DC8F8001001680820CDE900054D
:1009700003461022DEE7059800287FF75BAF049856
:1009800020B1024607A93046FFF7FAFEDDE9041060
:10099000084405904EE7000002494FF0402000F067
:1009A00061BE00003C01002000F0C6BE70B58D485D
:1009B0000023021D0178101D0124062907D1157896
:1009C0002D0704D10578C5F30315032D02D00629A0
:1009D00004D00FE0854E844D75670EE015782D0725
:1009E00008D10578C5F30315032D06D0042D04D0D6
:1009F000052D02D0062909D010E04FF08055D5F81A
:100A000044527B4EC5F34235356002E015782D0720
:100A100004D10578C5F30315032D02D0062906D0AD
:100A200011E0744D2E6826F080762E600EE0157869
:100A30002D0708D10578C5F30315032D06D0042D25
:100A400004D0052D02D006290AD011E04FF08045D0
:100A5000C5F80C31C5F81031654D2D1F2B6002E033
:100A600015782D0704D10578C5F30315032D02D0A1
:100A7000062905D00CE05E4A0321643211600AE0C9
:100A800015782D0704D10578C5F30315032D02D081
:100A900006290DD06AE0584A05211160564978317F
:100AA0000C60554908310B603F21121D116002E0B6
:100AB000117809075AD10078C0F30310052855D1E1
:100AC0004E4800684E4908604C48001D0068091DEA
:100AD00008604A4808300068091D086047480C3023
:100AE0000068091D0860454810300068091D08604D
:100AF000424814300068091D0860404818300068FA
:100B00003F49203108603D481C300068091D0860DD
:100B10003A4820300068091D0860384824300068D1
:100B2000091D0860354828300068091D08603348F1
:100B30002C300068091D08603048303000683049AA
:100B4000403108602D4834300068091D08602B488A
:100B500038300068091D086028483C300068091DCD
:100B60000860264840300068091D08602148743834
:100B7000016841F470010160BFF34F8FBFF36F8FC5
:100B80004FF01021D1F80002002803DBD1F8040255
:100B9000002822DA1B4A14601B480468002CFCD091
:100BA0001524C1F800420568002DFCD0C1F80442AC
:100BB00001680029FCD0136001680029FCD0BFF354
:100BC0004F8F0C48F0380168104A01F4E06111437E
:100BD0000160BFF34F8F00BFFDE70E490C4808606E
:100BE00070BD0000E00F00F00DF0ADBA00C007408E
:100BF0003C050040FCED00E01056004004040010ED
:100C000020C5004004E5014000E401400400FA056D
:100C10000090D003640000200348007F08B100F07A
:100C2000D9BE00F053BE00005401002010B5124C94
:100C300002202061606111A0A061A4F58260E061E2
:100C40004FF4806020620020A06260620BA1A1646A
:100C5000E062A4F11001E16410212165A0656065E6
:100C6000E06509A1E01DFFF747FC08A12046FFF75A
:100C700043FC2020A07110BDA00900205465726DB6
:100C8000696E616C000000005254540053454747A0
:100C9000455200000269C1688A4203D88068401A40
:100CA000104400E0501A401E704700002DE9FC5F20
:100CB0000E008146DDE90C47C6F1000098469346D8
:100CC000824600D40846012503E000BF90FBFBF0FC
:100CD0006D1C5845FADAA84500D9454624B1002EC6
:100CE00001DB780700D5641EB80702D5B8F1000F04
:100CF0000FD0F8070DD164B1A5420AD22021484691
:100D0000641E00F0A1F8D9F80C000028F3DABDE861
:100D1000FC9FD9F80C000028F9DB002E02DA5646B9
:100D20002D2102E0780707D52B21484600F08CF8EA
:100D3000D9F80C000028EADB07F0030002280FD1E5
:100D4000B8F1000F0CD15CB1A54209D23021484660
:100D5000641E00F079F8D9F80C000028F3DAD6E721
:100D6000CDE9004743465A463146484600F002F86E
:100D7000CDE700002DE9F84F8246DDE90A4B012658
:100D8000984691460D460846374602E0B0FBF9F01A
:100D90007F1C4845FAD2B84500D947465FEACB7078
:100DA00017D1B4B15FEA8B7002D5B8F1000F02D051
:100DB000202000900BE03020FBE75046641E009995
:100DC00000F042F8DAF80C00002838DB0CB1A7423A
:100DD000F3D3DAF80C00002831DB00BFB8F1010FC3
:100DE00002D9A8F1010803E0B5FBF6F0484502D3AB
:100DF00006FB09F6F2E7DFF84C8000BFB5FBF6F022
:100E000000FB165518F80010504600F01DF8DAF8EF
:100E10000C00002803DBB6FBF9F6002EEED15FEAEA
:100E2000CB700CD0002C0AD0A74208D2202150460B
:100E3000641E00F009F8DAF80C000028F2DABDE8C8
:100E4000F88F0000E41A000010B50446D4E9013020
:100E5000421C934205D323681954A260E068401CE9
:100E6000E060D4E90102824209D121682069FFF7DC
:100E700087FCA168884203D04FF0FF30E06010BDCE
:100E80000020A06010BD2DE9F047C46817468946D0
:100E900006464FF000083069A04201D9051B02E068
:100EA000B168201A0D1AB0686D1E001BA84200D848
:100EB0000546BD4200D33D4670682A462044494657
:100EC000FFF7F6FAB0687F1B2C44A844A944A0425F
:100ED00000D10024F460002FDDD14046BDE8F0874A
:100EE0002DE9F041C6680446174688468068851B90
:100EF0006068BD4206D93044FFF7DAFAF019E060C5
:100F0000BDE8F0812A463044FFF7D2FA7E1B08EB99
:100F1000050132466068FFF7CBFAE660F0E702E0D1
:100F200008C8121F08C1002AFAD170477047002074
:100F300001E001C1121F002AFBD17047BFF34F8FA0
:100F400005480168054A01F4E06111430160BFF3FF
:100F50004F8F00BFFDE700000CED00E00400FA0534
:100F60000EB500210091CDE901106A4644F201005E
:100F7000FFF7E4FF0EBD00000249084490F930007D
:100F800070470000E40000202DE9F05F2648C168AA
:100F9000F1B3DFF898B00E688146DBF800400769CE
:100FA000C078E11B21F07F45ED1CB0B9DFF88080EF
:100FB0004FF48030C8F84403C8F804031120FFF749
:100FC0005BFB1120FFF763FB4FF0010AC8F800A09C
:100FD0002F20FFF71FFA89F803A0B54200D235464B
:100FE000124BE8193C3320F07F401860DBF800100A
:100FF0005A46091B21F07F41001B20F07F40C91C8D
:1010000081420FD9106818602F20FFF703FA00E023
:1010100004E0BDE8F05F1120FFF744BBBDE8F05FDE
:1010200000F0D2BABDE8F09F400000200415014056
:10103000001001400E4910B54A788C780023A24276
:1010400012D0521CD2B24A70022A00D14B70084A08
:101050004B78183252F8232002600869104420F0BF
:101060007F400861012010BD0360002010BD00001A
:10107000400000202DE9F047DFF8ACA0DAF80C00C2
:101080009AF8004080469AF80460DAF80890DAF896
:1010900010703AE009EBC4052A7833E002EB420114
:1010A0006B68521C03EBC101AB78D2B2934200D102
:1010B00000220B78022B02D0032B23D11FE0D1F8A2
:1010C00004C00346014603E0614503D00B46C969ED
:1010D000C1B1F9E7B1B18B4205D1C06918B9134F5D
:1010E0000126BE600027D1F800C0C969D96149B1A5
:1010F0000B6863440B6005E00174C06900E00021E7
:101100000028F9D169789142C8D1641EE4B2C1D2F5
:10111000CAE903078AF80460404502D00120BDE80F
:10112000F0870020FBE70000400000200010014095
:101130002DE9F04705462F48002680460778D0F86D
:101140000C904BE0D8F8080000EBC70440E002D058
:101150002846ED691EE02078616800EB4002401CE3
:10116000C0B201EBC2012070A278904200D126707B
:101170000A784868012A2DD1027C5ABB8A684260ED
:10118000CA6882600A69C2604969816198F804107E
:1011900001B146604268D8F81030DFF85CC0D11A5F
:1011A00021F07F41614502D28268114406E0991A1C
:1011B000826821F07F418A4202D9511A016000E021
:1011C00006604660012186600174C66100F0FAFA8B
:1011D000002DBCD1207861788842BCD17F1EFFB23F
:1011E000B0D2D8F80C10494502D00120BDE8F087F4
:1011F0000020FBE740000020FFFF7F0038B50D4CCA
:10120000207808B1002038BD0125AB020A4A0BA1A5
:1012100000200095FFF78CFA38B900201023094A06
:1012200009A10090FFF75CFA08B1082038BD2570CD
:10123000E8E70000600000207F0100204E6F726D23
:10124000616C00007F050020496E7075740000001D
:101250000FB408B504A900916A460399FFF7D0FAC4
:1012600001B05DF814FB000088B0FFF7C7FF1EA1B6
:101270000020FFF7EDFF18221F4901A8FFF718F91A
:101280000C2004900D2003900F2001900E2002905E
:1012900019481A4A01A9083800F0A6F8184C002588
:1012A00025703C211748FFF71CF93C2612E02078F6
:1012B0000028FCD02570134A13A10020FFF7C8FFB7
:1012C00010493D2201F13D00FFF7F2F83C210D48A5
:1012D000FFF707F90A4908480A4B3C22491C08381D
:1012E000009600F047F8E2E75350495320657861D3
:1012F0006D706C650A000000B41A000055160000FD
:101300000000002068000020205472616E73666542
:101310007220636F6D706C657465642E2052656316
:1013200065697665643A2025730A00004907090E4D
:10133000002806DA00F00F0202F1E02282F8141D04
:1013400003E000F1E02282F8001400F01F02012106
:1013500091404009800000F1E020C0F88012C0F800
:10136000001170470121B1EB507F01D1012070477E
:10137000002070472DE9F04706460F4600791949CD
:1013800000EB4000DDF820901D00904601EBC0040A
:1013900014D09FB13846FFF7E5FF88B12846FFF724
:1013A000E1FF68B1607D68B1012818D0022809D03A
:1013B000032807D003252846BDE8F0870E20FBE769
:1013C0001020F9E7C4E90375C4F80080C4F804905C
:1013D000002501222146306800F07BF9EBE7082563
:1013E000E9E700003C0100202DE9FC5F07460D46BF
:1013F00000794F4900EB400001EBC00A3C689AF8C5
:101400001410934611B10820BDE8FC9F15B9494955
:1014100001EBC005287C032801D90720F4E7BBF1C4
:10142000000F10D0286800264FF0FF38FF280CD09E
:10143000E97CCDE9001600231A46194600F07CF835
:10144000D5F8009002E00E20DEE7C1466868FF286C
:1014500008D0002300961A461946019600F06CF851
:10146000D5F80480009601960022AB7C1146E8680E
:1014700000F062F80023009601961A461946A86803
:1014800000F05AF8D5E90223C4F80825C4F81085FD
:10149000C4F80C95C4F81435C4F83465C4F838653C
:1014A000C4F84465C4F84865297C687C00B1012013
:1014B000012904D0022905D0032908D105E040F014
:1014C000020004E040F0040001E040F00600C4F82F
:1014D0005405287DC4F85C05687DC4F8C005C4F8CF
:1014E0000461C4F82861D4F8000240F00400C4F894
:1014F0000002387900EB40010D4800EBC1014E7548
:101500003A7902EB420200EBC200C0F808B040F2A8
:101510000240C4F80403A97D97F90500FFF706FF10
:1015200001218AF814100220C4F8000500206BE79E
:101530003C010020CC1A000030B541EA4201DDE94F
:10154000034541EA8301800041EA042100F1A04003
:1015500041EA0541C0F8001730BD800000F5E060A9
:1015600000F1A040026822F440320260026842EAC0
:101570000141016070470000034908B5084400219B
:1015800001600068009008BD0060004002494058BA
:10159000012800D00020704700600040405800281B
:1015A00000D0012070474058002800D0012070472B
:1015B000D0F80403084000D00120704740580028AC
:1015C00000D001207047000070B5012670044FF074
:1015D000E0210025C1F88001084C4010C4F8480300
:1015E000C4F8080366602F20FEF714FFA660044CC1
:1015F0002F202561FEF70EFFE57070BD0010014041
:101600004000002009480A490022C37DC1F8082192
:1016100043B1D1F81815437EC268D154417E491CAC
:1016200041767047D1F8180570470000540100203A
:10163000002000401FB501228DF8080004488DF8F5
:1016400000200191D0E90012684690471FBD0000BC
:1016500054010020C0B2012801D10149087070472F
:101660000000002070B50D4604464FF49471FFF75A
:1016700095FF0026C8B1C4F82861687D012814D1FF
:10168000E9682868C4F84415C0B2C4F84805296957
:101690006868C4F83415C0B2C4F838050120A062E7
:1016A00002222946204600F014F84FF482712046A9
:1016B000FFF774FF00280BD0C4F80461687D02288E
:1016C00006D129462046BDE87040032200F001B84B
:1016D00070BD4A75AFF300802DE9F0414A7D0D469B
:1016E0000121012A0ED0022A0FD0032A0BD161F367
:1016F0000704D0F84C15D0F83C05CEB2C7B2A868A4
:1017000090B90EE04162BDE8F0810026A86866F35A
:10171000070410B90020FFF723FC32461146AB68DE
:1017200005E00020FFF71CFCAB683A463146204636
:10173000BDE8F041184700002DE9F84F204C002586
:101740006846D4E903B6FFF775FC8046FFF792FCC4
:101750000746A946B8F1000F25D00023009ACC46D1
:10176000E06819E007680146974202D9BA1A026098
:1017700014E0C1F800C0D1F80C80D21BC8693B440A
:101780008A46B8F1000F07D0F71827F07F47C1E964
:101790000178CAF81C500D460028E3D1E0602846C5
:1017A000FFF7C6FC04E02846FFF7C2FC00B917B1FA
:1017B0005846FFF7E9FB84F80490BDE8F88F000075
:1017C000400000200D4B10B5D96831B102680C689B
:1017D000A24204D8A21A0A60C161D86010BD0B46AB
:1017E00003E00B46C969121B21B10C689442F8D37F
:1017F000A41A0C600260C161D86110BD40000020D5
:101800002DE9F0411D4DEC68002C35D01C48002717
:1018100000682969B846401A20F07F462068B04227
:1018200015D82246361A0744E469107C68B182F85C
:1018300010806B6933B1D2E90501984728B1FFF7F1
:101840008FFB02E0D2E905108847002CE6D16978C9
:10185000A878814206D1401CC0B2A870022801D1EC
:1018600085F802800548A978183040F82170BDE855
:10187000F0411420FEF716BFBDE8F08140000020C3
:1018800004150140064A0020C2F81C010548838A5D
:101890008168C95C838A5B1C8382C2F81C1570470F
:1018A00000200040540100201FB500218DF80800E1
:1018B00005488DF80010826801928175D0E9001208
:1018C000684690471FBD0000540100202DE9FF41EC
:1018D0003E4D4FF400712846FFF76AFE01273C4C4D
:1018E0004FF40178002600B34FF492712846FFF7B9
:1018F0005AFED0B1C5F82461C5F80883A07E00B9AE
:101900006F6002208DF80000D5F88004C5F88004CF
:101910000390E07D8DF80800E0680190E67526767A
:10192000D4E900126846904724E004212846FFF7D6
:101930003FFEF8B14FF484712846FFF734FEC8B17A
:10194000FFF760FEE07D617E884213D1227E3AB1CE
:10195000607EE168E2752269E2602676667607E0DD
:10196000A07E00B96F60C5F80883E675607EE16807
:10197000FFF760FE4FF48E712846FFF714FE58B152
:10198000A18AA07D814202D2FFF77CFF04E0C5F866
:101990001C6108B1FFF788FF4FF4A2712846FFF7DA
:1019A00002FE00280FD0C5F84461A07E00B12F6070
:1019B000E07D002807D0E675607EE16804B0BDE8F0
:1019C000F041FFF737BEBDE8FF8100000020004076
:1019D000540100207FB5334C4FF492712046FFF73D
:1019E000EDFD314D0026B0B1C4F8246102208DF820
:1019F0000000D4F88004C4F880040390D4F83C05B7
:101A00008DF80800E8680190EE752E76D5E9001291
:101A1000684690471FE04FF488712046FFF7CEFDDF
:101A2000C8B1C4F81061D4F83C05E97DC0B2814268
:101A300011D12A7E5AB1E968D4F8003223F020038C
:101A4000C4F80032EA752A69EA602E7601E0EE7584
:101A5000E968FFF7EFFD4FF4A2712046FFF7AEFDF6
:101A600050B1C4F84461E87D30B1EE75D4F83C055E
:101A7000E968C0B2FFF7DEFD4FF490712046FFF732
:101A80009DFD00280CD0C4F82061A87D002807D057
:101A9000D4F84C0504B0C0B2BDE87040FFF704BFF5
:101AA0007FBD0000002000405401002000400040A5
:101AB000000400001C0000000400000003000000FF
:101AC000FF00000002000000FFFF06001C000000F5
:101AD0000400000003000000FF00000002000000FE
:101AE000FFFF060030313233343536373839414262
:101AF00043444546141B000000000020680000001D
:101B00001E0F00007C1B000068000020B0290000B0
:101B10002E0F000000616263646561626364653179
:101B20003233343536373839306162636465616227
:101B30006364653132333435363738393061626346
:101B40006465616263646531323334353637383900
:101B50003000000000000000000000000000000055
:101B60000000000000000000000000000000000075
:0C1B700000000000000000000090D00306
:0400000500000401F2
:00000001FF
