:020000040000FA
:10000000A80F0020B1010000D5010000D7010000B9
:1000100000000000000000000000000000000000E0
:10002000000000000000000000000000E9010000E6
:100030000000000000000000EB0100008122000031
:10004000EF01000009390000EF010000EF0100009E
:10005000D7390000EF010000EF010000EF010000C0
:10006000613A0000EF010000EF010000EF01000025
:10007000351C0000EF010000EF010000EF0100005F
:10008000BB420000EF0100007B310000EF010000E7
:10009000EF010000EF010000EF010000EF010000A0
:1000A000EF010000EF010000EF010000CF5600005B
:1000B000BD390000192E0000EF010000EF01000023
:1000C0000348854606F0B2FE004800478D17000041
:1000D000A80F002070B500F024F82C4908602C48C7
:1000E000006945076D0F022D03D0A80029490C585F
:1000F00001E026480468264880690007000F461C76
:100100003146204606F06AFE23490860234922480A
:1001100000684A10801806F061FE2149086070BD31
:100120007047FEB51FA0006800900020029018489C
:10013000046A0013044227D10120C004044201D004
:10014000194800E01948054601204004044201D046
:10015000029519E0032080032040800B69460F5C64
:10016000E005C00D801C01901F2040022040400A85
:10017000861C32467A431146AB08019A534318460F
:1001800006F02CFE800002900298FEBD08000020C0
:10019000000200500C0000200000002040420F0030
:1001A000040000200102020400805101001BB7007E
:1001B0001448154901601549016015490160154A47
:1001C0001549116000210160144880471448804798
:1001D00014480047FEE706980188134A914202D16D
:1001E000043006907047FEE7FEE7FEE7FEE7FEE715
:1001F000ABBE01E000207047002A00D01060012053
:100200007047000000010050590000001600000077
:100210008800000024000050A55A000021010000C1
:10022000A3380000C1000000ABBE0000F0B5059C83
:10023000A94D8600AD59A94E35400E04354316022E
:1002400035431D432543A44E8700F551F0BD10B53D
:10025000A14A8300D258A24B1A400B041A439E4B6A
:1002600084001A5110BD70B50124240705252D07FF
:10027000ED68254305263607F5603546ED68A5434C
:10028000F56000BF00BF974C64690C25AC43144374
:10029000944D6C6100BF00BF2C46A469FF252D045E
:1002A000AC435D1E2D042C438E4DAC6100BFEC04AD
:1002B000AD6825438B4EB56000BF00BF864C283C1F
:1002C000246A01252C43844D283D2C6200BF00BFC9
:1002D0002C46246A0C25AC4304437F4D283D2C62F8
:1002E00000BF00BF2C46646A0C436C6200BF70BD47
:1002F00010B50020784928394862086288620021D8
:1003000075482838C1620120000776498968814311
:10031000744A916000BF00210846FFF798FF002152
:100320000120FFF794FF1D2000F0AEF810BD10B5BE
:10033000072000F0CCF800BF67482838006A022187
:10034000084365492839086200BF1D2000F095F870
:1003500010BD10B500BF60482838006A02218843EC
:100360005D492839086200BF0846806A02210842B8
:1003700007D159482838C06A084202D11D2000F030
:1003800083F810BD10B5022000F0A1F8002000F0A5
:1003900083F81D2000F071F810BD10B5002000F0AA
:1003A00084F84D482838006A0221084207D14A489B
:1003B0002838C06A084202D11D2000F065F810BD3F
:1003C00010B5042000F083F8012000F065F81D202E
:1003D00000F053F810BD10B5012000F066F83E485B
:1003E0002838006A0221084207D13B482838806A31
:1003F000084202D11D2000F047F810BD00BF364A68
:10040000283A126A30239A430243334B283B1A623C
:1004100000BF00BF1A46126AC0239A430A432E4BFC
:10042000283B1A6200BF00BF1A46126A9B151A4386
:10043000294B283B1A6200BF7047F8B504460D46A9
:1004400016461F4623463A46314600200095FFF7E0
:10045000EDFE002000F032F8F8BDF8B504460D4678
:1004600016461F4623463A46314601200095FFF7BF
:10047000DDFE012000F022F8F8BDC206D20E0121F7
:100480009140194A11607047C206D20E0121914075
:10049000154A8032116070470F4982008958022244
:1004A00011430D4A8300D15070470B49820089588F
:1004B00002229143084A8300D150704706498200C6
:1004C000895801221143044A8300D15070470249E0
:1004D000283908637047000028000E40030000F030
:1004E000FFFF00F00002005000E100E070B50025C1
:1004F000BB4800694407640F002C01D1B94D0FE0DF
:10050000022C01D0012C06D100F01FF90546012C68
:1005100006D16D0804E0032C01D1B34D00E0B34DCA
:10052000AF4880690007000F461C3146284606F098
:1005300055FC70BDF0B5059C0025002901D0202692
:100540003543002A01D010263543002B01D0082660
:100550003543002C01D00426354306683C27BE43B2
:100560002E430660F0BD10B5FFF7C0FF04469C485F
:10057000C06A411C204606F031FC10BDFEB50446A1
:100580000E461746FFF7EFFF0A214843B1000090DF
:1005900006F024FC401D0A21019006F01FFC451EB8
:1005A0009348844206D1401500F00EF9601500F022
:1005B000C6F807E0FF20013000F006F9FF20013007
:1005C00000F0BDF800BF20692843206100BF002F64
:1005D0000FD0204600F0EEF88648844203D1122066
:1005E00000F09EF805E08248844202D1132000F01A
:1005F00097F800BF206840210843206000BFFEBD7F
:1006000010B50446204600F0DAF800BF206840210B
:100610008843206000BF7748844203D1122000F055
:1006200086F805E07248844202D1132000F07FF87A
:1006300010BD70B504462569FFF758FF0646681CD3
:100640008100304606F0CAFB70BD10B50446204656
:1006500000F0B0F86748844203D1122000F060F83F
:1006600005E06348844202D1132000F059F810BD20
:1006700010B50446204600F0A2F85E48844203D13B
:10068000122000F054F805E05948844202D11320AA
:1006900000F04DF810BD30B50446002906D0012900
:1006A00009D002290CD0032914D10EE050001843C0
:1006B000606000BF11E050001843A06100BF0CE073
:1006C00050001843E06100BF07E05000184320626B
:1006D00000BF02E00020C04330BD00BF0120FBE7A7
:1006E0000346002906D0012908D002290AD003298F
:1006F00010D10BE05000586200BF0EE0500098622D
:1007000000BF0AE05000D86200BF06E05000186346
:1007100000BF02E00020C043704700BF0020FBE79D
:10072000C206D20E01219140334A11607047C206C1
:10073000D20E01219140304A803211607047284921
:1007400089680143264A91607047FEB52BA0006876
:100750000090002002902248046A0013044227D12E
:100760000120C004044201D0204800E01D48054695
:1007700001204004044201D0029519E003208003C7
:100780002040800B69460F5CE005C00D801C019085
:100790001F2040022040400A861C32467A43114600
:1007A000AB08019A5343184606F018FB80000290EC
:1007B0000298FEBD01688022114301607047016804
:1007C000802291430160704705210907C9680143F0
:1007D00005221207D1601146C9688143D160704774
:1007E00000020050001BB7001027000000805101DC
:1007F000000012400000024000E100E0010202049B
:10080000FEB582A000680090002002908048046A33
:100810000013044227D10120C004044201D07D48C6
:1008200000E07D48054601204004044201D00295C5
:1008300019E0032080032040800B69460F5CE0052F
:10084000C00D801C01901F2040022040400A861CE1
:1008500032467A431146AB08019A5343184606F0D4
:10086000BDFA800002900298FEBDF8B56848C069E4
:100870008007800F00900098002806D0012806D03D
:10088000022808D003282ED12BE0634C2DE0FFF77F
:10089000B7FF044629E000BF00265D480069450710
:1008A0006D0F002D01D15C4E0FE0022D01D0012D06
:1008B00006D1FFF7A5FF0646012D06D1760804E014
:1008C000032D01D1554E00E0524E5148806900077A
:1008D000000F471C3946304606F080FA044600BF38
:1008E00003E04C4C01E04B4C00BF00BF2046F8BD7C
:1008F000F8B5044620684649C9698908890001435A
:10090000434AD16100BF10051146896801439160D7
:1009100000BF00BF05210907C9680143052212076E
:10092000D1601146C9688143D16000BF00BF3C4817
:1009300000680121C90408433949086000BF00BFAD
:10094000084600680121890408433549086000BF52
:100950002169A068084361690843E1680843A16907
:100960000843E16908432E490860FFF77EFF074608
:10097000A168491C6068484306013146384606F0C4
:100980002DFA4008401EC5B225484068FF210902E3
:1009900088432902084322494860084600682149E3
:1009A00008431F4908600020F8BD10B5012040072A
:1009B000174989688143164A916000BF1B2000F0E7
:1009C0001CF810BD00BF164989680143144A9160A4
:1009D00000BF1B2101228A40134B1A6000BF7047E1
:1009E00010B5044600BF0E488068A0430C498860DB
:1009F00000BF1B2000F001F810BDC206D20E01217D
:100A00009140094A803211607047000001020204DF
:100A10000002005000805101001BB70010270000A9
:100A200000001A400180000000E100E0FEB5FBA0DC
:100A30000068009000200290F948046A0013044204
:100A400027D10120C004044201D0F64800E0F64856
:100A5000054601204004044201D0029519E003201C
:100A600080032040800B69460F5CE005C00D801CB0
:100A700001901F2040022040400A861C32467A43E3
:100A80001146AB08019A5343184606F0A7F98000B7
:100A900002900298FEBD10B50446E448844206D197
:100AA000801400F0F4FA0E2000F0E3FA14E0E048BD
:100AB000844207D10120400300F0E9FA0F2000F042
:100AC000D8FA09E0DB48844206D10120800300F017
:100AD000DEFA102000F0CDFA10BDF8B504460D4640
:100AE00016461F46D148844203D1801400F0C9FA4B
:100AF0000EE0CF48844204D10120400300F0C1FA47
:100B000006E0CC48844203D10120800300F0B9FA0A
:100B1000C648844203D1801400F0CBFA11E0C448E7
:100B2000844204D10120400300F0C3FA09E0C14827
:100B3000844204D10120800300F0BBFA01E00020D0
:100B4000F8BD202F00D1002738462168F8229143B4
:100B5000202801D0024600E00022D200114321608B
:100B600000BF00BF2068012189048843284320601A
:100B700000BF00BF2068062188433043206000BFCB
:100B80000120DDE7FEB50646A7480190A74886424A
:100B900004D1A348C46910210C400BE0A44886424C
:100BA00004D19F48C46920210C4003E09C48C469DB
:100BB00040210C40002C01D000D002D1FFF736FFBD
:100BC000FEBD102C03D0202C01D0402C24D100BF1E
:100BD00000279348006945076D0F002D01D1924F02
:100BE0000FE0022D01D0012D06D1FFF71FFF0746B0
:100BF000012D06D17F0804E0032D01D18E4F00E0C6
:100C0000884F874880690007000F401C00903846D5
:100C1000009906F0E3F8D3E70198D1E7FEB5054661
:100C20000F461646002000902846FFF7ABFF0190C4
:100C3000002E1BD03146019806F0D0F8401C400829
:100C4000441EFF2C00D9FF24601C4100019806F0CF
:100C5000C5F800900098B04200D9641C6868FF2174
:100C60000904884321040843686004E06868FF21A0
:100C7000090408436860002F20D03946019806F027
:100C8000ADF844087F2C00D97F24002C02D10198B4
:100C9000009004E06100019806F0A0F80090009830
:100CA000B84205D9641C6100019806F097F80090DD
:100CB0006868000A00022043686003E06868FF215A
:100CC000084368600098FEBD70B504462046FFF7F3
:100CD00059FF06466068C5B2002D01D1304670BD8F
:100CE0007008294606F07AF8F9E770B50446204600
:100CF000FFF748FF06466068FF2109040840050C1D
:100D00007008691C06F06AF870BD10B5044600BF93
:100D10002068012149040843206000BF4348844201
:100D200003D10E2000F09EF90CE04148844203D12B
:100D30000F2000F097F905E03E48844202D11020D0
:100D400000F090F910BD10B5044600BF20680121E5
:100D500049048843206000BF3448844203D10E20F8
:100D600000F087F90CE03248844203D10F2000F0F4
:100D700080F905E02F48844202D1102000F079F973
:100D800010BD10B5044600BFE06B01218902084385
:100D9000E06300BF2548844203D10E2000F062F9D1
:100DA0000CE02348844203D10F2000F05BF905E0FA
:100DB0002048844202D1102000F054F910BD10B533
:100DC000044600BFE06B012189028843E06300BF55
:100DD0001648844203D10E2000F04BF90CE0144871
:100DE000844203D10F2000F044F905E01148844209
:100DF00002D1102000F03DF910BD00BF02680F23A2
:100E00001B039A430B031A43026000BF00BF026832
:100E100001235B051A43026000BF70470102020410
:100E20000002005000805101001BB7000000034089
:100E3000004003400000134010270000F8B50546AD
:100E40000E461746002408E000BF284600F025F9AA
:100E50000028FAD1305D2862641CBC42F4D3012022
:100E6000F8BDF8B505460E461746002409E000BF58
:100E7000284600F012F90028FAD16000305A2862A2
:100E8000641CBC42F3D30120F8BDF8B505460E46FC
:100E90001746002409E000BF284600F0FEF80028AD
:100EA000FAD1A00030582862641CBC42F3D3012060
:100EB000F8BDF8B505460E461746002408E000BF09
:100EC000284600F0F0F80028FAD128693055641C53
:100ED000BC42F4D30120F8BDF8B505460E461746CE
:100EE000002409E000BF284600F0DDF80028FAD110
:100EF000286961007052641CBC42F3D30120F8BD24
:100F0000F8B505460E461746002409E000BF2846FE
:100F100000F0C9F80028FAD12869A1007050641CBB
:100F2000BC42F3D30120F8BDFFB581B004460D46A5
:100F3000164600200090002725E00BE005E0206920
:100F4000C2B20098411C00913254204600F0ABF828
:100F50000028F4D0204600F0A0F80028EED1002DA3
:100F600002D1401E206201E0E85D206205E02069B8
:100F7000C2B20098411C00913254204600F093F810
:100F80000028F4D07F1C04988742D6D305B0F0BD6A
:100F9000FFB581B004460D4616460020009000279C
:100FA00026E00BE005E022690098411C80000091DA
:100FB0003250204600F077F80028F4D0204600F0A8
:100FC0006CF80028EED1002D02D1401E206202E014
:100FD0007800285A206205E022690098411C8000B0
:100FE00000913250204600F05EF80028F4D07F1CBB
:100FF00004988742D5D305B0F0BDFFB581B0044653
:101000000D46164600200090002726E00BE005E084
:1010100022690098411C800000913250204600F067
:1010200042F80028F4D0204600F037F80028EED12E
:10103000002D02D1401E206202E0B8002858206234
:1010400005E022690098411C800000913250204642
:1010500000F029F80028F4D07F1C04988742D5D3EB
:1010600005B0F0BDC206D20E01219140174A1160B1
:101070007047C206D20E01219140144A803211609D
:101080007047134989680143114A916070471049BC
:10109000896881430E4A91607047014608680122C1
:1010A000D20610407047014608680122120610401F
:1010B000704705210907C968014305221207D1605D
:1010C0001146C9688143D1607047000000E100E02B
:1010D00000020050F8B504460D4616461F46B648B5
:1010E000844203D1042000F048F911E0B2482030D6
:1010F000844203D1082000F040F909E0AF4884425F
:1011000003D1102000F039F902E0202000F035F979
:10111000A06803210843A060A06901210843A061E1
:101120006660080438184906401840192060F8BD68
:1011300010B50446002020609F48844206D1042058
:1011400000F021F9082000F010F91AE09A48203048
:10115000844206D1082000F016F9092000F005F9B4
:101160000FE09648844206D1102000F00CF90A20C6
:1011700000F0FBF805E0202000F005F90B2000F05E
:10118000F4F810BD70B504460D46A068A0600120BB
:101190004007054207D000BF2068012149070843E6
:1011A000206000BF00BF2020054206D000BF60695C
:1011B00020210843606100BF00BF7F48844203D103
:1011C000082000F0CBF811E07B482030844203D1A6
:1011D000092000F0C3F809E07848844203D10A20CE
:1011E00000F0BCF802E00B2000F0B8F870BD10B5BC
:1011F000044600BF2068012149078843206000BFE2
:1012000000BF606920218843606100BF6A48844252
:1012100003D1082000F0A9F811E06748203084428B
:1012200003D1092000F0A1F809E06448844203D109
:101230000A2000F09AF802E00B2000F096F810BDAA
:1012400070B505460C46164600F0A3F8012000F0E4
:1012500094F800BF5A4840698008800020435849EC
:10126000486100BFE8B2574909680722120291435A
:1012700002021143534A116000BFF0B211464860A8
:1012800000BF00F08EF870BD10B500F082F800BF0E
:101290004C480068802188434A49086000BF00F03C
:1012A00084F8012000F061F8012000F06CF800F0F3
:1012B00078F810BD10B500F06CF800BF4148006828
:1012C000082108433F49086000BF00BF0846006886
:1012D000402108433B49086000BF012000F03EF870
:1012E00000F05FF810BD10B500F053F800F05DF8A5
:1012F000012000F03AF800F054F810BD70B5054632
:101300000E46144600F045F800BF2D48C069032181
:101310000904884320432A49C86100BF29043202D6
:101320001143C81C2849486000BF012000F016F88E
:1013300000F037F870BD704700BF23488068022274
:1013400010400146002907D000BF1F4880681043A5
:101350001D4A906000BF00BFC8B27047C206D20EDF
:1013600001219140194A11607047C206D20E012135
:101370009140164A803211607047114989680143D3
:101380000F4A916070470E49896881430C4A916009
:10139000704759200E4908601620086088200860B0
:1013A000704700200A4908607047064800684021DD
:1013B0008843044908607047000001400000114064
:1013C00000020050004000400041004000E100E009
:1013D00000010050026901235B029A430261026925
:1013E0004B001A4302617047F8B505460C46206869
:1013F000B64949690322120691430143B34A516138
:1014000000BF6068114689690F2212029143421E93
:1014100012021143AD4A916100BFAD48854207D128
:10142000D00100F047F90120000400F037F907E08F
:101430000120400400F03EF90120400400F02EF9A4
:101440000620A9680143A96000BFE069A968F022ED
:1014500091430143A96000BFA26921691143084675
:1014600062691043E968402211400143E96000BF0E
:101470002421085D296A090A09020143296200BF83
:1014800003210907206A88420CD1E768A66839461B
:10149000304605F0A3FC801E03210907084368625B
:1014A00000BF0AE0E768A6683946304605F096FCBA
:1014B0000009801E686200BF00BF0120F8BD10B5A2
:1014C0000322120343681343436000BF1201836881
:1014D0000F242404A3431343836000BF4A68D31F2F
:1014E000FF3BFA3B07D100BF026901235B021A43AD
:1014F000026100BF07E000BF026901235B029A435B
:10150000026100BF00BF8A68D31FF93B07D100BF4B
:101510004269FF2301331A43426100BF07E000BF65
:101520004269FF2301339A43426100BF00BF10BDEF
:101530000321090342688A43426000BF704710B527
:10154000044600BF00BFA069012109070840002828
:10155000F8D06048844206D1C81200F0A5F80D20EA
:1015600000F094F806E00120000400F09DF80C2043
:1015700000F08CF810BD70B504460D4600BF6068E1
:101580002843606000BF5248844203D10C2000F021
:1015900076F802E00D2000F072F870BD70B50446D8
:1015A0000D4600BF6068A843606000BF48488442A1
:1015B00003D10C2000F06AF802E00D2000F066F87C
:1015C00070BD10B500BF436910242340002B01D02B
:1015D000012300E000230B7000BF4369DB07DB0F32
:1015E000002B01D0012300E00023137010BD022264
:1015F0000263826A62239A438262826A0B78002BBA
:1016000001D0022300E000231A438262826A4B78F1
:10161000002B01D0202300E000231A438262826A5B
:101620008B78002B01D0402300E000231A43826214
:10163000704710B5032202634A7912060B79DB0367
:101640001A430B681A43C36A1A43C2628A79036A4F
:10165000FF242402A34314022343036200BF8268D1
:10166000FF2301339A4382608268CB79002B02D03A
:10167000FF23013300E000231A43826010BDC2063D
:10168000D20E01219140144A11607047C206D20E59
:1016900001219140104A8032116070470B498968DE
:1016A00001430A4A91607047084989688143074AA3
:1016B0009160704705210907C96801430522120797
:1016C000D1601146C9688143D16070470002005063
:1016D000000005400000154000E100E010B500F0FA
:1016E0003CF900BFA1484068032108439F49486076
:1016F00000BF00BF9E480068012108439C49086064
:1017000000BF00BF012000F023F90028FAD000201C
:10171000984902460A43964B1A6200BF00BF042054
:1017200000F016F90028FAD0022091490969C90889
:10173000C90001438E4A116100BF01201146C96AE8
:1017400081430143D16200BFFEF7C4FC8A4800F028
:101750002DFD00F007FF00BF00208449C031086064
:1017600000BF10BD10B500BFEFF31080044601208C
:1017700080F3108800BFFFF7B1FF204680F3108888
:1017800000BF00F0EEFD02F051FA10BD1CB500BF25
:10179000FFF7E8FF01207949087002F06BFC7848F8
:1017A000006803218902884375490860084600687B
:1017B0000121890208437249086000BF00BF01206F
:1017C0007049086000BF00BF00F019FB02F02EFA5C
:1017D000FF206D490860032002F09CFB01F015FE1C
:1017E00001F0A4F969A000F05DF96EA000F05AF9CB
:1017F0006EA000F057F902F00AFE02F099F803F02B
:1018000038FA03F055FA022000F0FDFC03F06DFAFF
:10181000022000F0F8FC7D20C00000F0F4FC002065
:101820005649087093E001AA0421002003F074F9DE
:101830006946087963A100F0E1FB6946487964A133
:1018400000F0DCFB6946887964A100F0D7FB6946AB
:10185000C87965A100F0D2FB66A000F023F96648C4
:1018600000F0D1FC18206946087048708870C87074
:101870006B4604220021032003F09FF97D20C00065
:1018800000F0C1FC01AB04220021032003F0F9F8B1
:101890006946087959A100F0B1FB694648795AA117
:1018A00000F0ACFB694688795AA100F0A7FB6946B5
:1018B000C8795BA100F0A2FB4EA000F0F3F87D20F8
:1018C000000100F0A0FC282069460870487088706C
:1018D000C8706B4604220021032003F06EF97D20BE
:1018E000C00000F090FC01AB04220021032003F0B3
:1018F000C8F86946087941A100F080FB694648793B
:1019000041A100F07BFB6946887942A100F076FB9B
:101910006946C87942A100F071FB36A000F0C2F818
:101920007D20000100F06FFC00F0F0FC00F015F8E5
:1019300000BF3E480068012108433C49086000BFE1
:1019400000BF00200949C031086000BF00BF6AE73E
:1019500001460748C0680840704759200349C03114
:10196000086016200860882008607047400000501A
:1019700000020050544A0000701700009900002037
:10198000C0400050D4420050780200200D0A2D2D96
:101990002D2D2D2D2D2D2D2D2D2D2D2D2D2D2D2D77
:1019A000200000007631302E38360000202D2D2DFD
:1019B0002D2D2D2D2D2D2D2D2D2D2D2D2D2D0D0A9A
:1019C0000000000020203069627566303A20000077
:1019D00020203069627566313A200000202030698D
:1019E000627566323A2000002020306962756633E5
:1019F0003A2000000D0A0000B80B000020206962A8
:101A00007566303A20000000202069627566313A20
:101A100020000000202069627566323A2000000034
:101A2000202069627566333A2000000000400040C3
:101A300070B505460E4600240CE0305DFE4909886D
:101A4000C905C90DFD4A5054FB480068401CFA49BD
:101A50000860641CAC42F0D3F9480068012806D144
:101A60000020F74908600221F64800F079FB70BDBC
:101A7000704710B50446F0480088C005C00DEF4916
:101A80000C54ED480068401CEB490860EC480068C5
:101A9000012806D10020EA4908600221E94800F047
:101AA0005FFB10BD70B50446002500BF0CE0605D13
:101AB000E1490988C905C90DE04A5054DE4800686B
:101AC000401CDD4908606D1C605D0028EFD1DC48DA
:101AD0000068012806D10020D94908600221D948B0
:101AE00000F03EFB70BD10B50446D3480088C00529
:101AF000C00DD2490C54D0480068401CCE49086043
:101B0000CF480068012806D10020CD490860022195
:101B1000CC4800F025FB10BDCB4801780068401C84
:101B2000C94A1060C8B2C949085C7047704710B50F
:101B3000002403E00A20FFF79CFF641C502CF9D31B
:101B40000D20FFF796FF10BDF8B506460C460025A0
:101B50000CE00A21304605F041F9303128466D1C71
:101B600021540A21304605F039F90646002EF0D1FD
:101B7000002D02D1012530202070002060550095F5
:101B800007E0A75D681E0546225C3046761C22549D
:101B90006755AE42F5D30098F8BD10B5024613461E
:101BA0001011AB4C205C08701807030E1B11204667
:101BB000C05C487000208870084610BD10B5A5A014
:101BC000FFF770FF0020A549086010BD10B503465F
:101BD00005E0985C8C5CA04201D0002010BD10464E
:101BE000521E0028F5D10120F8E710B502460B4639
:101BF000002106E0505C5C5CA04201D0002010BDDA
:101C0000491C505C0028F5D1585C0028F2D1012015
:101C1000F5E70146002000E0401C0B78491C002B32
:101C2000FAD1704710B504462046FFF73BFFFFF797
:101C3000C5FF10BD10B500BF8248C069FF2101314A
:101C40000840002806D100BF7E48C069090108404D
:101C500000287DD08DE07B480068C4B2082C29D1D3
:101C60007E480068002803D10720FFF702FF10BD5F
:101C70007BA0FFF717FF7B480068002805D0794854
:101C80000068401E7749086013E074480068401EF1
:101C90007249086074480068401E734908606A48C9
:101CA00000680968884204D367480068401E664996
:101CB0000860DCE720466D49096809026B4A11603B
:101CC0001146096801431160202801DB7E2803DDED
:101CD0000A2801D00D2801D1012100E000210029AE
:101CE00017D05B2C09D161480068FF210902084028
:101CF0001B210902884200D1B9E75C4800685C49B1
:101D000008405C49884205D1412C03DB442C01DCAE
:101D1000ADE7ACE74C480068FF3001305249096834
:101D2000884203D34D480068FF2819D92046FFF7A1
:101D3000A0FE4C480068401C4A4908600D2C0ED19A
:101D40000020086048480078401EC0B23F4900E0CB
:101D500019E00C543C480068401E3B49086086E787
:101D6000414801780068401C3F4A1060C8B23749BA
:101D70000C5400BF334880690121890308400028C2
:101D800000D168E739E000BF2E48C069012149024F
:101D90000840002831D00CE037480088C005C00D4D
:101DA0002649085C2749086033480068401C3249CE
:101DB00008603148006820490968884207D200BF9E
:101DC000204880690121C90508400028E4D02A483C
:101DD00000681949096888420FD1022019494968E9
:101DE0008143184A516000BF01201549086012481C
:101DF0000078114908602049086000BF37E710B536
:101E00008AB000BF05200007806B30210843052100
:101E100009078863194800690321490708431749DE
:101E2000086100BF0020009001200190144802903A
:101E3000E1204002039025E0240000200407002058
:101E40002C00002000000540200000200406002097
:101E50008A6E0000474C534E2420000034000020BE
:101E600008200800380000201C000020300000205E
:101E700000FFFF00005B1B00280000204000005016
:101E8000001BB7000320049000200590069010204E
:101E90000790032000070890642008A9087169468C
:101EA000B148FFF7A1FA02210C2000F022F9AF4956
:101EB000AD48FFF760FB002403E00020AC49085563
:101EC000641CFF2CF9D9002403E00020A94908551F
:101ED000641C012040028442F7D30020A649086018
:101EE000A6490860A6490860A64908600120A649DD
:101EF00008600AB010BD10B50246130FA34CE35C96
:101F00000B700F231B0613401B0EE35C4B700F235B
:101F10001B0513401B0DE35C8B700F231B04134048
:101F20001B0CE35CCB700F231B0313401B0BE35C08
:101F30000B710F231B0213401B0AE35C4B71F02350
:101F400013401B09E35C8B7113071B0FE35CCB7120
:101F500020230B7200234B7210BD70B50446002580
:101F60001CE08020044205D000BF012088490860A1
:101F700000BF05E000BF00208549086000BF00BF2A
:101F800000BF002082490839086000BF6006040EC7
:101F900000BF0120086000BF681CC5B2082DE0DB4F
:101FA00000BF01207A49091F086000BF642000F0CB
:101FB00018F900BF00207649091F086000BF70BDF6
:101FC0007FB506460D4669463046FFF7BDFD04461F
:101FD00003E0202069460855641C062CF9D3002232
:101FE0002046641C69460A542846FFF75BFD684694
:101FF000FFF758FD67A0FFF755FD7FBD7FB504468D
:102000000D462846FFF74EFDF020204006096248A5
:10201000815D684601702607360F5F48815D68461E
:10202000417000218170FFF73DFD5AA0FFF73AFD96
:102030007FBD7FB504460D462846FFF733FDF020EF
:10204000204006095548815D684601702607360F15
:102050005248815D6846417000218170FFF722FD82
:102060007FBD7FB504460E463046FFF71BFD250FAA
:102070004B48415D684601700F2000062040050E68
:102080004748415D684641700F2000052040050D1E
:102090004348415D684681700F2000042040050CD4
:1020A0003F48415D6846C1700F2000032040050B8A
:1020B0003B48415D684601710F2000022040050A3F
:1020C0003748415D68464171F02020400509344899
:1020D000415D6846817125072D0F3148415D684695
:1020E000C17100210172FFF7DDFC2AA0FFF7DAFCC5
:1020F0007FBD10B5002819DA2A4A03071B0F083BD9
:102100009B089B00D2588307DC0EFF23A3409A4311
:102110008B071B0E8407E40EA3401A43214B0407D0
:10212000240F083CA408A4001A5118E01E4A0323F7
:102130001B02D21883089B00D2588307DC0EFF23B2
:10214000A3409A438B071B0E8407E40EA3401A4357
:10215000154B032424021B198408A4001A5110BD36
:1021600042680A43426070470000054011080000C1
:102170000406002004070020200000201C0000208E
:1021800028000020240000202C0000209A6E00006F
:10219000CC4200500D0A0000AA6E0000BA6E00008A
:1021A000CA6E00001CED00E000E100E010B504463E
:1021B0002002000A401EC44948610321081F00F0A4
:1021C0003DF90020C04988611020C04909693822C2
:1021D00091430143BD4A116100BF0320BA49086120
:1021E00010BD0DE0401E0021B94A116004E0B8495D
:1021F0000968491CB64A1160B54909680529F6D332
:102200000028EFD1704710B50446B24800680019A5
:10221000B149086009E000F048F900F04EF900BF4C
:102220000020AE49086000BF00BFAB480068A94964
:1022300009688842EFD210BD10B504460020A249BB
:10224000886100BF00BF00BF00BF00BF00BF00BF6C
:1022500000BFA048006800199F49086009E000F02D
:1022600024F900F02AF900BF00209C49086000BF53
:1022700000BF99480068974909688842EFD810BDA7
:1022800010B594480068401C9249086000242FE073
:102290000C206043924940184078002827D00C2039
:1022A000604340184068002809D00C206043401863
:1022B0004068401E0C216143894A891848600C20FF
:1022C0006043874940184068002810D10C206043C3
:1022D000085C00280BD00C20604340188068002860
:1022E00005D00C2161437E4A891888688047641CA8
:1022F0000A2CCDD300BF7B48006A0121C9020843E4
:102300007849086200BF00F059FE10BD10B50024E6
:1023100024E00C20604372494018407800281CD00B
:102320000C20604340184068002816D10C20604300
:10233000085C002811D100210C206043684A8018F5
:1023400041700C206043114640188068002804D07A
:102350000C216143891888688047641C0A2CD8D3F3
:1023600010BD002015E000220C2141435C4B5A5463
:102370000C214143C9184A700C214143C9188A7085
:102380000C214143C9184A600C214143C9188A6095
:10239000401C0A28E7D37047002110E00C20484376
:1023A0004F4A80188078002807D101220C2048432A
:1023B0004B4BC018827008467047481CC1B20A29AE
:1023C000ECDBFF20F8E7002013E000BF00220C2127
:1023D0004143434BC9184A7000BF00BF0C21414321
:1023E000C9188A600C214143C9188A7000BF411C7A
:1023F000C8B20A28E9DB704770B5334C246902255E
:10240000AC43314D2C6100BF00BF0C244443344D1C
:102410002A550C244443641961600C244443641914
:10242000A36001250C2444432D4EA4196570264C4D
:10243000246902252C43244D2C6170BD10B5002861
:1024400019DA294A03071B0F083B9B089B00D25847
:102450008307DC0EFF23A3409A438B071B0E8407E0
:10246000E40EA3401A43204B0407240F083CA408A1
:10247000A4001A5118E01D4A03231B02D218830836
:102480009B00D2588307DC0EFF23A3409A438B079F
:102490001B0E8407E40EA3401A43144B03242402AA
:1024A0001B198408A4001A5110BD59200B4908605B
:1024B000162008608820086070470D4800680121D8
:1024C00008430B490860704700E000E0000200503C
:1024D000400000203C00002044000020000100508B
:1024E0000409002000000E401CED00E000E100E0C7
:1024F00000400040704770477047704710B5044671
:10250000552C06D0582C05D05C2C07D05D2C0DD155
:1025100008E00CE007A0FFF7C5FA08E009A0FFF704
:10252000C1FA04E00BA0FFF7BDFA00E000BF00BF56
:1025300010BD7047504F574552204B455920696E8A
:102540000D0A0000494E43204B455920696E0D0A83
:1025500000000000444543204B455920696E0D0A98
:10256000000000000120000705210907C968014398
:1025700005221207D1601146C9688143D16000BFAE
:102580000020FC4949690C2291430143F94A5161F9
:1025900000BF2C2011468969FF2212049143421E7C
:1025A00012041143F34A916100BFD00411468968B7
:1025B0000143916000BF70471CB50446EE480121FD
:1025C00002230A46009101905021EC4800F0CFFC14
:1025D000E9494C7000208870A22008700021E7486B
:1025E00000F08CFD00BFE4480078A228FBD0E24850
:1025F00080781CBDE048007870477CB504460D46E5
:10260000DD48012100910190681CC3B20A465021A7
:10261000DA4800F0ACFCD8494C7000208870A22049
:1026200008700021D54800F069FD00BFD24800784D
:10263000A228FBD0D0480078A02801D101207CBD81
:102640000020FCE77CB504460D46CB48012102235F
:102650000022009101905021C84800F088FCC64932
:102660004D708C70A22008700021C44800F046FD17
:1026700000BFC1480078A228FBD0BF480078A0283E
:1026800001D101207CBD0020FCE77CB504460D464D
:10269000012001940090681CC3B200225021B74869
:1026A00000F065FCA22020700021B44800F026FD57
:1026B00000BF2078A228FCD02078A02801D10120DA
:1026C0007CBD0020FCE710B5002408E06200AC4BA4
:1026D000995C6200D2185078FFF7B4FF641C2E2C6E
:1026E000F4D310BD704710B5C9210020FFF7AAFF31
:1026F0003220FFF788FD10BD10B5C9210220FFF779
:10270000A1FF3220FFF77FFD10BD10B50446212147
:102710002046FFF797FF10BD10B5CE21AA20FFF786
:1027200091FF10BD70B50025002600209549087066
:10273000002412E094480057052802DA002092494C
:10274000085591480057A84203DD8E490C708E4809
:1027500005578D4800578619641C062CEADBA80033
:1027600028184010B04201DB0A2D01DAFF2070BDAD
:102770008448007800281DD1052084490870012074
:10278000834908708048097840567F497F4A12780B
:102790008956884205DD00207C4908707D49086023
:1027A00053E000207A49087005207849087079497B
:1027B00008604AE07348007805281DD10420734959
:1027C00008700020724908706F48097840566E49B9
:1027D0006E4A12788956884205DD05206B490870DB
:1027E0006C49086031E00520694908700420674998
:1027F00008706849086028E062480078401E634914
:10280000087060480078401C614908705E4809788B
:1028100040565D495D4A12788956884208DD59481C
:1028200000785A490870574800785A4908600CE007
:10283000544800785649087052480078401E534961
:10284000087008460078534908604F485049097895
:10285000405614214843504908604B484C4A12786E
:102860008056494A494B1B78D25681184A4800681D
:1028700004F0B4FA48490860464800681421484307
:1028800045490968401872E7552044490870444892
:102890000078552804D00520C0434249086018E05C
:1028A00040480068401C3F490860012804DA3E485F
:1028B00000783E4908700CE000203A4908603B4827
:1028C000007839490978884203D13748007833497C
:1028D00008703248007870475520334908703049F5
:1028E00008707047704710B52D480078FFF702FE5A
:1028F00010BD7FB506460D4669463046FFF724F900
:10290000044603E0202069460855641C062CF9D3D0
:1029100000222046641C69460A542846FFF7C2F884
:102920006846FFF7BFF87FBD6420704720480078F5
:10293000002804D000201E490870012070470020A4
:10294000FCE710B555201849087000201849087098
:102950000320FFF731FE174908700520FFF753FCED
:10296000C020FFF729FE14A112480078FFF728FBCA
:1029700010BD0000000200508C0900207C090020DE
:102980009A000020140100203001002015010020D1
:1029900016010020100100200C010020660000201C
:1029A0006500002018010020380100201C010020D3
:1029B0003A01002039010020206B657920000000D9
:1029C000F9480078552806D1F8490870F849087088
:1029D000F84908702DE0F7480078F34909788842F3
:1029E00003D15520F149087023E0F14800785528BB
:1029F00009D1ED480078EE4908705520EB49087080
:102A0000EC49087015E0EA480078E74909788842FF
:102A100006D1E5480078E5490870E649087008E005
:102A2000E1480078E24908705520E0490870E14922
:102A30000870DE480078704710B5DC480078FFF772
:102A40005DFD10BD704710B5FFF7BAFFD74908709C
:102A5000FFF71AFFD8490870D8480078002807D037
:102A6000012802D002280FD108E0FFF7E5FF0FE0B0
:102A7000D3A0FFF717F8FFF735FF09E0D1A0FFF764
:102A800011F8FFF730FF03E0CFA0FFF70BF800BF0E
:102A900000BFCE4B00221E21CD480078FFF7ACFCD2
:102AA00010BD10B500BF05200007C06B1021084302
:102AB00005210907C863C748406901210905084382
:102AC000C449486100BF04200021C34A1268440081
:102AD0000323A3409A4344000B46A3401A43BE4B32
:102AE0001A6000BF00BF1946496802461032012330
:102AF00093401943B84A516000BF0820B749096A9A
:102B00000C2291430143B54A116200BF102000F02E
:102B1000FDF9FF20813000F0F9F900BFAF48006AED
:102B200001210843AD49086200BF10BD10B5FFF791
:102B3000B8FF02211D2000F0AAF9FDF7F8FB0020E4
:102B4000A7490860FFF728FCA14908709F4B0022A5
:102B50001E219F480078FFF74FFC10BD10B50446BA
:102B6000A0480088844203DD9E480088201A02E0C5
:102B70009C480088001B732807DD00209A490880C4
:102B80009A4908809748048010BD98480088001929
:102B9000964908809348048093480088401C80B27E
:102BA0009149088008285AD1002008808F48008861
:102BB000C0108E490880084600887D21C9008842DF
:102BC00003DD55207849087028E088480088884946
:102BD000884203DD5520744908701FE0834800884F
:102BE00083496439884203DD59206F49087015E034
:102BF0007E4800887E49C839884203DD55206A49ED
:102C000008700BE0794800887A49884203DD5A2031
:102C10006549087002E055206349087062480078F1
:102C200075490870754800F077F9002802D15820DE
:102C30005D4908707148001D00F06EF9002802D14E
:102C40005D20594908706D48083000F065F900288A
:102C500002D15C205449087000206449088000BFFC
:102C600092E71CB504466648012102230A460091FA
:102C70000190A021634800F07AF961494C7000206E
:102C80008870A220087000215E4800F037FA00BF6B
:102C90005B480078A228FBD0594880781CBD7CB5E1
:102CA00004460D465648012102230022009101905E
:102CB000A021544800F05BF951494D708C70A2205E
:102CC000087000214F4800F019FA00BF4C48007806
:102CD000A228FBD04A480078A02801D101207CBD61
:102CE0000020FCE710B5044647480078002812D0C1
:102CF0004248203000F010F900280CD142490870F9
:102D00000A20FFF780FA3D48203000F005F900283E
:102D100009D1012010BD3948203000F0FDF801280C
:102D200001D1394908700020F4E71CB50446374842
:102D3000012102230A4600910190D621344800F077
:102D400016F932494C7000208870A22008700021CA
:102D50002F4800F0D3F900BF2C480078A228FBD000
:102D60002A4880781CBD7CB504460D4627480121C1
:102D70000223002200910190D621254800F0F7F8A7
:102D800022494D708C70A22008700021204800F06C
:102D9000B5F900BF1D480078A228FBD01B48007879
:102DA000A02837D101207CBD6E00002065000020E6
:102DB0001E0100201D010020660000206505002086
:102DC000747300007373000073660000472A0000EC
:102DD0006700002040000050C040005000000E403E
:102DE00084000020680000206A0000206C000020A1
:102DF00052030000260200006F000020A042005095
:102E0000450100209C0900201F01002048010020EE
:102E1000AC09002000207CBD10B5002401204049F1
:102E2000086300BF072000F069F83E4909684018B0
:102E30003C490860042000F061F83B4909684018EB
:102E400039490860394801680068401C374A1060F9
:102E500001208002814216D30020114608603148CB
:102E60000068800A2F4908602F480068800A2E49B0
:102E7000086009682E4A514308462A49096803F048
:102E8000ADFF2C4908602046FFF768FE10BD10B565
:102E9000002819DA284A03071B0F083B9B089B00F0
:102EA000D2588307DC0EFF23A3409A438B071B0EE7
:102EB0008407E40EA3401A431F4B0407240F083C69
:102EC000A408A4001A5118E01C4A03231B02D218BC
:102ED00083089B00D2588307DC0EFF23A3409A434C
:102EE0008B071B0E8407E40EA3401A43134B0324E5
:102EF00024021B198408A4001A5110BD0146880041
:102F0000074A801800688005800D70470449496AA7
:102F10000143034A51627047014608687047000048
:102F200000000E4024010020280100202001002084
:102F3000E20400002C0100201CED00E000E100E0B4
:102F400030B503684D000324AC40A3434D00144644
:102F5000AC402343036030BDA020FE490870002030
:102F6000FD490860FD490860FD490860704770B57B
:102F7000059D049C017042708370C470047185606B
:102F80000026C66070BDF4480068002804D1F449EA
:102F90000860F24908607047EF480068F04908602F
:102FA000ED480068C068EC490860084600680028E1
:102FB00002D10860E949086000BFECE710B5E548B8
:102FC0000078A02806D0A12847D0A2287ED0A32828
:102FD0007DD112E0FFF7D7FFE148006800280BD051
:102FE000A220DC490870DF4800F01AFCDD4800F040
:102FF0003BFC0020DC4908607AE0DB480068401CAC
:10300000D9490860012817D9D5480068002804D09C
:10301000A320D349096889680870FFF7B4FFA0208E
:10302000CC490870CE480068002815D0A22008704E
:10303000CC4800F0F5FB0FE0C948006800280BD031
:10304000C74800680079C6490968C870A220C1490C
:103050000870C44800F0E4FB4AE0C24800F0ECFB12
:10306000FF200130C14989688143C04A916000BF97
:1030700000BF05210907C968014305221207D16075
:103080001146C9688143D16000BF00BFB749896854
:103090000143B64A916000BFB548B249096901438E
:1030A000B04A116100BF00BF1046006840210843CC
:1030B0001146086000BF00BF084600688021084331
:1030C0001146086000BFA320A24901E002E00EE023
:1030D00008700DE0A7480068401CA6490860142845
:1030E00003D9A1209B49087000E010BD00E000BF9B
:1030F00000BF00209F49086000BFF6E770B5044696
:103100000D4697480068844207D19548006880685A
:103110000078A02801D0002070BD2079E0708F4891
:103120000068002820D0002D0DD08B480068844214
:1031300001D10020F0E788480068E060864804601C
:10314000FFF73CFF17E085480068844204D18248BD
:103150000068002800D108E080480068C4607F480B
:1031600004600020E06006E000BF7B4804607B480C
:1031700004600020E0600120CEE710B500BF794870
:103180004069C007C00F002811D0764800F071FBDD
:1031900000BF74484069012108437249486100BF7B
:1031A000084600F044FBA3206A49087010BD00BF28
:1031B0006C48C46800BF6A4800680078C007C00F48
:1031C00000D07AE0082C06D0182C0ED0282C21D064
:1031D000382C68D15DE0624800680178614800F0F1
:1031E00041FB604800F02DFBE0E75D480068C278D5
:1031F0005B480068C078401C594B1B68D870584821
:1032000000688068815C574800F02CFB554800F04E
:1032100018FBCBE752480068407801280BD1504892
:1032200000680078012108434D49096808704D483D
:1032300000F0F6FABAE74A48006880784849096819
:10324000C978884210DA474800F0F1FA454800F0A2
:1032500010FBA0203F49087041490968896808703F
:1032600000203F490860A1E73D480068C2783C481B
:103270000068C078401C3A4B1B68D870384800681A
:103280008068815C374800F0EDFA364800F0D9FAE2
:103290008CE7344800F0CBFA324800F0EAFAA1207B
:1032A0002C49087082E72F4800F0C1FA2D4800F041
:1032B000E0FAA3202749087078E7482C1AD006DCEA
:1032C000082C0AD0102C07D0402C6FD119E0502CBC
:1032D0006ED0582CF9D127E000BF21480068007853
:1032E0000122104301461F4800F0BCFA1D4800F0BF
:1032F000A8FA5BE71B4800F09AFAA320154908706A
:1033000054E717480068807815490968C9788842E9
:1033100003DD144800F09CFA02E0124800F09DFA28
:10332000104800F08EFA41E700BF0E488068C1B235
:103330000B480068C2780A480068C078401C084BF7
:103340001B68D8700648006880688154054800F002
:103350006EFA11E0520100205401002058010020B3
:103360005C010020000002406001002000020050CB
:1033700050C3000064010020FB4800688078FA49CF
:103380000968C97888420ADAA020F8490870F64925
:103390000968896808700020F349086005E0A320E7
:1033A000F24908700020F0490860FFE625E0FFE7D9
:1033B00000BFEF488068C1B2EB480068C278EA48B5
:1033C0000068C078401CE84B1B68D870E64800686D
:1033D00080688154E44800688078E3490968C978C6
:1033E000884203DDE24800F033FA02E0E04800F0F2
:1033F00034FADF4800F025FAD8E6DD4800F017FA85
:10340000A320DA49087000BFD0E610B502220321DC
:10341000D848FFF795FD02221146D648FFF790FDE8
:1034200000BFD54840680C210843D349486008468E
:1034300040690F2109068843052149064018CE49F5
:10344000486100BF0221122000F0ADF90122CB49F2
:10345000C748FDF793F800BFC548406902210843FB
:10346000C349486100BF084600F0FEF910BD10B521
:1034700004462046FEF7B5FE10BD08B5C04800F072
:10348000CCF90620FFF7F3FFBD48001F00F0C2F99A
:103490000620FFF7ECFFBA4800F0BCF90320FFF765
:1034A000E6FF00BFB648001F006800900320FFF74A
:1034B000DEFFB34800F0B1F90620FFF7D8FF00980F
:1034C00008BD10B5AE4800F0A8F90320FFF7CFFF04
:1034D000AB48001F00F0A1F90320FFF7C8FFA84880
:1034E00000F098F90620FFF7C2FFA54800F095F913
:1034F0000620FFF7BCFFA248001F00F08BF9032055
:10350000FFF7B5FF10BD10B59D4800F086F9032008
:10351000FFF7ADFF9A48001F00F07CF90320FFF78A
:10352000A6FF974800F076F90620FFF7A0FF944821
:1035300000F073F90620FFF79AFF9148001F00F092
:1035400069F90320FFF793FF10BD10B58C4800F018
:1035500064F90620FFF78BFF8948001F00F05AF935
:103560003C20FFF784FF864800F054F90620FFF75F
:103570007EFF8348001F00F050F90620FFF777FF19
:103580007F4800F04AF90620FFF771FF10BD10B523
:103590007B48001F00F041F90620FFF768FF7848DC
:1035A00000F038F90620FFF762FF7548001F00F0B1
:1035B00031F90620FFF75BFF10BD70B50646802489
:1035C00000251CE06E4800F028F90320FFF74FFFAC
:1035D0003046204204D06A48001F00F01BF903E087
:1035E0006748001F00F019F90320FFF740FF644807
:1035F00000F010F90620FFF73AFF64106D1C082D4B
:10360000E0D370BD70B500268024002516E05C482C
:1036100000F003F90620FFF72AFF594800F0FAF8F6
:103620000620FFF724FF00BF5548001F0068002850
:1036300002D030462043064664106D1C082DE6D3A8
:10364000304670BD10B50446494800F0F5F84848CA
:1036500000F00FF9484840680C218843464948600B
:10366000084640690F210906884343494861444898
:10367000001F00F0CFF8424800F0CCF802221146BB
:103680003C48FFF75DFC022203213A48FFF758FC53
:103690000A20FFF7ECFE3A48001F00F0BEF81420A5
:1036A000FFF7E5FE2046FFF788FFFFF7E6FE00285C
:1036B00001D0012010BD0020FCE7F8B505460E46FC
:1036C000174600202F4908602F480078FFF7BAFFFF
:1036D000002861D10A20FFF7CAFEFF21090231400C
:1036E000080AFFF76AFFFFF7C8FE012804D1254941
:1036F0000860FFF74CFFF8BD0A20FFF7B8FEF0B2F4
:10370000FFF75BFFFFF7B9FE012804D11D490860F0
:10371000FFF73DFFEFE70A20FFF7A9FEFFF715FFD0
:1037200019490978012211430846FFF746FFFFF7C0
:10373000A4FE00282AD1002408E0FA20FFF797FE13
:10374000FFF760FF2855FFF7BCFE641C781EA042FF
:10375000F3D8FA20FFF78BFEFFF754FF2855FFF749
:10376000D2FEFFF714FFC6E75C01002052010020E3
:1037700000000240404100504000005050C3000093
:103780004C4300504C0100205001002001203B49D7
:103790000860FFF7FCFE04E0012038490860FFF7ED
:1037A000F6FE00BFA7E710B5002819DA344A030770
:1037B0001B0F083B9B089B00D2588307DC0EFF239E
:1037C000A3409A438B071B0E8407E40EA3401A43C1
:1037D0002B4B0407240F083CA408A4001A5118E03E
:1037E000284A03231B02D21883089B00D258830760
:1037F000DC0EFF23A3409A438B071B0E8407E40EC5
:10380000A3401A431F4B032424021B198408A4005D
:103810001A5110BD012101607047002101607047FD
:10382000016810229143282211430160704701680A
:1038300018221143016070470168402291430160E2
:10384000704701683022914308221143016070479C
:10385000016804221143016070470168042291430A
:1038600001607047816070474169042211434161E2
:103870007047416904229143416170474C01002027
:103880001CED00E000E100E0826901238B409A43D7
:103890008261C369C54A8A409343C36170477047D8
:1038A0007047704770477047704710B50020C04997
:1038B00049690722120291430143BD4A516100BF89
:1038C000D3040A221521BB48FDF704FC0121490756
:1038D000B848FDF757FC00BFB648006801218907CA
:1038E0000843B449086000BF10BD5520B2490860C4
:1038F000704770477047B1480078002802D0012017
:10390000AE4908707047704710B5ADA0FEF7CAF811
:10391000AE4800680821084209D000F025F9AB48FC
:10392000006808210843A949086000F025F910BD86
:1039300010B5012203210520FDF782FC00F014F9E7
:1039400000F02CF900F01CF900F021F900BF9F48AD
:103950000068102188439D49086000BF00BF0846E9
:103960000068022108439949086000BF00F004F98B
:10397000FDF7A0FC10BD10B5002203210620FDF7C5
:103980005FFCFDF797FC00F0EFF800F007F900F09E
:10399000F7F800F0FCF800BF8C48006810210843DD
:1039A0008A49086000BF00BF0846006802218843BA
:1039B0008649086000BF00F0DFF810BD10B500F0C8
:1039C000D3F8022000F0A6FA7D200001FEF71BFCD0
:1039D00000F0D2F810BD10B50A217D4800F0BAF809
:1039E00000280AD001207B4908700A21784800F09D
:1039F000B7F80A217648FFF747FF0F21744840388F
:103A000000F0A8F800280CD00120724908700F219E
:103A10006F48403800F0A4F80F216D484038FFF798
:103A200033FF0B216A48403800F094F8002816D084
:103A30000120684908706848006810218843664979
:103A400008600120654908700B216148403800F08A
:103A500087F861480068102108435F49086010BD7D
:103A600000BF54488068012108435249886000BF64
:103A70005B480068401C5A490860C82801D90020EA
:103A800008605848007801281FD100205549087067
:103A900055480068800055490858514909688842CE
:103AA00009D94B48403880680721090388434849B1
:103AB000403988604CE04648403880680721090357
:103AC000084343494039886042E047480068800025
:103AD0004649085842490968884205D900BF002074
:103AE0004349086000BF05E000BF0120404908606D
:103AF00000BF00BF3F48006880003C490858384973
:103B00000968884206D900BF002039490831086099
:103B100000BF06E000BF012035490831086000BF42
:103B200000BF354800688000304908582C490968B2
:103B3000884206D900BF00202D49091D086000BF3A
:103B400006E000BF01202A49091D086000BF00BF30
:103B5000704770470246106A01238B401840704737
:103B600001228A40026270475920244908601620C9
:103B7000086088200860704700202049086070476E
:103B800012480068802108431049086070470F48B8
:103B90000068042108430D49086070470B4800681D
:103BA0000121084309490860704700000100010035
:103BB0000002005000000140B40100206505002013
:103BC0005744542D2D30312E0D0A00000040004086
:103BD000404000507801002000E100E05400002047
:103BE0002402002042020020C4010020D001002055
:103BF00030420050C8010020CC01002000010050DC
:103C000030B503684D000324AC40A3434D00144677
:103C1000AC402343036030BD00BFFE480068012173
:103C200089078843FB49086000BF704710B500BF93
:103C30000120F949086000BF00BF091D086000BFEE
:103C400000BF091D086000BF01220C21F348FFF7E7
:103C5000D7FF01220D21F148FFF7D2FF01220E21EB
:103C6000EE48FFF7CDFF0020ED4949690722120217
:103C700091430143EA4A516100BFD3040A2215214E
:103C8000E448FDF727FA0221082000F004FA012198
:103C90004907E048FDF776FA00BFDE4800680121D9
:103CA00089070843DB49086000BF10BD0021DD4AD9
:103CB0001160DD4908600621DC4A11600121DC4AFF
:103CC000116070471421D74A1160D7490860072155
:103CD000D64A11600121D64A1160704700B5D34918
:103CE0000868D4490968491CD24A1160C907C90F3C
:103CF0007BD000BF030003F0ABF809F30627486947
:103D00008DBACBDCF3000021CB4A1160CB4A1160A5
:103D1000C4490968491CC34A11601146096827292A
:103D200002D9012111600EE0BE490968142906D9A3
:103D3000BC4909682822511AC14A116003E0B949F7
:103D40000968BF4A1160E3E00021BD4A1160BB4A27
:103D50001160B4490968491CB24A116011460968EA
:103D6000272902D9012111600EE0AE490968142902
:103D700006D9AC4909682822511AAF4A116003E0FC
:103D8000A8490968AC4A1160C2E00021AC4A116040
:103D9000A94A1160A3490968491CA24A1160114649
:103DA0000968142906D9114609682822511AA34A1C
:103DB000116003E09B490968A04A116099490968AC
:103DC000272902D90121974A1160A1E000219C4ACC
:103DD000116094490968491C924A116011460968AA
:103DE000272903D9012111600FE092E08D4909686C
:103DF000142906D98B4909682822511A8F4A116063
:103E000003E0884909688D4A11608C4909688A4A2B
:103E100011607DE083490968491C824A116011469E
:103E20000968412902D90121116016E07D4909681C
:103E30002E2906D97B4909684222511A7F4A11600E
:103E40000BE078490968142903D914217B4A1160D1
:103E500003E074490968794A116078490968764A2B
:103E60001160774A11600121764A117050E06D4966
:103E70000968142902D06C4908683BE7FF216B4AA6
:103E8000116000216A4A116006216F4A11603FE00B
:103E900064490968012902D0634908682AE7FF21BB
:103EA000624A11600021624A11600721664A11606E
:103EB0002EE05C490968491C5A4A1160114609689C
:103EC0003C2902D90121116017E0564909682E29C1
:103ED00007D9544909683D22511A584A11600CE02B
:103EE00015E0504909680F2903D90F21534A116081
:103EF00003E04C490968514A1160504909684E4A2B
:103F000011604F4A116001214E4A117000E000BF5C
:103F100000BF00BD00B5030002F09AFF0A060E20A4
:103F200017454F592A343C610021434A1160434AE6
:103F30001160434A116053E014213F4A116000218F
:103F40003E4A11603E4A11604AE000213A4A11603F
:103F50003A4A116014213A4A116041E00021364A80
:103F600011600A21354A11600021354A116037E09D
:103F70000A21314A11600521304A11600A21304A74
:103F800011602DE014212C4A11602C4A11602C4A3A
:103F9000116025E00021284A1160284A116014218F
:103FA000274A11601CE01421234A11600A21234A88
:103FB00011600021224A116012E014211E4A116092
:103FC00000211E4A116014211D4A116008E01421CD
:103FD000194A1160194A1160194A116000E000BDC8
:103FE00000BF00BFFBE710B500BF0B4838300068CA
:103FF000002801D102F0CEFB14480078002831D10E
:104000001348007801282DD100BF03480C30006808
:1040100000281FE0000001403042005000400050E6
:10402000000200507C020020A00200207802002044
:104030008002002098020020C4010020CC01002052
:10404000C8010020420200208402002068050020F0
:104050007001002003D00020FFF75CFF02E0032086
:10406000FFF758FF274B00221E2127480078FEF754
:10407000C3F910BD10B5FEF78FF923490870084643
:104080000078FF2806D01F4B00221E211E48007812
:10409000FEF7B2F910BD10B5002819DA1B4A030764
:1040A0001B0F083B9B089B00D2588307DC0EFF23A5
:1040B000A3409A438B071B0E8407E40EA3401A43C8
:1040C000124B0407240F083CA408A4001A5118E05E
:1040D0000F4A03231B02D21883089B00D258830780
:1040E000DC0EFF23A3409A438B071B0E8407E40ECC
:1040F000A3401A43064B032424021B198408A4007E
:104100001A5110BDE73F0000360200201CED00E010
:1041100000E100E030B503684D000324AC40A34348
:104120004D001446AC402343036030BD0268F823C1
:104130009A43202901D00B4600E00023DB001A43FC
:104140000260704770B504460D462946F948FFF7EE
:10415000EDFF2146F74800F07CFEF64800F058FEDF
:1041600000BFF44800F059FE0028FAD170BD70B5C8
:10417000054600BF05200007806B0F21084305217D
:1041800009078863EC480069FF21E1310843EA49E7
:10419000086100BF00BF05200007806B89018843CC
:1041A000052109078863E4480069012109050843DE
:1041B000E149086100BF0120E049C9698908890017
:1041C0000143DE4AD16100BF4007114689680143BF
:1041D000916000BF00BF05210907C968014305229E
:1041E0001207D1601146C9688143D16000BF00F059
:1041F000D0FD00F0D6FDD248854203D1032000F067
:10420000D8FD0CE0CF48854203D1062000F0D1FD57
:1042100005E0CD48854202D10C2000F0CAFDE9013D
:10422000CA4802F0DBFD461D0A21304602F0D6FDE9
:10423000441E2046C6494968FF22120291430202E9
:104240001143C34A516000BFC24C202008280ED041
:10425000102809D0182804D020280AD1302004437F
:1042600008E02020044305E01020044302E000BFE2
:1042700000E000BF00BF00BFB548046000BF70BDD4
:1042800010B500F08EFD00BFB14800680221084360
:10429000AF49086000BF00F07CFD00BFAC4800687B
:1042A00004210843AA49086000BF0420FCF78AFBE8
:1042B00001211B2000F036FD10BD7047F8B5074600
:1042C0000D46164600249B4800F0BEFD994800F0BC
:1042D0007EFD984800F0B3FD08210320FFF732FF70
:1042E00018213846FFF72EFF924800F06AFD07E0DC
:1042F0000821FF20FFF726FF8E4800693055641C17
:10430000AC42F5D38B4800F09FFDF8BDF8B50546EB
:104310000C4617460026002C09D02803000B072165
:104320004904884203D3FF200130844201D9002090
:10433000F8BD804800F088FD7E4800F048FD7D48CB
:1043400000F07DFD08210620FFF7FCFE794800F013
:104350007BFD00BF774800F072FD08210220FFF7C7
:10436000F1FE280A00021821FFF7ECFE002604E007
:10437000B85D0821FFF7E6FE761CA642F8D36D482B
:1043800000F062FD6B4800F022FD6A4800F057FD26
:1043900008210420FFF7D6FE664800F055FD654869
:1043A00000F052FD634800F012FD624800F047FD46
:1043B00008210520FFF7C6FE0821FF20FFF7C2FEF7
:1043C0005C480069644908705A4800F03DFD17E0F8
:1043D000584800F039FD574800F0F9FC554800F006
:1043E0002EFD08210520FFF7ADFE0821FF20FFF775
:1043F000A9FE50480069584908704E4800F024FD55
:1044000055480078C007C00FE2D1012090E710B5F1
:1044100000BF05200007406B1021884305210907D4
:104420004863454800690121C903084342490861BE
:1044300000BF00BF05200007406B20210843052175
:10444000090748633C4800690121890408433A4947
:10445000086100BF00BF05200007406B40210843F2
:1044600005210907486334480069012149040843CC
:104470003149086100BF00BF05200007406B802163
:1044800008430521090748632B48006901210904F5
:1044900008432949086100BF00221146254800F061
:1044A000C7FC244800F0CBFC202304220021214833
:1044B000FCF713FB1F4800F0A5FC1E4800F087FC2A
:1044C0001C4800F0C8FC0C211A4800F0ABFC10BDE1
:1044D00000202249086022490860224908602249D8
:1044E0000860224908602249086022490860224980
:1044F0000860224908602249086022490870224960
:104500000860704770B505460A4800F09DFC0948F0
:1045100000F05DFC074800F092FC08210320FFF743
:1045200011FE18212846FFF70DFE024800F049FC55
:10453000002434E00000134040000050000200500E
:1045400080BB0000C05D0000E02E0000B0BFF02B7B
:1045500000001A4001920000C0020020E802002082
:10456000EC020020D8020020DC020020E002002043
:10457000E4020020D0020020D4020020CC0200205F
:10458000C4020020F0020020600300200821FF2068
:10459000FFF7D8FDFA480069FA490855641C2E2C2B
:1045A000F4D3F84800880C38F7490860F5480088CB
:1045B000F6490860002407E06100F248801D405A77
:1045C0006100F34A5052641C142CF5D370BD70473F
:1045D00010B5F04A58210020FFF798FE10BD10B525
:1045E000ED48EC490860012048600102E94881601B
:1045F000EA480168E748C160FFF7EAFF10BD70476D
:1046000010B5FFF7ECFFDE4800F01EFC0020E44987
:104610000870E449086010BD7047024600207047EA
:1046200010B5E148006800287DD11021D448FFF77B
:104630007DFDFF21D24800F00CFCD14800F0E8FBE2
:10464000D9480068401CD849086000BFCC4800F039
:10465000E4FB0028FAD1CA480069D4490860202147
:10466000C748FFF763FDFF21C54800F0F2FBC448CF
:1046700000F0CEFBCD480068000A4000CC4908603D
:10468000CA4800784000C9490860084600684000F0
:10469000BF49085AC7490880C4480068401C400008
:1046A000BB49085AC4490880C14800684000B8495D
:1046B000085AC2490880BE480068401C4000B449FE
:1046C000085ABF49088000BFAD4800F0A6FB00288B
:1046D000FAD1AB480069BB4908602021A848FFF720
:1046E00025FDFF21A64800F0B4FBA54800F090FB93
:1046F000B4480068000CB4490860B248008880B231
:10470000B049086000BF9E4800F087FB0028FAD13E
:104710009B480069AD49086020219948FFF706FDD4
:10472000FF21974800E02BE000F093FB944800F055
:104730006FFBA64800680014A5490860A3480088DC
:1047400000B2A249086000BF8D4800F066FB002857
:10475000FAD18B4800699F49086008460068001438
:104760009D4908609B48008800B29A490860084645
:1047700000689A4908609848006899490860C7E04D
:104780008948006801280DD187480068401C864987
:1047900008608E480068914908608D48006890491B
:1047A0000860B5E080480068401C7F490860084602
:1047B00000687549096888420CD100207A49086070
:1047C00072480068401E714908606E484088401E6B
:1047D0006C4948800821FF20FFF7B4FC6848006955
:1047E00044B27A480068734900228A5E504379498E
:1047F0000968714A0023D35E594340180012774973
:10480000086020116F4909684843744909684018D5
:1048100072490860084600687249884202DD08460D
:104820006E4908606D4800686E49C943884202DAE3
:1048300008466A4908606548006866490860674834
:10484000008800B2614908602006000F80006649B8
:1048500008585C4909684843000A5A4908600846F4
:104860000068102801D210200860564800685F498F
:10487000884202D9084653490860554800684F49A4
:1048800000228A5E5043544909684D4A0023D35E92
:1048900059434018001252490860200140B20411E7
:1048A000494800686043096840184D490860084657
:1048B00000684C49884202DD08464949086048487A
:1048C00000684849C943884202DA084644490860FA
:1048D0003F48006840490860414800683C4908601A
:1048E0002007800E40490858374909684843000AA4
:1048F0003549086008460068102801D21020086079
:10490000314800683949884202D908462E49086072
:1049100010BD70B505460C4621480078012818D115
:104920001848408800286ADD31480068002811D006
:1049300000202F490860294800682E49096840185E
:10494000C0032860264800682B4909684018C00346
:10495000206066E001202649086021480068264959
:1049600008601E48006823490860FFF759FE1B488D
:104970000088000428601A4800880004206050E085
:1049800000001340140A0020640300206803002084
:10499000420A0020BC090020474C534EB8020020B8
:1049A000A40200208405002060030020E80200200B
:1049B000EC0200204C0300204E0300205003002096
:1049C000520300203C03002040030020E0020020AE
:1049D000E40200204403002048030020DC02002001
:1049E000D8020020FF7F0000F4020020FF3F0000FB
:1049F000540300205C03002058030020FFE7F74821
:104A000000F022FA00202860206000F0C2F900F0D7
:104A1000C8F90020F2490870F2490870F248F349D9
:104A2000086070BDFFB581B005460E4617460024EC
:104A3000EA4800F009FAE94800F0C9F9E74800F04F
:104A4000FEF900BF04E0305D0821FFF77BFB641C2A
:104A5000AC42F8DBE14800F0B4F9002409E0082199
:104A6000FF20FFF76FFBDD480069C1B204980155D4
:104A7000641CBC42F3D3D94800F0E6F9002005B02D
:104A8000F0BDFFB581B006460C4617460025002C48
:104A900004D129466D1C684646541AE04020304334
:104AA000C2B229466D1C684642547F2C04DC28465D
:104AB0006D1C69460C540CE0E0B280210843294685
:104AC0006D1C6A4650546004020E28466D1C6946EF
:104AD0000A54A8B23A466946049BFFF7A3FF05B003
:104AE000F0BDF8B506460F4600256B460422394650
:104AF0003046FFF7C6FF032404E028026946095D3B
:104B00004518641E002CF8DA2846F8BD10B50021BF
:104B10000846FFF7E6FF10BDF8B507460D461646F6
:104B20000024AE4800F090F9AC4800F050F9AB48D2
:104B300000F085F908213846FFF704FBA74800F08C
:104B400040F900BF07E00821FF20FFF7FBFAA34868
:104B500000693055641CAC42F5D3A04800F074F9EC
:104B6000F8BDFFB581B005460E461746002400206B
:104B700000909A4800F068F9984800F028F99748A2
:104B800000F05DF900BF05E0305D0821FFF7DAFABB
:104B9000601C84B2AC42F7DB002406E00499085D97
:104BA0000821FFF7CFFA601C84B2BC42F6D38B48D1
:104BB00000F04AF9002005B0F0BDFFB581B006460F
:104BC0000C4617460025002C07D180203043C2B286
:104BD00028466D1C69460A5419E0C0203043C2B211
:104BE00028466D1C69460A547F2C03DC28466D1C40
:104BF0000C540CE0E0B28021084329466D1C6A4643
:104C000050546004020E28466D1C69460A54A8B22E
:104C10003A466946049BFFF7A4FF05B0F0BDF8B51E
:104C200005460E4617460024002000906B4800F011
:104C30000BF96A4800F0CBF8684800F000F98021D1
:104C4000294308460821FFF77DFA644800F0B9F8C7
:104C500000BF08E0385D0821FFF774FA5F4800697B
:104C6000C0B20090641CB442F4D35C4800F0ECF88D
:104C7000F8BD10B5032209215D48FFF74BFA00BFCC
:104C800000205C49086000BFC820FDF7BCFA00BFE7
:104C900001205849086000BF3220FDF7B4FA002215
:104CA00009215348FFF736FA0220FDF7ACFA10BD90
:104CB00010B500221146494800F0BAF8474800F004
:104CC000BEF82023042200214448FBF706FF434896
:104CD00000F098F8414800F07AF8404800F0BBF83E
:104CE0000D213E4800F09EF810BD10B5002211467F
:104CF0003A4800F09DF8394800F0A1F8202304223A
:104D000000213648FBF7E9FE344800F07BF83348D1
:104D100000F05DF8314800F09EF801212F4800F0C6
:104D200081F810BD10B5002819DA334A03071B0FAC
:104D3000083B9B089B00D2588307DC0EFF23A3404F
:104D40009A438B071B0E8407E40EA3401A432A4B99
:104D50000407240F083CA408A4001A5118E0274AAD
:104D600003231B02D21883089B00D2588307DC0E52
:104D7000FF23A3409A438B071B0E8407E40EA34036
:104D80001A431E4B032424021B198408A4001A5141
:104D900010BD1B4800680121C90408431849086078
:104DA00070471748006801218904084314490860C6
:104DB000704713494968C908C9000143104A516046
:104DC000704701680122D2041143016070470168F5
:104DD0000122D2049143016070470000000013409B
:104DE000A402002099000020194600004001002084
:104DF00040400050644200501CED00E000E100E043
:104E000000001A400168012292029143016070473C
:104E10000168012211430160704701460868C0071C
:104E2000C00F70474268120A12020A43426070477C
:104E300010B583680C4614432343836010BD81681A
:104E400001221143816070478168490849008160EF
:104E5000704701627047C16B49004908C1637047E0
:104E60007CB504460D46FA48012102230022009138
:104E700001903821F748FEF77AF8F54844708570BC
:104E8000A220F34908700021F248FEF737F900BF6D
:104E9000EF480078A228FBD0ED4800787CBD1CB517
:104EA0000446EB48012102230A4600910190382173
:104EB000E848FEF75CF8E648447000218170A220C3
:104EC000E34908700021E348FEF718F900BFE04805
:104ED0000078A228FBD0DE480078DD4880781CBD31
:104EE00010B5002414E0582C00D312E0DA4B621CF9
:104EF000995C1A46105DFFF7B3FFA41C00F095FB08
:104F000000F09BFB00BF0020D449086000BF00BF39
:104F1000E9E700BFDF210520FFF7A2FFCC480078BA
:104F200010BD10B5FDF738FACD49087010BD1CB59D
:104F3000002400BF28E0C6494C700021C44881709D
:104F4000A220C34908700846012102230A460091A5
:104F500001903821BF48FEF70AF80021BD48FEF74E
:104F6000CDF800BFBA480078A228FBD0B8488078B6
:104F7000BC49085500F059FB00F05FFB00BF002062
:104F8000B649086000BF641C162CD4D32D20B0494C
:104F900048700021AE488170A220AD4908703820C9
:104FA000AC4908700021AB48FEF7A8F800BFA8483C
:104FB0000078A228FBD0A6488078AA4988751CBD35
:104FC00070B505460E463F2D03D83F2E01D8B54299
:104FD00000D970BD2C4620E000213120FFF740FFB2
:104FE000E1B21620FFF73CFFA0009F4941189F48FF
:104FF0000968016081781720FFF732FF9B484178EC
:105000001820FFF72DFF994801781920FFF728FF96
:1050100001212620FFF724FF641CB442DCD900BF25
:10502000D7E7F8B505460F46164600240021312083
:10503000FFF716FFE9B21620FFF712FF1DE0A000F0
:1050400081198A4809680160024691786200A218B5
:105050001732D0B2FFF704FF844A51786200A218D9
:105060001832D0B2FFF7FCFE804A11786200A21815
:105070001932D0B2FFF7F4FE641C052CDFD30221F5
:105080002620FFF7EDFEF8BD10B50024704800782B
:10509000A02855D16E48807875490978884200D19A
:1050A0003FE028E06A48817872480068401E704AF4
:1050B000105C814212DA6648807811466D4A1268A7
:1050C000895C88420ADB6B480068401E6849095CBD
:1050D0005F48817067480068441E10E065480068BA
:1050E000012803D120206349044608606148006814
:1050F000401E604908605F4800680028D2D100BFA8
:105100005C48006801280BD81F205A4904460860F3
:10511000594B0022032159480078FDF76DF910BD65
:1051200000BF5748015D0A20FFF79AFE5448015D11
:105130000920FFF795FE4E48015D0820FFF790FE1D
:105140004D4B002203214D480078FDF755F900BF73
:10515000E5E710B500243E480078A02836D1454840
:1051600000681F2803D3002042490446086019E064
:10517000374880783E493F4A1268895C88420CDC97
:10518000334881783A4A3B480068401C105C8142B1
:1051900003DD38480068441C08E036480068401CBD
:1051A00034490860334800681F28E1D300BF344801
:1051B000015D0A20FFF754FE3148015D0920FFF729
:1051C0004FFE2B48015D0820FFF74AFE2A4B0022C4
:1051D00003212A480078FDF70FF910BD10B51E21F4
:1051E0000620FFF73DFE10BD10B526480078A02828
:1051F00078D125480078030001F02AFE0BA70708A4
:1052000075A3A5A6581F76A4A7009FE01048807834
:1052100017491E4A1268895C884202DDFFF799FF30
:105220000AE01648007800F00FFA114801780848A3
:10523000817000201649087088E0054881780C4884
:10524000124A1268805C814224DAFFF71DFF2CE0CD
:105250005C0500206C0A00200404002000010050BE
:105260005F0500207C0A00205C040020600500200F
:10527000A40300206C030020E95100006705002012
:10528000C403002080030020830300207C0300204F
:1052900074030020F048007800F0D6F9EF48017858
:1052A000EF4881700020EF4908704FE0EC488078AB
:1052B000EA49ED4A1268895C884209DDEA480068DB
:1052C000EA4908600220EA490870FFF742FF08E057
:1052D000E5480068E54908600820E5490870FFF7DF
:1052E000D3FE33E033E000BFDD488078DB49097846
:1052F000884223D1DE480078032804D1FFF76EFFEF
:10530000FEF7D2FA16E0DB48007801280DD1002024
:10531000D849087000BFD848806840084000D64986
:10532000886000BF0020D54908600220D04908707D
:10533000FFF70FFF0020CB49087001E0FFF7A4FE44
:1053400004E003E002E001E000E000BF13E0CC482D
:105350000078A22807D1CB4B00220121BE4800785B
:10536000FDF74AF807E0A020C54908700020BD49B4
:105370000870C549087010BD00B5BD48007803002D
:1053800001F066FD0B160716080A160916160B0C17
:10539000160000BF00BF00BF00BF00BFAF48B34949
:1053A0000968415CAE4881700120AE49087000E098
:1053B00000BF00BF00BD10B50446AA480078002811
:1053C00003D1B1480078002800D010BDA84804706F
:1053D000FFF7D2FFAB4B002202219F480078FDF778
:1053E0000BF800BFF1E710B5A0480068002801D114
:1053F000A6490860A448007800280AD1A34800689C
:10540000002803D10420FFF7D6FF02E00520FFF7B4
:10541000D2FF10BD10B59E48007800F015F910BD00
:1054200010B504469BA12046FCF7CAFD002C01D014
:10543000212C04D1FF210A20FFF712FD06E0994834
:10544000005D001FC1B20A20FFF70AFD10BD10B5B4
:1054500084480078002803D18B480078002800D0C9
:1054600010BD7F480078A22807D18F4B002202216F
:1054700087480078FCF7C0FFF2E77C480068002806
:105480000CD07A480068401E78490860804800784F
:1054900000F0DAF875480068FFF7C2FF00BFDFE7E9
:1054A00010B570480078002803D1774800780028AC
:1054B00000D010BD6A480078A22807D17B4B00229B
:1054C000022173480078FCF797FFF2E7674800680D
:1054D0001F280CD265480068401C644908606C486D
:1054E000007800F0B1F861480068FFF799FF00BF4D
:1054F000DFE710B510210620FFF7B2FC10BD10B594
:105500005C210520FFF7ACFC10BD10B5DC210520A7
:10551000FFF7A6FC10BD10B518210620FFF7A0FC70
:1055200020210C20FFF79CFC4C4801784C488170EE
:1055300010BD10B510210620FFF792FCC0210C20F1
:10554000FFF78EFC454801784548817010BD5848EA
:1055500000795749C870A02041490870704710B5BC
:10556000044621461320FFF77BFC10BD10B50E202A
:10557000FFF795FC04460220204301460E20FFF76A
:105580006FFC0F20FFF78BFC0446022020430146EE
:105590000F20FFF765FC1020FFF781FC0446022076
:1055A000204301461020FFF75BFC10BD10B50E2014
:1055B000FFF775FC044602222046904301460E2068
:1055C000FFF74EFC0F20FFF76AFC0446022220463C
:1055D000904301460F20FFF743FC1020FFF75FFCCC
:1055E000044602222046904301461020FFF738FC73
:1055F00010BD10B52648007800F026F810BD10B593
:1056000018480078002803D11F480078002801D0EE
:10561000002010BD0220164908701048017810487B
:105620008170FFF7E1FD0120F3E75920214908606F
:10563000162008608820086070471F480068012114
:1056400008431D490860704700220C2141431B4B51
:10565000C9184A707047000067050020A4030020A5
:105660005C05002074030020700300207C030020F0
:1056700083030020A40200200000134084050020C2
:1056800080030020E951000075030020780300200A
:105690005F0500202020566F6C756D657369697A0F
:1056A000653A2000E40300204F540000A15400009C
:1056B0006C0A002000010050004000400409002056
:1056C0000146002901DA484270470846FCE71CB54C
:1056D000394880693949086000BF3948C06839498C
:1056E000086039480968016000BF35484069019089
:1056F00000BF3348406900903448007801284AD1FF
:1057000000200190009030480068C001C00F2E4971
:105710000968C900C90F884207D12A490198086061
:1057200000980190084600680090019800020099D6
:105730004018274908600198002801DD019801E020
:105740000198404200142349096840182149086023
:105750000098002801DD009801E000984042001404
:105760001D49096840181C4908601748007800075F
:10577000C00F0CD014480068C000C00F07D01149FA
:1057800001980860009801900846006800906946FA
:1057900001A8FFF7BEF8009800F00AF8019800F0A1
:1057A00007F81CBD01200D4908607047704770471D
:1057B000034908617047000000E000E0A0050020F8
:1057C00000001A4094050020980500209900002050
:1057D000B0050020B0020020B40200207C050020AB
:1057E00030B503684D000324AC40A3434D0014467C
:1057F000AC402343036030BD10B504462046FCF79F
:10580000F0FC10BD08B5FD4801F02EF90620FFF7A9
:10581000F3FFFA48001F01F024F90620FFF7ECFF20
:10582000F64801F01EF90320FFF7E6FF00BFF3483A
:10583000001F006800900320FFF7DEFFEF4801F033
:1058400013F90620FFF7D8FF009808BD10B5EB4804
:1058500001F00AF90320FFF7CFFFE848001F01F02D
:1058600003F90320FFF7C8FFE44801F0FAF8062027
:10587000FFF7C2FFE14801F0F7F80620FFF7BCFF91
:10588000DE48001F01F0EDF80320FFF7B5FF10BD63
:1058900010B5DA4801F0E8F80320FFF7ADFFD7486C
:1058A000001F01F0DEF80320FFF7A6FFD34801F048
:1058B000D8F80620FFF7A0FFD04801F0D5F8062061
:1058C000FFF79AFFCD48001F01F0CBF80320FFF748
:1058D00093FF10BD10B5C94801F0C6F80620FFF7C8
:1058E0008BFFC648001F01F0BCF83C20FFF784FF87
:1058F000C24801F0B6F80620FFF77EFFBF48001F40
:1059000001F0B2F80620FFF777FFBC4801F0ACF8D1
:105910000620FFF771FF10BD10B5B848001F01F059
:10592000A3F80620FFF768FFB44801F09AF80620B4
:10593000FFF762FFB148001F01F093F80620FFF760
:105940005BFF10BD70B50646802400251CE0AB4807
:1059500001F08AF80320FFF74FFF3046204204D0C1
:10596000A648001F01F07DF803E0A448001F01F0E5
:105970007BF80320FFF740FFA04801F072F80620F3
:10598000FFF73AFF64106D1C082DE0D370BD70B5B1
:1059900000268024002516E0984801F065F80620CE
:1059A000FFF72AFF954801F05CF80620FFF724FF77
:1059B00000BF9248001F0068002802D030462043F4
:1059C000064664106D1C082DE6D3304670BD10B538
:1059D00004468A48001F01F044F8884801F041F865
:1059E00002220A218648FFF7FBFE02220B2184488F
:1059F000FFF7F6FE0120834908600A20FCF7F1FB5F
:105A00007E48001F01F030F81420FFF7F5FE204615
:105A1000FFF798FFFFF7F6FE002801D0012010BD28
:105A20000020FCE7704770B505460E460020764919
:105A300008708020FFF7CBFF00283BD10A20FFF73A
:105A4000DBFEE8B2FFF77EFFFFF7DCFE012804D1A2
:105A50006D490870FFF760FF70BD0A20FFF7CCFEAC
:105A6000FFF738FF8120FFF76DFFFFF7CBFE00281F
:105A70001AD1002409E0FA20FFF7BEFEFFF787FFE6
:105A800062490855FFF7E2FE641C701EA042F2D87E
:105A9000FA20FFF7B1FEFFF77AFF5C490855FFF7E0
:105AA000F7FEFFF739FFD7E7012057490870FFF7E6
:105AB00033FF04E0012054490870FFF72DFF00BFB9
:105AC000CAE7F7B50546164600204F490870802002
:105AD000FFF77DFF00282CD168460079FFF732FFE1
