:020000040000FA
:10000000381E0020D5000000F9000000FB000000B1
:1000100000000000000000000000000000000000E0
:100020000000000000000000000000000D010000C2
:1000300000000000000000000F010000351B000060
:1000400013010000051F0000130100001301000050
:100050002D11000013010000130100001301000026
:10006000451C0000130100001301000013010000F3
:10007000F11C0000791D000013010000CD190000E3
:1000800013010000130100006912000013010000B9
:100090001301000013010000130100001301000010
:1000A000130100001301000035180000C114000006
:1000B000FD180000B501000013010000130100004D
:1000C0000348854600F05AF80048004719540000DC
:1000D000381E002014481549016015490160154972
:1000E0000160154A154911600021016014488047DC
:1000F0001448804714480047FEE706980188134AD1
:10010000914202D1043006907047FEE7FEE7FEE719
:10011000FEE7FEE7ABBE01E000207047002A00D0FA
:1001200010600120704700000001005059000000DD
:10013000160000008800000024000050A55A0000AE
:10014000411C000035600000C1000000ABBE000093
:1001500030B50B46014600202022012409E00D465F
:10016000D5409D4205D31D469540491B25469540E7
:1001700040191546521E002DF1DC30BD064C0125FC
:10018000064E05E02046E36807C82B439847103425
:10019000B442F7D3FFF798FFF86E0000186F000025
:1001A00003498000401800688005800D70470000FA
:1001B00000000E4070B51049012008630020FFF7D1
:1001C000EFFF05460420FFF7EBFF0C4C20630520F2
:1001D000FFF7E6FFA061284601F0F0FFA0790128B3
:1001E00009D1E06A7D21401C0901E062884202D306
:1001F0000020A071E06270BD00000E401C000020D5
:1002000002498A6802438A60704700000002005079
:1002100070B505200007816B8AB0302211438163DD
:100220002148016952061143016120480290E120F2
:100230004002039003200490102000240790012521
:10024000501001950094089005940694642008A924
:100250000871174E6946304600F046FE15480168A1
:100260008022090A0902114301601349304600F057
:1002700029FE124900200C54401C8028FBD30F4952
:10028000002080310C54401C4028FBD30C48002136
:10029000C46084604461C943046141700170856138
:1002A00004620AB070BD000040000050001BB7009F
:1002B000000005400CE400E0110800009815002043
:1002C000A80B002070B500210F4D104C06E02269EC
:1002D0009606B60E521CAB55491C2261435C002B9E
:1002E000F5D120690D218206920EA954401C20618F
:1002F000A069012806D100200549A0614A680220B2
:1003000002434A6070BD000018160020A80B0020B0
:1003100000000540F8B5404D012628783F4F404C7D
:10032000030001F017FE110A164661153C49556C91
:100330001515156C6C15156E15000A2006F0F0FBEE
:100340003878002801D102F07BFC142006F0E8FB8D
:10035000F8BD03F0E1FDE069281841783D2902D19C
:1003600080783038A070A0780128F1D12D48002481
:10037000017838782D4D01432B482D4F00780143EB
:10038000002909D00028E3D002F040FC142006F038
:10039000C7FB2C603E70F8BD02F040FCF6E7E06958
:1003A000281841783D2904D1224982780A700079C1
:1003B000887003F0B1FDF8BD03F0AEFDE0692818C8
:1003C00041783D29F7D180783128F4D16671F8BDA4
:1003D00003F0A2FDE069281881783D29F7D1C178A2
:1003E00030392170407907E003F096FDE069281864
:1003F00041783D29EBD1807830386070F8BD2671A6
:10040000F8BD03F089FDE069281841783D29F7D14E
:1004100080783038E070F8BD581600208B0000203E
:10042000A80B0020B4010020B7010020AC0100207F
:1004300059000020100400200449002008600349EE
:10044000243908600120091F086070477842005075
:100450000449002008600349012024390860091F6D
:100460000860704778420050044900200860034942
:10047000012024390860091F086070477842005045
:1004800010B500F009F80349C96A491CFFF760FE7E
:1004900010BD000000020050F8B51E4D28691E4A2C
:1004A0004407640F0ED01D4B022C0DD0012C0BD035
:1004B000032C2CD01846A9690907090F491CFFF71E
:1004C00047FEF8BD1046F6E715A000680090296ABF
:1004D000002005263604314215D1080300D51A46FE
:1004E00010468A030FD40A04920F6B469B5CCA0520
:1004F0008904D20DC90E921C891C800859435043AF
:10050000FFF726FE8000012CD5D14008D3E705482F
:10051000D1E7000000020050001BB700008051012D
:10052000010202041027000010B501F0B1FA1648CC
:1005300041680322114341601449086801221043B5
:100540000860C868C007C00FFBD011480862CA68BD
:1005500004200242FBD00A690220D208D2000243E2
:100560000A61CA6A012082430243CA6201F022FB87
:10057000084801F0BFFA01F02DFD04F0F9F8024936
:100580000020C031086010BD400000500002005043
:10059000544A00007017000003480068002801D08A
:1005A00000207047012070473C420050034800681B
:1005B000002801D000207047012070473C420050C5
:1005C00003480068002801D00020704701207047D0
:1005D0003C42005003480068002801D000207047CA
:1005E000012070473C42005010B500F01BFD002870
:1005F00000D0012010BD000070B500F013FD0028F0
:1006000003D021213E2005F01DFC03F075FD0025DF
:1006100001247BE04C48005D4019C5B2042C74D124
:1006200049480078002870D1474840784649897881
:1006300088420BD1444880784349C978884205D123
:1006400041484078552801D100F01EF93E484078D5
:100650003D498978884214D13B4880783A49C97825
:1006600088420ED138488078EF280AD100F0DAFCB1
:10067000002806D0354800683549884201D101F08C
:10068000B1F93148407830498978884214D12E48F0
:1006900080782D49C97888420ED12B4880785A2815
:1006A0000AD100F0BFFC002806D02848006828497D
:1006B000884201D101F004FB23484078224989781F
:1006C000884222D1204880781F49C97888421CD1AD
:1006D0001D488078772818D100F0A4FC002814D099
:1006E0001A4800681A4988420FD102F0CBFB00BFBC
:1006F000184800F03FFD00BF02F098FA7D2000018D
:1007000006F00EFA002014490870641C082C81D3EE
:100710000D48007AA84200D070BD08220F490A484F
:10072000401C06F0D3F90E480078002809D107488C
:1007300000680C49884202D103F050FB01E003F04D
:1007400075FA00BFE8E700007C190020940C002037
:10075000AA55000034420050AD0B0020C40C00200C
:10076000B501002055AA000008B500200090012224
:10077000C321684606F022FB03F0BEFC08BD000062
:1007800070B504460D46164602202949087000201F
:1007900048708870C87010200871CF2124484171BA
:1007A0001321817123480088401C81B221480180B7
:1007B0001F484172090A8172C671310A0172C472FE
:1007C00005731D4881791A4841731C490860084621
:1007D0000068C01D08600021154881731748006833
:1007E00000781649096849784018144909688978D9
:1007F000401812490968C9784018104909680979F0
:1008000040180E490968497940180C4909688979E6
:1008100040180A490968C9794018C1B2044881736F
:1008200001780F22401C06F0C9FA03F065FC70BD88
:10083000001A0020A40C0020C40C0020B40C0020DE
:1008400008B5012000900122C321684606F0B6FADF
:1008500003F052FC08BD000010B5002009490870E3
:1008600048708870C87010200871002048715520A9
:100870008871C8710872084601780822401C06F089
:100880009DFA10BD7C19002010B5002009490870A0
:1008900048708870C8701020087100204871662068
:1008A0008871C8710872084601780822401C06F059
:1008B00085FA10BD7C19002070B517480078A02873
:1008C00000D170BD012015490860002420E06100BE
:1008D0001348405A00281AD011483030005D0E49A4
:1008E0000978884213D104210D48183001550D486C
:1008F0000078C1B20A483C30015563000546543DBA
:10090000EA5A0346195D0C3B185D00F01FF9641CA0
:100910000C2CDCD300BFD4E79C0C0020A80C0020DA
:10092000B81900204407002070B514480078A028AA
:1009300000D170BD00241DE061001148405A00281C
:1009400017D00F483030005D0C490978884210D12B
:1009500004210B4818300155012124300155630052
:100960000546543DEA5A0346195D0C3B185D00F0FC
:10097000EDF8641C0C2CDFD300BFDAE79C0C0020E0
:10098000B8190020002003E0052203490A54401C46
:100990000C28F9D370470000DC19002010B500F0D6
:1009A00041FB41480078002873D140480068404925
:1009B00088424FD13F480068401C3E49086000F023
:1009C00059FB3D48007801283AD13C480068401C5A
:1009D0003A490860C007C00F06D039480288394834
:1009E00001780120FFF7CCFE032006F099F8364885
:1009F0000078C007C00F05D03148028800210220CE
:100A0000FFF7BEFE032006F08BF82F480068042194
:100A1000084205D02A48028800210520FFF7B0FED1
:100A2000032006F07DF8284800680221084207D01C
:100A300026480178224802882248007800F086F88B
:100A40001C480068401C1B4908600A2824D908205B
:100A5000086021E002F030FB1D480068012804D145
:100A60000020164908601A49086014480068401CB4
:100A70001249086003280FD90020086003F028FFFE
:100A8000002803D0FFF750FF06E002E0FFF714FF55
:100A900002E00A20074908600E4B00220E490F4869
:100AA000007805F0DDFF10BD8C0C0020940C0020B8
:100AB00055AA0000A00C0020C00C0020BC0C002097
:100AC000CC0C00209C0C0020980C00204407002037
:100AD000A80C00209D090000DC050000AC0C0020E3
:100AE00010B5002403F00AFB1249087003F006FB5E
:100AF0001149087000201149086000BF09E000207A
:100B000061000F4A5052052162000D481830815291
:100B1000641C0A2CF3D3FF200A49887048700870BF
:100B2000094B00227D21C9000248007805F098FF9A
:100B300010BD0000AC0C0020CE0C0020A00C00204A
:100B4000A0190020900C00209D090000F8B5054672
:100B50000E46174602201F49087000204870887012
:100B6000C87010200871CF211A484171132181717A
:100B700019480088401C81B217480180154841720D
:100B8000090A8172C771390A017204201149C872B9
:100B90000846057346730446E41D002181732078DE
:100BA00061784018A1784018E17840182179401800
:100BB00061794018A1794018E1794018C1B2E01F6D
:100BC000817301780F22401C06F0F8F803F094FAC4
:100BD000F8BD0000001A0020A40C002010B5074842
:100BE000016A022291430162816A890705D4C06AC1
:100BF000800702D41D2000F0E1FD10BD00000E4072
:100C0000054807210163016A022211430162034979
:100C1000100708607047000000000E4000E100E08F
:100C2000F7B50D460446FFF72BFC0A214843A900FF
:100C3000FFF78EFA401D0A21FFF78AFA164E451E6D
:100C4000164FB44205D1601500F0FCFEB86861157E
:100C500006E0FF20013000F0F5FEB868FF21013109
:100C60000843B860206928432061029800280DD00D
:100C700020688021084320600948844201D1122065
:100C800002E0B44202D1132000F0B6FD20684021FA
:100C900008432060FEBD000000001240000200502A
:100CA0000000024004498A6802438A600120034927
:100CB000C00608607047000000001A4000E100E034
:100CC000026A0A43026201200149800608607047F7
:100CD00000E100E030B50205120F0124083223467E
:100CE00093400C4A15681D431560026802231A439D
:100CF00002608B680A684D691A430B692B431A43DB
:100D0000224302604A684260CA6882608969C160A1
:100D100030BD0000008F0050FFB52449224F1D4612
:100D2000BA140B014E0181B00446B84202D1886862
:100D300010430AE01E48844202D18868184304E048
:100D40001C48844202D1886830438860BC4201D18B
:100D5000104608E01648844201D1184603E01548C1
:100D6000844205D1304600F076FE202D03D003E00A
:100D7000002005B0F0BD00252068F8218843202D13
:100D800000D10025E9000843206002982168012273
:100D90009204914301432160039821680622914304
:100DA000014321600120E4E70000034000020050FD
:100DB000004003400000134010B5016801225207B3
:100DC0009143016041692022914341610949884270
:100DD00001D1082004E007492031884203D10920CD
:100DE00000F0F6FC10BD0449884201D10A20F7E763
:100DF0000B20F5E7000001400000114010B58268AB
:100E000082608A0004D5026801235B071A430260EE
:100E1000890603D54169202211434161094988426D
:100E200001D1082004E007492031884203D109207C
:100E300000F0ECFC10BD0449884201D10A20F7E71C
:100E40000B20F5E70000014000001140F8B5044612
:100E500011481D4616460F46844201D104200BE07E
:100E60000D482030844201D1082005E00B4884421F
:100E700001D1102000E02020FFF7C2F9A068032173
:100E80000843A060A06901210843A061666004498D
:100E9000E81940182060F8BD000001400000114032
:100EA0000000010210B542688A434260044988424A
:100EB00001D10C2000E00D2000F094FC10BD0000DA
:100EC0000000054042680A434260054A05499042D5
:100ED00002D10120000301E00120400308607047B7
:100EE0000000054000E100E0F8B50546264E0C463E
:100EF00008687169032212069143014371616068B9
:100F0000B1690F2212020002FF38914301380143F8
:100F1000B1611E48854201D1F70101E001277F043C
:100F2000384600F0A1FDB0683843B060A9680620DB
:100F30000143A960E069A968F02291430143A960D7
:100F4000A1692069084361690843E96840221140AA
:100F50000143E9602420005D296A090A090201436E
:100F600029620326206A3607B042E168A06804D1EE
:100F7000FFF7EEF8801E304303E0FFF7E9F80009C1
:100F8000801E68620120F8BD00020050000005408C
:100F900010B500F073FD00F0ADFF012000F018FC6B
:100FA00001490020086010BD0001005010B500F09C
:100FB00065FD08480168082211430160016840226C
:100FC00011430160012000F021FC0349002008606A
:100FD00010BD0000004000400001005070B51546F3
:100FE0000C46064600F04AFD0120FFF709F90A48C1
:100FF0004169890889002143416108483106026836
:1010000007231B029A43090C0A430260E9B24160BC
:1010100003490020086070BD0002005000400040FD
:101020000001005010B50121212004F00BFF03F056
:1010300063F80B480078012801D1002010BD094851
:101040000078CC2803D108480849086006E0054824
:101050000078552802D10648044908600120EDE7D0
:101060008C0C00207C190020AA550000940C002054
:1010700055AA000010B503213F2004F0E3FE1148FB
:1010800000781049497840180E498978884216D16D
:101090000C480078C007C00F0B4908700948407819
:1010A0000421084008498870064840780821084013
:1010B0000549487003488078C007C00FC87003F026
:1010C0001BF810BD7C190020C00C002008B50120C1
:1010D00000900122CA21684605F070FE03F00CF86A
:1010E000FFF750FC08BD000010B50321222004F0DA
:1010F000A9FE03F001F80548007805490870034887
:101100004078887001488078C87010BD7C19002034
:101110001804002008B5002000900122CA2168466A
:1011200005F04CFE02F0E8FF08BD000070B50F4C62
:10113000206A402817D00126300220620B4DC001E2
:10114000403D2862401120620821204600F016F838
:101150000F21284600F012F80A21204600F00EF870
:101160000348C66070BD00F0C1F970BD404000503A
:10117000B401002000210160704700008269012352
:101180008B409A438261C269024B8B409A43C26191
:10119000704700000100010010B5836901248C40F4
:1011A000A343D40F8C4023438361C369044C8C4018
:1011B00052005208A3438A401343C36110BD00008C
:1011C0000100010010B50368490003248C40A343CB
:1011D0008A401343036010BD10B50368490003241F
:1011E0008C40A3438A401343036010BD10B50368CD
:1011F000490003248C40A3438A401343036010BD7D
:1012000010B50368490003248C40A3438A4013436C
:10121000036010BD10B50368490003248C40A3434C
:101220008A401343036010BD30B503684D000324AA
:10123000AC40A3434D001446AC402343036030BD93
:1012400001210160704710B5EFF31084012080F395
:101250001088FFF769F984F3108805F089FC01F024
:101260008FFF03F095FB10BDF8B54D48416904228E
:10127000C907C90F1825A3264A4B002907D0416981
:1012800091434161416901221143416153E0C168C9
:101290008C46D9680C78E707674609D0482F4AD0B2
:1012A00045DC082F4CD0102F4AD0402F43D14AE0C4
:1012B000082F0CD0182F0CD0282F10D00168382FF1
:1012C0002DD02943016041699143416136E084603A
:1012D00040E0CA788C68531CCB70A15C1DE04E784E
:1012E000012E10D08E78CC78A64212D204682C43FE
:1012F0000460446994434461A020187089680870B0
:101300000020D860F8BD012214430C7000F053F89F
:10131000F8BD621C8B68CA70195D81601AE02943B0
:101320000160416991434161A1201870F8BD502FBF
:101330002DD0582F11D00168294301601E70F8BDCF
:1013400001210C43C3E78B78C9788B42016825D90A
:101350001143016000F028F8F8BD8468CA788B68F2
:10136000571CCF709C5402682A4302608878CA7860
:10137000904207D20B48A022027089680A700021AF
:10138000C160F8BD074900200E70C860F8BD8468D0
:10139000CB788D685E1CCE70EC54D4E79143D8E7CF
:1013A000000002409400002001683022914308228E
:1013B00011430160704701681022914328221143B4
:1013C0000160704710B5052104460907886B0F229C
:1013D0001043886323480269FF23E1331A43026103
:1013E0008A6B83019A438A63026983031A43026109
:1013F0001D480122C3699B089B001343C361836896
:10140000020513438360C8681043C860C8689043EE
:10141000C86000F037F800F03FF81448844201D16A
:10142000032008E01248844201D1062003E011485D
:10143000844202D10C2000F04FF8E1010E48FEF783
:1014400087FE401D0A21FEF783FE0C49401E4A68B4
:10145000FF231B029A43000202434A6008480860C7
:1014600010BD0000400000500002005080BB000092
:10147000C05D0000E02E0000B0BFF02B00001A405D
:1014800031920000034801680122D2041143016037
:101490007047000000001A400348016801229204CE
:1014A000114301607047000000001A4003480168C2
:1014B0000122D203914301607047000000001A40EE
:1014C0000349C868034AD061106248694869704797
:1014D00000001A401007002003494A68D208D200D1
:1014E00002434A607047000000001A40F8B55B49AB
:1014F0004020086200F0C4F85948C168594FB868E4
:10150000B960081A0002000A3D6A0446282D00D07E
:10151000281955494118312907D35449411831290F
:1015200003D353494118312900D232304F499539FC
:1015300041183C2909D34B210901411A3C2904D304
:101540004B49953941183C2900D23C384949621829
:101550007D21C9008A4200D22046474941189F296F
:1015600000D2A0306421FEF7F3FD064618287878F3
:101570003BD90090022833D00A213046FEF7E8FD1F
:10158000282820D004DC0B2821D00D2804D10BE022
:10159000292818D0602816D0281938620F20800119
:1015A00086422AD9282027E0282038620220787035
:1015B000C01EF860012038611FE000980128EDD1BD
:1015C00003207870EEE7B8785528F6D1E6E7009862
:1015D0000328E3D12820386201207870B87839E0F8
:1015E000282038620020787007E0022803D10B2EF3
:1015F0000ED0162E1DD0281938627969002906D020
:1016000088001E4A491C1058796100D07CE7F8BD5B
:10161000282038623969F8688843F86049003961E0
:10162000EBD101217970397F491C4907490FF961D4
:101630000DE028203862386940003861DDD1012092
:101640007870387F401C4007400FF861F86800F060
:1016500037F8B87004F07CFBCFE700004040005042
:1016600020001140AC000020E5FBFFFF99F7FFFFD1
:101670004DF3FFFF38CDFFFF5F64FFFF000D00203B
:1016800010B50B48C2680B4B0B4C98698100625037
:10169000002805D00C19403CE46B121B074C62502B
:1016A000401C9861502801D10020986110BD0000B5
:1016B00020001140AC000020400E0020000D002052
:1016C00008B5009068460088FF210902884235D19C
:1016D00069468878C978C943C9B288422ED10121A8
:1016E000294A4C28D1703BD014DC192834D008DCAE
:1016F0000B38030000F02EFC072422282A22262E75
:1017000022002A283ED02C282CD0422830D04A282B
:1017100014D135E08A2831D008DC602818D061283F
:101720000DD06C280BD0822808D11FE08C2815D052
:10173000A22821D0AC2817D0C2281BD0552008BD24
:10174000562008BD5A2008BD582008BD592008BDA4
:10175000572008BD642008BD652008BD682008BD6D
:10176000692008BD6A2008BD6B2008BD6D2008BD3A
:101770006E2008BD6F2008BD702008BD712008BD17
:10178000722008BD732008BDAC00002010B50020F9
:101790000949087048708870C870102008710020CE
:1017A000487177208871C87108720846017808224C
:1017B000401C05F003FB10BD7C190020C106C90EBA
:1017C00001208840014908607047000080E100E086
:1017D000C106C90E01208840014908607047000019
:1017E00080E100E0C106C90E01208840014908607F
:1017F0007047000080E100E0C106C90E012088406A
:10180000014908607047000000E100E0C106C90E10
:1018100001208840014908607047000000E100E0B5
:101820000349C96801228240084610407047000001
:10183000008F0050F8B50120FFF7F2FF00250126C8
:10184000284F002826D0284C0220616A014214D07B
:10185000606205F0C3F9386824490028244806D09E
:10186000C03080088000A0600E603D600DE0800800
:101870008000A0600D603E6007E0606AC007C00F96
:1018800003D00120606202F0E9FE20680121C90551
:10189000084320600220FFF7C3FF002821D0154C29
:1018A0000220616A01420FD0606278680028124805
:1018B00005D0C0308008800060607D600CE080084A
:1018C000800060607E6007E0606AC007C00F03D0E0
:1018D0000120606202F0C2FE20680121C9050843B0
:1018E0002060F8BD48020020008100503807002029
:1018F0003411002000820050B412002010B500F016
:10190000D1F8022003F00AF87D20000105F008F963
:1019100001490020086010BD0001005010B50020F2
:101920000949087048708870C8701020087100203C
:1019300048715A208871C8710872084601780822D7
:10194000401C05F03BFA10BD7C19002010B504487E
:1019500001780448028804480078FFF7F7F810BDC2
:1019600044070020CC0C00209C0C002010B5002067
:101970000949087048708870C870102008710020EC
:101980004871EF208871C8710872084601780822F2
:10199000401C05F013FA10BD7C19002010B5002082
:1019A0000949087048708870C870102008710020BC
:1019B0004871CD208871C8710872084601780822E4
:1019C000401C05F0FBF910BD7C190020704702682F
:1019D000F8239A43202900D10021C9000A4302605C
:1019E0007047000010B500200949087048708870E1
:1019F000C8701020087100204871FE208871C871DD
:101A00000872084601780822401C05F0D7F910BD7D
:101A10007C19002010B500200949087048708870B2
:101A2000C8701020087100204871DC208871C871CE
:101A30000872084601780822401C05F0BFF910BD65
:101A40007C19002005210907CA680243CA60CA68D8
:101A50008243CA60704705210907CA680243CA6009
:101A6000CA688243CA60704705210907CA680243F1
:101A7000CA60CA688243CA6070470000034859219F
:101A8000016016210160882101607047000100504B
:101A900003485921016016210160882101607047C7
:101AA000000100500348592101601621016088217E
:101AB0000160704700010050034859210160162160
:101AC00001608821016070470001005003485921DE
:101AD00001601621016088210160704700010050FB
:101AE0000348592101601621016088210160704777
:101AF0000001005030B50002000A0B49401E486149
:101B00000A48C26903241202120A4B041A43C26132
:101B100000208861064B10201A693825AA43024329
:101B20001A610C6130BD000000E000E004ED00E04F
:101B30000002005070B51A4D2868401C2860194EEC
:101B4000002420460C214843024680194178002990
:101B50000CD04168002902D0491E416006D1B15C19
:101B6000002903D08068002800D08047641C0A2C1C
:101B7000E7D30D48016A0122D2021143016202F04B
:101B80004DFC0A49E8680A688018E860084A286934
:101B90001368C018286100201060086070BD000044
:101BA00028020020BC10002000000E400404002089
:101BB0000804002038B51CA000681C4C0090216A65
:101BC00000202213114216D1080301D5184800E065
:101BD00018488A030FD40A04920F6B469B5CCA050F
:101BE0008904D20DC90E921C891C800859435043A8
:101BF000FEF7AEFA8000104DA86021694907490F31
:101C0000022903D0880029460C310858A169090728
:101C1000090F491CFEF79CFA084928604A108018F1
:101C2000FEF796FA686038BD010202040002005017
:101C300000805101001BB7000000002040420F004F
:101C400070470000F0B51A49886801221043886087
:101C5000184D0023286B401C2863C82800D92B632B
:101C6000686A144E800070363458296B12488C42D2
:101C700001D9036000E00260A86A0F4F8000345869
:101C80000E483F1D00788C4203D9002802D13B60EA
:101C900000E03A60EC6AA4003559074C08348D42E4
:101CA00003D9002800D12360F0BD2260F0BD000000
:101CB00000000140E8000020C4420050B9010020AB
:101CC00010B500200949087048708870C87010204D
:101CD000087100204871A5208871C87108720846F3
:101CE00001780822401C05F069F810BD7C1900201D
:101CF00070B51E4CE069A1151D4D084203D1E06985
:101D0000090108420DD01B4A01239B03A069184218
:101D100024D12168A8684606760E9155401CA8601B
:101D2000F4E7E0690121490208421149096915D027
:101D3000104B012680336869F605884202D2A269F9
:101D400032420CD0884209D162680220824362602C
:101D50000120A8618806800E2861686170BD820636
:101D6000920E9A5C2260401C6861E6E70000054024
:101D7000A80B002098150020F0B54248C169424BDD
:101D800082155C681140621E9446404FDD699A6975
:101D900000294CD1C16901263603314247D14DE0BB
:101DA0003068C0B208280ED05969064609020143BE
:101DB000203E59615E2E03D90A2801D00D2808D192
:101DC0005B2811D014E0002A03D0002D02D06D1E34
:101DD000DD61F0BD521E9A611868401E1860844291
:101DE000F7D360465860F0BD0E04360E1B2EFAD0B5
:101DF0000902274E090CB14203D10146413903299A
:101E0000F1D9E61D1968F936B14201D8FF2A0AD97D
:101E10006D1CDD610D28E6D10021D9611978491EBC
:101E2000C9B27854DDE7CEB2B855491C1960154ED9
:101E3000B069012189030842B2D0F0BDC169012215
:101E400052021142104A9268F7D0124D0126D96809
:101E5000F605914202D2846934420BD09142ECD112
:101E6000446802218C43446001201861D0B298601C
:101E7000D860F0BDCC05E40D2C5D0460491CD96030
:101E8000E7E7000000001540640C00207C160020ED
:101E90005B1B00007C17002010B5012203210520E8
:101EA000FFF79CF8FFF7FEFD0C4C206880210843EB
:101EB000206000F017F82068102188432060206817
:101EC0000221084320602068012108432060FFF7B9
:101ED0006DF803490020086010BD0000004000407C
:101EE000000100500248016804221143016070475C
:101EF0000040004002480168402291430160704761
:101F00000040004010B5FFF7CDFD044801680822ED
:101F10001143016002490020086010BD00400040EC
:101F2000000100500248016801221143016070471E
:101F300000400040024801680122114301607047DF
:101F400000400040024801680122114301607047CF
:101F50000040004030B47446641E2578641CAB42D7
:101F600000D21D46635D5B00E31830BC184702E0F9
:101F700008C8121F08C1002AFAD170477047002014
:101F800001E001C1121F002AFBD1704710B51048B3
:101F9000FFF7F0F8032001F025FE0D48001FFFF7C2
:101FA000E9F8032001F01EFE0948FFF749F9062071
:101FB00001F018FE0648FFF7DDF8062001F012FEDA
:101FC0000348001FFFF73CF9032001F00BFE10BD92
:101FD0002C4200500121090705200007C2680A436E
:101FE000C260C2688A43C260074842690C239A43B0
:101FF00042618269FF231B049A4303021A438261F0
:1020000082680A43826070470002005070B5FEF794
:10201000C3FA0025354C0028206904D00A2800D1D5
:10202000A5621E2003E01E2800D1A5620A202061BF
:1020300000F080FC2E4901260A781043002801D0C8
:102040000D7026E0A06A7D22401CA0622169120169
:10205000514388421ED9FEF79FFA002804D0254834
:102060000068052803D015E001F09AFF12E022482D
:10207000056004F0E3F9642004F030FD1F480660B9
:10208000001D06601D48001F05601D48067004F015
:1020900077FAA5621B4805601B480560216B606BE1
:1020A000401860636169491C616140290ED3800951
:1020B0001649656160630A68154B16499A4209D34F
:1020C0001D225201904202D20220087070BD124AB5
:1020D000904201D20E7070BD032008706079401CE0
:1020E000C0B260710528F6D9657170BD1C00002072
:1020F0005F0000206800002000010020C84200505E
:10210000B9010020340200203802002028020020FB
:1021100088130000CC010020B2030000F8B50521AF
:102120000907C86B01221043C86321484269850230
:102130002A434261CA6B10231A43CA634269860369
:1021400032434261CA6B20231A43CA634169C70301
:1021500039434161174C002201212046FFF732F834
:10216000002211462046FFF72DF8002204212046C8
:10217000FFF728F8002205212046FFF723F86068C2
:102180002843606060683043606060683843606026
:1021900009480821026A0C239A430A430262426AF0
:1021A00031210A434262016A012211430162F8BDF2
:1021B00040000050C040005000000E4010B5394AA9
:1021C0005189884201D9411A00E0091A0023732974
:1021D00003DD9381D381508110BDD189091889B263
:1021E000D18150819089401C80B290810828F3D120
:1021F000C8087D249381E4005521D081A04227D8CE
:10220000D724A400A04223D8CD24A400A04201D901
:1022100058201BE0244CA0421AD8234C283CA04252
:1022200001D9592012E00524E401A04210D84B2422
:10223000E400A04201D95A2008E0FF247D34A042E6
:1022400006D8FF245534A04202D96120D07000E0A6
:10225000D170D078107115480068002801D0562040
:10226000D070D381906912490246B93A1F2A01D22F
:10227000104805E00246FF3A8A3A272A03D20E4860
:102280000078087010BD0D4A82183F2A01D20C4810
:10229000F6E70A4ACC3A80182B2801D20948EFE722
:1022A0000B7010BD1C000020EE02000060420050C8
:1022B000930C0020840C0020850C0020B7FDFFFF4C
:1022C000860C0020870C00200C4B5521D87855280F
:1022D00004D01A7A824204D119700DE01970597233
:1022E00009E05A7A552A04D0824202D11870187235
:1022F00002E0587219701972187870471C0000209B
:102300000D4A552050701078552803D00520C04341
:1023100010620EE0116A0848491C1162C078082951
:1023200001DAD07105E000211162D179814200D13A
:1023300050705078704700001C00002070B5FFF707
:10234000C3FF124C2070FFF7DBFF114D607028783F
:1023500000280CD0012802D0022808D102E001F0A8
:102360004FFC01E001F044FC2878022801D0FFF77F
:102370004DFEE069002802D080470020E061054B57
:1023800000221E21A07804F06BFB70BD1C00002011
:102390008A0000203D23000010B5FFF7BFFE0D4866
:1023A0000168FF22120291430122D203114301600E
:1023B000FEF726FC01F0A2FE074CA07001F09EFE85
:1023C0000649074B087000221E21A07804F048FB44
:1023D00010BD00001CE400E01C000020890000206B
:1023E0003D23000010B5134BDA68904203D1926888
:1023F0001278A02A0AD10279C2709A680024002AB1
:1024000012D0002909D05968884201D1002010BD9E
:10241000C160586002F002F809E0904202D15968A8
:10242000002901D0D06000E058609860C4600120AD
:1024300010BD00009400002010B5FF2100201DE019
:102440004200184B9A5A002A00D181B2164A1288CB
:102450004300144CE35A9A420FD1420023469A5A41
:10246000072A0ADD052344000E4A183213530E4A88
:1024700053790C4A4832135410BD401C0C28DFD34A
:10248000FF290DD0084A12884B00064CE252064A3A
:10249000537922464832535405234C00303A1353A3
:1024A00000BFE9E7A0190020C40C00200749002064
:1024B00008664866086548658865C8658864C864B4
:1024C0004864C863C8708031486270475002002079
:1024D00010B512480178441E2078A22918D06168EE
:1024E0001F2914D2491C61600D4A0421116004F0B7
:1024F000DBFA606800F0AEF9FEF7DEF90948007813
:10250000A02804D00848022201681143016010BDD0
:10251000064B0022022104F0A3FA10BD410700205F
:10252000F40000209C0C0020980C002031250000B5
:1025300010B512480178441E2078A22918D061688D
:10254000002914D0491E61600D4A0421116004F075
:10255000ABFA606800F07EF9FEF7AEF90948007842
:10256000A02804D00848022201681143016010BD70
:10257000064B0022022104F073FA10BD410700202F
:10258000F40000209C0C0020980C00203125000055
:10259000F8B50024204F214D264628194178285DA2
:1025A00000F074F8A41CFFF791FAFFF7C3FC3E603B
:1025B000582CF2D3DF21052000F068F8174D0024D5
:1025C000583D28194178285D00F042F8A41CFFF717
:1025D0007DFAFFF7AFFC3E60582CF2D3DC210520DA
:1025E00000F036F8002428194178285D04F0B6FB85
:1025F000A41CFFF76BFAFFF79DFC3E60582CF2D34A
:10260000DC21052004F0AAFB01F076FD01F076FD47
:102610000249A4390870F8BD00010050E407002009
:1026200010B51E21062000F013F810BD10B57C2156
:10263000052004F093FB10BD03480179C1700349E4
:10264000A02008707047000060150020410700209E
:102650007CB5054601200E460A4C0090022300225C
:1026600038210194084802F069F86570A670A2202C
:10267000207000210448FFF7B5FE2078A228FCD086
:102680007CBD000041070020601500207CB5054698
:1026900001200E460A4C0090022300223A210194A8
:1026A000084802F04BF86570A670A2202070002147
:1026B0000448FFF797FE2078A228FCD07CBD0000DC
:1026C000410700206015002070B50E463F2829D82C
:1026D0003F2E27D8B04225D8044621E000213120E2
:1026E000FFF7B6FFE1B21620FFF7B2FF0E49A000D8
:1026F00041180D480968FC38054681600835A978FD
:102700001720FFF7A5FF69781820FFF7A1FF2978A8
:102710001920FFF79DFF01212620FFF799FF641C78
:10272000B442DBD970BD00003C08002070B50E46F5
:102730003F2828D83F2E26D8B04224D8044620E08F
:102740000021312004F00AFBE1B2162004F006FB60
:102750000D49A00041180D480968054681600835FB
:10276000A978172004F0FAFA6978182004F0F6FA2C
:102770002978192004F0F2FA0121262004F0EEFA5B
:10278000641CB442DCD970BD3C0900204007002025
:1027900070B50E463F2828D83F2E26D8B04224D800
:1027A000044620E000213120FFF770FFE1B216203F
:1027B000FFF76CFF0D49A00041180D480968054658
:1027C00081600835A9781720FFF760FF6978182025
:1027D000FFF75CFF29781920FFF758FF0121262019
:1027E000FFF754FF641CB442DCD970BD3C0A0020E2
:1027F00040070020F8B50546002417462146312041
:10280000FFF744FFE9B21620FFF740FF104EA0008B
:10281000C1190F48096808388160600025182846EA
:102820001730B178C0B2FFF731FF28461830717801
:10283000C0B2FFF72BFF19353178E8B2FFF726FF5A
:10284000641C052CE3D302212620FFF71FFFF8BDEF
:102850004807002070B51F2808D01E2808D01D2862
:1028600009D01C280AD01B280BD010E0194A0AE016
:10287000184A143207E0174A283204E0154A3C325D
:1028800001E0144A503204210020FFF7B3FF124D3B
:102890002C460C3C6068295C082004F05FFA6068F4
:1028A000295C092004F05AFA6068295C0820FFF7C7
:1028B000CFFE6068295C0920FFF7CAFE20466168E8
:1028C0002C30415C0A20FFF7E1FE606803F0BCF8A1
:1028D00070BD00003C0B00204C07002010B51021FB
:1028E0000620FFF7B5FE10BD10B50549A3200870FE
:1028F000022104F0A7FA1E2004F012F910BD000016
:102900009C0C002010B502F05BFE642004F008F976
:102910000749A0200870022104F094FA1E2004F058
:10292000FFF8642004F0FCF804F0F8F910BD000092
:102930009C0C002006480068800A0F2804D805482F
:102940000068800A0F2801D90120704700207047D5
:1029500034020020380200200A4859210160162163
:1029600001608821016003200521090748600648AD
:10297000016889088900891C016005490348C8600D
:10298000FEE700000001005000C000500400FA05FE
:1029900000ED00E0F8B53A4C616CA06B491C616435
:1029A000C9071BD0636B2826FF27591CE26E002540
:1029B00006284FD013DC012828D0022831D0042863
:1029C00039D005280AD1E5626163132940D9701A0C
:1029D000A062272900D96563A06A6062F8BD092852
:1029E00007D0AA2847D0BB28F8D1002B45D01046E5
:1029F000DEE76562E5626163132902D9701AA0629D
:102A000000E0A1622729E9D96563F8BDA562491CE8
:102A1000E5626163132902D9701A6062F2E76162AC
:102A2000F8BDA56265626163132902D9701AE0627C
:102A3000E8E7E162F8BDA5626163132906D9701A5F
:102A4000E062272900D96563E06AC6E7E162FBE737
:102A5000A162C1E76163132902D9701AA06200E084
:102A6000A162252900D96563A06AE06240000321C4
:102A7000FDF76EFBB1E7142BB9D1A763F8BD0000D9
:102A8000E800002000B502A0FDF71CFC00BD00001E
:102A900041542B534F4349414C3D310D0000000040
:102AA00000B502A0FDF70EFC00BD000041542B4D07
:102AB00049433D300000000000B502A0FDF702FCD4
:102AC00000BD000041542B4D49433D310000000042
:102AD00000B502A0FDF7F6FB00BD000041542B53EA
:102AE0004F4349414C3D300D0000000000B502A0AD
:102AF000FDF7E8FB00BD000041542B44464C540058
:102B0000F8B53A4F0022F868BD680146401C85427E
:102B10000CD94B06364C5B0EE35C0D2B04D1400602
:102B2000400E205C0A2802D0891CF960F8BD304BA9
:102B3000891CC0336D1E0EE04806400E9E18205CB6
:102B4000521C70700D2805D1481C4006400E205CB8
:102B50000A2803D0491CA942EED3F8BD244C521ECA
:102B6000C0340020121950702048891CC16021A077
:102B700001F0FCFD601C01F0F9FD1C4E641C0C20F2
:102B80002836844600220C21514389194D6820467D
:102B9000002124E0475C9F4220D0521C6245F2D3C2
:102BA00059201349114AC0310870D0687F280FD9C5
:102BB00014494B685B085B004B604006400ED060D8
:102BC000107A4006400E90604A68012002434A6035
:102BD0000DA003F02FFCFDF79DFBF8BD491C6B5CBD
:102BE000002BD7D10C204243B05CDAE7A80B0020C1
:102BF00098150020425420676574206D73673A2051
:102C000000000000000005400D0A000000B5024869
:102C1000FDF758FB00BD0000DC6E000000B5024867
:102C2000FDF750FB00BD0000F06E000000B502A0F3
:102C3000FDF748FB00BD000041542B4F4646000005
:102C400000B50248FDF73EFB00BD0000E86E000045
:102C500000B502A0FDF736FB00BD000041542B413A
:102C60004744310000B5FDF72DFB00BD00B502A0C3
:102C7000FDF728FB00BD000041542B5645520000D3
:102C8000044800214156032901DD0120704700203E
:102C900070470000A80B002010B5FDF7D1FD0520FE
:102CA00003F03EFF002003F061FB1021062004F03A
:102CB00055F810210620FFF7E9FC10BD10B5FDF70F
:102CC00053FD052003F02CFF012003F04FFB1E21D4
:102CD000062004F043F81E210620FFF7D7FC10BDA4
:102CE000F8B502F06DFC322003F01AFF32480127DC
:102CF00000783249324D0024002807D0314E022896
:102D000011D0032823D0012827D045E02E48047095
:102D10002E4804700F60FFF793FFFDF7A5FB00F04E
:102D20009FF92C7038E02878002805D10C60FFF757
:102D30007DFF142003F0F4FE3460FDF77DFB00F00E
:102D40008FF923480178002926D0047024E03460EC
:102D500000F0F8F800F07EF91EE02878002806D18F
:102D60000C60FFF763FF642003F0DAFE2F7034601D
:102D7000FEF758F9174800681749884205D11748E7
:102D80000078002801D1FEF7C5F9FDF755FB0B4887
:102D90001C30046000F064F9074811490078085CB1
:102DA0001049087001F0BAFD03F0B8FF00F03CF8DC
:102DB000FDF746FDF8BD00008B00002034420050B6
:102DC000880000200001002059000020B4010020EC
:102DD000610C0020940C0020AA550000580000202F
:102DE0008C000020E80000201CB50B49C87001F0E1
:102DF0009BF909490120491D0191009002230022FD
:102E00009021064801F09AFC0648054B0022022159
:102E1000007803F025FE1CBDD0010020AC1000207E
:102E2000F5600000A10B00201CB508490220C87005
:102E3000491D0120019100900223002290210448A5
:102E400001F07CFC03F056F91CBD0000D00100200D
:102E5000AC10002010B50020094908704870887037
:102E6000C870102008710020487122208871C87134
:102E70000872084601780822401C03F09FFF10BD2D
:102E80007C19002010B5002007490860012007497F
:102E90000870FFF725FF064B002206490648007818
:102EA00003F0DEFD10BD0000980C00208B00002018
:102EB0005D3F0000B80B0000CE0C002000B50548B7
:102EC0000078042803D004A0FDF7FCF900BD04A09D
:102ED000FAE70000A80B002041542B4348000000F3
:102EE00041542B435200000010B5134C00220E2118
:102EF0002046FEF78FF9002205212046FEF78AF9C9
:102F0000002204212046FEF785F90C4C0022032103
:102F10002046FEF77FF9002202212046FEF77AF9CB
:102F2000074841680C229143416041690F22120613
:102F30009143416110BD00004040005040410050AD
:102F40004000005010B5D421032000F08FF810BDD0
:102F500010B501F0D3F8034C207001F0CFF8607089
:102F600010BD0000A00B002070B50021022000F071
:102F70007DF8C421032000F079F80421084600F010
:102F800075F84021082000F071F80821092000F0B0
:102F90006DF800210A2000F069F808210B2000F0EC
:102FA00065F804210C2000F061F801F079F9224D58
:102FB0002878002808D0214E002402280AD00328AF
:102FC00011D001281AD02EE0142003F0A9FDFDF73E
:102FD0004BFA26E0FFF72AFE142003F0A1FD34602F
:102FE000FDF72AFA1DE0FFF721FE142003F098FDFB
:102FF0003460FFF7A7FF00F02DF814E0FFF716FE8E
:10300000142003F08DFD3460FEF70CF80C480068C6
:103010000C49884201D1FEF77DF8FDF70DFA0A4808
:10302000046000F01DF809482978405C08490870E0
:1030300001F074FC70BD00008B0000200001002036
:10304000940C0020AA550000504200508C00002033
:10305000E800002010B502210A2000F007F810BD9A
:1030600010B500210A2000F001F810BD7CB505461E
:1030700001200E460D4C0090022300222E210194C7
:103080000B4801F05BFB6570A670A2202070002148
:103090000748FFF7A7F92078A228FCD0FEF720FD0B
:1030A000FEF750FF0349002008607CBDA30B002001
:1030B000881500200001005010B500202E4908603E
:1030C00055E02D48006841002C48405A00283CD06B
:1030D00029480068400029491839085A002834D086
:1030E0002548006841002548405A401E81B22248C8
:1030F000006842002148815224301F490968405C21
:10310000052809D11C48006840001C4918390A5A92
:1031100000210520FDF734FB1848183016490968CE
:10312000405C04281ED1144B1B685B00134C183CF8
:10313000E25A23465433104C2468195D0C3B0E4C64
:103140002468185DFDF702FD0CE000200A490968BB
:1031500049000A4A183A50520021074800684200C4
:103160000648815204480068401C03490860024830
:1031700000680C28A5D310BDB80C0020B819002099
:10318000F8B5002422460A212448FEF743F8244FCC
:10319000384603F0DBFCFDF71DFA2249214A0125E0
:1031A000214E3039002802D1106800280ED0106856
:1031B000002801D01D4805700D60384603F0C6FC9C
:1031C000FDF708FA002823D0356021E016480027D3
:1031D00007600520000740682022104200D05024DC
:1031E0000E46104808380168002909D0052003F070
:1031F00097FCFDF7EFF9002807D00B480560E3E7DF
:103200003760002401680029FCD0641C642CE8D3DA
:10321000FFF75AF8FFF758F8F8BD0000404000509B
:10322000A08601006842005054000020B401002034
:1032300010B500220C49592809D004DC56280FD0BB
:1032400058280CD103E05A2801D0612807D107483B
:1032500003690878034303D0002800D00A7010BD2A
:103260000A7002F0F5FA10BDAF00002058000020EF
:10327000F8B500210C460091552804D0F74A0121E9
:10328000D171F7490C60F749FA4A55380978F64D7B
:10329000F64EF74F12780300FEF75CFE1F20F7F69C
:1032A000F5F4F3202020202020F22020A5FB202070
:1032B00011213A415376898E93979DA120000029D0
:1032C0000CD0EC4E002A06D034700120FFF78CFDA4
:1032D000E94831782FE02878052871D1F8BD002918
:1032E000FCD0E44E002A0AD034700120FFF77CFDA8
:1032F000E1483178405CE149087001F00FFBFFF7CD
:10330000A7FC142003F00CFCFFF780FC142038E02D
:103310000029E3D0D74C032ADDD0032005E00029A3
:10332000DCD0D44C022AD6D0022020700120FFF736
:103330005BFDD1482178405CD049087001F0EEFA7D
:10334000C9E70029CAD0CB4E012A0AD0012030702B
:10335000FFF74AFDC8483178405CC849087001F061
:10336000DDFAFDF75FFE0028B5D0C54800680028EB
:10337000B1D1FFF787FDC3480460FFF757FC7D20FC
:10338000000103F0CDFBA6E70029A7D0BE491F200E
:103390000860FFF75FFAFDF78FFABC480078A028B5
:1033A0009CD0BB480222016811430160F8BD00298E
:1033B000FCD0032028700BE00029F7D00120F9E7AA
:1033C0000FE00029F2D00220F4E70029EED02C70A3
:1033D00003F0F0FBF8BD0029FCD00420EAE7002947
:1033E000F8D00520E6E701F073FA00287CD19D486B
:1033F00000780028EED09949C86A002807D0401EFE
:10340000C86274D0012805D002280CD01EE0082024
:10341000C86298E0032001F081FAFFF727FC6420DE
:1034200003F07EFB17E0052001F078FAFDF7FAFDC6
:10343000002804D0FDF758FE642003F071FB954886
:103440000078002807D134703C7053E003285ED028
:1034500050E001F063FA81480A21808D4843401C06
:103460003070F1E7052854D006285BD0072862D0D9
:10347000082868D00520287003F09CFBE9E208E0EA
:10348000C8E0C8E194E067E01DE24DE230703C70B6
:10349000F8BD01F01DFA0028A8D172480078002874
:1034A000F6D06E486D49C06A08281FD2401CC86219
:1034B0001DD00128AED00228C8D1052001F02EFA77
:1034C000FDF7B0FD002804D0FDF70EFE642003F0E8
:1034D00027FB7048007800280BD060480A21808DB7
:1034E0004843401C307005E00AE200E0CC62022054
:1034F000AFE734705948C06A0428B3D1062001F000
:103500000DFA0320287003F055FB8220BEE704204B
:103510009FE7062001F002FA0120287003F04AFB21
:103520008420B3E7062001F0F9F90220287003F0A7
:1035300041FB8820AAE7062001F0F0F92C7003F087
:1035400039FB9020A2E7062001F0E8F9042028705A
:1035500003F030FBC02099E701F0BAF900289BD1B5
:1035600040480078002893D14B48007800281CD0B0
:103570003A49886A072801D207200AE01E2801D2AA
:10358000401C06E01E2803D02F280BD21E2000E08E
:103590002F208862C11F182901D32F28E3D102F000
:1035A00087FAF8BD2F28F3D1E6E7FEF791FFF8BDC3
:1035B00001F08EF90028D2D12A4800780028F6D1EF
:1035C00035480078002822D02449886A2F2801D95C
:1035D0002F200EE02F2801D01E2801D91E2008E040
:1035E0000246083A172A01D2401E02E007280BD2F1
:1035F00007208862C11F182901D32F28D7D102F0D4
:1036000057FAFF20F53025E20728E1D0F2E7FEF770
:103610008FFFF8BD01F05CF90028A0D111480078B7
:103620000028F6D11C4D2878002855D0022001F042
:1036300075F9042002F03CFAFF20F53003F070FA2F
:103640000E48007801F06AF92C70044CA06AC11F82
:10365000182923D32F283DD029E00000580000204E
:10366000FC000020B70100203C0200200C040020D8
:10367000EB0000208B0000208C000020E8000020E0
:10368000940C002034420050440700209C0C002081
:10369000980C002018040020610C00202F2819D05D
:1036A0001E214843FA494018D238FFF7DBFA7D2043
:1036B000C00003F035FA0620A062FFF7C9FA142013
:1036C00003F02EFAFFF7A2FA142003F029FA0120E2
:1036D0006070F8BDEF48E8E7FDF7A4FC0028F8D0DB
:1036E000ED4F387801F01AF9EC4800780128F0D055
:1036F000EB4E0125B5703078002833D0052001F05D
:103700000DF9302002F0D4F9FF24F534204603F0FF
:1037100007FA387801F002F9204603F001FAE1488F
:103720000068002801D03572F8BD03F069F8002860
:1037300003D101F0BDF80028F6D1FFF78BFB642020
:1037400003F0EEF9FDF710F802F0DCFE7D20C0007A
:1037500003F0E6F9FDF7DEFCFDF720F9D24805702D
:1037600030201CE7FDF75EFCD0480068D049884255
:1037700001D1B470F8BDCF480470302002F098F940
:10378000052001F0CBF8FF20F53003F0C9F93878B7
:1037900001F0C4F8C5480068C749884233D1757242
:1037A000FDF768FCC5480078002825D001F080F8B6
:1037B000002821D0FDF7F2F87D20C00003F0B0F919
:1037C000BF4E306828433060FDF7E8F87D20C00028
:1037D00003F0A6F9FDF77AFC3020346002F068F9B6
:1037E0007D20000103F09CF9FDF7D8F8302002F0AD
:1037F0005FF9FCF7B9FF0AE0FDF768FC7D200001E6
:1038000003F08EF9F2E77D20C00003F089F93878E3
:1038100001F084F8F8BD01F05BF800287ED1A948DA
:1038200000780028F6D1A8480078002802D09C49EA
:103830000720886298490878082804D02D25A34ECF
:10384000092804D021E0A2490120086034E001F0F9
:1038500065F8A04F13E0142003F062F90098401CB3
:103860000090FA280BD98E480121356041709A48A2
:103870000170FFF7CBF9142003F052F902E0387819
:103880005A28E8D00098642816D286483560006827
:10389000002803D1814801788148417100F01CFD66
:1038A0007E4D28700120FFF79FFA8C482978405CF4
:1038B0007949087001F032F87948012181718470EA
:1038C00078480460F8BDFFF7DBF9002819D0744D83
:1038D000E87800280AD0EC70FFF7EEF8142003F027
:1038E000FDF82C71E878012802D0F8BD0120E870BD
:1038F000FFF7D6F8142003F0F1F801202871F8BD85
:103900000CE077493220086076480078002805D11D
:1039100000F0DEFF002804D0FCF7CEFF03F00AFA27
:10392000EDE7FDF701F8F9E75D4D5B486C61AC61CF
:10393000EC612C626C62007800F0F0FF6A4E6B4F15
:10394000FAE0142003F0ECF86969491C69613078E9
:10395000582803D0AC61592807D002E0AA69521C4C
:10396000AA61EC615A2807D002E0EA69521CEA61B8
:103970002C62612805D002E0286A401C28626C6233
:1039800011E0686A401C6862F0280CD94E48017842
:103990000029B4D101210170022000F0BFFF0420F2
:1039A00002F086F8B9E0A869F0281AD90120287039
:1039B000FEF79AFF022000F0B1FF042002F078F831
:1039C00002F03CFDFF20F53003F088F8FDF72AFBFC
:1039D000002894D031480078012890D002F0AEFD44
:1039E0008DE7E869F02838D9FEF78CFF012000F058
:1039F00095FF052002F05CF8FF26F536304603F00F
:103A00006DF8287801280AD12C70642003F088F81A
:103A100002F078FD02F012FD304603F05FF8FDF78A
:103A200001FB1E4C2078012809D12048006822495A
:103A30008842D5D1FCF710FF642003F071F820789C
:103A40000228CDD11948006819498842C8D1FCF72D
:103A50001BFF642003F064F851E7FF20F53081423A
:103A600046D92869002809D0012000F057FF052019
:103A700002F01EF82C61052128694CE0022000F0BC
:103A80004DFF042002F014F805202861F3E7000040
:103A900020040020F0060020E80000208B00002019
:103AA0005800002028010020A60C0020940C0020C3
:103AB000AA550000ED00002055AA0000C00C00200F
:103AC000980C0020B7010020610C00202401002088
:103AD000F80000201F000020B40100208C0000200E
:103AE00004010020D101002020000020604200508D
:103AF000286AFA2820D9334D2878012812D00220CC
:103B000000F00CFF042001F0D3FF01202870FEF725
:103B1000DFFF0721287803F095F9FF20F53002F048
:103B2000DDFFECE6012000F0F9FE052001F0C0FF0A
:103B30002C70FEF7A7FFECE73868002800D000E7FC
:103B400000F0C6FE002801D0FEF7C2FC1E4804604B
:103B50001E480078002815D01D49A02008701D4976
:103B6000192008602C6117482C7004701A480470E2
:103B7000FFF766F8642002F0B1FFFEF7B7FF1420EC
:103B800002F0ACFF02F05AFC642002F0A7FF1348D9
:103B90000068134E002804D12869052805D00028A4
:103BA000BFD100F0FDF93470A9E60C4901208C3139
:103BB0000860091D0860094988310C60307002F006
:103BC000DFFC9CE6600C002000010020B701002013
:103BD0009C0C0020440700208B0000203C42005039
:103BE000B901002010B50446204602F0AFFF10BD19
:103BF00010B502480078FFF71BFB10BD1C00002029
:103C000010B5094C2078FFF733FB6078582801D0B5
:103C1000592807D1616A491C616203D0FFF728FB6C
:103C20000020606210BD00001C00002070B56448D8
:103C3000007905286DD006DC012809D0022817D0AC
:103C400004287DD12EE084287BD08528F9D1A0E0FE
:103C5000012000F075F95B480078002805D10120AB
:103C600058490870002058490870FEF7E5FBA5E0A8
:103C7000012056490870022000F062F9322002F05B
:103C80004FFFFFF7FFF800BF5148FDF773FA00BF81
:103C9000FEF7CCFF7D20000102F042FF00204B49DF
:103CA00008708BE0042000F04BF945484079A028CB
:103CB00000D183E042488079002802D101214048A8
:103CC000817101204349086000241FE061004248DF
:103CD000405A002819D040483030005D38494979B1
:103CE000884212D104213C4818300155344881796A
:103CF00039483C30015563000546543DEA5A0346B5
:103D0000195D0C3B185DFCF721FF641C0C2CDDD306
:103D100054E0052000F014F900241CE061002E4856
:103D2000405A002816D060002B491839085A2449F7
:103D3000098888420ED0052127482430015501E02A
:103D40003BE00BE06000244918390A5A00210520A5
:103D5000FCF716FD641C0C2CE0D32FE0002414E0CB
:103D600060001D491839085A1549098888420BD145
:103D700019483C30015D12488079814204D100210C
:103D800015481830015502E0641C0C2CE8D300BF24
:103D900014E000240DE060000F491839085A084962
:103DA0000988884204D100210B482430015502E0E3
:103DB000641C0C2CEFD300BF00E000BF00BF70BD3F
:103DC000C40C0020ED0000205A000020AD0B0020A4
:103DD00034420050A80C0020B819002010B5244827
:103DE000008824490988884241D1214800798228E5
:103DF00023D006DC04280FD0052817D0812834D121
:103E000004E084281DD085282FD127E000201A49FE
:103E1000086002F059F929E00020174908601548A8
:103E2000028800218420FCF7ABFC1FE011480288C7
:103E300000218520FCF7A4FC18E000200F49086051
:103E400014E00B4880790E490968884205D10B4877
:103E50000068022188430949086007E007480068B4
:103E6000052188430549086000E000BF00BF10BD80
:103E7000C40C0020CC0C0020A00C0020980C0020CA
:103E800044070020F8B5002635463446FDF780F893
:103E90001B48002101601A4F2837142002F040FE11
:103EA000002C02D13868002803D1761C032E00D1E3
:103EB0000124FCF78FFB002806D01149012008607F
:103EC000322002F02DFEF8BD012C17D138680028F1
:103ED00014D06D1C0A2DE0D1002000F01FFD084910
:103EE000012008604B20C00002F01AFEFDF7DAFD49
:103EF00005490448C860BFF3408FFEE70025CCE7C2
:103F0000384200500400FA0500ED00E001490020AD
:103F100088617047640C00200020074A00E0401CC4
:103F2000111849780B46413B192BF8D93229F6D0A4
:103F30000249C8617047000058160020A80B0020F5
:103F400010B5044604490A8880212143084600210F
:103F5000FCF716FC10BD0000C40C002010B50B4887
:103F60000B490860FDF75EF8094800680749884278
:103F70000BD1FDF7CFF8322002F0D2FD054B002225
:103F800005490648007802F06BFD10BDAA550000F7
:103F9000940C00205D3F0000C4090000CE0C0020FE
:103FA000F8B549A00068494E0090012474700020C3
:103FB000474D30702C70F078002804D0454905201A
:103FC000087002F0F7FD444F3878002814D0FDF750
:103FD00029F8002809D0414800684149884204D1A5
:103FE000FCF73AFC642002F09BFD3878002803D0EF
:103FF0003C48017801290BD00322C621684602F013
:10400000DDFE642002F08CFD3878002805D00FE03A
:104010000321017002F092FAF3E7FDF703F800289C
:1040200006D02E4800683049884201D1FDF772F869
:104030002E4908783071192801D9192002E0092881
:1040400001D209203071C0B2086002F0F7F9642093
:1040500002F066FD264902200870264804700120FF
:1040600000F05CFC00262E70FCF77EFBFCF7B2FA39
:1040700000280AD1322002F053FDFCF7E1FB322088
:1040800002F04EFD012001F013FD2C70FEF7CEFD75
:10409000FF20F53002F044FD7D20C00002F040FD1D
:1040A0001E24E0B202F08CF902F098F9052002F02B
:1040B00037FD641EF5D501F083FA642002F030FD6F
:1040C0002E7001F057FDF8BD10101000B401002053
:1040D000AD0B00203C02002058000020940C002072
:1040E00055AA00008B000020AA55000044070020BC
:1040F0008A000020E80000207047000009490020E5
:104100000C22424352189278002A05D0401CC0B2BB
:104110000A28F5D3FF2070470C220123424351188F
:104120008B707047BC10002000B50C48C1780B00A4
:10413000FDF710FF0A1206120606120606120612F4
:104140000649491D8A78002A06D10A4683680F323B
:10415000D25C8A700121017000BD0000D0010020F6
:10416000F8B5012001F048FF0446052002F0D8FC14
:104170002046264C264F274D00265A2808D0264890
:104180003E70182101602E6124482E70067035E0C3
:10419000022001F031FF3870052002F0C1FC03203D
:1041A00001F02AFF1C490860052002F0B9FC042038
:1041B00001F022FF0746052002F0B2FC052001F0C5
:1041C0001BFF2861052002F0ABFC062001F014FF64
:1041D0002870052002F0A4FC072001F00DFF0F4914
:1041E0000870052002F09CFC002F07D0012F07D09B
:1041F000022F07D0032F02D1032004E02670F8BD60
:10420000012000E002202070F8BD00008B0000209B
:104210009C0C00205800002044070020600C002067
:10422000F0B51E4D55262B4608336C681A46E05CE7
:10423000383A03271179552804D0E65400236B60DF
:10424000D7620CE0D06A401ED06204D0582905D055
:10425000592915D102E03046D7621CE00846884251
:1042600013D1582801D059280AD1916A491C91626A
:10427000032905D300219162516A491E516201D080
:104280005520F0BD01215162F0BD582801D05928B8
:1042900001D1022151621071F0BD0000DC0000204C
:1042A00010B5FCF7C9F8FEF7DBFE084802F038FC51
:1042B0000748084900680002000C0880082804D25A
:1042C0000322000212028018088010BDDC050000E5
:1042D0003C070020CC0C002070B5FCF785F90024C9
:1042E000022315490325154E0028154A0878B07099
:1042F00013D0042008601078002806D0012806D0CA
:10430000022806D0032812D105E0012011E018464A
:104310000FE028460DE020460BE00D60117828469E
:104320000029F4D0022904D00329F4D0137000200E
:1043300070BD107070BD000090000020A00B002028
:104340008B00002010B51148FCF714FF0620FFF782
:1043500049FC0E48001FFCF773FF0620FFF742FCE4
:104360000A48FCF76DFF0320FFF73CFC00BF07483D
:10437000001F006804460320FFF734FC0348FCF7E5
:10438000F9FE0620FFF72EFC204610BD2C420050FF
:1043900070B500268024002516E00D48FCF7EAFEE3
:1043A0000620FFF71FFC0A48FCF74AFF0620FFF72C
:1043B00019FC00BF0648001F0068002802D03046E4
:1043C0002043064664106D1C082DE6D3304670BDB0
:1043D0002C42005010B51048FCF7CCFE0620FFF729
:1043E00001FC0D48001FFCF72BFF3C20FFF7FAFBF8
:1043F0000948FCF725FF0620FFF7F4FB0648001FDD
:10440000FCF7B8FE0620FFF7EDFB0348FCF7B2FE11
:104410000620FFF7E7FB10BD2C420050F8B5364DE3
:10442000A2232978354CA02907D0A327A1292FD072
:10443000A22957D0A3295CD10FE001F055FDE8680F
:10444000002856D02B702046FCF7B5FF6169042088
:1044500001436161002028614BE02869401C28610C
:104460000128E8680FD9002801D08068077001F0A2
:104470003BFDA0202870E86800283AD02B70204629
:10448000FCF799FF35E0002833D00179C170F5E7DA
:1044900020684026B04320601949B0008A688243F2
:1044A0008A6005221207D3680343D360D36883432D
:1044B000D3608A6802438A60012212492046FCF7D1
:1044C000AFFB2068304320602068802108432060D3
:1044D00060690221084360616169042001436161F0
:1044E0002F7006E06869401C6861142803D9A12078
:1044F000287000206861F8BD940000200000024090
:1045000000020050F049020010B504461348FCF7C1
:1045100097FE1248001DFCF793FE02220A21104864
:10452000FCF782FE02220B210D48FCF77DFE0120E4
:104530000C4908600A2002F009FB0848FCF71AFE43
:104540001420FFF74FFB204600F060F8FFF7FAFE5B
:10455000002801D0012010BD0020FCE728420050B7
:1045600000400050880C002010B50A48FCF702FEFD
:104570000620FFF737FB0748001DFCF761FE062009
:10458000FFF730FB0348FCF75BFE0620FFF72AFB32
:1045900010BD00002842005070B5174C02220321C4
:1045A0002046FCF719FE022211462046FCF714FEB5
:1045B000124841680C221143416041690F221206E2
:1045C0009143E204891841610D490868FF221204F1
:1045D00002259043AA05104308600B4C01220949AB
:1045E0002046FCF71DFB6069284360616069042177
:1045F0000843606170BD0000404100504000005021
:1046000010E400E0F04902000000024070B50646E8
:10461000802400251CE01048FCF7ACFD0320FFF7C8
:10462000E1FA3046204204D00B48001FFCF708FE98
:1046300003E00948001FFCF79DFD0320FFF7D2FAB5
:104640000548FCF7FDFD0620FFF7CCFA64106D1C51
:10465000082DE0D370BD00002C420050F0B587B0AB
:104660002048019020482026039000240096042032
:10467000C027059002940494694606971B48FCF7EE
:1046800029FB1B48012505601A48019080200290F3
:1046900014480094001F049403900820164C0590C1
:1046A000694606972046FCF715FB114813494560FB
:1046B000086900090001284308610869F022904355
:1046C0003043086103210948FCF7FAFA0321204628
:1046D000FCF7F6FA0A490868FF22120490430860C2
:1046E00007B0F0BD14001A403411002000810050C2
:1046F00048020020B412002000820050008F0050B9
:1047000018E400E010B5FCF7BDFE0A4C2068042157
:1047100008432060FCF7C0FE2068022108432060A7
:104720000420FCF7BFFA044801680902090A016085
:1047300010BD000000001A4018E400E030B5049DF0
:10474000039C017042708370C47004710021856005
:10475000C16030BD01205521034A01E013181972D0
:10476000401EFBD270470000DC00002070470000B4
:10477000202005210907CA680243CA60CA6882432B
:10478000CA60054841690722120591434161826868
:1047900020210A43826070470002005010B516487D
:1047A00001680322120391430160826940218A4318
:1047B0008261C269114B9A430B041A43C261426978
:1047C0000A4342610E492A2008600E48016880228F
:1047D000090A0902114301600B49102008600C4CC2
:1047E0000323DB06094A0B212046FCF72FFB216837
:1047F00062061143216010BD40400050400040005F
:104800008041005004E400E000E100E040420F007D
:104810002000114010B5FFF703FD0B49097800296E
:1048200009D0012902D0022905D102E0FEF720FDBE
:1048300001E0FEF7FDFC0648044B00225021007801
:1048400002F00EF910BD00008A000020154800009B
:10485000AC00002010B5FFF7A1FFFFF74FFC0549A2
:10486000FF28087004D0044B0022502102F0F8F811
:1048700010BD0000AC0000201548000006480021D3
:104880004156032903DC01214156022901DD0120A3
:104890007047002070470000A80B002003480078F4
:1048A000042801D00020704701207047A80B002089
:1048B00003480068042801D9002070470120FCE764
:1048C000A00C00200148007C7047000080100020F0
:1048D0000148007C704700008010002070B50D4634
:1048E000002405E00A21FBF733FC30312955641C14
:1048F0000028F7D1002C02D1012430212970002199
:104900002955224605E0641E295C2B5D2B54401C72
:104910002955A042F7D3104670BD0000F0B5002421
:104920000C26062719490F2212250300FDF712FB5A
:104930000D080A0F0D15191D110F0D21252A18003C
:104940004C6200E04A62CC6209E04C620AE04C62D0
:1049500004E00A204A62C86205E04A62CA628C62C8
:10496000F0BD4A62CC628A62F0BDCD624E628D6259
:10497000F0BDCD6209204A6202E04F620420CE629F
:104980008862F0BDCF628F624E62F0BDE800002009
:1049900070B5194841690722120291434161174DD0
:1049A000C3040A2215212846FCF750FA1449086866
:1049B0000024000A0002802210430860890628466D
:1049C000FCF71CFA2968A803014329600D4801225D
:1049D000C462846244620C4C11462046FCF706FC1B
:1049E000012202212046FCF701FC0122032120467E
:1049F000FCF7FCFB70BD000000020050000001400D
:104A000008E400E0E8000020C0400050F8B5FE488F
:104A100001250078FD4E0024FD4F00287ED0FD4882
:104A20000068002801D1FBF7E7FDFB480178022967
:104A300002D1BC71FC710470F8480078002802D0E3
:104A4000387A401C3872387A322801D1FBF78CFE54
:104A5000387A962804D9F1483C720470FBF7F0FECE
:104A6000EF4800780028386C01D0401C38640128D9
:104A700002D0322806D050E0EA480078002876D0EC
:104A80003D7174E0E7480078002845D0E64800789A
:104A9000002802D0FBF768FE01E0FBF7D1FE30787A
:104AA00001281ED001F0ACFE002809D1FBF7D4FE8E
:104AB000642002F035F801F041FD642002F030F886
:104AC000FCF7B0FAD9480460D9480168D948814256
:104AD00022D1FBF7C1FE642002F022F8FCF7F6FABF
:104AE0001AE0FCF79FFAD2480168D348814204D10A
:104AF000FEF7B0F9642002F013F801F081FE0028FF
:104B000001D001F0FFFCC9480460C9480168CA48E7
:104B1000814201D1FCF7FEFA3C7100E042E3386CBF
:104B2000DC2824D9BE483C640470BF4800780028C3
:104B30001DD0C248057001F063FE002803D1FFF7C5
:104B4000B7FE002811D1FEF785F9642001F0E8FFD7
:104B5000FBF70AFE01F0D6FC642001F0E1FFFCF750
:104B6000D9FAFBF71BFFB6480570AF480470B3488D
:104B70000178002907D0787A401CC0B278723D7164
:104B8000582803D00DE03C717C720AE0491CAB4808
:104B9000C9B27C7201702A2900D90470302000F05B
:104BA00087FFA84801780029796D01D0491C7965F3
:104BB000142901D37C650470A3480078411E27297D
:104BC0003FD2F978491CC9B2F970142939D9401C6F
:104BD0009D4AC0B21070022848D0032848D09B4993
:104BE000042853D0052845D0062851D0072851D095
:104BF0000C2843D00D283BD095490E2846D00F28CD
:104C000038D0102844D0112844D0162838D017287E
:104C10002ED09049182839D019282BD01A2837D0EF
:104C20001B2837D020282DD0212821D08A4922289E
:104C30002CD023281ED024282AD025282AD014702E
:104C4000FC7081480078282832D9F978491CC9B20B
:104C5000F9701E292CD982281ED084281ED08828BD
:104C60001ED090281ED0C0281ED020E02B200AE0A5
:104C70002A2008E0292006E0113804E02C2002E078
:104C80002E2000E02D2000F013FFD9E70878F3E78D
:104C90008878F1E7C878EFE7202006E0212004E0DB
:104CA000222002E0232000E0242000F001FFFC701D
:104CB000634800780128B86D01D1401CB86502280E
:104CC00003D1FCF763FDFBF769FEB86DA02801D1A5
:104CD000FCF75CFDB86DDC2833D97C71BC65FCF752
:104CE00055FD5748007801282BD1FCF79BF9002887
:104CF00025D04F4801684F48814220D1FCF7BAF9CE
:104D000056480078002823D0FFF7D2FD00281FD096
:104D1000FCF73CFD45484549006828430860FBF71F
:104D20003DFEFCF7D3F97D20000101F0F9FE3020B3
:104D300000F0BEFE3D487C720460FBF72FFE404849
:104D40000470386EC82812D945483C66047014E0D7
:104D5000FBF724FEFCF71AFDFCF7B8F97D200001F3
:104D600001F0DEFE302000F0A3FE7C72E7E73C4954
:104D70000978002901D0401C3866FDF781FF3A7898
:104D8000082A08D00021084202D03869012804D03E
:104D9000052A10D025E00121F5E73C61FFF77EFDF3
:104DA000002805D000F03AFC142001F0B9FEEBE237
:104DB000FEF784F8E8E2B86E401CB8661E2802D9F7
:104DC000FCF758F9BC6625480078002809D1F86D31
:104DD000002802D0401EF86503E00A20F86505208F
:104DE000F860B86C0F284ED1FCF71CF91048016828
:104DF0001048814247D1FCF791FDFFF763FD002881
:104E000041D1184800682FE08A0000208B00002064
:104E1000E80000205C4200502100002061000020DA
:104E20005E0000205800002060000020980C002048
:104E3000940C002055AA0000AA5500005A0000203A
:104E4000A60C0020AD0B00200C0400201404002050
:104E500010040020180400201C040020C00C0020B6
:104E6000B60100204407002000280CD0FFF72AFDDF
:104E7000002808D1FE480068002804D0142001F062
:104E80004FFEFCF763FDFB480078002819D0B86C92
:104E9000401CB8641E2814D9F7480078022810D0A6
:104EA000BC64FCF7BFF8F5480268F5498A4202D1B4
:104EB000FCF734FD05E00168F248814201D1FCF7BE
:104EC000FFFE3878092824D0EB480078022870D0FB
:104ED000FDF7D6FE00286DD0387808286AD0082063
:104EE0003C623870FFF71AFD012001F03FFA01F033
:104EF00075FA052001F014FE347002203865DC4894
:104F0000E14902680A60142101600120FDF76CFF8D
:104F100003E1FDF7B5FE002824D0386D002821D12B
:104F200008203870FFF7FAFC00F04AFBC82001F0B7
:104F3000F7FDD6480560D54824380460001F056099
:104F4000FDF7BCFEC82001F0EBFD01F0E7FEC8480C
:104F50003D653C62CC4902680A6014210160092069
:104F6000FDF742FFF869002809D0401EF861FFF7FD
:104F700085FC002876D0B869002860D072E0FFF781
:104F80007DFC002804D0BC66B869002847D054E0F6
:104F9000F86C002802D0401EF86403E00820F86492
:104FA0000520F860B869002805D0052000F080FDD4
:104FB00012E0A5E07AE0F86D401CF8657D280BD979
:104FC000F86B002808D0401EF863B148007800282C
:104FD00001D1FFF753FCFC65BC61B96E0846FF3890
:104FE0002D3806D1FDF712FE142001F099FDA948D5
:104FF0000470A949B86E88420AD9A84800780128E7
:1050000005D1A7480078002801D1FDF707FEBC664E
:10501000386E002826D1B86E401CB86622E0042005
:1050200000F046FDFF20F53001F07AFD2D203C66B2
:10503000F8639B48047099480470BD6112E0042035
:1050400000F036FDFF20F53001F06AFD2D20F863F9
:1050500090480470924804709248BD6104708F4873
:105060003C660470894810380068002855D0B8782C
:10507000002852D12D20F8638648BD7005708A48FB
:105080000470FDF7E5FD142001F04AFDFDF7BEFDBB
:1050900078480078002804D08448057084487C72E1
:1050A000047014203C6401F03BFD36E07748103872
:1050B0000068002831D07B48057034702D20F863DB
:1050C000794804701E2001F02BFD704844380560BB
:1050D000FDF7B6FDFBF7BCF9FDF7C2FFC82001F0F4
:1050E0001FFD74483178405C3870624800780028B1
:1050F00004D06E4805706E487C7204703C640CE00D
:10510000624810380068002807D0664805701E20E5
:1051100001F006FD347000F09BFB5C48103800681D
:10512000002800D1BC70386D002817D0FDF7A8FD0D
:10513000002813D1386D02281ED009203870FBF7E3
:1051400087F9FDF7A9FD3878FFF7E8FB4E480168BD
:10515000474801600720FDF747FE3C657869401C21
:105160007861822862D9544854490078544A012809
:105170004ED002285AD107E0022030704248016820
:105180003B4801600120E6E7086890424ED3FBF7F8
:105190000DFA002807D047483178405C3870FFF797
:1051A000BDFBFC7142E04748007800285ED1F879E9
:1051B000002806D001280DD0022814D003281BD0C7
:1051C00083E0062000F074FCFF202D3001F0A8FCE5
:1051D000FD717AE0062000F06BFCFF202D3001F01D
:1051E0009FFC022012E0062000F062FCFF202D3020
:1051F00001F096FC032009E0062000F059FC01F0C4
:105200001DF9FF202D3001F08BFC0420F8715CE0CB
:10521000086890420AD3FBF7C9F900280BD025484B
:105220003178405C3870FFF779FBBC71FDF728FDE1
:1052300000284CD04DE023480078002816D1B879DA
:10524000002802D0012808D03FE0062000F030FC02
:10525000FF202D3001F064FCBD71062000F028FC19
:10526000FF202D3001F05CFC02202DE05FE000000B
:1052700044070020580000208A000020940C0020E1
:1052800055AA0000AA5500002402002078420050D0
:10529000610C0020620C002026020000AC0B0020F4
:1052A00059000020B4010020880000205E0000208A
:1052B0005A0000208C000020CC0100202802002091
:1052C00088130000B6010020B871BD630FE03248BA
:1052D0000470FDF7D5FC00280CD02F480078012879
:1052E00008D12E480078022804D00220B863FDF7C8
:1052F00051FB3FE0FFF7E6FA002803D12848006899
:10530000002815D125480078022811D03878B863D4
:10531000FDF740FB786E00282CD122480078002849
:1053200028D03078012825D1FCF720FB7D6621E0CC
:10533000786E002809D01B480078002804D0307807
:10534000012801D1FCF72AFB7C66F86800280AD006
:1053500012480078022806D00020FFF7DFFAF8682C
:10536000401EF86006E010480078002802D1387826
:10537000FFF7D4FA09480078022805D1FBF716F99F
:10538000002801D1FEF77EFD084B00221E2178780F
:1053900001F066FBF8BD00005C0000208A000020E0
:1053A0004407002058000020B70100200D4A0000EB
:1053B00010B5FEF7A3FE0549FF28487004D0044B42
:1053C00000221E2101F04CFB10BD0000E80000206F
:1053D0000D4A000010B503213D2000F033FDFEF71B
:1053E0008BFE0B4800780B490870094840784870DC
:1053F00007488078887008460078042803DC08464F
:105400000078012801DA002010BD0120FCE700002F
:105410007C190020900C00200024FBF714FFFAF701
:10542000F7FE50A0FAF74EFF51A1F82001F05CFC06
:10543000FFF7BEFFFCF7B0FFFFF70CFAFDF788FDA2
:1054400000F05EFFFBF74CFB00F0F2F84B48012543
:1054500005604A487C300560642001F061FB474EDE
:10546000203608E0641C142001F05AFB322C02D9CB
:105470004348057006E03068002803D0FBF7A0F829
:105480000028EFD1FEF76CFE3E483F4C00782070BC
:10549000192801D9192002E0092801D20920207019
:1054A00004220021394800F05DFC002805D0384F67
:1054B00000263878002802D003E0FDF74DFA354881
:1054C0000670FBF77DF8002801D033480560002204
:1054D00007213248FBF794FE2F480068002811D0BE
:1054E0002F48FBF76FFFFFF70DF92E4800680028E3
:1054F00002D0052803D01BE0FEF752FD18E001F0B2
:105500003FF815E01D4830300068002804D02648D8
:105510000570204806703E7024483978405C244964
:105520000870FFF7FBF900F093F916482178016045
:10553000FF2401341F4A2146002001F04FFA1D4A82
:105540002146200201F0C4F91B4C1C4FFDF7D8FA8C
:1055500000F09EFDFCF79CFA2068284320603E6026
:10556000F4E700006D61696E2D2D30312E0D0A00BB
:105570002020636F6465313A2000000038420050FB
:10558000B701002044070020B8010020B00100202E
:105590008B00002088000020540000204040005074
:1055A00080BB000068000020B40100208C000020B7
:1055B000E8000020800F0020004000400001005063
:1055C00010B5012000F0E8FE00F008FF032001F014
:1055D000A7FA10BD10B51048FBF7CCFD0320FEF76D
:1055E00001FB0D48001FFBF72BFE0320FEF7FAFA24
:1055F0000948FBF725FE0620FEF7F4FA0648FBF7FC
:10560000B9FD0620FEF7EEFA0348001FFBF718FE6F
:105610000320FEF7E7FA10BD2C42005000B502A0AF
:10562000FAF750FE00BD000041542B43410000003A
:1056300070B53F48002404603E4D012209212846F0
:10564000FBF7DEFD01220E212846FBF7D9FD394E7E
:105650000122403E0E213046FBF7D2FD35480122A3
:105660000D214030FBF7CCFD314830380460012279
:105670000D213046FBF7C4FD2D481038046001228F
:1056800005212846FBF7BCFD012204212846FBF733
:10569000B7FD294C022203212046FBF7B1FD02226F
:1056A00011462046FBF7ACFD02220B213046FBF7EA
:1056B000A7FD02220A213046FBF7A2FD1F494868D8
:1056C0000C221043486048690F2212069043E204FE
:1056D0008018486100220F213046FBF791FD00221F
:1056E00008212846FBF78CFD11480121603001603C
:1056F000001D0160001D01600E4C0A4680342046EA
:10570000FBF77EFD012202212046FBF779FD0122F5
:1057100003212046FBF774FD00220A212846FBF7EF
:105720006FFD002207212846FBF76AFD70BD0000CF
:105730006442005040400050404100504000005042
:1057400070B53F48002404603E4D012209212846DF
:10575000FBF760FD01220E212846FBF75BFD394E69
:105760000122403E0E213046FBF754FD3548012210
:105770000D214030FBF74EFD3148303804600122E6
:105780000D213046FBF746FD2D48103804600122FC
:1057900005212846FBF73EFD012204212846FBF7A0
:1057A00039FD294C022203212046FBF733FD02225A
:1057B00011462046FBF72EFD02220B213046FBF757
:1057C00029FD02220A213046FBF724FD1F494868C3
:1057D0000C221043486048690F2212069043E204ED
:1057E0008018486100220F213046FBF713FD00228C
:1057F00008212846FBF70EFD1148012160300160A9
:10580000001D0160001D01600E4C0A4680342046D8
:10581000FBF700FD012202212046FBF7FBFC0122E1
:1058200003212046FBF7F6FC00220A212846FBF75D
:10583000F1FC002207212846FBF7ECFC70BD0000BC
:105840006442005040400050404100504000005031
:10585000F8B5654D002465486C700126067000F0AF
:1058600007FC6348AE700178002901D00121017066
:1058700060492D20086060497820086068795F4F92
:1058800000280AD12878002800D03C705C4839787C
:10589000405C5C490870FFF741F85348447100F0E0
:1058A000F5F9FEF75DFC584D287800281AD000F075
:1058B00045FE142001F034F9FBF7B4FB5248534D78
:1058C0000078534E2C60316800280ED05148814238
:1058D00010D1FBF7FBFB7D20000101F021F9FCF763
:1058E00099F80BE000F00EFEE3E74B48814201D14E
:1058F000FBF710FC7D20C00001F012F93A48C07897
:10590000002802D00220387004E0374800780028D0
:1059100000D03C7000F092FF344F3C70FAF75AFE12
:10592000002806D03048C078002802D02F2000F090
:10593000BFF801F0F3F901203870FCF7ADFAFDF77C
:1059400013FB36483C700078002804D1FDF79AF824
:10595000642001F0E5F8FCF7B7FCFCF7B5FC032088
:1059600000F04AFB2E4F3860052001F0D9F8386866
:10597000192801D9192002E0092801D2092038602C
:10598000FFF71EFE204F3878002804D000F038FFC3
:10599000002807D00CE0FFF71DFD002808D100F01B
:1059A000B1FD01E000F0CAFD7D20C00001F0B8F8B3
:1059B000FBF738FB00280DD038782C6031680028C0
:1059C0000BD01448814201D1FBF780FB7D20C00041
:1059D00001F0A6F801F0A2F9F8BD0F488142F5D117
:1059E000FBF798FBF2E70000B4010020AD0B0020AC
:1059F0008A00002024010020FC0000208B000020F1
:105A00008C000020E800002058000020980C0020A6
:105A1000940C002055AA0000AA550000600C00203C
:105A20004407002010B500213C2000F023F8BB21E2
:105A30003F2000F01FF8B021402000F01BF80021AB
:105A4000412000F017F810BD70B50446002108464B
:105A500000F010F8064D285D801CC1B23D2000F01A
:105A600009F8285D801CC1B23E2000F003F870BD2B
:105A7000D00C00207CB505460C4C012000900E4651
:105A80002046022300229E2101941038FEF756FE84
:105A90006570A670A2202070204600211038FCF707
:105AA000A1FC2078A228FCD07CBD0000201A002098
:105AB000F8B5234D044668780026012807D1012C4B
:105AC0003DD1AE621F486E708168A14381601E4F58
:105AD0002C63B868A04232D91C4901200870FCF739
